{
  "_format": "hh-sol-artifact-1",
  "contractName": "ERC20",
  "sourceName": "contracts/layer_1/ERC1400/ERC20/ERC20.sol",
  "abi": [
    {
      "inputs": [
        {
          "internalType": "address",
          "name": "account",
          "type": "address"
        },
        {
          "internalType": "bytes32",
          "name": "role",
          "type": "bytes32"
        }
      ],
      "name": "AccountHasNoRole",
      "type": "error"
    },
    {
      "inputs": [
        {
          "internalType": "address",
          "name": "account",
          "type": "address"
        },
        {
          "internalType": "bytes32[]",
          "name": "roles",
          "type": "bytes32[]"
        }
      ],
      "name": "AccountHasNoRoles",
      "type": "error"
    },
    {
      "inputs": [
        {
          "internalType": "address",
          "name": "account",
          "type": "address"
        }
      ],
      "name": "AccountIsBlocked",
      "type": "error"
    },
    {
      "inputs": [],
      "name": "AllBusinessLogicKeysMustBeenInformed",
      "type": "error"
    },
    {
      "inputs": [],
      "name": "AlreadyInitialized",
      "type": "error"
    },
    {
      "inputs": [
        {
          "internalType": "bytes32",
          "name": "businessLogicKey",
          "type": "bytes32"
        }
      ],
      "name": "BusinessLogicKeyDuplicated",
      "type": "error"
    },
    {
      "inputs": [
        {
          "internalType": "bytes32",
          "name": "businessLogicKey",
          "type": "bytes32"
        }
      ],
      "name": "BusinessLogicNotActive",
      "type": "error"
    },
    {
      "inputs": [
        {
          "internalType": "uint256",
          "name": "version",
          "type": "uint256"
        }
      ],
      "name": "BusinessLogicVersionDoesNotExist",
      "type": "error"
    },
    {
      "inputs": [],
      "name": "ExpirationNotReached",
      "type": "error"
    },
    {
      "inputs": [],
      "name": "FactorIsZero",
      "type": "error"
    },
    {
      "inputs": [
        {
          "internalType": "address",
          "name": "spender",
          "type": "address"
        },
        {
          "internalType": "address",
          "name": "from",
          "type": "address"
        }
      ],
      "name": "InsufficientAllowance",
      "type": "error"
    },
    {
      "inputs": [
        {
          "internalType": "address",
          "name": "account",
          "type": "address"
        },
        {
          "internalType": "uint256",
          "name": "balance",
          "type": "uint256"
        },
        {
          "internalType": "uint256",
          "name": "value",
          "type": "uint256"
        },
        {
          "internalType": "bytes32",
          "name": "partition",
          "type": "bytes32"
        }
      ],
      "name": "InsufficientBalance",
      "type": "error"
    },
    {
      "inputs": [
        {
          "internalType": "address",
          "name": "user",
          "type": "address"
        },
        {
          "internalType": "uint256",
          "name": "requestedUnfreeze",
          "type": "uint256"
        },
        {
          "internalType": "uint256",
          "name": "availableFrozen",
          "type": "uint256"
        },
        {
          "internalType": "bytes32",
          "name": "partition",
          "type": "bytes32"
        }
      ],
      "name": "InsufficientFrozenBalance",
      "type": "error"
    },
    {
      "inputs": [
        {
          "internalType": "address",
          "name": "account",
          "type": "address"
        },
        {
          "internalType": "bytes32",
          "name": "partition",
          "type": "bytes32"
        }
      ],
      "name": "InvalidPartition",
      "type": "error"
    },
    {
      "inputs": [],
      "name": "IssuanceIsClosed",
      "type": "error"
    },
    {
      "inputs": [],
      "name": "LockExpirationNotReached",
      "type": "error"
    },
    {
      "inputs": [
        {
          "internalType": "uint256",
          "name": "maxSupply",
          "type": "uint256"
        }
      ],
      "name": "MaxSupplyReached",
      "type": "error"
    },
    {
      "inputs": [
        {
          "internalType": "bytes32",
          "name": "partition",
          "type": "bytes32"
        },
        {
          "internalType": "uint256",
          "name": "maxSupply",
          "type": "uint256"
        }
      ],
      "name": "MaxSupplyReachedForPartition",
      "type": "error"
    },
    {
      "inputs": [
        {
          "internalType": "bytes32",
          "name": "partition",
          "type": "bytes32"
        },
        {
          "internalType": "uint256",
          "name": "newMaxSupplyByPartition",
          "type": "uint256"
        },
        {
          "internalType": "uint256",
          "name": "maxSupply",
          "type": "uint256"
        }
      ],
      "name": "NewMaxSupplyByPartitionTooHigh",
      "type": "error"
    },
    {
      "inputs": [],
      "name": "NewMaxSupplyCannotBeZero",
      "type": "error"
    },
    {
      "inputs": [
        {
          "internalType": "bytes32",
          "name": "partition",
          "type": "bytes32"
        },
        {
          "internalType": "uint256",
          "name": "maxSupply",
          "type": "uint256"
        },
        {
          "internalType": "uint256",
          "name": "totalSupply",
          "type": "uint256"
        }
      ],
      "name": "NewMaxSupplyForPartitionTooLow",
      "type": "error"
    },
    {
      "inputs": [
        {
          "internalType": "uint256",
          "name": "maxSupply",
          "type": "uint256"
        },
        {
          "internalType": "uint256",
          "name": "totalSupply",
          "type": "uint256"
        }
      ],
      "name": "NewMaxSupplyTooLow",
      "type": "error"
    },
    {
      "inputs": [],
      "name": "NotAllowedInMultiPartitionMode",
      "type": "error"
    },
    {
      "inputs": [],
      "name": "NotAutocalling",
      "type": "error"
    },
    {
      "inputs": [],
      "name": "OnlyDelegateAllowed",
      "type": "error"
    },
    {
      "inputs": [
        {
          "internalType": "bytes32",
          "name": "partition",
          "type": "bytes32"
        }
      ],
      "name": "PartitionNotAllowedInSinglePartitionMode",
      "type": "error"
    },
    {
      "inputs": [
        {
          "internalType": "address",
          "name": "account",
          "type": "address"
        },
        {
          "internalType": "bytes32",
          "name": "role",
          "type": "bytes32"
        }
      ],
      "name": "PartitionsAreProtectedAndNoRole",
      "type": "error"
    },
    {
      "inputs": [],
      "name": "PartitionsAreUnProtected",
      "type": "error"
    },
    {
      "inputs": [
        {
          "internalType": "uint256",
          "name": "rolesLength",
          "type": "uint256"
        },
        {
          "internalType": "uint256",
          "name": "activesLength",
          "type": "uint256"
        }
      ],
      "name": "RolesAndActivesLengthMismatch",
      "type": "error"
    },
    {
      "inputs": [
        {
          "internalType": "uint256",
          "name": "snapshotId",
          "type": "uint256"
        }
      ],
      "name": "SnapshotIdDoesNotExists",
      "type": "error"
    },
    {
      "inputs": [],
      "name": "SnapshotIdNull",
      "type": "error"
    },
    {
      "inputs": [],
      "name": "SpenderWithZeroAddress",
      "type": "error"
    },
    {
      "inputs": [],
      "name": "TokenIsNotControllable",
      "type": "error"
    },
    {
      "inputs": [],
      "name": "TokenIsPaused",
      "type": "error"
    },
    {
      "inputs": [],
      "name": "TokenIsUnpaused",
      "type": "error"
    },
    {
      "inputs": [
        {
          "internalType": "address",
          "name": "operator",
          "type": "address"
        },
        {
          "internalType": "address",
          "name": "tokenHolder",
          "type": "address"
        },
        {
          "internalType": "bytes32",
          "name": "partition",
          "type": "bytes32"
        }
      ],
      "name": "Unauthorized",
      "type": "error"
    },
    {
      "inputs": [],
      "name": "WalletRecovered",
      "type": "error"
    },
    {
      "inputs": [],
      "name": "WrongExpirationTimestamp",
      "type": "error"
    },
    {
      "inputs": [],
      "name": "WrongLockId",
      "type": "error"
    },
    {
      "inputs": [],
      "name": "WrongSignature",
      "type": "error"
    },
    {
      "inputs": [
        {
          "internalType": "uint256",
          "name": "timeStamp",
          "type": "uint256"
        }
      ],
      "name": "WrongTimestamp",
      "type": "error"
    },
    {
      "inputs": [],
      "name": "ZeroAddressNotAllowed",
      "type": "error"
    },
    {
      "inputs": [],
      "name": "ZeroKeyNotValidForBusinessLogic",
      "type": "error"
    },
    {
      "inputs": [],
      "name": "ZeroOwnerAddress",
      "type": "error"
    },
    {
      "inputs": [],
      "name": "ZeroPartition",
      "type": "error"
    },
    {
      "inputs": [],
      "name": "ZeroValue",
      "type": "error"
    },
    {
      "anonymous": false,
      "inputs": [
        {
          "indexed": true,
          "internalType": "address",
          "name": "operator",
          "type": "address"
        },
        {
          "indexed": false,
          "internalType": "uint256",
          "name": "factor",
          "type": "uint256"
        },
        {
          "indexed": false,
          "internalType": "uint8",
          "name": "decimals",
          "type": "uint8"
        }
      ],
      "name": "AdjustmentBalanceSet",
      "type": "event"
    },
    {
      "anonymous": false,
      "inputs": [
        {
          "indexed": true,
          "internalType": "address",
          "name": "owner",
          "type": "address"
        },
        {
          "indexed": true,
          "internalType": "address",
          "name": "spender",
          "type": "address"
        },
        {
          "indexed": false,
          "internalType": "uint256",
          "name": "value",
          "type": "uint256"
        }
      ],
      "name": "Approval",
      "type": "event"
    },
    {
      "anonymous": false,
      "inputs": [
        {
          "indexed": true,
          "internalType": "address",
          "name": "operator",
          "type": "address"
        },
        {
          "indexed": true,
          "internalType": "address",
          "name": "tokenHolder",
          "type": "address"
        }
      ],
      "name": "AuthorizedOperator",
      "type": "event"
    },
    {
      "anonymous": false,
      "inputs": [
        {
          "indexed": true,
          "internalType": "bytes32",
          "name": "partition",
          "type": "bytes32"
        },
        {
          "indexed": true,
          "internalType": "address",
          "name": "operator",
          "type": "address"
        },
        {
          "indexed": true,
          "internalType": "address",
          "name": "tokenHolder",
          "type": "address"
        }
      ],
      "name": "AuthorizedOperatorByPartition",
      "type": "event"
    },
    {
      "anonymous": false,
      "inputs": [
        {
          "indexed": true,
          "internalType": "address",
          "name": "operator",
          "type": "address"
        },
        {
          "indexed": true,
          "internalType": "address",
          "name": "tokenHolder",
          "type": "address"
        },
        {
          "indexed": false,
          "internalType": "bytes32",
          "name": "partition",
          "type": "bytes32"
        },
        {
          "indexed": false,
          "internalType": "uint256",
          "name": "clearingId",
          "type": "uint256"
        },
        {
          "components": [
            {
              "internalType": "uint256",
              "name": "amount",
              "type": "uint256"
            },
            {
              "internalType": "uint256",
              "name": "expirationTimestamp",
              "type": "uint256"
            },
            {
              "internalType": "address",
              "name": "escrow",
              "type": "address"
            },
            {
              "internalType": "address",
              "name": "to",
              "type": "address"
            },
            {
              "internalType": "bytes",
              "name": "data",
              "type": "bytes"
            }
          ],
          "indexed": false,
          "internalType": "struct Hold",
          "name": "hold",
          "type": "tuple"
        },
        {
          "indexed": false,
          "internalType": "uint256",
          "name": "expirationDate",
          "type": "uint256"
        },
        {
          "indexed": false,
          "internalType": "bytes",
          "name": "data",
          "type": "bytes"
        },
        {
          "indexed": false,
          "internalType": "bytes",
          "name": "operatorData",
          "type": "bytes"
        }
      ],
      "name": "ClearedHoldByPartition",
      "type": "event"
    },
    {
      "anonymous": false,
      "inputs": [
        {
          "indexed": true,
          "internalType": "address",
          "name": "operator",
          "type": "address"
        },
        {
          "indexed": true,
          "internalType": "address",
          "name": "tokenHolder",
          "type": "address"
        },
        {
          "indexed": false,
          "internalType": "bytes32",
          "name": "partition",
          "type": "bytes32"
        },
        {
          "indexed": false,
          "internalType": "uint256",
          "name": "clearingId",
          "type": "uint256"
        },
        {
          "components": [
            {
              "internalType": "uint256",
              "name": "amount",
              "type": "uint256"
            },
            {
              "internalType": "uint256",
              "name": "expirationTimestamp",
              "type": "uint256"
            },
            {
              "internalType": "address",
              "name": "escrow",
              "type": "address"
            },
            {
              "internalType": "address",
              "name": "to",
              "type": "address"
            },
            {
              "internalType": "bytes",
              "name": "data",
              "type": "bytes"
            }
          ],
          "indexed": false,
          "internalType": "struct Hold",
          "name": "hold",
          "type": "tuple"
        },
        {
          "indexed": false,
          "internalType": "uint256",
          "name": "expirationDate",
          "type": "uint256"
        },
        {
          "indexed": false,
          "internalType": "bytes",
          "name": "data",
          "type": "bytes"
        },
        {
          "indexed": false,
          "internalType": "bytes",
          "name": "operatorData",
          "type": "bytes"
        }
      ],
      "name": "ClearedHoldFromByPartition",
      "type": "event"
    },
    {
      "anonymous": false,
      "inputs": [
        {
          "indexed": true,
          "internalType": "address",
          "name": "operator",
          "type": "address"
        },
        {
          "indexed": true,
          "internalType": "address",
          "name": "tokenHolder",
          "type": "address"
        },
        {
          "indexed": false,
          "internalType": "bytes32",
          "name": "partition",
          "type": "bytes32"
        },
        {
          "indexed": false,
          "internalType": "uint256",
          "name": "clearingId",
          "type": "uint256"
        },
        {
          "components": [
            {
              "internalType": "uint256",
              "name": "amount",
              "type": "uint256"
            },
            {
              "internalType": "uint256",
              "name": "expirationTimestamp",
              "type": "uint256"
            },
            {
              "internalType": "address",
              "name": "escrow",
              "type": "address"
            },
            {
              "internalType": "address",
              "name": "to",
              "type": "address"
            },
            {
              "internalType": "bytes",
              "name": "data",
              "type": "bytes"
            }
          ],
          "indexed": false,
          "internalType": "struct Hold",
          "name": "hold",
          "type": "tuple"
        },
        {
          "indexed": false,
          "internalType": "uint256",
          "name": "expirationDate",
          "type": "uint256"
        },
        {
          "indexed": false,
          "internalType": "bytes",
          "name": "data",
          "type": "bytes"
        },
        {
          "indexed": false,
          "internalType": "bytes",
          "name": "operatorData",
          "type": "bytes"
        }
      ],
      "name": "ClearedOperatorHoldByPartition",
      "type": "event"
    },
    {
      "anonymous": false,
      "inputs": [
        {
          "indexed": true,
          "internalType": "address",
          "name": "operator",
          "type": "address"
        },
        {
          "indexed": true,
          "internalType": "address",
          "name": "tokenHolder",
          "type": "address"
        },
        {
          "indexed": false,
          "internalType": "bytes32",
          "name": "partition",
          "type": "bytes32"
        },
        {
          "indexed": false,
          "internalType": "uint256",
          "name": "clearingId",
          "type": "uint256"
        },
        {
          "indexed": false,
          "internalType": "uint256",
          "name": "amount",
          "type": "uint256"
        },
        {
          "indexed": false,
          "internalType": "uint256",
          "name": "expirationDate",
          "type": "uint256"
        },
        {
          "indexed": false,
          "internalType": "bytes",
          "name": "data",
          "type": "bytes"
        },
        {
          "indexed": false,
          "internalType": "bytes",
          "name": "operatorData",
          "type": "bytes"
        }
      ],
      "name": "ClearedOperatorRedeemByPartition",
      "type": "event"
    },
    {
      "anonymous": false,
      "inputs": [
        {
          "indexed": true,
          "internalType": "address",
          "name": "operator",
          "type": "address"
        },
        {
          "indexed": true,
          "internalType": "address",
          "name": "tokenHolder",
          "type": "address"
        },
        {
          "indexed": true,
          "internalType": "address",
          "name": "to",
          "type": "address"
        },
        {
          "indexed": false,
          "internalType": "bytes32",
          "name": "partition",
          "type": "bytes32"
        },
        {
          "indexed": false,
          "internalType": "uint256",
          "name": "clearingId",
          "type": "uint256"
        },
        {
          "indexed": false,
          "internalType": "uint256",
          "name": "amount",
          "type": "uint256"
        },
        {
          "indexed": false,
          "internalType": "uint256",
          "name": "expirationDate",
          "type": "uint256"
        },
        {
          "indexed": false,
          "internalType": "bytes",
          "name": "data",
          "type": "bytes"
        },
        {
          "indexed": false,
          "internalType": "bytes",
          "name": "operatorData",
          "type": "bytes"
        }
      ],
      "name": "ClearedOperatorTransferByPartition",
      "type": "event"
    },
    {
      "anonymous": false,
      "inputs": [
        {
          "indexed": true,
          "internalType": "address",
          "name": "operator",
          "type": "address"
        },
        {
          "indexed": true,
          "internalType": "address",
          "name": "tokenHolder",
          "type": "address"
        },
        {
          "indexed": false,
          "internalType": "bytes32",
          "name": "partition",
          "type": "bytes32"
        },
        {
          "indexed": false,
          "internalType": "uint256",
          "name": "clearingId",
          "type": "uint256"
        },
        {
          "indexed": false,
          "internalType": "uint256",
          "name": "amount",
          "type": "uint256"
        },
        {
          "indexed": false,
          "internalType": "uint256",
          "name": "expirationDate",
          "type": "uint256"
        },
        {
          "indexed": false,
          "internalType": "bytes",
          "name": "data",
          "type": "bytes"
        },
        {
          "indexed": false,
          "internalType": "bytes",
          "name": "operatorData",
          "type": "bytes"
        }
      ],
      "name": "ClearedRedeemByPartition",
      "type": "event"
    },
    {
      "anonymous": false,
      "inputs": [
        {
          "indexed": true,
          "internalType": "address",
          "name": "operator",
          "type": "address"
        },
        {
          "indexed": true,
          "internalType": "address",
          "name": "tokenHolder",
          "type": "address"
        },
        {
          "indexed": false,
          "internalType": "bytes32",
          "name": "partition",
          "type": "bytes32"
        },
        {
          "indexed": false,
          "internalType": "uint256",
          "name": "clearingId",
          "type": "uint256"
        },
        {
          "indexed": false,
          "internalType": "uint256",
          "name": "amount",
          "type": "uint256"
        },
        {
          "indexed": false,
          "internalType": "uint256",
          "name": "expirationDate",
          "type": "uint256"
        },
        {
          "indexed": false,
          "internalType": "bytes",
          "name": "data",
          "type": "bytes"
        },
        {
          "indexed": false,
          "internalType": "bytes",
          "name": "operatorData",
          "type": "bytes"
        }
      ],
      "name": "ClearedRedeemFromByPartition",
      "type": "event"
    },
    {
      "anonymous": false,
      "inputs": [
        {
          "indexed": true,
          "internalType": "address",
          "name": "operator",
          "type": "address"
        },
        {
          "indexed": true,
          "internalType": "address",
          "name": "tokenHolder",
          "type": "address"
        },
        {
          "indexed": true,
          "internalType": "address",
          "name": "to",
          "type": "address"
        },
        {
          "indexed": false,
          "internalType": "bytes32",
          "name": "partition",
          "type": "bytes32"
        },
        {
          "indexed": false,
          "internalType": "uint256",
          "name": "clearingId",
          "type": "uint256"
        },
        {
          "indexed": false,
          "internalType": "uint256",
          "name": "amount",
          "type": "uint256"
        },
        {
          "indexed": false,
          "internalType": "uint256",
          "name": "expirationDate",
          "type": "uint256"
        },
        {
          "indexed": false,
          "internalType": "bytes",
          "name": "data",
          "type": "bytes"
        },
        {
          "indexed": false,
          "internalType": "bytes",
          "name": "operatorData",
          "type": "bytes"
        }
      ],
      "name": "ClearedTransferByPartition",
      "type": "event"
    },
    {
      "anonymous": false,
      "inputs": [
        {
          "indexed": true,
          "internalType": "address",
          "name": "operator",
          "type": "address"
        },
        {
          "indexed": true,
          "internalType": "address",
          "name": "tokenHolder",
          "type": "address"
        },
        {
          "indexed": true,
          "internalType": "address",
          "name": "to",
          "type": "address"
        },
        {
          "indexed": false,
          "internalType": "bytes32",
          "name": "partition",
          "type": "bytes32"
        },
        {
          "indexed": false,
          "internalType": "uint256",
          "name": "clearingId",
          "type": "uint256"
        },
        {
          "indexed": false,
          "internalType": "uint256",
          "name": "amount",
          "type": "uint256"
        },
        {
          "indexed": false,
          "internalType": "uint256",
          "name": "expirationDate",
          "type": "uint256"
        },
        {
          "indexed": false,
          "internalType": "bytes",
          "name": "data",
          "type": "bytes"
        },
        {
          "indexed": false,
          "internalType": "bytes",
          "name": "operatorData",
          "type": "bytes"
        }
      ],
      "name": "ClearedTransferFromByPartition",
      "type": "event"
    },
    {
      "anonymous": false,
      "inputs": [
        {
          "indexed": true,
          "internalType": "address",
          "name": "compliance",
          "type": "address"
        }
      ],
      "name": "ComplianceAdded",
      "type": "event"
    },
    {
      "anonymous": false,
      "inputs": [
        {
          "indexed": false,
          "internalType": "address",
          "name": "_controller",
          "type": "address"
        },
        {
          "indexed": true,
          "internalType": "address",
          "name": "_tokenHolder",
          "type": "address"
        },
        {
          "indexed": false,
          "internalType": "uint256",
          "name": "_value",
          "type": "uint256"
        },
        {
          "indexed": false,
          "internalType": "bytes",
          "name": "_data",
          "type": "bytes"
        },
        {
          "indexed": false,
          "internalType": "bytes",
          "name": "_operatorData",
          "type": "bytes"
        }
      ],
      "name": "ControllerRedemption",
      "type": "event"
    },
    {
      "anonymous": false,
      "inputs": [
        {
          "indexed": false,
          "internalType": "address",
          "name": "_controller",
          "type": "address"
        },
        {
          "indexed": true,
          "internalType": "address",
          "name": "_from",
          "type": "address"
        },
        {
          "indexed": true,
          "internalType": "address",
          "name": "_to",
          "type": "address"
        },
        {
          "indexed": false,
          "internalType": "uint256",
          "name": "_value",
          "type": "uint256"
        },
        {
          "indexed": false,
          "internalType": "bytes",
          "name": "_data",
          "type": "bytes"
        },
        {
          "indexed": false,
          "internalType": "bytes",
          "name": "_operatorData",
          "type": "bytes"
        }
      ],
      "name": "ControllerTransfer",
      "type": "event"
    },
    {
      "anonymous": false,
      "inputs": [
        {
          "indexed": false,
          "internalType": "address",
          "name": "operator",
          "type": "address"
        }
      ],
      "name": "FinalizedControllerFeature",
      "type": "event"
    },
    {
      "anonymous": false,
      "inputs": [
        {
          "indexed": true,
          "internalType": "address",
          "name": "_operator",
          "type": "address"
        },
        {
          "indexed": true,
          "internalType": "address",
          "name": "_to",
          "type": "address"
        },
        {
          "indexed": false,
          "internalType": "uint256",
          "name": "_value",
          "type": "uint256"
        },
        {
          "indexed": false,
          "internalType": "bytes",
          "name": "_data",
          "type": "bytes"
        }
      ],
      "name": "Issued",
      "type": "event"
    },
    {
      "anonymous": false,
      "inputs": [
        {
          "indexed": true,
          "internalType": "bytes32",
          "name": "partition",
          "type": "bytes32"
        },
        {
          "indexed": true,
          "internalType": "address",
          "name": "operator",
          "type": "address"
        },
        {
          "indexed": true,
          "internalType": "address",
          "name": "to",
          "type": "address"
        },
        {
          "indexed": false,
          "internalType": "uint256",
          "name": "value",
          "type": "uint256"
        },
        {
          "indexed": false,
          "internalType": "bytes",
          "name": "data",
          "type": "bytes"
        }
      ],
      "name": "IssuedByPartition",
      "type": "event"
    },
    {
      "anonymous": false,
      "inputs": [
        {
          "indexed": true,
          "internalType": "address",
          "name": "operator",
          "type": "address"
        },
        {
          "indexed": true,
          "internalType": "bytes32",
          "name": "partition",
          "type": "bytes32"
        },
        {
          "indexed": false,
          "internalType": "uint256",
          "name": "newMaxSupply",
          "type": "uint256"
        },
        {
          "indexed": false,
          "internalType": "uint256",
          "name": "previousMaxSupply",
          "type": "uint256"
        }
      ],
      "name": "MaxSupplyByPartitionSet",
      "type": "event"
    },
    {
      "anonymous": false,
      "inputs": [
        {
          "indexed": true,
          "internalType": "address",
          "name": "operator",
          "type": "address"
        },
        {
          "indexed": false,
          "internalType": "uint256",
          "name": "newMaxSupply",
          "type": "uint256"
        },
        {
          "indexed": false,
          "internalType": "uint256",
          "name": "previousMaxSupply",
          "type": "uint256"
        }
      ],
      "name": "MaxSupplySet",
      "type": "event"
    },
    {
      "anonymous": false,
      "inputs": [
        {
          "indexed": true,
          "internalType": "address",
          "name": "operator",
          "type": "address"
        }
      ],
      "name": "PartitionsProtected",
      "type": "event"
    },
    {
      "anonymous": false,
      "inputs": [
        {
          "indexed": true,
          "internalType": "address",
          "name": "operator",
          "type": "address"
        }
      ],
      "name": "PartitionsUnProtected",
      "type": "event"
    },
    {
      "anonymous": false,
      "inputs": [
        {
          "indexed": true,
          "internalType": "address",
          "name": "operator",
          "type": "address"
        },
        {
          "indexed": true,
          "internalType": "address",
          "name": "tokenHolder",
          "type": "address"
        },
        {
          "indexed": false,
          "internalType": "bytes32",
          "name": "partition",
          "type": "bytes32"
        },
        {
          "indexed": false,
          "internalType": "uint256",
          "name": "clearingId",
          "type": "uint256"
        },
        {
          "components": [
            {
              "internalType": "uint256",
              "name": "amount",
              "type": "uint256"
            },
            {
              "internalType": "uint256",
              "name": "expirationTimestamp",
              "type": "uint256"
            },
            {
              "internalType": "address",
              "name": "escrow",
              "type": "address"
            },
            {
              "internalType": "address",
              "name": "to",
              "type": "address"
            },
            {
              "internalType": "bytes",
              "name": "data",
              "type": "bytes"
            }
          ],
          "indexed": false,
          "internalType": "struct Hold",
          "name": "hold",
          "type": "tuple"
        },
        {
          "indexed": false,
          "internalType": "uint256",
          "name": "expirationDate",
          "type": "uint256"
        },
        {
          "indexed": false,
          "internalType": "bytes",
          "name": "data",
          "type": "bytes"
        },
        {
          "indexed": false,
          "internalType": "bytes",
          "name": "operatorData",
          "type": "bytes"
        }
      ],
      "name": "ProtectedClearedHoldByPartition",
      "type": "event"
    },
    {
      "anonymous": false,
      "inputs": [
        {
          "indexed": true,
          "internalType": "address",
          "name": "operator",
          "type": "address"
        },
        {
          "indexed": true,
          "internalType": "address",
          "name": "tokenHolder",
          "type": "address"
        },
        {
          "indexed": false,
          "internalType": "bytes32",
          "name": "partition",
          "type": "bytes32"
        },
        {
          "indexed": false,
          "internalType": "uint256",
          "name": "clearingId",
          "type": "uint256"
        },
        {
          "indexed": false,
          "internalType": "uint256",
          "name": "amount",
          "type": "uint256"
        },
        {
          "indexed": false,
          "internalType": "uint256",
          "name": "expirationDate",
          "type": "uint256"
        },
        {
          "indexed": false,
          "internalType": "bytes",
          "name": "data",
          "type": "bytes"
        },
        {
          "indexed": false,
          "internalType": "bytes",
          "name": "operatorData",
          "type": "bytes"
        }
      ],
      "name": "ProtectedClearedRedeemByPartition",
      "type": "event"
    },
    {
      "anonymous": false,
      "inputs": [
        {
          "indexed": true,
          "internalType": "address",
          "name": "operator",
          "type": "address"
        },
        {
          "indexed": true,
          "internalType": "address",
          "name": "tokenHolder",
          "type": "address"
        },
        {
          "indexed": true,
          "internalType": "address",
          "name": "to",
          "type": "address"
        },
        {
          "indexed": false,
          "internalType": "bytes32",
          "name": "partition",
          "type": "bytes32"
        },
        {
          "indexed": false,
          "internalType": "uint256",
          "name": "clearingId",
          "type": "uint256"
        },
        {
          "indexed": false,
          "internalType": "uint256",
          "name": "amount",
          "type": "uint256"
        },
        {
          "indexed": false,
          "internalType": "uint256",
          "name": "expirationDate",
          "type": "uint256"
        },
        {
          "indexed": false,
          "internalType": "bytes",
          "name": "data",
          "type": "bytes"
        },
        {
          "indexed": false,
          "internalType": "bytes",
          "name": "operatorData",
          "type": "bytes"
        }
      ],
      "name": "ProtectedClearedTransferByPartition",
      "type": "event"
    },
    {
      "anonymous": false,
      "inputs": [
        {
          "indexed": true,
          "internalType": "bytes32",
          "name": "partition",
          "type": "bytes32"
        },
        {
          "indexed": true,
          "internalType": "address",
          "name": "operator",
          "type": "address"
        },
        {
          "indexed": true,
          "internalType": "address",
          "name": "from",
          "type": "address"
        },
        {
          "indexed": false,
          "internalType": "uint256",
          "name": "value",
          "type": "uint256"
        },
        {
          "indexed": false,
          "internalType": "uint256",
          "name": "deadline",
          "type": "uint256"
        },
        {
          "indexed": false,
          "internalType": "uint256",
          "name": "nounce",
          "type": "uint256"
        },
        {
          "indexed": false,
          "internalType": "bytes",
          "name": "signature",
          "type": "bytes"
        }
      ],
      "name": "ProtectedRedeemFrom",
      "type": "event"
    },
    {
      "anonymous": false,
      "inputs": [
        {
          "indexed": true,
          "internalType": "bytes32",
          "name": "partition",
          "type": "bytes32"
        },
        {
          "indexed": true,
          "internalType": "address",
          "name": "operator",
          "type": "address"
        },
        {
          "indexed": true,
          "internalType": "address",
          "name": "from",
          "type": "address"
        },
        {
          "indexed": false,
          "internalType": "address",
          "name": "to",
          "type": "address"
        },
        {
          "indexed": false,
          "internalType": "uint256",
          "name": "value",
          "type": "uint256"
        },
        {
          "indexed": false,
          "internalType": "uint256",
          "name": "deadline",
          "type": "uint256"
        },
        {
          "indexed": false,
          "internalType": "uint256",
          "name": "nounce",
          "type": "uint256"
        },
        {
          "indexed": false,
          "internalType": "bytes",
          "name": "signature",
          "type": "bytes"
        }
      ],
      "name": "ProtectedTransferFrom",
      "type": "event"
    },
    {
      "anonymous": false,
      "inputs": [
        {
          "indexed": true,
          "internalType": "address",
          "name": "_operator",
          "type": "address"
        },
        {
          "indexed": true,
          "internalType": "address",
          "name": "_from",
          "type": "address"
        },
        {
          "indexed": false,
          "internalType": "uint256",
          "name": "_value",
          "type": "uint256"
        },
        {
          "indexed": false,
          "internalType": "bytes",
          "name": "_data",
          "type": "bytes"
        }
      ],
      "name": "Redeemed",
      "type": "event"
    },
    {
      "anonymous": false,
      "inputs": [
        {
          "indexed": true,
          "internalType": "bytes32",
          "name": "partition",
          "type": "bytes32"
        },
        {
          "indexed": true,
          "internalType": "address",
          "name": "operator",
          "type": "address"
        },
        {
          "indexed": true,
          "internalType": "address",
          "name": "from",
          "type": "address"
        },
        {
          "indexed": false,
          "internalType": "uint256",
          "name": "value",
          "type": "uint256"
        },
        {
          "indexed": false,
          "internalType": "bytes",
          "name": "data",
          "type": "bytes"
        },
        {
          "indexed": false,
          "internalType": "bytes",
          "name": "operatorData",
          "type": "bytes"
        }
      ],
      "name": "RedeemedByPartition",
      "type": "event"
    },
    {
      "anonymous": false,
      "inputs": [
        {
          "indexed": true,
          "internalType": "address",
          "name": "operator",
          "type": "address"
        },
        {
          "indexed": true,
          "internalType": "address",
          "name": "tokenHolder",
          "type": "address"
        }
      ],
      "name": "RevokedOperator",
      "type": "event"
    },
    {
      "anonymous": false,
      "inputs": [
        {
          "indexed": true,
          "internalType": "bytes32",
          "name": "partition",
          "type": "bytes32"
        },
        {
          "indexed": true,
          "internalType": "address",
          "name": "operator",
          "type": "address"
        },
        {
          "indexed": true,
          "internalType": "address",
          "name": "tokenHolder",
          "type": "address"
        }
      ],
      "name": "RevokedOperatorByPartition",
      "type": "event"
    },
    {
      "anonymous": false,
      "inputs": [
        {
          "indexed": true,
          "internalType": "bytes32",
          "name": "role",
          "type": "bytes32"
        },
        {
          "indexed": true,
          "internalType": "bytes32",
          "name": "previousAdminRole",
          "type": "bytes32"
        },
        {
          "indexed": true,
          "internalType": "bytes32",
          "name": "newAdminRole",
          "type": "bytes32"
        }
      ],
      "name": "RoleAdminChanged",
      "type": "event"
    },
    {
      "anonymous": false,
      "inputs": [
        {
          "indexed": true,
          "internalType": "address",
          "name": "operator",
          "type": "address"
        },
        {
          "indexed": true,
          "internalType": "uint256",
          "name": "snapshotID",
          "type": "uint256"
        }
      ],
      "name": "SnapshotTaken",
      "type": "event"
    },
    {
      "anonymous": false,
      "inputs": [
        {
          "indexed": true,
          "internalType": "address",
          "name": "operator",
          "type": "address"
        },
        {
          "indexed": false,
          "internalType": "uint256",
          "name": "snapshotId",
          "type": "uint256"
        }
      ],
      "name": "SnapshotTriggered",
      "type": "event"
    },
    {
      "anonymous": false,
      "inputs": [
        {
          "indexed": true,
          "internalType": "address",
          "name": "operator",
          "type": "address"
        }
      ],
      "name": "TokenPaused",
      "type": "event"
    },
    {
      "anonymous": false,
      "inputs": [
        {
          "indexed": true,
          "internalType": "address",
          "name": "operator",
          "type": "address"
        }
      ],
      "name": "TokenUnpaused",
      "type": "event"
    },
    {
      "anonymous": false,
      "inputs": [
        {
          "indexed": true,
          "internalType": "address",
          "name": "from",
          "type": "address"
        },
        {
          "indexed": true,
          "internalType": "address",
          "name": "to",
          "type": "address"
        },
        {
          "indexed": false,
          "internalType": "uint256",
          "name": "value",
          "type": "uint256"
        }
      ],
      "name": "Transfer",
      "type": "event"
    },
    {
      "anonymous": false,
      "inputs": [
        {
          "indexed": true,
          "internalType": "bytes32",
          "name": "_fromPartition",
          "type": "bytes32"
        },
        {
          "indexed": false,
          "internalType": "address",
          "name": "_operator",
          "type": "address"
        },
        {
          "indexed": true,
          "internalType": "address",
          "name": "_from",
          "type": "address"
        },
        {
          "indexed": true,
          "internalType": "address",
          "name": "_to",
          "type": "address"
        },
        {
          "indexed": false,
          "internalType": "uint256",
          "name": "_value",
          "type": "uint256"
        },
        {
          "indexed": false,
          "internalType": "bytes",
          "name": "_data",
          "type": "bytes"
        },
        {
          "indexed": false,
          "internalType": "bytes",
          "name": "_operatorData",
          "type": "bytes"
        }
      ],
      "name": "TransferByPartition",
      "type": "event"
    },
    {
      "inputs": [
        {
          "internalType": "address",
          "name": "owner",
          "type": "address"
        },
        {
          "internalType": "address",
          "name": "spender",
          "type": "address"
        }
      ],
      "name": "allowance",
      "outputs": [
        {
          "internalType": "uint256",
          "name": "",
          "type": "uint256"
        }
      ],
      "stateMutability": "view",
      "type": "function"
    },
    {
      "inputs": [
        {
          "internalType": "address",
          "name": "spender",
          "type": "address"
        },
        {
          "internalType": "uint256",
          "name": "value",
          "type": "uint256"
        }
      ],
      "name": "approve",
      "outputs": [
        {
          "internalType": "bool",
          "name": "",
          "type": "bool"
        }
      ],
      "stateMutability": "nonpayable",
      "type": "function"
    },
    {
      "inputs": [],
      "name": "decimals",
      "outputs": [
        {
          "internalType": "uint8",
          "name": "",
          "type": "uint8"
        }
      ],
      "stateMutability": "view",
      "type": "function"
    },
    {
      "inputs": [],
      "name": "decimalsAdjusted",
      "outputs": [
        {
          "internalType": "uint8",
          "name": "",
          "type": "uint8"
        }
      ],
      "stateMutability": "view",
      "type": "function"
    },
    {
      "inputs": [
        {
          "internalType": "uint256",
          "name": "_timestamp",
          "type": "uint256"
        }
      ],
      "name": "decimalsAdjustedAt",
      "outputs": [
        {
          "internalType": "uint8",
          "name": "",
          "type": "uint8"
        }
      ],
      "stateMutability": "view",
      "type": "function"
    },
    {
      "inputs": [
        {
          "internalType": "uint256",
          "name": "_timestamp",
          "type": "uint256"
        }
      ],
      "name": "decimalsAt",
      "outputs": [
        {
          "internalType": "uint8",
          "name": "",
          "type": "uint8"
        }
      ],
      "stateMutability": "view",
      "type": "function"
    },
    {
      "inputs": [
        {
          "internalType": "address",
          "name": "spender",
          "type": "address"
        },
        {
          "internalType": "uint256",
          "name": "subtractedValue",
          "type": "uint256"
        }
      ],
      "name": "decreaseAllowance",
      "outputs": [
        {
          "internalType": "bool",
          "name": "",
          "type": "bool"
        }
      ],
      "stateMutability": "nonpayable",
      "type": "function"
    },
    {
      "inputs": [],
      "name": "getERC20Metadata",
      "outputs": [
        {
          "components": [
            {
              "components": [
                {
                  "internalType": "string",
                  "name": "name",
                  "type": "string"
                },
                {
                  "internalType": "string",
                  "name": "symbol",
                  "type": "string"
                },
                {
                  "internalType": "string",
                  "name": "isin",
                  "type": "string"
                },
                {
                  "internalType": "uint8",
                  "name": "decimals",
                  "type": "uint8"
                }
              ],
              "internalType": "struct IERC20.ERC20MetadataInfo",
              "name": "info",
              "type": "tuple"
            },
            {
              "internalType": "enum IFactory.SecurityType",
              "name": "securityType",
              "type": "uint8"
            }
          ],
          "internalType": "struct IERC20.ERC20Metadata",
          "name": "",
          "type": "tuple"
        }
      ],
      "stateMutability": "view",
      "type": "function"
    },
    {
      "inputs": [],
      "name": "getStaticFunctionSelectors",
      "outputs": [
        {
          "internalType": "bytes4[]",
          "name": "staticFunctionSelectors_",
          "type": "bytes4[]"
        }
      ],
      "stateMutability": "pure",
      "type": "function"
    },
    {
      "inputs": [],
      "name": "getStaticInterfaceIds",
      "outputs": [
        {
          "internalType": "bytes4[]",
          "name": "staticInterfaceIds_",
          "type": "bytes4[]"
        }
      ],
      "stateMutability": "pure",
      "type": "function"
    },
    {
      "inputs": [],
      "name": "getStaticResolverKey",
      "outputs": [
        {
          "internalType": "bytes32",
          "name": "staticResolverKey_",
          "type": "bytes32"
        }
      ],
      "stateMutability": "pure",
      "type": "function"
    },
    {
      "inputs": [
        {
          "internalType": "address",
          "name": "spender",
          "type": "address"
        },
        {
          "internalType": "uint256",
          "name": "addedValue",
          "type": "uint256"
        }
      ],
      "name": "increaseAllowance",
      "outputs": [
        {
          "internalType": "bool",
          "name": "",
          "type": "bool"
        }
      ],
      "stateMutability": "nonpayable",
      "type": "function"
    },
    {
      "inputs": [
        {
          "components": [
            {
              "components": [
                {
                  "internalType": "string",
                  "name": "name",
                  "type": "string"
                },
                {
                  "internalType": "string",
                  "name": "symbol",
                  "type": "string"
                },
                {
                  "internalType": "string",
                  "name": "isin",
                  "type": "string"
                },
                {
                  "internalType": "uint8",
                  "name": "decimals",
                  "type": "uint8"
                }
              ],
              "internalType": "struct IERC20.ERC20MetadataInfo",
              "name": "info",
              "type": "tuple"
            },
            {
              "internalType": "enum IFactory.SecurityType",
              "name": "securityType",
              "type": "uint8"
            }
          ],
          "internalType": "struct IERC20.ERC20Metadata",
          "name": "erc20Metadata",
          "type": "tuple"
        }
      ],
      "name": "initialize_ERC20",
      "outputs": [],
      "stateMutability": "nonpayable",
      "type": "function"
    },
    {
      "inputs": [],
      "name": "name",
      "outputs": [
        {
          "internalType": "string",
          "name": "",
          "type": "string"
        }
      ],
      "stateMutability": "view",
      "type": "function"
    },
    {
      "inputs": [],
      "name": "symbol",
      "outputs": [
        {
          "internalType": "string",
          "name": "",
          "type": "string"
        }
      ],
      "stateMutability": "view",
      "type": "function"
    },
    {
      "inputs": [
        {
          "internalType": "address",
          "name": "to",
          "type": "address"
        },
        {
          "internalType": "uint256",
          "name": "amount",
          "type": "uint256"
        }
      ],
      "name": "transfer",
      "outputs": [
        {
          "internalType": "bool",
          "name": "",
          "type": "bool"
        }
      ],
      "stateMutability": "nonpayable",
      "type": "function"
    },
    {
      "inputs": [
        {
          "internalType": "address",
          "name": "from",
          "type": "address"
        },
        {
          "internalType": "address",
          "name": "to",
          "type": "address"
        },
        {
          "internalType": "uint256",
          "name": "amount",
          "type": "uint256"
        }
      ],
      "name": "transferFrom",
      "outputs": [
        {
          "internalType": "bool",
          "name": "",
          "type": "bool"
        }
      ],
      "stateMutability": "nonpayable",
      "type": "function"
    }
  ],
  "bytecode": "0x608060405234801561001057600080fd5b50614b27806100206000396000f3fe608060405234801561001057600080fd5b50600436106100eb5760003560e01c80638e649195116100925780638e649195146101b057806395d89b41146101c5578063a457c2d7146101cd578063a9059cbb146101e0578063b378cf37146101f3578063c1f0d74214610208578063c67f05aa14610195578063dd62ed3e14610210578063e04fb2351461022357600080fd5b8063065dd252146100f057806306fdde031461011a578063095ea7b31461012f5780631ef2fdc81461015257806323b872dd14610182578063313ce56714610195578063395093511461019d578063771918ca146100f0575b600080fd5b6101036100fe36600461436b565b610238565b60405160ff90911681526020015b60405180910390f35b610122610249565b60405161011191906143d4565b61014261013d3660046143fe565b61025a565b6040519015158152602001610111565b7f064c883089ba1a596d9146c7aaa73c19ef8825f374c67a9538787c3d12e68dc55b604051908152602001610111565b610142610190366004614428565b6102a6565b610103610326565b6101426101ab3660046143fe565b610335565b6101b861036a565b604051610111919061447a565b61012261037a565b6101426101db3660046143fe565b61038e565b6101426101ee3660046143fe565b6103b9565b6101fb610437565b604051610111919061451d565b6101fb61049d565b61017461021e36600461456b565b610781565b61023661023136600461459e565b610794565b005b6000610243826108a8565b92915050565b60606102536108be565b5151919050565b6000610264610ad8565b33836000610273838383610b00565b3361027d81610b30565b8661028781610b30565b61028f610b5a565b61029a338989610b80565b98975050505050505050565b60006102b0610b5a565b6102b8610c35565b8383600160001b84604051806020016040528060008152506040518060200160405280600081525061030c868686866040518060200160405280600081525060405180602001604052806000815250610cbb565b610318338b8b8b610d0d565b9a9950505050505050505050565b6000610330610d7e565b905090565b600061033f610ad8565b3383600061034e838383610b00565b610356610b5a565b6103608686610d89565b9695505050505050565b61037261425b565b610330610dc6565b60606103846108be565b5160200151919050565b6000610398610ad8565b6103a0610b5a565b338360006103af838383610b00565b6103608686610dd7565b60006103c3610b5a565b6103cb610c35565b3383600160001b84604051806020016040528060008152506040518060200160405280600081525061041f868686866040518060200160405280600081525060405180602001604052806000815250610cbb565b61042a338a8a610e6d565b9998505050505050505050565b604080516001808252818301909252606091602080830190803683370190505090506000635c47dced60e11b828261046e81614605565b9350815181106104805761048061461e565b6001600160e01b0319909216602092830291909101909101525090565b60408051600c8082526101a082019092526060916020820161018080368337019050509050600063e04fb23560e01b82826104d781614605565b9350815181106104e9576104e961461e565b6001600160e01b03199092166020928302919091019091015263095ea7b360e01b828261051581614605565b9350815181106105275761052761461e565b6001600160e01b03199092166020928302919091019091015263a9059cbb60e01b828261055381614605565b9350815181106105655761056561461e565b6001600160e01b0319909216602092830291909101909101526323b872dd60e01b828261059181614605565b9350815181106105a3576105a361461e565b6001600160e01b031990921660209283029190910190910152633950935160e01b82826105cf81614605565b9350815181106105e1576105e161461e565b6001600160e01b03199092166020928302919091019091015263a457c2d760e01b828261060d81614605565b93508151811061061f5761061f61461e565b6001600160e01b031990921660209283029190910190910152636eb1769f60e11b828261064b81614605565b93508151811061065d5761065d61461e565b6001600160e01b031990921660209283029190910190910152638e64919560e01b828261068981614605565b93508151811061069b5761069b61461e565b6001600160e01b0319909216602092830291909101909101526306fdde0360e01b82826106c781614605565b9350815181106106d9576106d961461e565b6001600160e01b0319909216602092830291909101909101526395d89b4160e01b828261070581614605565b9350815181106107175761071761461e565b6001600160e01b03199092166020928302919091019091015263313ce56760e01b828261074381614605565b9350815181106107555761075561461e565b6001600160e01b031990921660209283029190910190910152633b8c8c6560e11b828261046e81614605565b600061078d8383610ec9565b9392505050565b61079c610ed6565b60030154610100900460ff166107b181610efa565b60006107bb610ed6565b90506107c78380614634565b6107d19080614654565b82916107de91908361471b565b506107e98380614634565b6107f7906020810190614654565b600183019161080791908361471b565b506108128380614634565b610820906040810190614654565b600283019161083091908361471b565b5061083b8380614634565b61084c9060808101906060016147ea565b60038201805460ff191660ff929092169190911790556108726040840160208501614814565b60058201805460ff19166001838181111561088f5761088f614464565b0217905550600301805461ff0019166101001790555050565b60006108b382610f18565b516060015192915050565b6108c661425b565b60006108d0610ed6565b9050600060405180608001604052808360000180546108ee9061469b565b80601f016020809104026020016040519081016040528092919081815260200182805461091a9061469b565b80156109675780601f1061093c57610100808354040283529160200191610967565b820191906000526020600020905b81548152906001019060200180831161094a57829003601f168201915b505050505081526020018360010180546109809061469b565b80601f01602080910402602001604051908101604052809291908181526020018280546109ac9061469b565b80156109f95780601f106109ce576101008083540402835291602001916109f9565b820191906000526020600020905b8154815290600101906020018083116109dc57829003601f168201915b50505050508152602001836002018054610a129061469b565b80601f0160208091040260200160405190810160405280929190818152602001828054610a3e9061469b565b8015610a8b5780601f10610a6057610100808354040283529160200191610a8b565b820191906000526020600020905b815481529060010190602001808311610a6e57829003601f168201915b5050509183525050600384015460ff9081166020928301526040805180820190915283815260058601549394509291830191166001811115610acf57610acf614464565b90529392505050565b610ae0610f5b565b15610afe5760405163649815a560e01b815260040160405180910390fd5b565b6000806000610b128686600087610f90565b9350935050925082610b2857610b288282611299565b505050505050565b610b39816112c9565b15610b575760405163f9f9bcf960e01b815260040160405180910390fd5b50565b610b626112f8565b15610afe57604051630eda11f160e31b815260040160405180910390fd5b60006001600160a01b038416610ba9576040516342cad95760e01b815260040160405180910390fd5b6001600160a01b038316610bd0576040516380e32d8f60e01b815260040160405180910390fd5b81610bd9610ed6565b6001600160a01b03868116600081815260049390930160209081526040808520938916808652938252938490209490945591518581529092600080516020614ad283398151915291015b60405180910390a35060019392505050565b610c3d61130e565b8015610c705750610c6e7f96658f163b67573bbf1e3f9e9330b199b3ac2f6ec0139ea95f622e20a5df2f4633611340565b155b15610afe5733604051630553473160e41b8152610cb291907f96658f163b67573bbf1e3f9e9330b199b3ac2f6ec0139ea95f622e20a5df2f4690600401614831565b60405180910390fd5b6000806000610cec89898989604051806020016040528060008152506040518060200160405280600081525061136d565b9350935050925082610d0257610d028282611299565b505050505050505050565b6000610d1a8486846114c2565b610d67846040518060400160405280866001600160a01b0316815260200185815250600160001b604051806020016040528060008152508960405180602001604052806000815250611578565b50610d73848484611730565b90505b949350505050565b6000610330426108a8565b60006001600160a01b038316610db2576040516380e32d8f60e01b815260040160405180910390fd5b610dbd338484611777565b50600192915050565b610dce61425b565b61033042610f18565b60006001600160a01b038316610e00576040516380e32d8f60e01b815260040160405180910390fd5b610e0b3384846114c2565b6001600160a01b03831633600080516020614ad2833981519152610e2d610ed6565b336000908152600491909101602090815260408083206001600160a01b038a1684528252918290205482519081529151918290030190a350600192915050565b6000610ebd846040518060400160405280866001600160a01b0316815260200185815250600160001b60405180602001604052806000815250600060405180602001604052806000815250611578565b50610d76848484611730565b600061078d838342611834565b7fd5228ac65cba3eaaef0669de6709c44cfdf33c0f1cce2989d4a133e0214cce5790565b8015610b575760405162dc149f60e41b815260040160405180910390fd5b610f2061425b565b6000610f2b83611872565b915050610f366108be565b9150808260000151606001818151610f4e919061484a565b60ff169052509092915050565b60007f5a5b295532a8b6e97bc9d45d68fc49b85a099545bac8f91f77706d392a1cea715460ff1680610330575061033061197f565b60008060006060841561111c57610fa633611a53565b610ff4576000600160fc1b63796c1f0d60e01b335b604051602001610fcb9190614863565b60408051601f198184030181529190529296509094506001600160e01b0319169250905061128e565b610ffd336112c9565b15611017576000600b60f91b63f9f9bcf960e01b33610fbb565b60006110a06372331c7360e11b336040516001600160a01b03909116602482015260006044820181905260648201526084015b60408051601f198184030181529190526020810180516001600160e01b03166001600160e01b0319909316929092179091526333fdd08160e11b61108c611a9e565b600201546001600160a01b03169190611ac2565b9050600081511180156110c45750808060200190518101906110c29190614877565b155b1561111a57604051600090600160fc1b906319bac6d560e21b906110f0908d908d908d90602001614899565b604051602081830303815290604052816001600160e01b031916915094509450945094505061128e565b505b6001600160a01b0388161561118c57611134886112c9565b1561115c57604051600090600b60f91b9063f9f9bcf960e01b90610fcb908c90602001614863565b61116588611a53565b61118c57604051600090600160fc1b9063796c1f0d60e01b90610fcb908c90602001614863565b6001600160a01b038716156111fc576111a4876112c9565b156111cc57604051600090600b60f91b9063f9f9bcf960e01b90610fcb908b90602001614863565b6111d587611a53565b6111fc57604051600090600160fc1b9063796c1f0d60e01b90610fcb908b90602001614863565b600061121e63e46638e660e01b8a8a8a60405160240161104a93929190614899565b9050600081511180156112425750808060200190518101906112409190614877565b155b1561126e57604051600090600160fc1b906319bac6d560e21b906110f0908d908d908d90602001614899565b50506040805160208101909152600080825260019450600160f81b935091505b945094509450949050565b600082826040516020016112ae9291906148bd565b60405160208183030381529060405290508051602082018181fd5b60006112d3611a9e565b6001600160a01b03909216600090815260059290920160205250604090205460ff1690565b6000611302611b3e565b6005015460ff16919050565b60007f564ecdb30bda57ccdf5f0ccce9a283978b97919c80a3230163042042418b15465b54610100900460ff16919050565b600061078d7f4765bbd856d800638d39a79262ebc6fdfb5833d0e59f32c5d482fe4c4a3554c18484611b62565b6000806000606061137c611b86565b9296509094509250905083156114b5576001600160a01b038a1615806113a957506001600160a01b038916155b156113d7575050604080516020810190915260008082529250600160fd1b91506342bcdf7f60e11b906114b5565b60006001600160a01b038b1633148015906114435750604080517fdaba153046c65d49da6a7597abc24374aa681e3eee7004426ca6185b3927a3f56020808301919091528183018c9052825180830384018152606090920190925280519101206114419033611340565b155b90506114518b8b8a84610f90565b929750909550935091508461146657506114b5565b6114708b8b611c1e565b929750909550935091508461148557506114b5565b600081801561149c575061149a8a338e611e4f565b155b90506114aa818d8b8d611ef4565b955095509550955050505b9650965096509692505050565b6114cc8383611fd3565b60006114d6610ed6565b6001600160a01b0380861660009081526004830160209081526040808320938816835292905220549091508211156115345760405163f180d8f960e01b81526001600160a01b03808516600483015285166024820152604401610cb2565b6001600160a01b03808516600090815260048301602090815260408083209387168352929052908120805484929061156d9084906148ee565b909155505050505050565b600061158e858888600001518960200151611fee565b61159d87876020015187612159565b85600001516001600160a01b0316876001600160a01b0316867fff4e9a26af4eb73b8bacfaa4abd4fea03d9448e7b912dc5ff4019048875aa2d4868a6020015189886040516115ef9493929190614901565b60405180910390a46116058587600001516122df565b6116c55761161c8660200151876000015187612319565b85516001600160a01b038881169116148015906116395750600185145b156116bd57855160208701516040516116bb926322ebca6d60e21b92611665928c929190602401614899565b60408051601f198184030181529190526020810180516001600160e01b03166001600160e01b0319909316929092179091526333fdd08160e11b6116a7611a9e565b600201546001600160a01b031691906123f1565b505b506000610360565b6116d8866000015187602001518761245a565b85516001600160a01b038881169116148015906116f55750600185145b156117235785516020870151604051611721926322ebca6d60e21b92611665928c929190602401614899565b505b5060009695505050505050565b6000826001600160a01b0316846001600160a01b03167fddf252ad1be2c89b69c2b068fc378daa952ba7f163c4a11628f55a4df523b3ef84604051610c2391815260200190565b6117818383611fd3565b600061178b610ed6565b6001600160a01b03808616600090815260048301602090815260408083209388168352929052908120805492935084929091906117c9908490614945565b90915550506001600160a01b03808416908516600080516020614ad28339815191526117f3610ed6565b6001600160a01b03888116600090815260049290920160209081526040808420928a168452918152918190205490519081520160405180910390a350505050565b60008061185261184384612551565b61184d8787612582565b6125bc565b90508061185f86866125e7565b6118699190614958565b95945050505050565b7faf4aaa3de473ec9b58645d40f5a2fe4e176157e247b2d875db61f1a70935ac69546001906000907faf4aaa3de473ec9b58645d40f5a2fe4e176157e247b2d875db61f1a70935ac689060015b8181116119775760006118d282846148ee565b905060006118e085836125f1565b9050878160000151101561195b5760008160200151806020019051810190611908919061496f565b90506000611915826126c0565b905060008180602001905181019061192d9190614988565b905080602001518a61193f9190614958565b9950806040015189611951919061484a565b9850505050611962565b5050611977565b5050808061196f90614605565b9150506118bf565b505050915091565b60007f80cd138137fb7aaf8068b75b39b6681af39401f81721b6420d44eb588baaeeb9816119ac82612784565b905060005b81811015611a49576119c66001840182612792565b6001600160a01b031663b187bd266040518163ffffffff1660e01b8152600401602060405180830381865afa158015611a03573d6000803e3d6000fd5b505050506040513d601f19601f82011682018060405250810190611a279190614877565b15611a36576001935050505090565b600101611a4281614605565b90506119b1565b5060009250505090565b6000611a5e8261279e565b1515611a8b7fd2a97f6f015eb0ef6e78a5d99ed4baddb1001474ec77117d69e09432533577d35460ff1690565b15151480156102435750610243826127ca565b7fba82ce8c38a926a01a84988222ab779cf1852f228ccaafd725c8d06d090d090690565b60606001600160a01b0384161561078d57600080856001600160a01b031685604051611aee91906149ea565b600060405180830381855afa9150503d8060008114611b29576040519150601f19603f3d011682016040523d82523d6000602084013e611b2e565b606091505b509150915061036082828661289f565b7f67661db80d37d3b9810c430f78991b4b5377bdebd3b71b39fbd3427092c1822a90565b6001600160a01b03811660009081526001840160205260408120610d7690846128b8565b60008060006060611b95610f5b565b15611bc3575050604080516020810190915260008082529250602160f91b915063649815a560e01b90611c18565b611bcb6128d0565b15611bf9575050604080516020810190915260008082529250600160fe1b9150632d97184360e11b90611c18565b50506040805160208101909152600080825260019350600160f81b9250905b90919293565b6000808060606001600160a01b03861615611d7a57611c3e6001876128f8565b611c8e57604051600090600160fc1b9063fc855b1b60e01b90611c65908a90602001614863565b60408051601f198184030181529190529296509094506001600160e01b03191692509050611e46565b6000611d0263b9209e3360e01b88604051602401611cac9190614863565b60408051601f198184030181529190526020810180516001600160e01b03166001600160e01b0319909316929092179091526356c3c24f60e11b611cee611a9e565b600101546001600160a01b03169190611ac2565b905060008151118015611d26575080806020019051810190611d249190614877565b155b15611d7857604051600090600160fc1b9063209d285360e01b90611d4e908b90602001614863565b604051602081830303815290604052816001600160e01b0319169150945094509450945050611e46565b505b6001600160a01b03851615611e2757611d946001866128f8565b611dbb57604051600090600160fc1b9063fc855b1b60e01b90611c65908990602001614863565b6000611dd963b9209e3360e01b87604051602401611cac9190614863565b905060008151118015611dfd575080806020019051810190611dfb9190614877565b155b15611e2557604051600090600160fc1b9063209d285360e01b90611d4e908a90602001614863565b505b50506040805160208101909152600080825260019350600160f81b9250905b92959194509250565b6001600160a01b0380821660009081527f319c8795293307b302697a4daf045524536834965f40eb730e6ca085ae32ae016020908152604080832093861683529290529081205460ff1680610d7657506001600160a01b0380831660009081527f319c8795293307b302697a4daf045524536834965f40eb730e6ca085ae32ae006020908152604080832088845282528083209387168352929052205460ff16610d76565b600080600060608715611f61576000611f0d8833610ec9565b905086811015611f5f576000601560fa1b63f180d8f960e01b33604080516001600160a01b039283166020820152918d169082015260608101859052608081018b9052600160a082015260c0016110f0565b505b611f6b8588612992565b611f9457604051600090601560fa1b90632fe13d3b60e21b90610fcb908b908a90602001614831565b6000611fa086896129df565b90508681101561126e57604051600090601560fa1b9063175a093160e21b906110f0908c9086908d908d906020016149fc565b611fe060018360006129ec565b611fea8282612a07565b5050565b611ff98484846129ec565b6000806001600160a01b038516612042576120148487612a97565b61201d86612c42565b600083118015612033575061203184612c83565b155b1561203d57600191505b6120db565b6001600160a01b0384166120875761205a8587612a97565b61206386612c42565b60008311801561207a57508261207886612caf565b145b1561203d575060016120db565b6120918587612a97565b61209b8487612a97565b6000831180156120b157506120af84612c83565b155b156120bb57600191505b6000831180156120d25750826120d086612caf565b145b156120db575060015b8180156120e55750805b15612104576120f385612cbb565b6120fd8486612ce8565b5050612153565b811561211b57612112612d48565b6120fd84612d5e565b8015610b285761212a85612cbb565b61214261213d612138612dc8565b612ddb565b612cbb565b61214a612d48565b610b2885612e02565b50505050565b6121638184612992565b612184578281604051632fe13d3b60e21b8152600401610cb2929190614831565b60006121908285612ec1565b9050828110156121bb578381848460405163175a093160e21b8152600401610cb294939291906149fc565b60006121c5611b3e565b6001600160a01b03861660009081526004820160209081526040808320878452909152812054919250906121fb906001906148ee565b6001600160a01b03871660009081526003840160205260409020805491925086918390811061222c5761222c61461e565b906000526020600020906002020160000154036122535761224e868583612f4e565b6122a8565b6001600160a01b038616600090815260038301602052604090208054869190839081106122825761228261461e565b906000526020600020906002020160000160008282546122a291906148ee565b90915550505b6001600160a01b0386166000908152600283016020526040812080548792906122d29084906148ee565b9091555050505050505050565b6000806122ea611b3e565b6001600160a01b0393909316600090815260049093016020908152604080852095855294905250502054151590565b61232a826123256130f5565b613108565b6000612334611b3e565b6001600160a01b03841660009081526003820160209081526040808320815180830190925288825281830187815281546001818101845592865293909420915160029093029091019182559151910155905061238e611b3e565b6001600160a01b03841660009081526003919091016020908152604080832054600485018352818420868552909252909120558315612153576001600160a01b03831660009081526002820160205260408120805486929061156d908490614945565b60606001600160a01b0384161561078d57600080856001600160a01b03168560405161241d91906149ea565b6000604051808303816000865af19150503d8060008114611b29576040519150601f19603f3d011682016040523d82523d6000602084013e611b2e565b6124648184612992565b612485578281604051632fe13d3b60e21b8152600401610cb2929190614831565b600061248f611b3e565b6001600160a01b03851660009081526004820160209081526040808320868452909152812054919250906124c5906001906148ee565b6001600160a01b0386166000908152600384016020526040902080549192508591839081106124f6576124f661461e565b906000526020600020906002020160000160008282546125169190614945565b90915550506001600160a01b038516600090815260028301602052604081208054869290612545908490614945565b90915550505050505050565b60008061255c6130f5565b90508060000361256a575060015b600061257584611872565b509050610d768183614958565b600061258c61313d565b6001600160a01b039384166000908152600491909101602090815260408083209490951682529290925250205490565b6000826000036125ce57506001610243565b816000036125dd575081610243565b61078d8284614a22565b600061258c610ed6565b6040805180820190915260008152606060208201526000828152602084815260409182902082518084019093528054835260018101805491928401916126369061469b565b80601f01602080910402602001604051908101604052809291908181526020018280546126629061469b565b80156126af5780601f10612684576101008083540402835291602001916126af565b820191906000526020600020905b81548152906001019060200180831161269257829003601f168201915b505050505081525050905092915050565b60008181527f9db84024bbea48a7580380e27785cf3e0d08fada233c84760c8a5aff47f86e14602052604090206001018054606091906126ff9061469b565b80601f016020809104026020016040519081016040528092919081815260200182805461272b9061469b565b80156127785780601f1061274d57610100808354040283529160200191612778565b820191906000526020600020905b81548152906001019060200180831161275b57829003601f168201915b50505050509050919050565b600061024382600101613161565b600061078d838361316b565b60006102437fd2a97f6f015eb0ef6e78a5d99ed4baddb1001474ec77117d69e09432533577d483613195565b60007f3553e9f946bd0c6ac12c2e96bf561ec7aafbed39334ffde761beba62ed8dbad6816127f782612784565b905060005b81811015612894576128116001840182612792565b6001600160a01b031663fe9fbb80866040518263ffffffff1660e01b815260040161283c9190614863565b602060405180830381865afa158015612859573d6000803e3d6000fd5b505050506040513d601f19601f8201168201806040525081019061287d9190614877565b61288c57506000949350505050565b6001016127fc565b506001949350505050565b606083156128ae57508161078d565b61078d8284611299565b6000818152600183016020526040812054151561078d565b60007ff5d5af29c37f2085b9f37cfb2259d4e3b957777d47ffc1949a7596cb1d37ba90611332565b7f589d3365cb6f9141f65f568666d0e4cb837c3b1edc1527dd31a1aa423ad940c9546000907f589d3365cb6f9141f65f568666d0e4cb837c3b1edc1527dd31a1aa423ad940c7908290610100900460ff16158061297e575084600181111561296257612962614464565b61296b856131b7565b600181111561297c5761297c614464565b145b905080801561186957506118698486613370565b60008061299d611b3e565b6001600160a01b03841660009081526004820160209081526040808320888452909152812054919250036129d5576000915050610243565b6001915050610243565b600061078d83834261346b565b6129f66000613491565b50612a028383836134c6565b505050565b6000612a116130f5565b90506000612a1f8484612582565b9050808203612a2e5750505050565b6000612a3a83836125bc565b905080612a45610ed6565b6001600160a01b03808816600090815260049290920160209081526040808420928916845291905281208054909190612a7f908490614958565b90915550612a909050858585613501565b5050505050565b6000612aa161353f565b905080600003612ab057505050565b6000612abb82613553565b90506000612ac7613582565b9050818103612b6857612a90612adb61358d565b6001600160a01b038716600090815260209190915260409020612afd87612c83565b612b0561358d565b6001600160a01b0389166000908152600191909101602090815260408083208a84529091529020612b3461358d565b6001600160a01b038a16600090815260029190910160205260409020612b5a898b612ec1565b612b638b6135b1565b6136ba565b81600003612b7557600191505b6000612b8086612caf565b90506000612b8e86886129df565b90506000612b9c8585614a22565b9050612ba88184614a22565b9250612bb48183614a22565b9150612c38612bc161358d565b6001600160a01b038a1660009081526020919091526040902084612be361358d565b6001600160a01b038c166000908152600191909101602090815260408083208d84529091529020612c1261358d565b6001600160a01b038d1660009081526002919091016020526040902086612b638e6135b1565b5050505050505050565b612c5d612c4d61358d565b600301612c586136d0565b6136e0565b610b57612c6861358d565b600083815260089190910160205260409020612c588361372a565b6000612c8d611b3e565b6001600160a01b03909216600090815260029290920160205250604090205490565b60006102438242613748565b610b57612cc661358d565b6013016000612cd484613776565b8152602001908152602001600020826137a2565b6000612cf2611b3e565b6001600160a01b03928316600081815260068301602081815260408084208054999098168085528185208a90559884526007909501815293822080546001600160a01b0319169097179096559081529390525055565b610afe612d5361358d565b601401612c58612dc8565b6000612d68611b3e565b905060008160080160008154612d7d90614605565b91829055506000818152600784016020908152604080832080546001600160a01b039098166001600160a01b0319909816881790559582526006909401909352929091209190915550565b6000612dd2611b3e565b60080154905090565b6000612de5611b3e565b60009283526007016020525060409020546001600160a01b031690565b6000612e0c611b3e565b60088101549091506001811115612e8a576001600160a01b038316600090815260068301602052604090205481811015612e885760008281526007840160208181526040808420546001600160a01b03168085526006880183528185208690558585529290915290912080546001600160a01b03191690911790555b505b6001600160a01b0383166000908152600683016020526040812081905560088301805491612eb783614a44565b9190505550505050565b6000612ecd8383612992565b15612f46576000612edc611b3e565b6001600160a01b038416600090815260038201602090815260408083206004850183528184208985529092529091205491925090612f1c906001906148ee565b81548110612f2c57612f2c61461e565b906000526020600020906002020160000154915050610243565b506000610243565b6000612f58611b3e565b6001600160a01b0385166000908152600382016020526040902054909150612f82906001906148ee565b8214613090576001600160a01b038416600090815260038201602052604090208054612fb0906001906148ee565b81548110612fc057612fc061461e565b9060005260206000209060020201816003016000866001600160a01b03166001600160a01b0316815260200190815260200160002083815481106130065761300661461e565b60009182526020909120825460029092020190815560019182015490820155613030908390614945565b6001600160a01b0385166000908152600483016020908152604080832060038601909252822080549192918690811061306b5761306b61461e565b9060005260206000209060020201600101548152602001908152602001600020819055505b6001600160a01b038416600081815260048301602090815260408083208784528252808320839055928252600384019052208054806130d1576130d1614a5b565b60008281526020812060026000199093019283020181815560010155905550505050565b60006130ff61313d565b60010154905090565b61311061313d565b6001600160a01b039092166000908152602092835260408120805460018101825590825292902090910155565b7f20765daced38554542b3c858f10e7fb957696c4dbd38d7faabc51dd4de7ad54190565b6000610243825490565b60008260000182815481106131825761318261461e565b9060005260206000200154905092915050565b6001600160a01b0381166000908152600183016020526040812054151561078d565b6000806131c383613808565b905042816020015110156131da5750600092915050565b42815111156131ec5750600092915050565b6131f98160600151613947565b6132065750600092915050565b60006132397fdbde0b1f7457f92983806323b8056e5eabfce9a23b8924af999a4df0e4154e1a546001600160a01b031690565b90506001600160a01b038116158015906132c3575060608201516040808401519051636e5f638960e11b81526001600160a01b0384169263dcbec7129261328292600401614a71565b602060405180830381865afa15801561329f573d6000803e3d6000fd5b505050506040513d601f19601f820116820180604052508101906132c39190614877565b156132d2575060009392505050565b6001600160a01b038116156133655760608201516040808401519051636e5f638960e11b81526001600160a01b0384169263dcbec7129261331592600401614a71565b602060405180830381865afa158015613332573d6000803e3d6000fd5b505050506040513d601f19601f820116820180604052508101906133569190614877565b15613365575060009392505050565b506080015192915050565b60007f57364604d3fde2768df7beea76ca84783455ba461f6f84450864597901db12b98161339d82612784565b905060005b8181101561345f578460018111156133bc576133bc614464565b6133c96001850183612792565b6001600160a01b031663be88ff49886040518263ffffffff1660e01b81526004016133f49190614863565b602060405180830381865afa158015613411573d6000803e3d6000fd5b505050506040513d601f19601f820116820180604052508101906134359190614a95565b600181111561344657613446614464565b146134575760009350505050610243565b6001016133a2565b50600195945050505050565b60008061348461347a84612551565b61184d8787613973565b90508061185f8686612ec1565b60006102437f2352c39c61abb4e922588a7d46fb5c925b9a205577be135537479031648c86fe63df1eb07160e01b8442613a09565b6134cf83613be8565b6001600160a01b038216156134e8576134e88383613c38565b6001600160a01b03811615612a0257612a028382613c38565b8061350a61313d565b6001600160a01b0394851660009081526004919091016020908152604080832095909616825293909352929091209190915550565b600061033061354c61358d565b6005015490565b600080600061356c8461356461358d565b600d01613c67565b915091508161078d5761357d6130f5565b610d76565b600061033042612551565b7f450898ebb84982a28d8787f0138cfce477c6d811ae3b1db5fdb7ed17e8bda89890565b606060006135bd611b3e565b6001600160a01b03841660009081526003820160205260408120549192509067ffffffffffffffff8111156135f4576135f46145d9565b60405190808252806020026020018201604052801561361d578160200160208202803683370190505b50905060005b6001600160a01b03851660009081526003840160205260409020548110156136b2576001600160a01b038516600090815260038401602052604090208054829081106136715761367161461e565b9060005260206000209060020201600101548282815181106136955761369561461e565b6020908102919091010152806136aa81614605565b915050613623565b509392505050565b6136c486866136e0565b610b2884848484613cb6565b60006136da611b3e565b54919050565b60006136ea61353f565b9050806136f684613d60565b1015612a02578254600180820185556000858152602080822090930193909355938401805494850181558252902090910155565b6000613734611b3e565b600092835260010160205250604090205490565b60008061376061375784612551565b61184d86613daa565b90508061376c85612c83565b610d769190614958565b6000613780611b3e565b6001600160a01b03909216600090815260069290920160205250604090205490565b60006137ac61353f565b9050806137b884613d60565b1015612a025782546001818101855560008581526020808220909301849055818601805492830181558152919091200180546001600160a01b0384166001600160a01b0319909116179055505050565b613810614292565b7f589d3365cb6f9141f65f568666d0e4cb837c3b1edc1527dd31a1aa423ad940c76001600160a01b03831660009081526020918252604090819020815160a0810183528154815260018201549381019390935260028101805491928401916138779061469b565b80601f01602080910402602001604051908101604052809291908181526020018280546138a39061469b565b80156138f05780601f106138c5576101008083540402835291602001916138f0565b820191906000526020600020905b8154815290600101906020018083116138d357829003601f168201915b505050918352505060038201546001600160a01b0381166020830152604090910190600160a01b900460ff16600181111561392d5761392d614464565b600181111561393e5761393e614464565b90525092915050565b60006102437fdbde0b1f7457f92983806323b8056e5eabfce9a23b8924af999a4df0e4154e1883613195565b60008061397e611b3e565b6001600160a01b03841660009081526004919091016020908152604080832087845290915281205491508190036139b9576000915050610243565b6139c161313d565b6001600160a01b0384166000908152602091909152604090206139e56001836148ee565b815481106139f5576139f561461e565b906000526020600020015491505092915050565b600080613a17866001015490565b905080600003613a2b576000915050610d76565b83600082821180613a3a575081155b15613a43578291505b60015b828111613bdc576000613a5982866148ee565b90506000613a678b836125f1565b90508781600001511015613bc057613a7e8b613db4565b60028b01805460ff191660011790556020810151604051600091829130918e91613aaf9188918d9190602401614ab2565b60408051601f198184030181529181526020820180516001600160e01b03166001600160e01b0319909416939093179092529051613aed91906149ea565b600060405180830381855af49150503d8060008114613b28576040519150601f19603f3d011682016040523d82523d6000602084013e613b2d565b606091505b509150915081613bad57805115613b475780518082602001fd5b60405162461bcd60e51b815260206004820152603560248201527f6f6e5363686564756c65645461736b547269676765726564206d6574686f64206044820152743330b4b632b2103bb4ba3437baba103932b0b9b7b760591b6064820152608401610cb2565b505060028b01805460ff19169055613bc7565b5050613bdc565b50508080613bd490614605565b915050613a46565b50979650505050505050565b6000613bf26130f5565b90506000613bff83613e1d565b9050808203613c0d57505050565b6000613c1983836125bc565b9050613c258482613e3b565b613c2f8482613e70565b61215384613ef6565b6000613c426130f5565b90506000613c4e611b3e565b9050613c5c81838686613f1e565b612153818385613fca565b6000808080613c768686614015565b915091508182613c87576000613ca8565b856001018281548110613c9c57613c9c61461e565b90600052602060002001545b9350935050505b9250929050565b6000613cc061353f565b905080613ccc86613d60565b1015613d00578454600181810187556000878152602080822090930184905581880180549283018155815291909120018390555b80613d0a85613d60565b1015612a905783546001818101865560008681526020808220909301849055604080518085019091528581528288018054938401815582529083902081518051929485949290920192610d0292849201906142d5565b80546000908103613d7357506000919050565b81548290613d83906001906148ee565b81548110613d9357613d9361461e565b90600052602060002001549050919050565b919050565b6000612c8d61313d565b6000613dc1826001015490565b905080600003613dcf575050565b816000613ddd6001846148ee565b81526020810191909152604001600090812081815590613e006001830182614320565b5050600182018054906000613e1483614a44565b91905055505050565b6000613e2761313d565b600092835260030160205250604090205490565b80613e44611b3e565b60010160008481526020019081526020016000206000828254613e679190614958565b90915550505050565b60008281527f591561cf73f8f1ca1532449c7ce18338a75e9e17f2894af1e41b36e3b013f95260205260409020547f591561cf73f8f1ca1532449c7ce18338a75e9e17f2894af1e41b36e3b013f95190600101613ecc57505050565b600083815260018201602052604081208054849290613eec908490614958565b9091555050505050565b6000613f0061313d565b60018101546000938452600390910160205260409092209190915550565b6001600160a01b0381166000908152600485016020908152604080832085845290915281205490819003613f525750612153565b6000613f5f858484614093565b6001600160a01b038416600090815260038801602052604090209091508190613f896001856148ee565b81548110613f9957613f9961461e565b90600052602060002090600202016000016000828254613fb99190614958565b90915550610b2890508584846140e5565b6000613fd68383614133565b6001600160a01b0383166000908152600286016020526040812080549293508392909190614005908490614958565b9091555061215390508383614163565b600080836000036140395760405163f128004d60e01b815260040160405180910390fd5b61404161353f565b84111561406457604051638e81eb8360e01b815260048101859052602401610cb2565b6000614070848661418e565b84549091508103614088576000809250925050613caf565b600192509050613caf565b6000610d76846140a161313d565b6001600160a01b0386166000908152602091909152604090206140c56001866148ee565b815481106140d5576140d561461e565b90600052602060002001546125bc565b826140ee61313d565b6001600160a01b0384166000908152602091909152604090206141126001846148ee565b815481106141225761412261461e565b600091825260209091200155505050565b600061078d8361414161313d565b6001600160a01b038516600090815260029190910160205260409020546125bc565b8161416c61313d565b6001600160a01b03909216600090815260029290920160205260409091205550565b815460009081036141a157506000610243565b82546000905b808210156141eb5760006141bb838361422f565b9050846141c8878361424a565b5411156141d7578091506141e5565b6141e2816001614945565b92505b506141a7565b60008211801561420e57508361420b866142066001866148ee565b61424a565b54145b156142275761421e6001836148ee565b92505050610243565b509050610243565b600061423e6002848418614a22565b61078d90848416614945565b600082815260208120820180610d76565b6040805160c08101825260609181018281528282018390526080820192909252600060a0820152908190815260200160005b905290565b6040518060a0016040528060008152602001600081526020016060815260200160006001600160a01b031681526020016000600181111561428d5761428d614464565b828054828255906000526020600020908101928215614310579160200282015b828111156143105782518255916020019190600101906142f5565b5061431c929150614356565b5090565b50805461432c9061469b565b6000825580601f1061433c575050565b601f016020900490600052602060002090810190610b5791905b5b8082111561431c5760008155600101614357565b60006020828403121561437d57600080fd5b5035919050565b60005b8381101561439f578181015183820152602001614387565b50506000910152565b600081518084526143c0816020860160208601614384565b601f01601f19169290920160200192915050565b60208152600061078d60208301846143a8565b80356001600160a01b0381168114613da557600080fd5b6000806040838503121561441157600080fd5b61441a836143e7565b946020939093013593505050565b60008060006060848603121561443d57600080fd5b614446846143e7565b9250614454602085016143e7565b9150604084013590509250925092565b634e487b7160e01b600052602160045260246000fd5b60208152600082516040602084015280516080606085015261449f60e08501826143a8565b90506020820151605f19808684030160808701526144bd83836143a8565b925060408401519150808684030160a0870152506144db82826143a8565b91505060ff60608301511660c0850152602085015191506002821061451057634e487b7160e01b600052602160045260246000fd5b6040939093015250919050565b6020808252825182820181905260009190848201906040850190845b8181101561455f5783516001600160e01b03191683529284019291840191600101614539565b50909695505050505050565b6000806040838503121561457e57600080fd5b614587836143e7565b9150614595602084016143e7565b90509250929050565b6000602082840312156145b057600080fd5b813567ffffffffffffffff8111156145c757600080fd5b82016040818503121561078d57600080fd5b634e487b7160e01b600052604160045260246000fd5b634e487b7160e01b600052601160045260246000fd5b600060018201614617576146176145ef565b5060010190565b634e487b7160e01b600052603260045260246000fd5b60008235607e1983360301811261464a57600080fd5b9190910192915050565b6000808335601e1984360301811261466b57600080fd5b83018035915067ffffffffffffffff82111561468657600080fd5b602001915036819003821315613caf57600080fd5b600181811c908216806146af57607f821691505b6020821081036146cf57634e487b7160e01b600052602260045260246000fd5b50919050565b601f821115612a0257600081815260208120601f850160051c810160208610156146fc5750805b601f850160051c820191505b81811015610b2857828155600101614708565b67ffffffffffffffff831115614733576147336145d9565b61474783614741835461469b565b836146d5565b6000601f84116001811461477b57600085156147635750838201355b600019600387901b1c1916600186901b178355612a90565b600083815260209020601f19861690835b828110156147ac578685013582556020948501946001909201910161478c565b50868210156147c95760001960f88860031b161c19848701351681555b505060018560011b0183555050505050565b60ff81168114610b5757600080fd5b6000602082840312156147fc57600080fd5b813561078d816147db565b60028110610b5757600080fd5b60006020828403121561482657600080fd5b813561078d81614807565b6001600160a01b03929092168252602082015260400190565b60ff8181168382160190811115610243576102436145ef565b6001600160a01b0391909116815260200190565b60006020828403121561488957600080fd5b8151801515811461078d57600080fd5b6001600160a01b039384168152919092166020820152604081019190915260600190565b6001600160e01b03198316815281516000906148e0816004850160208701614384565b919091016004019392505050565b81810381811115610243576102436145ef565b60018060a01b038516815283602082015260806040820152600061492860808301856143a8565b828103606084015261493a81856143a8565b979650505050505050565b80820180821115610243576102436145ef565b8082028115828204841417610243576102436145ef565b60006020828403121561498157600080fd5b5051919050565b60006060828403121561499a57600080fd5b6040516060810181811067ffffffffffffffff821117156149bd576149bd6145d9565b8060405250825181526020830151602082015260408301516149de816147db565b60408201529392505050565b6000825161464a818460208701614384565b6001600160a01b0394909416845260208401929092526040830152606082015260800190565b600082614a3f57634e487b7160e01b600052601260045260246000fd5b500490565b600081614a5357614a536145ef565b506000190190565b634e487b7160e01b600052603160045260246000fd5b6001600160a01b0383168152604060208201819052600090610d76908301846143a8565b600060208284031215614aa757600080fd5b815161078d81614807565b838152826020820152606060408201526000610d7360608301846143a856fe8c5be1e5ebec7d5bd14f71427d1e84f3dd0314c0f7b2291e5b200ac8c7c3b925a2646970667358221220e5312716597f5227bdb5889337333d1cee44076de8ed68a31554ad03c14024d964736f6c63430008120033",
  "linkReferences": {},
  "deployedLinkReferences": {}
}