{
  "_format": "hh-sol-artifact-1",
  "contractName": "ERC1594",
  "sourceName": "contracts/layer_1/ERC1400/ERC1594/ERC1594.sol",
  "abi": [
    {
      "inputs": [
        {
          "internalType": "address",
          "name": "account",
          "type": "address"
        },
        {
          "internalType": "bytes32",
          "name": "role",
          "type": "bytes32"
        }
      ],
      "name": "AccountHasNoRole",
      "type": "error"
    },
    {
      "inputs": [
        {
          "internalType": "address",
          "name": "account",
          "type": "address"
        },
        {
          "internalType": "bytes32[]",
          "name": "roles",
          "type": "bytes32[]"
        }
      ],
      "name": "AccountHasNoRoles",
      "type": "error"
    },
    {
      "inputs": [
        {
          "internalType": "address",
          "name": "account",
          "type": "address"
        }
      ],
      "name": "AccountIsBlocked",
      "type": "error"
    },
    {
      "inputs": [],
      "name": "AllBusinessLogicKeysMustBeenInformed",
      "type": "error"
    },
    {
      "inputs": [],
      "name": "AlreadyInitialized",
      "type": "error"
    },
    {
      "inputs": [
        {
          "internalType": "bytes32",
          "name": "businessLogicKey",
          "type": "bytes32"
        }
      ],
      "name": "BusinessLogicKeyDuplicated",
      "type": "error"
    },
    {
      "inputs": [
        {
          "internalType": "bytes32",
          "name": "businessLogicKey",
          "type": "bytes32"
        }
      ],
      "name": "BusinessLogicNotActive",
      "type": "error"
    },
    {
      "inputs": [
        {
          "internalType": "uint256",
          "name": "version",
          "type": "uint256"
        }
      ],
      "name": "BusinessLogicVersionDoesNotExist",
      "type": "error"
    },
    {
      "inputs": [],
      "name": "ExpirationNotReached",
      "type": "error"
    },
    {
      "inputs": [],
      "name": "FactorIsZero",
      "type": "error"
    },
    {
      "inputs": [
        {
          "internalType": "address",
          "name": "spender",
          "type": "address"
        },
        {
          "internalType": "address",
          "name": "from",
          "type": "address"
        }
      ],
      "name": "InsufficientAllowance",
      "type": "error"
    },
    {
      "inputs": [
        {
          "internalType": "address",
          "name": "account",
          "type": "address"
        },
        {
          "internalType": "uint256",
          "name": "balance",
          "type": "uint256"
        },
        {
          "internalType": "uint256",
          "name": "value",
          "type": "uint256"
        },
        {
          "internalType": "bytes32",
          "name": "partition",
          "type": "bytes32"
        }
      ],
      "name": "InsufficientBalance",
      "type": "error"
    },
    {
      "inputs": [
        {
          "internalType": "address",
          "name": "user",
          "type": "address"
        },
        {
          "internalType": "uint256",
          "name": "requestedUnfreeze",
          "type": "uint256"
        },
        {
          "internalType": "uint256",
          "name": "availableFrozen",
          "type": "uint256"
        },
        {
          "internalType": "bytes32",
          "name": "partition",
          "type": "bytes32"
        }
      ],
      "name": "InsufficientFrozenBalance",
      "type": "error"
    },
    {
      "inputs": [
        {
          "internalType": "address",
          "name": "account",
          "type": "address"
        },
        {
          "internalType": "bytes32",
          "name": "partition",
          "type": "bytes32"
        }
      ],
      "name": "InvalidPartition",
      "type": "error"
    },
    {
      "inputs": [],
      "name": "IssuanceIsClosed",
      "type": "error"
    },
    {
      "inputs": [],
      "name": "LockExpirationNotReached",
      "type": "error"
    },
    {
      "inputs": [
        {
          "internalType": "uint256",
          "name": "maxSupply",
          "type": "uint256"
        }
      ],
      "name": "MaxSupplyReached",
      "type": "error"
    },
    {
      "inputs": [
        {
          "internalType": "bytes32",
          "name": "partition",
          "type": "bytes32"
        },
        {
          "internalType": "uint256",
          "name": "maxSupply",
          "type": "uint256"
        }
      ],
      "name": "MaxSupplyReachedForPartition",
      "type": "error"
    },
    {
      "inputs": [
        {
          "internalType": "bytes32",
          "name": "partition",
          "type": "bytes32"
        },
        {
          "internalType": "uint256",
          "name": "newMaxSupplyByPartition",
          "type": "uint256"
        },
        {
          "internalType": "uint256",
          "name": "maxSupply",
          "type": "uint256"
        }
      ],
      "name": "NewMaxSupplyByPartitionTooHigh",
      "type": "error"
    },
    {
      "inputs": [],
      "name": "NewMaxSupplyCannotBeZero",
      "type": "error"
    },
    {
      "inputs": [
        {
          "internalType": "bytes32",
          "name": "partition",
          "type": "bytes32"
        },
        {
          "internalType": "uint256",
          "name": "maxSupply",
          "type": "uint256"
        },
        {
          "internalType": "uint256",
          "name": "totalSupply",
          "type": "uint256"
        }
      ],
      "name": "NewMaxSupplyForPartitionTooLow",
      "type": "error"
    },
    {
      "inputs": [
        {
          "internalType": "uint256",
          "name": "maxSupply",
          "type": "uint256"
        },
        {
          "internalType": "uint256",
          "name": "totalSupply",
          "type": "uint256"
        }
      ],
      "name": "NewMaxSupplyTooLow",
      "type": "error"
    },
    {
      "inputs": [],
      "name": "NotAllowedInMultiPartitionMode",
      "type": "error"
    },
    {
      "inputs": [],
      "name": "NotAutocalling",
      "type": "error"
    },
    {
      "inputs": [],
      "name": "OnlyDelegateAllowed",
      "type": "error"
    },
    {
      "inputs": [
        {
          "internalType": "bytes32",
          "name": "partition",
          "type": "bytes32"
        }
      ],
      "name": "PartitionNotAllowedInSinglePartitionMode",
      "type": "error"
    },
    {
      "inputs": [
        {
          "internalType": "address",
          "name": "account",
          "type": "address"
        },
        {
          "internalType": "bytes32",
          "name": "role",
          "type": "bytes32"
        }
      ],
      "name": "PartitionsAreProtectedAndNoRole",
      "type": "error"
    },
    {
      "inputs": [],
      "name": "PartitionsAreUnProtected",
      "type": "error"
    },
    {
      "inputs": [
        {
          "internalType": "uint256",
          "name": "rolesLength",
          "type": "uint256"
        },
        {
          "internalType": "uint256",
          "name": "activesLength",
          "type": "uint256"
        }
      ],
      "name": "RolesAndActivesLengthMismatch",
      "type": "error"
    },
    {
      "inputs": [
        {
          "internalType": "uint256",
          "name": "snapshotId",
          "type": "uint256"
        }
      ],
      "name": "SnapshotIdDoesNotExists",
      "type": "error"
    },
    {
      "inputs": [],
      "name": "SnapshotIdNull",
      "type": "error"
    },
    {
      "inputs": [],
      "name": "SpenderWithZeroAddress",
      "type": "error"
    },
    {
      "inputs": [],
      "name": "TokenIsNotControllable",
      "type": "error"
    },
    {
      "inputs": [],
      "name": "TokenIsPaused",
      "type": "error"
    },
    {
      "inputs": [],
      "name": "TokenIsUnpaused",
      "type": "error"
    },
    {
      "inputs": [
        {
          "internalType": "address",
          "name": "operator",
          "type": "address"
        },
        {
          "internalType": "address",
          "name": "tokenHolder",
          "type": "address"
        },
        {
          "internalType": "bytes32",
          "name": "partition",
          "type": "bytes32"
        }
      ],
      "name": "Unauthorized",
      "type": "error"
    },
    {
      "inputs": [],
      "name": "WalletRecovered",
      "type": "error"
    },
    {
      "inputs": [],
      "name": "WrongExpirationTimestamp",
      "type": "error"
    },
    {
      "inputs": [],
      "name": "WrongLockId",
      "type": "error"
    },
    {
      "inputs": [],
      "name": "WrongSignature",
      "type": "error"
    },
    {
      "inputs": [
        {
          "internalType": "uint256",
          "name": "timeStamp",
          "type": "uint256"
        }
      ],
      "name": "WrongTimestamp",
      "type": "error"
    },
    {
      "inputs": [],
      "name": "ZeroAddressNotAllowed",
      "type": "error"
    },
    {
      "inputs": [],
      "name": "ZeroKeyNotValidForBusinessLogic",
      "type": "error"
    },
    {
      "inputs": [],
      "name": "ZeroOwnerAddress",
      "type": "error"
    },
    {
      "inputs": [],
      "name": "ZeroPartition",
      "type": "error"
    },
    {
      "inputs": [],
      "name": "ZeroValue",
      "type": "error"
    },
    {
      "anonymous": false,
      "inputs": [
        {
          "indexed": true,
          "internalType": "address",
          "name": "operator",
          "type": "address"
        },
        {
          "indexed": false,
          "internalType": "uint256",
          "name": "factor",
          "type": "uint256"
        },
        {
          "indexed": false,
          "internalType": "uint8",
          "name": "decimals",
          "type": "uint8"
        }
      ],
      "name": "AdjustmentBalanceSet",
      "type": "event"
    },
    {
      "anonymous": false,
      "inputs": [
        {
          "indexed": true,
          "internalType": "address",
          "name": "owner",
          "type": "address"
        },
        {
          "indexed": true,
          "internalType": "address",
          "name": "spender",
          "type": "address"
        },
        {
          "indexed": false,
          "internalType": "uint256",
          "name": "value",
          "type": "uint256"
        }
      ],
      "name": "Approval",
      "type": "event"
    },
    {
      "anonymous": false,
      "inputs": [
        {
          "indexed": true,
          "internalType": "address",
          "name": "operator",
          "type": "address"
        },
        {
          "indexed": true,
          "internalType": "address",
          "name": "tokenHolder",
          "type": "address"
        }
      ],
      "name": "AuthorizedOperator",
      "type": "event"
    },
    {
      "anonymous": false,
      "inputs": [
        {
          "indexed": true,
          "internalType": "bytes32",
          "name": "partition",
          "type": "bytes32"
        },
        {
          "indexed": true,
          "internalType": "address",
          "name": "operator",
          "type": "address"
        },
        {
          "indexed": true,
          "internalType": "address",
          "name": "tokenHolder",
          "type": "address"
        }
      ],
      "name": "AuthorizedOperatorByPartition",
      "type": "event"
    },
    {
      "anonymous": false,
      "inputs": [
        {
          "indexed": true,
          "internalType": "address",
          "name": "operator",
          "type": "address"
        },
        {
          "indexed": true,
          "internalType": "address",
          "name": "tokenHolder",
          "type": "address"
        },
        {
          "indexed": false,
          "internalType": "bytes32",
          "name": "partition",
          "type": "bytes32"
        },
        {
          "indexed": false,
          "internalType": "uint256",
          "name": "clearingId",
          "type": "uint256"
        },
        {
          "components": [
            {
              "internalType": "uint256",
              "name": "amount",
              "type": "uint256"
            },
            {
              "internalType": "uint256",
              "name": "expirationTimestamp",
              "type": "uint256"
            },
            {
              "internalType": "address",
              "name": "escrow",
              "type": "address"
            },
            {
              "internalType": "address",
              "name": "to",
              "type": "address"
            },
            {
              "internalType": "bytes",
              "name": "data",
              "type": "bytes"
            }
          ],
          "indexed": false,
          "internalType": "struct Hold",
          "name": "hold",
          "type": "tuple"
        },
        {
          "indexed": false,
          "internalType": "uint256",
          "name": "expirationDate",
          "type": "uint256"
        },
        {
          "indexed": false,
          "internalType": "bytes",
          "name": "data",
          "type": "bytes"
        },
        {
          "indexed": false,
          "internalType": "bytes",
          "name": "operatorData",
          "type": "bytes"
        }
      ],
      "name": "ClearedHoldByPartition",
      "type": "event"
    },
    {
      "anonymous": false,
      "inputs": [
        {
          "indexed": true,
          "internalType": "address",
          "name": "operator",
          "type": "address"
        },
        {
          "indexed": true,
          "internalType": "address",
          "name": "tokenHolder",
          "type": "address"
        },
        {
          "indexed": false,
          "internalType": "bytes32",
          "name": "partition",
          "type": "bytes32"
        },
        {
          "indexed": false,
          "internalType": "uint256",
          "name": "clearingId",
          "type": "uint256"
        },
        {
          "components": [
            {
              "internalType": "uint256",
              "name": "amount",
              "type": "uint256"
            },
            {
              "internalType": "uint256",
              "name": "expirationTimestamp",
              "type": "uint256"
            },
            {
              "internalType": "address",
              "name": "escrow",
              "type": "address"
            },
            {
              "internalType": "address",
              "name": "to",
              "type": "address"
            },
            {
              "internalType": "bytes",
              "name": "data",
              "type": "bytes"
            }
          ],
          "indexed": false,
          "internalType": "struct Hold",
          "name": "hold",
          "type": "tuple"
        },
        {
          "indexed": false,
          "internalType": "uint256",
          "name": "expirationDate",
          "type": "uint256"
        },
        {
          "indexed": false,
          "internalType": "bytes",
          "name": "data",
          "type": "bytes"
        },
        {
          "indexed": false,
          "internalType": "bytes",
          "name": "operatorData",
          "type": "bytes"
        }
      ],
      "name": "ClearedHoldFromByPartition",
      "type": "event"
    },
    {
      "anonymous": false,
      "inputs": [
        {
          "indexed": true,
          "internalType": "address",
          "name": "operator",
          "type": "address"
        },
        {
          "indexed": true,
          "internalType": "address",
          "name": "tokenHolder",
          "type": "address"
        },
        {
          "indexed": false,
          "internalType": "bytes32",
          "name": "partition",
          "type": "bytes32"
        },
        {
          "indexed": false,
          "internalType": "uint256",
          "name": "clearingId",
          "type": "uint256"
        },
        {
          "components": [
            {
              "internalType": "uint256",
              "name": "amount",
              "type": "uint256"
            },
            {
              "internalType": "uint256",
              "name": "expirationTimestamp",
              "type": "uint256"
            },
            {
              "internalType": "address",
              "name": "escrow",
              "type": "address"
            },
            {
              "internalType": "address",
              "name": "to",
              "type": "address"
            },
            {
              "internalType": "bytes",
              "name": "data",
              "type": "bytes"
            }
          ],
          "indexed": false,
          "internalType": "struct Hold",
          "name": "hold",
          "type": "tuple"
        },
        {
          "indexed": false,
          "internalType": "uint256",
          "name": "expirationDate",
          "type": "uint256"
        },
        {
          "indexed": false,
          "internalType": "bytes",
          "name": "data",
          "type": "bytes"
        },
        {
          "indexed": false,
          "internalType": "bytes",
          "name": "operatorData",
          "type": "bytes"
        }
      ],
      "name": "ClearedOperatorHoldByPartition",
      "type": "event"
    },
    {
      "anonymous": false,
      "inputs": [
        {
          "indexed": true,
          "internalType": "address",
          "name": "operator",
          "type": "address"
        },
        {
          "indexed": true,
          "internalType": "address",
          "name": "tokenHolder",
          "type": "address"
        },
        {
          "indexed": false,
          "internalType": "bytes32",
          "name": "partition",
          "type": "bytes32"
        },
        {
          "indexed": false,
          "internalType": "uint256",
          "name": "clearingId",
          "type": "uint256"
        },
        {
          "indexed": false,
          "internalType": "uint256",
          "name": "amount",
          "type": "uint256"
        },
        {
          "indexed": false,
          "internalType": "uint256",
          "name": "expirationDate",
          "type": "uint256"
        },
        {
          "indexed": false,
          "internalType": "bytes",
          "name": "data",
          "type": "bytes"
        },
        {
          "indexed": false,
          "internalType": "bytes",
          "name": "operatorData",
          "type": "bytes"
        }
      ],
      "name": "ClearedOperatorRedeemByPartition",
      "type": "event"
    },
    {
      "anonymous": false,
      "inputs": [
        {
          "indexed": true,
          "internalType": "address",
          "name": "operator",
          "type": "address"
        },
        {
          "indexed": true,
          "internalType": "address",
          "name": "tokenHolder",
          "type": "address"
        },
        {
          "indexed": true,
          "internalType": "address",
          "name": "to",
          "type": "address"
        },
        {
          "indexed": false,
          "internalType": "bytes32",
          "name": "partition",
          "type": "bytes32"
        },
        {
          "indexed": false,
          "internalType": "uint256",
          "name": "clearingId",
          "type": "uint256"
        },
        {
          "indexed": false,
          "internalType": "uint256",
          "name": "amount",
          "type": "uint256"
        },
        {
          "indexed": false,
          "internalType": "uint256",
          "name": "expirationDate",
          "type": "uint256"
        },
        {
          "indexed": false,
          "internalType": "bytes",
          "name": "data",
          "type": "bytes"
        },
        {
          "indexed": false,
          "internalType": "bytes",
          "name": "operatorData",
          "type": "bytes"
        }
      ],
      "name": "ClearedOperatorTransferByPartition",
      "type": "event"
    },
    {
      "anonymous": false,
      "inputs": [
        {
          "indexed": true,
          "internalType": "address",
          "name": "operator",
          "type": "address"
        },
        {
          "indexed": true,
          "internalType": "address",
          "name": "tokenHolder",
          "type": "address"
        },
        {
          "indexed": false,
          "internalType": "bytes32",
          "name": "partition",
          "type": "bytes32"
        },
        {
          "indexed": false,
          "internalType": "uint256",
          "name": "clearingId",
          "type": "uint256"
        },
        {
          "indexed": false,
          "internalType": "uint256",
          "name": "amount",
          "type": "uint256"
        },
        {
          "indexed": false,
          "internalType": "uint256",
          "name": "expirationDate",
          "type": "uint256"
        },
        {
          "indexed": false,
          "internalType": "bytes",
          "name": "data",
          "type": "bytes"
        },
        {
          "indexed": false,
          "internalType": "bytes",
          "name": "operatorData",
          "type": "bytes"
        }
      ],
      "name": "ClearedRedeemByPartition",
      "type": "event"
    },
    {
      "anonymous": false,
      "inputs": [
        {
          "indexed": true,
          "internalType": "address",
          "name": "operator",
          "type": "address"
        },
        {
          "indexed": true,
          "internalType": "address",
          "name": "tokenHolder",
          "type": "address"
        },
        {
          "indexed": false,
          "internalType": "bytes32",
          "name": "partition",
          "type": "bytes32"
        },
        {
          "indexed": false,
          "internalType": "uint256",
          "name": "clearingId",
          "type": "uint256"
        },
        {
          "indexed": false,
          "internalType": "uint256",
          "name": "amount",
          "type": "uint256"
        },
        {
          "indexed": false,
          "internalType": "uint256",
          "name": "expirationDate",
          "type": "uint256"
        },
        {
          "indexed": false,
          "internalType": "bytes",
          "name": "data",
          "type": "bytes"
        },
        {
          "indexed": false,
          "internalType": "bytes",
          "name": "operatorData",
          "type": "bytes"
        }
      ],
      "name": "ClearedRedeemFromByPartition",
      "type": "event"
    },
    {
      "anonymous": false,
      "inputs": [
        {
          "indexed": true,
          "internalType": "address",
          "name": "operator",
          "type": "address"
        },
        {
          "indexed": true,
          "internalType": "address",
          "name": "tokenHolder",
          "type": "address"
        },
        {
          "indexed": true,
          "internalType": "address",
          "name": "to",
          "type": "address"
        },
        {
          "indexed": false,
          "internalType": "bytes32",
          "name": "partition",
          "type": "bytes32"
        },
        {
          "indexed": false,
          "internalType": "uint256",
          "name": "clearingId",
          "type": "uint256"
        },
        {
          "indexed": false,
          "internalType": "uint256",
          "name": "amount",
          "type": "uint256"
        },
        {
          "indexed": false,
          "internalType": "uint256",
          "name": "expirationDate",
          "type": "uint256"
        },
        {
          "indexed": false,
          "internalType": "bytes",
          "name": "data",
          "type": "bytes"
        },
        {
          "indexed": false,
          "internalType": "bytes",
          "name": "operatorData",
          "type": "bytes"
        }
      ],
      "name": "ClearedTransferByPartition",
      "type": "event"
    },
    {
      "anonymous": false,
      "inputs": [
        {
          "indexed": true,
          "internalType": "address",
          "name": "operator",
          "type": "address"
        },
        {
          "indexed": true,
          "internalType": "address",
          "name": "tokenHolder",
          "type": "address"
        },
        {
          "indexed": true,
          "internalType": "address",
          "name": "to",
          "type": "address"
        },
        {
          "indexed": false,
          "internalType": "bytes32",
          "name": "partition",
          "type": "bytes32"
        },
        {
          "indexed": false,
          "internalType": "uint256",
          "name": "clearingId",
          "type": "uint256"
        },
        {
          "indexed": false,
          "internalType": "uint256",
          "name": "amount",
          "type": "uint256"
        },
        {
          "indexed": false,
          "internalType": "uint256",
          "name": "expirationDate",
          "type": "uint256"
        },
        {
          "indexed": false,
          "internalType": "bytes",
          "name": "data",
          "type": "bytes"
        },
        {
          "indexed": false,
          "internalType": "bytes",
          "name": "operatorData",
          "type": "bytes"
        }
      ],
      "name": "ClearedTransferFromByPartition",
      "type": "event"
    },
    {
      "anonymous": false,
      "inputs": [
        {
          "indexed": true,
          "internalType": "address",
          "name": "compliance",
          "type": "address"
        }
      ],
      "name": "ComplianceAdded",
      "type": "event"
    },
    {
      "anonymous": false,
      "inputs": [
        {
          "indexed": false,
          "internalType": "address",
          "name": "_controller",
          "type": "address"
        },
        {
          "indexed": true,
          "internalType": "address",
          "name": "_tokenHolder",
          "type": "address"
        },
        {
          "indexed": false,
          "internalType": "uint256",
          "name": "_value",
          "type": "uint256"
        },
        {
          "indexed": false,
          "internalType": "bytes",
          "name": "_data",
          "type": "bytes"
        },
        {
          "indexed": false,
          "internalType": "bytes",
          "name": "_operatorData",
          "type": "bytes"
        }
      ],
      "name": "ControllerRedemption",
      "type": "event"
    },
    {
      "anonymous": false,
      "inputs": [
        {
          "indexed": false,
          "internalType": "address",
          "name": "_controller",
          "type": "address"
        },
        {
          "indexed": true,
          "internalType": "address",
          "name": "_from",
          "type": "address"
        },
        {
          "indexed": true,
          "internalType": "address",
          "name": "_to",
          "type": "address"
        },
        {
          "indexed": false,
          "internalType": "uint256",
          "name": "_value",
          "type": "uint256"
        },
        {
          "indexed": false,
          "internalType": "bytes",
          "name": "_data",
          "type": "bytes"
        },
        {
          "indexed": false,
          "internalType": "bytes",
          "name": "_operatorData",
          "type": "bytes"
        }
      ],
      "name": "ControllerTransfer",
      "type": "event"
    },
    {
      "anonymous": false,
      "inputs": [
        {
          "indexed": false,
          "internalType": "address",
          "name": "operator",
          "type": "address"
        }
      ],
      "name": "FinalizedControllerFeature",
      "type": "event"
    },
    {
      "anonymous": false,
      "inputs": [
        {
          "indexed": true,
          "internalType": "address",
          "name": "_operator",
          "type": "address"
        },
        {
          "indexed": true,
          "internalType": "address",
          "name": "_to",
          "type": "address"
        },
        {
          "indexed": false,
          "internalType": "uint256",
          "name": "_value",
          "type": "uint256"
        },
        {
          "indexed": false,
          "internalType": "bytes",
          "name": "_data",
          "type": "bytes"
        }
      ],
      "name": "Issued",
      "type": "event"
    },
    {
      "anonymous": false,
      "inputs": [
        {
          "indexed": true,
          "internalType": "bytes32",
          "name": "partition",
          "type": "bytes32"
        },
        {
          "indexed": true,
          "internalType": "address",
          "name": "operator",
          "type": "address"
        },
        {
          "indexed": true,
          "internalType": "address",
          "name": "to",
          "type": "address"
        },
        {
          "indexed": false,
          "internalType": "uint256",
          "name": "value",
          "type": "uint256"
        },
        {
          "indexed": false,
          "internalType": "bytes",
          "name": "data",
          "type": "bytes"
        }
      ],
      "name": "IssuedByPartition",
      "type": "event"
    },
    {
      "anonymous": false,
      "inputs": [
        {
          "indexed": true,
          "internalType": "address",
          "name": "operator",
          "type": "address"
        },
        {
          "indexed": true,
          "internalType": "bytes32",
          "name": "partition",
          "type": "bytes32"
        },
        {
          "indexed": false,
          "internalType": "uint256",
          "name": "newMaxSupply",
          "type": "uint256"
        },
        {
          "indexed": false,
          "internalType": "uint256",
          "name": "previousMaxSupply",
          "type": "uint256"
        }
      ],
      "name": "MaxSupplyByPartitionSet",
      "type": "event"
    },
    {
      "anonymous": false,
      "inputs": [
        {
          "indexed": true,
          "internalType": "address",
          "name": "operator",
          "type": "address"
        },
        {
          "indexed": false,
          "internalType": "uint256",
          "name": "newMaxSupply",
          "type": "uint256"
        },
        {
          "indexed": false,
          "internalType": "uint256",
          "name": "previousMaxSupply",
          "type": "uint256"
        }
      ],
      "name": "MaxSupplySet",
      "type": "event"
    },
    {
      "anonymous": false,
      "inputs": [
        {
          "indexed": true,
          "internalType": "address",
          "name": "operator",
          "type": "address"
        }
      ],
      "name": "PartitionsProtected",
      "type": "event"
    },
    {
      "anonymous": false,
      "inputs": [
        {
          "indexed": true,
          "internalType": "address",
          "name": "operator",
          "type": "address"
        }
      ],
      "name": "PartitionsUnProtected",
      "type": "event"
    },
    {
      "anonymous": false,
      "inputs": [
        {
          "indexed": true,
          "internalType": "address",
          "name": "operator",
          "type": "address"
        },
        {
          "indexed": true,
          "internalType": "address",
          "name": "tokenHolder",
          "type": "address"
        },
        {
          "indexed": false,
          "internalType": "bytes32",
          "name": "partition",
          "type": "bytes32"
        },
        {
          "indexed": false,
          "internalType": "uint256",
          "name": "clearingId",
          "type": "uint256"
        },
        {
          "components": [
            {
              "internalType": "uint256",
              "name": "amount",
              "type": "uint256"
            },
            {
              "internalType": "uint256",
              "name": "expirationTimestamp",
              "type": "uint256"
            },
            {
              "internalType": "address",
              "name": "escrow",
              "type": "address"
            },
            {
              "internalType": "address",
              "name": "to",
              "type": "address"
            },
            {
              "internalType": "bytes",
              "name": "data",
              "type": "bytes"
            }
          ],
          "indexed": false,
          "internalType": "struct Hold",
          "name": "hold",
          "type": "tuple"
        },
        {
          "indexed": false,
          "internalType": "uint256",
          "name": "expirationDate",
          "type": "uint256"
        },
        {
          "indexed": false,
          "internalType": "bytes",
          "name": "data",
          "type": "bytes"
        },
        {
          "indexed": false,
          "internalType": "bytes",
          "name": "operatorData",
          "type": "bytes"
        }
      ],
      "name": "ProtectedClearedHoldByPartition",
      "type": "event"
    },
    {
      "anonymous": false,
      "inputs": [
        {
          "indexed": true,
          "internalType": "address",
          "name": "operator",
          "type": "address"
        },
        {
          "indexed": true,
          "internalType": "address",
          "name": "tokenHolder",
          "type": "address"
        },
        {
          "indexed": false,
          "internalType": "bytes32",
          "name": "partition",
          "type": "bytes32"
        },
        {
          "indexed": false,
          "internalType": "uint256",
          "name": "clearingId",
          "type": "uint256"
        },
        {
          "indexed": false,
          "internalType": "uint256",
          "name": "amount",
          "type": "uint256"
        },
        {
          "indexed": false,
          "internalType": "uint256",
          "name": "expirationDate",
          "type": "uint256"
        },
        {
          "indexed": false,
          "internalType": "bytes",
          "name": "data",
          "type": "bytes"
        },
        {
          "indexed": false,
          "internalType": "bytes",
          "name": "operatorData",
          "type": "bytes"
        }
      ],
      "name": "ProtectedClearedRedeemByPartition",
      "type": "event"
    },
    {
      "anonymous": false,
      "inputs": [
        {
          "indexed": true,
          "internalType": "address",
          "name": "operator",
          "type": "address"
        },
        {
          "indexed": true,
          "internalType": "address",
          "name": "tokenHolder",
          "type": "address"
        },
        {
          "indexed": true,
          "internalType": "address",
          "name": "to",
          "type": "address"
        },
        {
          "indexed": false,
          "internalType": "bytes32",
          "name": "partition",
          "type": "bytes32"
        },
        {
          "indexed": false,
          "internalType": "uint256",
          "name": "clearingId",
          "type": "uint256"
        },
        {
          "indexed": false,
          "internalType": "uint256",
          "name": "amount",
          "type": "uint256"
        },
        {
          "indexed": false,
          "internalType": "uint256",
          "name": "expirationDate",
          "type": "uint256"
        },
        {
          "indexed": false,
          "internalType": "bytes",
          "name": "data",
          "type": "bytes"
        },
        {
          "indexed": false,
          "internalType": "bytes",
          "name": "operatorData",
          "type": "bytes"
        }
      ],
      "name": "ProtectedClearedTransferByPartition",
      "type": "event"
    },
    {
      "anonymous": false,
      "inputs": [
        {
          "indexed": true,
          "internalType": "bytes32",
          "name": "partition",
          "type": "bytes32"
        },
        {
          "indexed": true,
          "internalType": "address",
          "name": "operator",
          "type": "address"
        },
        {
          "indexed": true,
          "internalType": "address",
          "name": "from",
          "type": "address"
        },
        {
          "indexed": false,
          "internalType": "uint256",
          "name": "value",
          "type": "uint256"
        },
        {
          "indexed": false,
          "internalType": "uint256",
          "name": "deadline",
          "type": "uint256"
        },
        {
          "indexed": false,
          "internalType": "uint256",
          "name": "nounce",
          "type": "uint256"
        },
        {
          "indexed": false,
          "internalType": "bytes",
          "name": "signature",
          "type": "bytes"
        }
      ],
      "name": "ProtectedRedeemFrom",
      "type": "event"
    },
    {
      "anonymous": false,
      "inputs": [
        {
          "indexed": true,
          "internalType": "bytes32",
          "name": "partition",
          "type": "bytes32"
        },
        {
          "indexed": true,
          "internalType": "address",
          "name": "operator",
          "type": "address"
        },
        {
          "indexed": true,
          "internalType": "address",
          "name": "from",
          "type": "address"
        },
        {
          "indexed": false,
          "internalType": "address",
          "name": "to",
          "type": "address"
        },
        {
          "indexed": false,
          "internalType": "uint256",
          "name": "value",
          "type": "uint256"
        },
        {
          "indexed": false,
          "internalType": "uint256",
          "name": "deadline",
          "type": "uint256"
        },
        {
          "indexed": false,
          "internalType": "uint256",
          "name": "nounce",
          "type": "uint256"
        },
        {
          "indexed": false,
          "internalType": "bytes",
          "name": "signature",
          "type": "bytes"
        }
      ],
      "name": "ProtectedTransferFrom",
      "type": "event"
    },
    {
      "anonymous": false,
      "inputs": [
        {
          "indexed": true,
          "internalType": "address",
          "name": "_operator",
          "type": "address"
        },
        {
          "indexed": true,
          "internalType": "address",
          "name": "_from",
          "type": "address"
        },
        {
          "indexed": false,
          "internalType": "uint256",
          "name": "_value",
          "type": "uint256"
        },
        {
          "indexed": false,
          "internalType": "bytes",
          "name": "_data",
          "type": "bytes"
        }
      ],
      "name": "Redeemed",
      "type": "event"
    },
    {
      "anonymous": false,
      "inputs": [
        {
          "indexed": true,
          "internalType": "bytes32",
          "name": "partition",
          "type": "bytes32"
        },
        {
          "indexed": true,
          "internalType": "address",
          "name": "operator",
          "type": "address"
        },
        {
          "indexed": true,
          "internalType": "address",
          "name": "from",
          "type": "address"
        },
        {
          "indexed": false,
          "internalType": "uint256",
          "name": "value",
          "type": "uint256"
        },
        {
          "indexed": false,
          "internalType": "bytes",
          "name": "data",
          "type": "bytes"
        },
        {
          "indexed": false,
          "internalType": "bytes",
          "name": "operatorData",
          "type": "bytes"
        }
      ],
      "name": "RedeemedByPartition",
      "type": "event"
    },
    {
      "anonymous": false,
      "inputs": [
        {
          "indexed": true,
          "internalType": "address",
          "name": "operator",
          "type": "address"
        },
        {
          "indexed": true,
          "internalType": "address",
          "name": "tokenHolder",
          "type": "address"
        }
      ],
      "name": "RevokedOperator",
      "type": "event"
    },
    {
      "anonymous": false,
      "inputs": [
        {
          "indexed": true,
          "internalType": "bytes32",
          "name": "partition",
          "type": "bytes32"
        },
        {
          "indexed": true,
          "internalType": "address",
          "name": "operator",
          "type": "address"
        },
        {
          "indexed": true,
          "internalType": "address",
          "name": "tokenHolder",
          "type": "address"
        }
      ],
      "name": "RevokedOperatorByPartition",
      "type": "event"
    },
    {
      "anonymous": false,
      "inputs": [
        {
          "indexed": true,
          "internalType": "bytes32",
          "name": "role",
          "type": "bytes32"
        },
        {
          "indexed": true,
          "internalType": "bytes32",
          "name": "previousAdminRole",
          "type": "bytes32"
        },
        {
          "indexed": true,
          "internalType": "bytes32",
          "name": "newAdminRole",
          "type": "bytes32"
        }
      ],
      "name": "RoleAdminChanged",
      "type": "event"
    },
    {
      "anonymous": false,
      "inputs": [
        {
          "indexed": true,
          "internalType": "address",
          "name": "operator",
          "type": "address"
        },
        {
          "indexed": true,
          "internalType": "uint256",
          "name": "snapshotID",
          "type": "uint256"
        }
      ],
      "name": "SnapshotTaken",
      "type": "event"
    },
    {
      "anonymous": false,
      "inputs": [
        {
          "indexed": true,
          "internalType": "address",
          "name": "operator",
          "type": "address"
        },
        {
          "indexed": false,
          "internalType": "uint256",
          "name": "snapshotId",
          "type": "uint256"
        }
      ],
      "name": "SnapshotTriggered",
      "type": "event"
    },
    {
      "anonymous": false,
      "inputs": [
        {
          "indexed": true,
          "internalType": "address",
          "name": "operator",
          "type": "address"
        }
      ],
      "name": "TokenPaused",
      "type": "event"
    },
    {
      "anonymous": false,
      "inputs": [
        {
          "indexed": true,
          "internalType": "address",
          "name": "operator",
          "type": "address"
        }
      ],
      "name": "TokenUnpaused",
      "type": "event"
    },
    {
      "anonymous": false,
      "inputs": [
        {
          "indexed": true,
          "internalType": "address",
          "name": "from",
          "type": "address"
        },
        {
          "indexed": true,
          "internalType": "address",
          "name": "to",
          "type": "address"
        },
        {
          "indexed": false,
          "internalType": "uint256",
          "name": "value",
          "type": "uint256"
        }
      ],
      "name": "Transfer",
      "type": "event"
    },
    {
      "anonymous": false,
      "inputs": [
        {
          "indexed": true,
          "internalType": "bytes32",
          "name": "_fromPartition",
          "type": "bytes32"
        },
        {
          "indexed": false,
          "internalType": "address",
          "name": "_operator",
          "type": "address"
        },
        {
          "indexed": true,
          "internalType": "address",
          "name": "_from",
          "type": "address"
        },
        {
          "indexed": true,
          "internalType": "address",
          "name": "_to",
          "type": "address"
        },
        {
          "indexed": false,
          "internalType": "uint256",
          "name": "_value",
          "type": "uint256"
        },
        {
          "indexed": false,
          "internalType": "bytes",
          "name": "_data",
          "type": "bytes"
        },
        {
          "indexed": false,
          "internalType": "bytes",
          "name": "_operatorData",
          "type": "bytes"
        }
      ],
      "name": "TransferByPartition",
      "type": "event"
    },
    {
      "inputs": [
        {
          "internalType": "address",
          "name": "_to",
          "type": "address"
        },
        {
          "internalType": "uint256",
          "name": "_value",
          "type": "uint256"
        },
        {
          "internalType": "bytes",
          "name": "_data",
          "type": "bytes"
        }
      ],
      "name": "canTransfer",
      "outputs": [
        {
          "internalType": "bool",
          "name": "",
          "type": "bool"
        },
        {
          "internalType": "bytes1",
          "name": "",
          "type": "bytes1"
        },
        {
          "internalType": "bytes32",
          "name": "",
          "type": "bytes32"
        }
      ],
      "stateMutability": "view",
      "type": "function"
    },
    {
      "inputs": [
        {
          "internalType": "address",
          "name": "_from",
          "type": "address"
        },
        {
          "internalType": "address",
          "name": "_to",
          "type": "address"
        },
        {
          "internalType": "uint256",
          "name": "_value",
          "type": "uint256"
        },
        {
          "internalType": "bytes",
          "name": "_data",
          "type": "bytes"
        }
      ],
      "name": "canTransferFrom",
      "outputs": [
        {
          "internalType": "bool",
          "name": "",
          "type": "bool"
        },
        {
          "internalType": "bytes1",
          "name": "",
          "type": "bytes1"
        },
        {
          "internalType": "bytes32",
          "name": "",
          "type": "bytes32"
        }
      ],
      "stateMutability": "view",
      "type": "function"
    },
    {
      "inputs": [],
      "name": "getStaticFunctionSelectors",
      "outputs": [
        {
          "internalType": "bytes4[]",
          "name": "staticFunctionSelectors_",
          "type": "bytes4[]"
        }
      ],
      "stateMutability": "pure",
      "type": "function"
    },
    {
      "inputs": [],
      "name": "getStaticInterfaceIds",
      "outputs": [
        {
          "internalType": "bytes4[]",
          "name": "staticInterfaceIds_",
          "type": "bytes4[]"
        }
      ],
      "stateMutability": "pure",
      "type": "function"
    },
    {
      "inputs": [],
      "name": "getStaticResolverKey",
      "outputs": [
        {
          "internalType": "bytes32",
          "name": "staticResolverKey_",
          "type": "bytes32"
        }
      ],
      "stateMutability": "pure",
      "type": "function"
    },
    {
      "inputs": [],
      "name": "initialize_ERC1594",
      "outputs": [],
      "stateMutability": "nonpayable",
      "type": "function"
    },
    {
      "inputs": [],
      "name": "isIssuable",
      "outputs": [
        {
          "internalType": "bool",
          "name": "",
          "type": "bool"
        }
      ],
      "stateMutability": "view",
      "type": "function"
    },
    {
      "inputs": [
        {
          "internalType": "address",
          "name": "_tokenHolder",
          "type": "address"
        },
        {
          "internalType": "uint256",
          "name": "_value",
          "type": "uint256"
        },
        {
          "internalType": "bytes",
          "name": "_data",
          "type": "bytes"
        }
      ],
      "name": "issue",
      "outputs": [],
      "stateMutability": "nonpayable",
      "type": "function"
    },
    {
      "inputs": [
        {
          "internalType": "uint256",
          "name": "_value",
          "type": "uint256"
        },
        {
          "internalType": "bytes",
          "name": "_data",
          "type": "bytes"
        }
      ],
      "name": "redeem",
      "outputs": [],
      "stateMutability": "nonpayable",
      "type": "function"
    },
    {
      "inputs": [
        {
          "internalType": "address",
          "name": "_tokenHolder",
          "type": "address"
        },
        {
          "internalType": "uint256",
          "name": "_value",
          "type": "uint256"
        },
        {
          "internalType": "bytes",
          "name": "_data",
          "type": "bytes"
        }
      ],
      "name": "redeemFrom",
      "outputs": [],
      "stateMutability": "nonpayable",
      "type": "function"
    },
    {
      "inputs": [
        {
          "internalType": "address",
          "name": "_from",
          "type": "address"
        },
        {
          "internalType": "address",
          "name": "_to",
          "type": "address"
        },
        {
          "internalType": "uint256",
          "name": "_value",
          "type": "uint256"
        },
        {
          "internalType": "bytes",
          "name": "",
          "type": "bytes"
        }
      ],
      "name": "transferFromWithData",
      "outputs": [],
      "stateMutability": "nonpayable",
      "type": "function"
    },
    {
      "inputs": [
        {
          "internalType": "address",
          "name": "_to",
          "type": "address"
        },
        {
          "internalType": "uint256",
          "name": "_value",
          "type": "uint256"
        },
        {
          "internalType": "bytes",
          "name": "",
          "type": "bytes"
        }
      ],
      "name": "transferWithData",
      "outputs": [],
      "stateMutability": "nonpayable",
      "type": "function"
    }
  ],
  "bytecode": "0x608060405234801561001057600080fd5b50614cda806100206000396000f3fe608060405234801561001057600080fd5b50600436106100b45760003560e01c80639be12cea116100715780639be12cea14610178578063b378cf3714610180578063bb3acde914610195578063c1f0d742146101a8578063e77c646d146101b0578063ee532f31146101c357600080fd5b8063122eb575146100b95780631badb25c146100f75780631ef2fdc81461010a5780632535f762146101385780632f1cae851461014d5780639675193c14610165575b600080fd5b6100cc6100c7366004614619565b6101d6565b6040805193151584526001600160f81b03199092166020840152908201526060015b60405180910390f35b6100cc610105366004614680565b61021d565b6040517fcb70773e8163595d8bd906e277adeb3935976ad802ee8c29face3dfb0263291f81526020016100ee565b61014b610146366004614717565b610262565b005b6101556102de565b60405190151581526020016100ee565b61014b610173366004614680565b6102ed565b61014b61036b565b610188610390565b6040516100ee9190614770565b61014b6101a3366004614717565b6103f6565b610188610527565b61014b6101be3660046147be565b610751565b61014b6101d1366004614804565b6107b7565b60008060006101e3610850565b60008060006102098a8a600160001b8b8b60405180602001604052806000815250610878565b50919c909b50909950975050505050505050565b600080600061022a610850565b6000808061024f338a600160001b8b8b60405180602001604052806000815250610878565b50919b909a509098509650505050505050565b61026a610850565b61027261098b565b3384600160001b8560405180602001604052806000815250604051806020016040528060008152506102c6868686866040518060200160405280600081525060405180602001604052806000815250610a11565b6102d1338b8b610a63565b5050505050505050505050565b60006102e8610ac9565b905090565b6102f5610850565b6102fd61098b565b82600160001b8383604051806020016040528060008152506103408585856040518060200160405280600081525060405180602001604052806000815250610adc565b3361034a81610b2c565b8861035481610b2c565b61035f8a8a8a610b53565b50505050505050505050565b610373610baf565b54610100900460ff1661038581610bd3565b61038d610bf1565b50565b60408051600180825281830190925260609160208083019080368337019050509050600063bc2bedad60e01b82826103c781614888565b9350815181106103d9576103d96148a1565b6001600160e01b0319909216602092830291909101909101525090565b6103fe610850565b8261040881610c0b565b6000856104158282610c57565b6000876000610425838383610c83565b61042d610cb3565b610435610cd8565b6040805160028082526060820183526000926020830190803683370190505090507f4be32e8849414d19186807008dabd451c1d87dae5f8e22f32f5ce94d486da84260001b8160008151811061048d5761048d6148a1565b6020026020010181815250507fc4aed0454da9bde6defa5baf93bb49d4690626fc243d138104e12d1def783ea660001b816001815181106104d0576104d06148a1565b60209081029190910101526104e58133610cfe565b5061035f8a8a8a8a8080601f016020809104026020016040519081016040528093929190818152602001838380828437600092019190915250610d2992505050565b604080516009808252610140820190925260609160208201610120803683370190505090506000634df0967560e11b828261056181614888565b935081518110610573576105736148a1565b6001600160e01b03199092166020928302919091019091015263129afbb160e11b828261059f81614888565b9350815181106105b1576105b16148a1565b6001600160e01b03199092166020928302919091019091015263ee532f3160e01b82826105dd81614888565b9350815181106105ef576105ef6148a1565b6001600160e01b031990921660209283029190910190910152632f1cae8560e01b828261061b81614888565b93508151811061062d5761062d6148a1565b6001600160e01b03199092166020928302919091019091015263bb3acde960e01b828261065981614888565b93508151811061066b5761066b6148a1565b6001600160e01b03199092166020928302919091019091015263e77c646d60e01b828261069781614888565b9350815181106106a9576106a96148a1565b6001600160e01b03199092166020928302919091019091015263259d464f60e21b82826106d581614888565b9350815181106106e7576106e76148a1565b6001600160e01b0319909216602092830291909101909101526306eb6c9760e21b828261071381614888565b935081518110610725576107256148a1565b6001600160e01b03199092166020928302919091019091015263122eb57560e01b82826103c781614888565b610759610850565b61076161098b565b33600160001b8383604051806020016040528060008152506107a48585856040518060200160405280600081525060405180602001604052806000815250610adc565b6107ae8787610d78565b50505050505050565b6107bf610850565b6107c761098b565b8484600160001b85604051806020016040528060008152506040518060200160405280600081525061081b868686866040518060200160405280600081525060405180602001604052806000815250610a11565b61082433610b2c565b61082d8a610b2c565b6108368b610b2c565b610842338c8c8c610dc5565b505050505050505050505050565b610858610e36565b1561087657604051630eda11f160e31b815260040160405180910390fd5b565b60008060006060610887610e4c565b92965090945092509050831561097e576001600160a01b038a1615806108b457506001600160a01b038916155b156108e2575050604080516020810190915260008082529250600160fd1b91506342bcdf7f60e11b9061097e565b60006001600160a01b038b16331480159061090c575061090a6109048a610ee4565b33610f37565b155b905061091a8b8b8a84610f6d565b929750909550935091508461092f575061097e565b6109398b8b611276565b929750909550935091508461094e575061097e565b600081801561096557506109638a338e6114a7565b155b9050610973818d8b8d61154c565b955095509550955050505b9650965096509692505050565b61099361162b565b80156109c657506109c47f96658f163b67573bbf1e3f9e9330b199b3ac2f6ec0139ea95f622e20a5df2f4633610f37565b155b156108765733604051630553473160e41b8152610a0891907f96658f163b67573bbf1e3f9e9330b199b3ac2f6ec0139ea95f622e20a5df2f46906004016148b7565b60405180910390fd5b6000806000610a42898989896040518060200160405280600081525060405180602001604052806000815250610878565b9350935050925082610a5857610a58828261165d565b505050505050505050565b6000610ab3846040518060400160405280866001600160a01b0316815260200185815250600160001b6040518060200160405280600081525060006040518060200160405280600081525061168d565b50610abf848484611846565b90505b9392505050565b6000610ad3610baf565b5460ff16919050565b6000806000610b0c888888604051806020016040528060008152506040518060200160405280600081525061189f565b9350935050925082610b2257610b22828261165d565b5050505050505050565b610b3581611999565b1561038d5760405163f9f9bcf960e01b815260040160405180910390fd5b610b5d83836119c8565b6001600160a01b038316336001600160a01b03167fb7d0d6b60740753e9f16692a2f479472a1385aec2420fa43225b02f2ffa1afe78484604051610ba2929190614920565b60405180910390a3505050565b7f919465d7e15b775c94035d2b592c0808b79e37ecb2e0ceb66bd8c481f998ee9f90565b801561038d5760405162dc149f60e41b815260040160405180910390fd5b6000610bfb610baf565b805461ffff191661010117905550565b6000610c156119dd565b9050610c3382610c23611a07565b610c2d9190614939565b82611a11565b610c535760405163f9f8491560e01b815260048101829052602401610a08565b5050565b6000806000610c668585611276565b9350935050925082610c7c57610c7c828261165d565b5050505050565b6000806000610c958686600087610f6d565b9350935050925082610cab57610cab828261165d565b505050505050565b610cbb610ac9565b6108765760405163d3c3caeb60e01b815260040160405180910390fd5b610ce0611a21565b156108765760405163649815a560e01b815260040160405180910390fd5b610d088282611a56565b610c53578082604051634872a9c960e11b8152600401610a0892919061494c565b610d338383611ad2565b6001600160a01b038316336001600160a01b03167f0e9905d62635f049c2f4e11678ebf9dc3d1f8c4a653e290759b772e47ba00d008484604051610ba2929190614920565b610d823383611b28565b60405133906000907fb7d0d6b60740753e9f16692a2f479472a1385aec2420fa43225b02f2ffa1afe790610db99086908690614920565b60405180910390a35050565b6000610dd2848684611b65565b610e1f846040518060400160405280866001600160a01b0316815260200185815250600160001b60405180602001604052806000815250896040518060200160405280600081525061168d565b50610e2b848484611846565b90505b949350505050565b6000610e40611c1b565b6005015460ff16919050565b60008060006060610e5b611a21565b15610e89575050604080516020810190915260008082529250602160f91b915063649815a560e01b90610ede565b610e91611c3f565b15610ebf575050604080516020810190915260008082529250600160fe1b9150632d97184360e11b90610ede565b50506040805160208101909152600080825260019350600160f81b9250905b90919293565b604080517fdaba153046c65d49da6a7597abc24374aa681e3eee7004426ca6185b3927a3f56020820152908101829052600090606001604051602081830303815290604052805190602001209050919050565b6000610f647f4765bbd856d800638d39a79262ebc6fdfb5833d0e59f32c5d482fe4c4a3554c18484611c67565b90505b92915050565b6000806000606084156110f957610f8333611c8b565b610fd1576000600160fc1b63796c1f0d60e01b335b604051602001610fa891906149a2565b60408051601f198184030181529190529296509094506001600160e01b0319169250905061126b565b610fda33611999565b15610ff4576000600b60f91b63f9f9bcf960e01b33610f98565b600061107d6372331c7360e11b336040516001600160a01b03909116602482015260006044820181905260648201526084015b60408051601f198184030181529190526020810180516001600160e01b03166001600160e01b0319909316929092179091526333fdd08160e11b611069611cb3565b600201546001600160a01b03169190611cd7565b9050600081511180156110a157508080602001905181019061109f91906149b6565b155b156110f757604051600090600160fc1b906319bac6d560e21b906110cd908d908d908d906020016149d8565b604051602081830303815290604052816001600160e01b031916915094509450945094505061126b565b505b6001600160a01b038816156111695761111188611999565b1561113957604051600090600b60f91b9063f9f9bcf960e01b90610fa8908c906020016149a2565b61114288611c8b565b61116957604051600090600160fc1b9063796c1f0d60e01b90610fa8908c906020016149a2565b6001600160a01b038716156111d95761118187611999565b156111a957604051600090600b60f91b9063f9f9bcf960e01b90610fa8908b906020016149a2565b6111b287611c8b565b6111d957604051600090600160fc1b9063796c1f0d60e01b90610fa8908b906020016149a2565b60006111fb63e46638e660e01b8a8a8a604051602401611027939291906149d8565b90506000815111801561121f57508080602001905181019061121d91906149b6565b155b1561124b57604051600090600160fc1b906319bac6d560e21b906110cd908d908d908d906020016149d8565b50506040805160208101909152600080825260019450600160f81b935091505b945094509450949050565b6000808060606001600160a01b038616156113d257611296600187611d53565b6112e657604051600090600160fc1b9063fc855b1b60e01b906112bd908a906020016149a2565b60408051601f198184030181529190529296509094506001600160e01b0319169250905061149e565b600061135a63b9209e3360e01b8860405160240161130491906149a2565b60408051601f198184030181529190526020810180516001600160e01b03166001600160e01b0319909316929092179091526356c3c24f60e11b611346611cb3565b600101546001600160a01b03169190611cd7565b90506000815111801561137e57508080602001905181019061137c91906149b6565b155b156113d057604051600090600160fc1b9063209d285360e01b906113a6908b906020016149a2565b604051602081830303815290604052816001600160e01b031916915094509450945094505061149e565b505b6001600160a01b0385161561147f576113ec600186611d53565b61141357604051600090600160fc1b9063fc855b1b60e01b906112bd9089906020016149a2565b600061143163b9209e3360e01b8760405160240161130491906149a2565b90506000815111801561145557508080602001905181019061145391906149b6565b155b1561147d57604051600090600160fc1b9063209d285360e01b906113a6908a906020016149a2565b505b50506040805160208101909152600080825260019350600160f81b9250905b92959194509250565b6001600160a01b0380821660009081527f319c8795293307b302697a4daf045524536834965f40eb730e6ca085ae32ae016020908152604080832093861683529290529081205460ff1680610abf57506001600160a01b0380831660009081527f319c8795293307b302697a4daf045524536834965f40eb730e6ca085ae32ae006020908152604080832088845282528083209387168352929052205460ff16610abf565b6000806000606087156115b95760006115658833611df6565b9050868110156115b7576000601560fa1b63f180d8f960e01b33604080516001600160a01b039283166020820152918d169082015260608101859052608081018b9052600160a082015260c0016110cd565b505b6115c38588611e03565b6115ec57604051600090601560fa1b90632fe13d3b60e21b90610fa8908b908a906020016148b7565b60006115f88689611e50565b90508681101561124b57604051600090601560fa1b9063175a093160e21b906110cd908c9086908d908d906020016149fc565b60007f564ecdb30bda57ccdf5f0ccce9a283978b97919c80a3230163042042418b15465b54610100900460ff16919050565b60008282604051602001611672929190614a22565b60405160208183030381529060405290508051602082018181fd5b60006116a3858888600001518960200151611e5d565b6116b287876020015187611fc8565b85600001516001600160a01b0316876001600160a01b0316867fff4e9a26af4eb73b8bacfaa4abd4fea03d9448e7b912dc5ff4019048875aa2d4868a6020015189886040516117049493929190614a53565b60405180910390a461171a85876000015161214e565b6117da576117318660200151876000015187612188565b85516001600160a01b0388811691161480159061174e5750600185145b156117d257855160208701516040516117d0926322ebca6d60e21b9261177a928c9291906024016149d8565b60408051601f198184030181529190526020810180516001600160e01b03166001600160e01b0319909316929092179091526333fdd08160e11b6117bc611cb3565b600201546001600160a01b03169190612260565b505b50600061183c565b6117ed86600001518760200151876122c9565b85516001600160a01b0388811691161480159061180a5750600185145b156118385785516020870151604051611836926322ebca6d60e21b9261177a928c9291906024016149d8565b505b5060005b9695505050505050565b6000826001600160a01b0316846001600160a01b03167fddf252ad1be2c89b69c2b068fc378daa952ba7f163c4a11628f55a4df523b3ef8460405161188d91815260200190565b60405180910390a35060019392505050565b600080600060606118ae610e4c565b92965090945092509050831561198d576001600160a01b0389166118f5575050604080516020810190915260008082529250600160fd1b915063796c1f0d60e01b9061198d565b60006001600160a01b038a16331480159061191957506119176109048a610ee4565b155b90506119288a60008a84610f6d565b929750909550935091508461193d575061198d565b6119488a6000611276565b929750909550935091508461195d575061198d565b600081801561197457506119728a338d6114a7565b155b9050611982818c8b8d61154c565b955095509550955050505b95509550955095915050565b60006119a3611cb3565b6001600160a01b03909216600090815260059290920160205250604090205460ff1690565b6119d3823383611b65565b610c538282611b28565b60007f591561cf73f8f1ca1532449c7ce18338a75e9e17f2894af1e41b36e3b013f9515b54919050565b6000611a01611c1b565b6000811580610f64575050101590565b60007f5a5b295532a8b6e97bc9d45d68fc49b85a099545bac8f91f77706d392a1cea715460ff16806102e857506102e86123c0565b6000805b8351811015611ac857611aa77f4765bbd856d800638d39a79262ebc6fdfb5833d0e59f32c5d482fe4c4a3554c1858381518110611a9957611a996148a1565b602002602001015185611c67565b15611ab6576001915050610f67565b80611ac081614888565b915050611a5a565b5060009392505050565b611b176040518060800160405280600160001b8152602001846001600160a01b0316815260200183815260200160405180602001604052806000815250815250612494565b611b2360008383611846565b505050565b611b59600160001b8360008460405180602001604052806000815250604051806020016040528060008152506125ad565b611b2382600083611846565b611b6f8383612650565b6000611b79612667565b6001600160a01b038086166000908152600483016020908152604080832093881683529290522054909150821115611bd75760405163f180d8f960e01b81526001600160a01b03808516600483015285166024820152604401610a08565b6001600160a01b038085166000908152600483016020908152604080832093871683529290529081208054849290611c10908490614a97565b909155505050505050565b7f67661db80d37d3b9810c430f78991b4b5377bdebd3b71b39fbd3427092c1822a90565b60007ff5d5af29c37f2085b9f37cfb2259d4e3b957777d47ffc1949a7596cb1d37ba9061164f565b6001600160a01b03811660009081526001840160205260408120610abf908461268b565b6000611c96826126a3565b1515611ca06126cf565b1515148015610f675750610f67826126f7565b7fba82ce8c38a926a01a84988222ab779cf1852f228ccaafd725c8d06d090d090690565b60606001600160a01b03841615610ac257600080856001600160a01b031685604051611d039190614aaa565b600060405180830381855afa9150503d8060008114611d3e576040519150601f19603f3d011682016040523d82523d6000602084013e611d43565b606091505b509150915061183c8282866127cc565b7f589d3365cb6f9141f65f568666d0e4cb837c3b1edc1527dd31a1aa423ad940c9546000907f589d3365cb6f9141f65f568666d0e4cb837c3b1edc1527dd31a1aa423ad940c7908290610100900460ff161580611dd95750846001811115611dbd57611dbd614ac6565b611dc6856127e5565b6001811115611dd757611dd7614ac6565b145b9050808015611ded5750611ded848661299e565b95945050505050565b6000610f64838342612a99565b600080611e0e611c1b565b6001600160a01b0384166000908152600482016020908152604080832088845290915281205491925003611e46576000915050610f67565b6001915050610f67565b6000610f64838342612ace565b611e68848484612af4565b6000806001600160a01b038516611eb157611e838487612b0a565b611e8c86612cab565b600083118015611ea25750611ea084612cec565b155b15611eac57600191505b611f4a565b6001600160a01b038416611ef657611ec98587612b0a565b611ed286612cab565b600083118015611ee9575082611ee786612d18565b145b15611eac57506001611f4a565b611f008587612b0a565b611f0a8487612b0a565b600083118015611f205750611f1e84612cec565b155b15611f2a57600191505b600083118015611f41575082611f3f86612d18565b145b15611f4a575060015b818015611f545750805b15611f7357611f6285612d24565b611f6c8486612d51565b5050611fc2565b8115611f8a57611f81612db1565b611f6c84612dc7565b8015610cab57611f9985612d24565b611fb1611fac611fa7612e31565b612e44565b612d24565b611fb9612db1565b610cab85612e6b565b50505050565b611fd28184611e03565b611ff3578281604051632fe13d3b60e21b8152600401610a089291906148b7565b6000611fff8285612f2a565b90508281101561202a578381848460405163175a093160e21b8152600401610a0894939291906149fc565b6000612034611c1b565b6001600160a01b038616600090815260048201602090815260408083208784529091528120549192509061206a90600190614a97565b6001600160a01b03871660009081526003840160205260409020805491925086918390811061209b5761209b6148a1565b906000526020600020906002020160000154036120c2576120bd868583612fb7565b612117565b6001600160a01b038616600090815260038301602052604090208054869190839081106120f1576120f16148a1565b906000526020600020906002020160000160008282546121119190614a97565b90915550505b6001600160a01b038616600090815260028301602052604081208054879290612141908490614a97565b9091555050505050505050565b600080612159611c1b565b6001600160a01b0393909316600090815260049093016020908152604080852095855294905250502054151590565b6121998261219461315e565b613171565b60006121a3611c1b565b6001600160a01b0384166000908152600382016020908152604080832081518083019092528882528183018781528154600181810184559286529390942091516002909302909101918255915191015590506121fd611c1b565b6001600160a01b03841660009081526003919091016020908152604080832054600485018352818420868552909252909120558315611fc2576001600160a01b038316600090815260028201602052604081208054869290611c10908490614939565b60606001600160a01b03841615610ac257600080856001600160a01b03168560405161228c9190614aaa565b6000604051808303816000865af19150503d8060008114611d3e576040519150601f19603f3d011682016040523d82523d6000602084013e611d43565b6122d38184611e03565b6122f4578281604051632fe13d3b60e21b8152600401610a089291906148b7565b60006122fe611c1b565b6001600160a01b038516600090815260048201602090815260408083208684529091528120549192509061233490600190614a97565b6001600160a01b038616600090815260038401602052604090208054919250859183908110612365576123656148a1565b906000526020600020906002020160000160008282546123859190614939565b90915550506001600160a01b0385166000908152600283016020526040812080548692906123b4908490614939565b90915550505050505050565b60007f80cd138137fb7aaf8068b75b39b6681af39401f81721b6420d44eb588baaeeb9816123ed826131a6565b905060005b8181101561248a5761240760018401826131b4565b6001600160a01b031663b187bd266040518163ffffffff1660e01b8152600401602060405180830381865afa158015612444573d6000803e3d6000fd5b505050506040513d601f19601f8201168201806040525081019061246891906149b6565b15612477576001935050505090565b60010161248381614888565b90506123f2565b5060009250505090565b6124a6816000015182604001516131c0565b6124bf8160000151600083602001518460400151611e5d565b6124d18160000151826020015161214e565b6124f1576124ec816040015182602001518360000151612188565b612508565b6125088160200151826040015183600001516122c9565b61251a816000015182604001516131fc565b80516000190161254c576020810151604080830151905161254a92635f8dead360e01b9261177a926024016148b7565b505b60208101516001600160a01b0316336001600160a01b031682600001517f5af1c8f424b104b6ba4e3c0885f2ed9fef04a9b1ea39cd9ed362432105c0791a846040015185606001516040516125a2929190614920565b60405180910390a450565b6125ba8686600086611e5d565b6125c5858488611fc8565b6125cf868461324b565b60001986016125f8576125f6638d2ea77260e01b868560405160240161177a9291906148b7565b505b846001600160a01b0316846001600160a01b0316877fa4f62471c9bdf88115b97203943c74c59b655913ee5ee592706d84ef53fb6be286868660405161264093929190614adc565b60405180910390a4505050505050565b61265d6001836000612af4565b610c538282613290565b7fd5228ac65cba3eaaef0669de6709c44cfdf33c0f1cce2989d4a133e0214cce5790565b60008181526001830160205260408120541515610f64565b6000610f677fd2a97f6f015eb0ef6e78a5d99ed4baddb1001474ec77117d69e09432533577d483613319565b60007fd2a97f6f015eb0ef6e78a5d99ed4baddb1001474ec77117d69e09432533577d3610ad3565b60007f3553e9f946bd0c6ac12c2e96bf561ec7aafbed39334ffde761beba62ed8dbad681612724826131a6565b905060005b818110156127c15761273e60018401826131b4565b6001600160a01b031663fe9fbb80866040518263ffffffff1660e01b815260040161276991906149a2565b602060405180830381865afa158015612786573d6000803e3d6000fd5b505050506040513d601f19601f820116820180604052508101906127aa91906149b6565b6127b957506000949350505050565b600101612729565b506001949350505050565b606083156127db575081610ac2565b610ac2828461165d565b6000806127f18361333b565b905042816020015110156128085750600092915050565b428151111561281a5750600092915050565b612827816060015161347a565b6128345750600092915050565b60006128677fdbde0b1f7457f92983806323b8056e5eabfce9a23b8924af999a4df0e4154e1a546001600160a01b031690565b90506001600160a01b038116158015906128f1575060608201516040808401519051636e5f638960e11b81526001600160a01b0384169263dcbec712926128b092600401614b07565b602060405180830381865afa1580156128cd573d6000803e3d6000fd5b505050506040513d601f19601f820116820180604052508101906128f191906149b6565b15612900575060009392505050565b6001600160a01b038116156129935760608201516040808401519051636e5f638960e11b81526001600160a01b0384169263dcbec7129261294392600401614b07565b602060405180830381865afa158015612960573d6000803e3d6000fd5b505050506040513d601f19601f8201168201806040525081019061298491906149b6565b15612993575060009392505050565b506080015192915050565b60007f57364604d3fde2768df7beea76ca84783455ba461f6f84450864597901db12b9816129cb826131a6565b905060005b81811015612a8d578460018111156129ea576129ea614ac6565b6129f760018501836131b4565b6001600160a01b031663be88ff49886040518263ffffffff1660e01b8152600401612a2291906149a2565b602060405180830381865afa158015612a3f573d6000803e3d6000fd5b505050506040513d601f19601f82011682018060405250810190612a639190614b2b565b6001811115612a7457612a74614ac6565b14612a855760009350505050610f67565b6001016129d0565b50600195945050505050565b600080612ab7612aa8846134a6565b612ab287876134d7565b613511565b905080612ac4868661353c565b611ded9190614b4c565b600080612ae7612add846134a6565b612ab28787613546565b905080612ac48686612f2a565b612afe60006135dc565b50611b23838383613611565b6000612b1461364c565b905080600003612b2357505050565b6000612b2e82613660565b90506000612b3a61368f565b9050818103612bdb57610c7c612b4e61369a565b6001600160a01b038716600090815260209190915260409020612b7087612cec565b612b7861369a565b6001600160a01b0389166000908152600191909101602090815260408083208a84529091529020612ba761369a565b6001600160a01b038a16600090815260029190910160205260409020612bcd898b612f2a565b612bd68b6136be565b6137c6565b81600003612be857600191505b6000612bf386612d18565b90506000612c018688611e50565b90506000612c0f8585614b63565b9050612c1b8184614b63565b9250612c278183614b63565b9150610b22612c3461369a565b6001600160a01b038a1660009081526020919091526040902084612c5661369a565b6001600160a01b038c166000908152600191909101602090815260408083208d84529091529020612c8561369a565b6001600160a01b038d1660009081526002919091016020526040902086612bd68e6136be565b612cc6612cb661369a565b600301612cc1611a07565b6137dc565b61038d612cd161369a565b600083815260089190910160205260409020612cc183613826565b6000612cf6611c1b565b6001600160a01b03909216600090815260029290920160205250604090205490565b6000610f678242613844565b61038d612d2f61369a565b6013016000612d3d84613872565b81526020019081526020016000208261389e565b6000612d5b611c1b565b6001600160a01b03928316600081815260068301602081815260408084208054999098168085528185208a90559884526007909501815293822080546001600160a01b0319169097179096559081529390525055565b610876612dbc61369a565b601401612cc1612e31565b6000612dd1611c1b565b905060008160080160008154612de690614888565b91829055506000818152600784016020908152604080832080546001600160a01b039098166001600160a01b0319909816881790559582526006909401909352929091209190915550565b6000612e3b611c1b565b60080154905090565b6000612e4e611c1b565b60009283526007016020525060409020546001600160a01b031690565b6000612e75611c1b565b60088101549091506001811115612ef3576001600160a01b038316600090815260068301602052604090205481811015612ef15760008281526007840160208181526040808420546001600160a01b03168085526006880183528185208690558585529290915290912080546001600160a01b03191690911790555b505b6001600160a01b0383166000908152600683016020526040812081905560088301805491612f2083614b85565b9190505550505050565b6000612f368383611e03565b15612faf576000612f45611c1b565b6001600160a01b038416600090815260038201602090815260408083206004850183528184208985529092529091205491925090612f8590600190614a97565b81548110612f9557612f956148a1565b906000526020600020906002020160000154915050610f67565b506000610f67565b6000612fc1611c1b565b6001600160a01b0385166000908152600382016020526040902054909150612feb90600190614a97565b82146130f9576001600160a01b03841660009081526003820160205260409020805461301990600190614a97565b81548110613029576130296148a1565b9060005260206000209060020201816003016000866001600160a01b03166001600160a01b03168152602001908152602001600020838154811061306f5761306f6148a1565b60009182526020909120825460029092020190815560019182015490820155613099908390614939565b6001600160a01b038516600090815260048301602090815260408083206003860190925282208054919291869081106130d4576130d46148a1565b9060005260206000209060020201600101548152602001908152602001600020819055505b6001600160a01b0384166000818152600483016020908152604080832087845282528083208390559282526003840190522080548061313a5761313a614b9c565b60008281526020812060026000199093019283020181815560010155905550505050565b6000613168613904565b60010154905090565b613179613904565b6001600160a01b039092166000908152602092835260408120805460018101825590825292902090910155565b6000610f6782600101613928565b6000610f648383613932565b806131de57604051637c946ed760e01b815260040160405180910390fd5b81610c5357604051634a6f30c360e01b815260040160405180910390fd5b6000613206611c1b565b90508181600001600082825461321c9190614939565b9091555050600083815260018201602052604081208054849290613241908490614939565b9091555050505050565b6000613255611c1b565b90508181600001600082825461326b9190614a97565b9091555050600083815260018201602052604081208054849290613241908490614a97565b600061329a61315e565b905060006132a884846134d7565b90508082036132b75750505050565b60006132c38383613511565b9050806132ce612667565b6001600160a01b03808816600090815260049290920160209081526040808420928916845291905281208054909190613308908490614b4c565b90915550610c7c905085858561395c565b6001600160a01b03811660009081526001830160205260408120541515610f64565b613343614482565b7f589d3365cb6f9141f65f568666d0e4cb837c3b1edc1527dd31a1aa423ad940c76001600160a01b03831660009081526020918252604090819020815160a0810183528154815260018201549381019390935260028101805491928401916133aa90614bb2565b80601f01602080910402602001604051908101604052809291908181526020018280546133d690614bb2565b80156134235780601f106133f857610100808354040283529160200191613423565b820191906000526020600020905b81548152906001019060200180831161340657829003601f168201915b505050918352505060038201546001600160a01b0381166020830152604090910190600160a01b900460ff16600181111561346057613460614ac6565b600181111561347157613471614ac6565b90525092915050565b6000610f677fdbde0b1f7457f92983806323b8056e5eabfce9a23b8924af999a4df0e4154e1883613319565b6000806134b161315e565b9050806000036134bf575060015b60006134ca8461399a565b509050610e2e8183614b4c565b60006134e1613904565b6001600160a01b039384166000908152600491909101602090815260408083209490951682529290925250205490565b60008260000361352357506001610f67565b81600003613532575081610f67565b610f648284614b63565b60006134e1612667565b600080613551611c1b565b6001600160a01b038416600090815260049190910160209081526040808320878452909152812054915081900361358c576000915050610f67565b613594613904565b6001600160a01b0384166000908152602091909152604090206135b8600183614a97565b815481106135c8576135c86148a1565b906000526020600020015491505092915050565b6000610f677f2352c39c61abb4e922588a7d46fb5c925b9a205577be135537479031648c86fe63df1eb07160e01b8442613aa7565b61361a83613c86565b6001600160a01b03821615613633576136338383613cd6565b6001600160a01b03811615611b2357611b238382613cd6565b60006102e861365961369a565b6005015490565b60008060006136798461367161369a565b600d01613d05565b9150915081610ac25761368a61315e565b610e2e565b60006102e8426134a6565b7f450898ebb84982a28d8787f0138cfce477c6d811ae3b1db5fdb7ed17e8bda89890565b606060006136ca611c1b565b6001600160a01b0384166000908152600382016020526040812054919250906001600160401b0381111561370057613700614577565b604051908082528060200260200182016040528015613729578160200160208202803683370190505b50905060005b6001600160a01b03851660009081526003840160205260409020548110156137be576001600160a01b0385166000908152600384016020526040902080548290811061377d5761377d6148a1565b9060005260206000209060020201600101548282815181106137a1576137a16148a1565b6020908102919091010152806137b681614888565b91505061372f565b509392505050565b6137d086866137dc565b610cab84848484613d54565b60006137e661364c565b9050806137f284613dfe565b1015611b23578254600180820185556000858152602080822090930193909355938401805494850181558252902090910155565b6000613830611c1b565b600092835260010160205250604090205490565b60008061385c613853846134a6565b612ab286613e48565b90508061386885612cec565b610e2e9190614b4c565b600061387c611c1b565b6001600160a01b03909216600090815260069290920160205250604090205490565b60006138a861364c565b9050806138b484613dfe565b1015611b235782546001818101855560008581526020808220909301849055818601805492830181558152919091200180546001600160a01b0384166001600160a01b0319909116179055505050565b7f20765daced38554542b3c858f10e7fb957696c4dbd38d7faabc51dd4de7ad54190565b6000610f67825490565b6000826000018281548110613949576139496148a1565b9060005260206000200154905092915050565b80613965613904565b6001600160a01b0394851660009081526004919091016020908152604080832095909616825293909352929091209190915550565b7faf4aaa3de473ec9b58645d40f5a2fe4e176157e247b2d875db61f1a70935ac69546001906000907faf4aaa3de473ec9b58645d40f5a2fe4e176157e247b2d875db61f1a70935ac689060015b818111613a9f5760006139fa8284614a97565b90506000613a088583613e52565b90508781600001511015613a835760008160200151806020019051810190613a309190614bec565b90506000613a3d82613f21565b9050600081806020019051810190613a559190614c05565b905080602001518a613a679190614b4c565b9950806040015189613a799190614c6c565b9850505050613a8a565b5050613a9f565b50508080613a9790614888565b9150506139e7565b505050915091565b600080613ab5866001015490565b905080600003613ac9576000915050610e2e565b83600082821180613ad8575081155b15613ae1578291505b60015b828111613c7a576000613af78286614a97565b90506000613b058b83613e52565b90508781600001511015613c5e57613b1c8b613fe5565b60028b01805460ff191660011790556020810151604051600091829130918e91613b4d9188918d9190602401614c85565b60408051601f198184030181529181526020820180516001600160e01b03166001600160e01b0319909416939093179092529051613b8b9190614aaa565b600060405180830381855af49150503d8060008114613bc6576040519150601f19603f3d011682016040523d82523d6000602084013e613bcb565b606091505b509150915081613c4b57805115613be55780518082602001fd5b60405162461bcd60e51b815260206004820152603560248201527f6f6e5363686564756c65645461736b547269676765726564206d6574686f64206044820152743330b4b632b2103bb4ba3437baba103932b0b9b7b760591b6064820152608401610a08565b505060028b01805460ff19169055613c65565b5050613c7a565b50508080613c7290614888565b915050613ae4565b50979650505050505050565b6000613c9061315e565b90506000613c9d8361404e565b9050808203613cab57505050565b6000613cb78383613511565b9050613cc3848261406c565b613ccd84826140a1565b611fc28461411d565b6000613ce061315e565b90506000613cec611c1b565b9050613cfa81838686614145565b611fc28183856141f1565b6000808080613d14868661423c565b915091508182613d25576000613d46565b856001018281548110613d3a57613d3a6148a1565b90600052602060002001545b9350935050505b9250929050565b6000613d5e61364c565b905080613d6a86613dfe565b1015613d9e578454600181810187556000878152602080822090930184905581880180549283018155815291909120018390555b80613da885613dfe565b1015610c7c5783546001818101865560008681526020808220909301849055604080518085019091528581528288018054938401815582529083902081518051929485949290920192610a5892849201906144ca565b80546000908103613e1157506000919050565b81548290613e2190600190614a97565b81548110613e3157613e316148a1565b90600052602060002001549050919050565b919050565b6000612cf6613904565b604080518082019091526000815260606020820152600082815260208481526040918290208251808401909352805483526001810180549192840191613e9790614bb2565b80601f0160208091040260200160405190810160405280929190818152602001828054613ec390614bb2565b8015613f105780601f10613ee557610100808354040283529160200191613f10565b820191906000526020600020905b815481529060010190602001808311613ef357829003601f168201915b505050505081525050905092915050565b60008181527f9db84024bbea48a7580380e27785cf3e0d08fada233c84760c8a5aff47f86e1460205260409020600101805460609190613f6090614bb2565b80601f0160208091040260200160405190810160405280929190818152602001828054613f8c90614bb2565b8015613fd95780601f10613fae57610100808354040283529160200191613fd9565b820191906000526020600020905b815481529060010190602001808311613fbc57829003601f168201915b50505050509050919050565b6000613ff2826001015490565b905080600003614000575050565b81600061400e600184614a97565b815260208101919091526040016000908120818155906140316001830182614515565b505060018201805490600061404583614b85565b91905055505050565b6000614058613904565b600092835260030160205250604090205490565b80614075611c1b565b600101600084815260200190815260200160002060008282546140989190614b4c565b90915550505050565b60008281527f591561cf73f8f1ca1532449c7ce18338a75e9e17f2894af1e41b36e3b013f95260205260409020547f591561cf73f8f1ca1532449c7ce18338a75e9e17f2894af1e41b36e3b013f951906001016140fd57505050565b600083815260018201602052604081208054849290613241908490614b4c565b6000614127613904565b60018101546000938452600390910160205260409092209190915550565b6001600160a01b03811660009081526004850160209081526040808320858452909152812054908190036141795750611fc2565b60006141868584846142ba565b6001600160a01b0384166000908152600388016020526040902090915081906141b0600185614a97565b815481106141c0576141c06148a1565b906000526020600020906002020160000160008282546141e09190614b4c565b90915550610cab905085848461430c565b60006141fd838361435a565b6001600160a01b038316600090815260028601602052604081208054929350839290919061422c908490614b4c565b90915550611fc29050838361438a565b600080836000036142605760405163f128004d60e01b815260040160405180910390fd5b61426861364c565b84111561428b57604051638e81eb8360e01b815260048101859052602401610a08565b600061429784866143b5565b845490915081036142af576000809250925050613d4d565b600192509050613d4d565b6000610abf846142c8613904565b6001600160a01b0386166000908152602091909152604090206142ec600186614a97565b815481106142fc576142fc6148a1565b9060005260206000200154613511565b82614315613904565b6001600160a01b038416600090815260209190915260409020614339600184614a97565b81548110614349576143496148a1565b600091825260209091200155505050565b6000610f6483614368613904565b6001600160a01b03851660009081526002919091016020526040902054613511565b81614393613904565b6001600160a01b03909216600090815260029290920160205260409091205550565b815460009081036143c857506000610f67565b82546000905b808210156144125760006143e28383614456565b9050846143ef8783614471565b5411156143fe5780915061440c565b614409816001614939565b92505b506143ce565b6000821180156144355750836144328661442d600186614a97565b614471565b54145b1561444e57614445600183614a97565b92505050610f67565b509050610f67565b60006144656002848418614b63565b610f6490848416614939565b600082815260208120820180610e2e565b6040518060a0016040528060008152602001600081526020016060815260200160006001600160a01b03168152602001600060018111156144c5576144c5614ac6565b905290565b828054828255906000526020600020908101928215614505579160200282015b828111156145055782518255916020019190600101906144ea565b5061451192915061454b565b5090565b50805461452190614bb2565b6000825580601f10614531575050565b601f01602090049060005260206000209081019061038d91905b5b80821115614511576000815560010161454c565b80356001600160a01b0381168114613e4357600080fd5b634e487b7160e01b600052604160045260246000fd5b600082601f83011261459e57600080fd5b81356001600160401b03808211156145b8576145b8614577565b604051601f8301601f19908116603f011681019082821181831017156145e0576145e0614577565b816040528381528660208588010111156145f957600080fd5b836020870160208301376000602085830101528094505050505092915050565b6000806000806080858703121561462f57600080fd5b61463885614560565b935061464660208601614560565b92506040850135915060608501356001600160401b0381111561466857600080fd5b6146748782880161458d565b91505092959194509250565b60008060006060848603121561469557600080fd5b61469e84614560565b92506020840135915060408401356001600160401b038111156146c057600080fd5b6146cc8682870161458d565b9150509250925092565b60008083601f8401126146e857600080fd5b5081356001600160401b038111156146ff57600080fd5b602083019150836020828501011115613d4d57600080fd5b6000806000806060858703121561472d57600080fd5b61473685614560565b93506020850135925060408501356001600160401b0381111561475857600080fd5b614764878288016146d6565b95989497509550505050565b6020808252825182820181905260009190848201906040850190845b818110156147b25783516001600160e01b0319168352928401929184019160010161478c565b50909695505050505050565b600080604083850312156147d157600080fd5b8235915060208301356001600160401b038111156147ee57600080fd5b6147fa8582860161458d565b9150509250929050565b60008060008060006080868803121561481c57600080fd5b61482586614560565b945061483360208701614560565b93506040860135925060608601356001600160401b0381111561485557600080fd5b614861888289016146d6565b969995985093965092949392505050565b634e487b7160e01b600052601160045260246000fd5b60006001820161489a5761489a614872565b5060010190565b634e487b7160e01b600052603260045260246000fd5b6001600160a01b03929092168252602082015260400190565b60005b838110156148eb5781810151838201526020016148d3565b50506000910152565b6000815180845261490c8160208601602086016148d0565b601f01601f19169290920160200192915050565b828152604060208201526000610abf60408301846148f4565b80820180821115610f6757610f67614872565b6001600160a01b038316815260406020808301829052835191830182905260009184820191906060850190845b8181101561499557845183529383019391830191600101614979565b5090979650505050505050565b6001600160a01b0391909116815260200190565b6000602082840312156149c857600080fd5b81518015158114610ac257600080fd5b6001600160a01b039384168152919092166020820152604081019190915260600190565b6001600160a01b0394909416845260208401929092526040830152606082015260800190565b6001600160e01b0319831681528151600090614a458160048501602087016148d0565b919091016004019392505050565b60018060a01b0385168152836020820152608060408201526000614a7a60808301856148f4565b8281036060840152614a8c81856148f4565b979650505050505050565b81810381811115610f6757610f67614872565b60008251614abc8184602087016148d0565b9190910192915050565b634e487b7160e01b600052602160045260246000fd5b838152606060208201526000614af560608301856148f4565b828103604084015261183c81856148f4565b6001600160a01b0383168152604060208201819052600090610abf908301846148f4565b600060208284031215614b3d57600080fd5b815160028110610ac257600080fd5b8082028115828204841417610f6757610f67614872565b600082614b8057634e487b7160e01b600052601260045260246000fd5b500490565b600081614b9457614b94614872565b506000190190565b634e487b7160e01b600052603160045260246000fd5b600181811c90821680614bc657607f821691505b602082108103614be657634e487b7160e01b600052602260045260246000fd5b50919050565b600060208284031215614bfe57600080fd5b5051919050565b600060608284031215614c1757600080fd5b604051606081018181106001600160401b0382111715614c3957614c39614577565b80604052508251815260208301516020820152604083015160ff81168114614c6057600080fd5b60408201529392505050565b60ff8181168382160190811115610f6757610f67614872565b838152826020820152606060408201526000610e2b60608301846148f456fea26469706673582212203925691240c31c83c333f09ea5ea62837c9f9afe16d036a85ec5ca1916df181d64736f6c63430008120033",
  "linkReferences": {},
  "deployedLinkReferences": {}
}