{
  "_format": "hh-sol-artifact-1",
  "contractName": "ERC3643BatchFacet",
  "sourceName": "contracts/layer_1/ERC3643/ERC3643BatchFacet.sol",
  "abi": [
    {
      "inputs": [
        {
          "internalType": "address",
          "name": "account",
          "type": "address"
        },
        {
          "internalType": "bytes32",
          "name": "role",
          "type": "bytes32"
        }
      ],
      "name": "AccountHasNoRole",
      "type": "error"
    },
    {
      "inputs": [
        {
          "internalType": "address",
          "name": "account",
          "type": "address"
        },
        {
          "internalType": "bytes32[]",
          "name": "roles",
          "type": "bytes32[]"
        }
      ],
      "name": "AccountHasNoRoles",
      "type": "error"
    },
    {
      "inputs": [
        {
          "internalType": "address",
          "name": "account",
          "type": "address"
        }
      ],
      "name": "AccountIsBlocked",
      "type": "error"
    },
    {
      "inputs": [],
      "name": "AllBusinessLogicKeysMustBeenInformed",
      "type": "error"
    },
    {
      "inputs": [],
      "name": "AlreadyInitialized",
      "type": "error"
    },
    {
      "inputs": [
        {
          "internalType": "bytes32",
          "name": "businessLogicKey",
          "type": "bytes32"
        }
      ],
      "name": "BusinessLogicKeyDuplicated",
      "type": "error"
    },
    {
      "inputs": [
        {
          "internalType": "bytes32",
          "name": "businessLogicKey",
          "type": "bytes32"
        }
      ],
      "name": "BusinessLogicNotActive",
      "type": "error"
    },
    {
      "inputs": [
        {
          "internalType": "uint256",
          "name": "version",
          "type": "uint256"
        }
      ],
      "name": "BusinessLogicVersionDoesNotExist",
      "type": "error"
    },
    {
      "inputs": [],
      "name": "ClearingIsActivated",
      "type": "error"
    },
    {
      "inputs": [],
      "name": "ExpirationNotReached",
      "type": "error"
    },
    {
      "inputs": [],
      "name": "FactorIsZero",
      "type": "error"
    },
    {
      "inputs": [],
      "name": "InputAmountsArrayLengthMismatch",
      "type": "error"
    },
    {
      "inputs": [
        {
          "internalType": "address",
          "name": "spender",
          "type": "address"
        },
        {
          "internalType": "address",
          "name": "from",
          "type": "address"
        }
      ],
      "name": "InsufficientAllowance",
      "type": "error"
    },
    {
      "inputs": [
        {
          "internalType": "address",
          "name": "account",
          "type": "address"
        },
        {
          "internalType": "uint256",
          "name": "balance",
          "type": "uint256"
        },
        {
          "internalType": "uint256",
          "name": "value",
          "type": "uint256"
        },
        {
          "internalType": "bytes32",
          "name": "partition",
          "type": "bytes32"
        }
      ],
      "name": "InsufficientBalance",
      "type": "error"
    },
    {
      "inputs": [
        {
          "internalType": "address",
          "name": "user",
          "type": "address"
        },
        {
          "internalType": "uint256",
          "name": "requestedUnfreeze",
          "type": "uint256"
        },
        {
          "internalType": "uint256",
          "name": "availableFrozen",
          "type": "uint256"
        },
        {
          "internalType": "bytes32",
          "name": "partition",
          "type": "bytes32"
        }
      ],
      "name": "InsufficientFrozenBalance",
      "type": "error"
    },
    {
      "inputs": [
        {
          "internalType": "address",
          "name": "account",
          "type": "address"
        },
        {
          "internalType": "bytes32",
          "name": "partition",
          "type": "bytes32"
        }
      ],
      "name": "InvalidPartition",
      "type": "error"
    },
    {
      "inputs": [],
      "name": "IssuanceIsClosed",
      "type": "error"
    },
    {
      "inputs": [],
      "name": "LockExpirationNotReached",
      "type": "error"
    },
    {
      "inputs": [
        {
          "internalType": "uint256",
          "name": "maxSupply",
          "type": "uint256"
        }
      ],
      "name": "MaxSupplyReached",
      "type": "error"
    },
    {
      "inputs": [
        {
          "internalType": "bytes32",
          "name": "partition",
          "type": "bytes32"
        },
        {
          "internalType": "uint256",
          "name": "maxSupply",
          "type": "uint256"
        }
      ],
      "name": "MaxSupplyReachedForPartition",
      "type": "error"
    },
    {
      "inputs": [
        {
          "internalType": "bytes32",
          "name": "partition",
          "type": "bytes32"
        },
        {
          "internalType": "uint256",
          "name": "newMaxSupplyByPartition",
          "type": "uint256"
        },
        {
          "internalType": "uint256",
          "name": "maxSupply",
          "type": "uint256"
        }
      ],
      "name": "NewMaxSupplyByPartitionTooHigh",
      "type": "error"
    },
    {
      "inputs": [],
      "name": "NewMaxSupplyCannotBeZero",
      "type": "error"
    },
    {
      "inputs": [
        {
          "internalType": "bytes32",
          "name": "partition",
          "type": "bytes32"
        },
        {
          "internalType": "uint256",
          "name": "maxSupply",
          "type": "uint256"
        },
        {
          "internalType": "uint256",
          "name": "totalSupply",
          "type": "uint256"
        }
      ],
      "name": "NewMaxSupplyForPartitionTooLow",
      "type": "error"
    },
    {
      "inputs": [
        {
          "internalType": "uint256",
          "name": "maxSupply",
          "type": "uint256"
        },
        {
          "internalType": "uint256",
          "name": "totalSupply",
          "type": "uint256"
        }
      ],
      "name": "NewMaxSupplyTooLow",
      "type": "error"
    },
    {
      "inputs": [],
      "name": "NotAllowedInMultiPartitionMode",
      "type": "error"
    },
    {
      "inputs": [],
      "name": "NotAutocalling",
      "type": "error"
    },
    {
      "inputs": [],
      "name": "OnlyDelegateAllowed",
      "type": "error"
    },
    {
      "inputs": [
        {
          "internalType": "bytes32",
          "name": "partition",
          "type": "bytes32"
        }
      ],
      "name": "PartitionNotAllowedInSinglePartitionMode",
      "type": "error"
    },
    {
      "inputs": [
        {
          "internalType": "address",
          "name": "account",
          "type": "address"
        },
        {
          "internalType": "bytes32",
          "name": "role",
          "type": "bytes32"
        }
      ],
      "name": "PartitionsAreProtectedAndNoRole",
      "type": "error"
    },
    {
      "inputs": [],
      "name": "PartitionsAreUnProtected",
      "type": "error"
    },
    {
      "inputs": [
        {
          "internalType": "uint256",
          "name": "rolesLength",
          "type": "uint256"
        },
        {
          "internalType": "uint256",
          "name": "activesLength",
          "type": "uint256"
        }
      ],
      "name": "RolesAndActivesLengthMismatch",
      "type": "error"
    },
    {
      "inputs": [
        {
          "internalType": "uint256",
          "name": "snapshotId",
          "type": "uint256"
        }
      ],
      "name": "SnapshotIdDoesNotExists",
      "type": "error"
    },
    {
      "inputs": [],
      "name": "SnapshotIdNull",
      "type": "error"
    },
    {
      "inputs": [],
      "name": "SpenderWithZeroAddress",
      "type": "error"
    },
    {
      "inputs": [],
      "name": "TokenIsNotControllable",
      "type": "error"
    },
    {
      "inputs": [],
      "name": "TokenIsPaused",
      "type": "error"
    },
    {
      "inputs": [],
      "name": "TokenIsUnpaused",
      "type": "error"
    },
    {
      "inputs": [
        {
          "internalType": "address",
          "name": "operator",
          "type": "address"
        },
        {
          "internalType": "address",
          "name": "tokenHolder",
          "type": "address"
        },
        {
          "internalType": "bytes32",
          "name": "partition",
          "type": "bytes32"
        }
      ],
      "name": "Unauthorized",
      "type": "error"
    },
    {
      "inputs": [],
      "name": "WrongExpirationTimestamp",
      "type": "error"
    },
    {
      "inputs": [],
      "name": "WrongLockId",
      "type": "error"
    },
    {
      "inputs": [],
      "name": "WrongSignature",
      "type": "error"
    },
    {
      "inputs": [
        {
          "internalType": "uint256",
          "name": "timeStamp",
          "type": "uint256"
        }
      ],
      "name": "WrongTimestamp",
      "type": "error"
    },
    {
      "inputs": [],
      "name": "ZeroAddressNotAllowed",
      "type": "error"
    },
    {
      "inputs": [],
      "name": "ZeroKeyNotValidForBusinessLogic",
      "type": "error"
    },
    {
      "inputs": [],
      "name": "ZeroOwnerAddress",
      "type": "error"
    },
    {
      "inputs": [],
      "name": "ZeroPartition",
      "type": "error"
    },
    {
      "inputs": [],
      "name": "ZeroValue",
      "type": "error"
    },
    {
      "anonymous": false,
      "inputs": [
        {
          "indexed": true,
          "internalType": "address",
          "name": "operator",
          "type": "address"
        },
        {
          "indexed": false,
          "internalType": "uint256",
          "name": "factor",
          "type": "uint256"
        },
        {
          "indexed": false,
          "internalType": "uint8",
          "name": "decimals",
          "type": "uint8"
        }
      ],
      "name": "AdjustmentBalanceSet",
      "type": "event"
    },
    {
      "anonymous": false,
      "inputs": [
        {
          "indexed": true,
          "internalType": "address",
          "name": "owner",
          "type": "address"
        },
        {
          "indexed": true,
          "internalType": "address",
          "name": "spender",
          "type": "address"
        },
        {
          "indexed": false,
          "internalType": "uint256",
          "name": "value",
          "type": "uint256"
        }
      ],
      "name": "Approval",
      "type": "event"
    },
    {
      "anonymous": false,
      "inputs": [
        {
          "indexed": true,
          "internalType": "address",
          "name": "operator",
          "type": "address"
        },
        {
          "indexed": true,
          "internalType": "address",
          "name": "tokenHolder",
          "type": "address"
        }
      ],
      "name": "AuthorizedOperator",
      "type": "event"
    },
    {
      "anonymous": false,
      "inputs": [
        {
          "indexed": true,
          "internalType": "bytes32",
          "name": "partition",
          "type": "bytes32"
        },
        {
          "indexed": true,
          "internalType": "address",
          "name": "operator",
          "type": "address"
        },
        {
          "indexed": true,
          "internalType": "address",
          "name": "tokenHolder",
          "type": "address"
        }
      ],
      "name": "AuthorizedOperatorByPartition",
      "type": "event"
    },
    {
      "anonymous": false,
      "inputs": [
        {
          "indexed": true,
          "internalType": "address",
          "name": "operator",
          "type": "address"
        },
        {
          "indexed": true,
          "internalType": "address",
          "name": "tokenHolder",
          "type": "address"
        },
        {
          "indexed": false,
          "internalType": "bytes32",
          "name": "partition",
          "type": "bytes32"
        },
        {
          "indexed": false,
          "internalType": "uint256",
          "name": "clearingId",
          "type": "uint256"
        },
        {
          "components": [
            {
              "internalType": "uint256",
              "name": "amount",
              "type": "uint256"
            },
            {
              "internalType": "uint256",
              "name": "expirationTimestamp",
              "type": "uint256"
            },
            {
              "internalType": "address",
              "name": "escrow",
              "type": "address"
            },
            {
              "internalType": "address",
              "name": "to",
              "type": "address"
            },
            {
              "internalType": "bytes",
              "name": "data",
              "type": "bytes"
            }
          ],
          "indexed": false,
          "internalType": "struct Hold",
          "name": "hold",
          "type": "tuple"
        },
        {
          "indexed": false,
          "internalType": "uint256",
          "name": "expirationDate",
          "type": "uint256"
        },
        {
          "indexed": false,
          "internalType": "bytes",
          "name": "data",
          "type": "bytes"
        },
        {
          "indexed": false,
          "internalType": "bytes",
          "name": "operatorData",
          "type": "bytes"
        }
      ],
      "name": "ClearedHoldByPartition",
      "type": "event"
    },
    {
      "anonymous": false,
      "inputs": [
        {
          "indexed": true,
          "internalType": "address",
          "name": "operator",
          "type": "address"
        },
        {
          "indexed": true,
          "internalType": "address",
          "name": "tokenHolder",
          "type": "address"
        },
        {
          "indexed": false,
          "internalType": "bytes32",
          "name": "partition",
          "type": "bytes32"
        },
        {
          "indexed": false,
          "internalType": "uint256",
          "name": "clearingId",
          "type": "uint256"
        },
        {
          "components": [
            {
              "internalType": "uint256",
              "name": "amount",
              "type": "uint256"
            },
            {
              "internalType": "uint256",
              "name": "expirationTimestamp",
              "type": "uint256"
            },
            {
              "internalType": "address",
              "name": "escrow",
              "type": "address"
            },
            {
              "internalType": "address",
              "name": "to",
              "type": "address"
            },
            {
              "internalType": "bytes",
              "name": "data",
              "type": "bytes"
            }
          ],
          "indexed": false,
          "internalType": "struct Hold",
          "name": "hold",
          "type": "tuple"
        },
        {
          "indexed": false,
          "internalType": "uint256",
          "name": "expirationDate",
          "type": "uint256"
        },
        {
          "indexed": false,
          "internalType": "bytes",
          "name": "data",
          "type": "bytes"
        },
        {
          "indexed": false,
          "internalType": "bytes",
          "name": "operatorData",
          "type": "bytes"
        }
      ],
      "name": "ClearedHoldFromByPartition",
      "type": "event"
    },
    {
      "anonymous": false,
      "inputs": [
        {
          "indexed": true,
          "internalType": "address",
          "name": "operator",
          "type": "address"
        },
        {
          "indexed": true,
          "internalType": "address",
          "name": "tokenHolder",
          "type": "address"
        },
        {
          "indexed": false,
          "internalType": "bytes32",
          "name": "partition",
          "type": "bytes32"
        },
        {
          "indexed": false,
          "internalType": "uint256",
          "name": "clearingId",
          "type": "uint256"
        },
        {
          "components": [
            {
              "internalType": "uint256",
              "name": "amount",
              "type": "uint256"
            },
            {
              "internalType": "uint256",
              "name": "expirationTimestamp",
              "type": "uint256"
            },
            {
              "internalType": "address",
              "name": "escrow",
              "type": "address"
            },
            {
              "internalType": "address",
              "name": "to",
              "type": "address"
            },
            {
              "internalType": "bytes",
              "name": "data",
              "type": "bytes"
            }
          ],
          "indexed": false,
          "internalType": "struct Hold",
          "name": "hold",
          "type": "tuple"
        },
        {
          "indexed": false,
          "internalType": "uint256",
          "name": "expirationDate",
          "type": "uint256"
        },
        {
          "indexed": false,
          "internalType": "bytes",
          "name": "data",
          "type": "bytes"
        },
        {
          "indexed": false,
          "internalType": "bytes",
          "name": "operatorData",
          "type": "bytes"
        }
      ],
      "name": "ClearedOperatorHoldByPartition",
      "type": "event"
    },
    {
      "anonymous": false,
      "inputs": [
        {
          "indexed": true,
          "internalType": "address",
          "name": "operator",
          "type": "address"
        },
        {
          "indexed": true,
          "internalType": "address",
          "name": "tokenHolder",
          "type": "address"
        },
        {
          "indexed": false,
          "internalType": "bytes32",
          "name": "partition",
          "type": "bytes32"
        },
        {
          "indexed": false,
          "internalType": "uint256",
          "name": "clearingId",
          "type": "uint256"
        },
        {
          "indexed": false,
          "internalType": "uint256",
          "name": "amount",
          "type": "uint256"
        },
        {
          "indexed": false,
          "internalType": "uint256",
          "name": "expirationDate",
          "type": "uint256"
        },
        {
          "indexed": false,
          "internalType": "bytes",
          "name": "data",
          "type": "bytes"
        },
        {
          "indexed": false,
          "internalType": "bytes",
          "name": "operatorData",
          "type": "bytes"
        }
      ],
      "name": "ClearedOperatorRedeemByPartition",
      "type": "event"
    },
    {
      "anonymous": false,
      "inputs": [
        {
          "indexed": true,
          "internalType": "address",
          "name": "operator",
          "type": "address"
        },
        {
          "indexed": true,
          "internalType": "address",
          "name": "tokenHolder",
          "type": "address"
        },
        {
          "indexed": true,
          "internalType": "address",
          "name": "to",
          "type": "address"
        },
        {
          "indexed": false,
          "internalType": "bytes32",
          "name": "partition",
          "type": "bytes32"
        },
        {
          "indexed": false,
          "internalType": "uint256",
          "name": "clearingId",
          "type": "uint256"
        },
        {
          "indexed": false,
          "internalType": "uint256",
          "name": "amount",
          "type": "uint256"
        },
        {
          "indexed": false,
          "internalType": "uint256",
          "name": "expirationDate",
          "type": "uint256"
        },
        {
          "indexed": false,
          "internalType": "bytes",
          "name": "data",
          "type": "bytes"
        },
        {
          "indexed": false,
          "internalType": "bytes",
          "name": "operatorData",
          "type": "bytes"
        }
      ],
      "name": "ClearedOperatorTransferByPartition",
      "type": "event"
    },
    {
      "anonymous": false,
      "inputs": [
        {
          "indexed": true,
          "internalType": "address",
          "name": "operator",
          "type": "address"
        },
        {
          "indexed": true,
          "internalType": "address",
          "name": "tokenHolder",
          "type": "address"
        },
        {
          "indexed": false,
          "internalType": "bytes32",
          "name": "partition",
          "type": "bytes32"
        },
        {
          "indexed": false,
          "internalType": "uint256",
          "name": "clearingId",
          "type": "uint256"
        },
        {
          "indexed": false,
          "internalType": "uint256",
          "name": "amount",
          "type": "uint256"
        },
        {
          "indexed": false,
          "internalType": "uint256",
          "name": "expirationDate",
          "type": "uint256"
        },
        {
          "indexed": false,
          "internalType": "bytes",
          "name": "data",
          "type": "bytes"
        },
        {
          "indexed": false,
          "internalType": "bytes",
          "name": "operatorData",
          "type": "bytes"
        }
      ],
      "name": "ClearedRedeemByPartition",
      "type": "event"
    },
    {
      "anonymous": false,
      "inputs": [
        {
          "indexed": true,
          "internalType": "address",
          "name": "operator",
          "type": "address"
        },
        {
          "indexed": true,
          "internalType": "address",
          "name": "tokenHolder",
          "type": "address"
        },
        {
          "indexed": false,
          "internalType": "bytes32",
          "name": "partition",
          "type": "bytes32"
        },
        {
          "indexed": false,
          "internalType": "uint256",
          "name": "clearingId",
          "type": "uint256"
        },
        {
          "indexed": false,
          "internalType": "uint256",
          "name": "amount",
          "type": "uint256"
        },
        {
          "indexed": false,
          "internalType": "uint256",
          "name": "expirationDate",
          "type": "uint256"
        },
        {
          "indexed": false,
          "internalType": "bytes",
          "name": "data",
          "type": "bytes"
        },
        {
          "indexed": false,
          "internalType": "bytes",
          "name": "operatorData",
          "type": "bytes"
        }
      ],
      "name": "ClearedRedeemFromByPartition",
      "type": "event"
    },
    {
      "anonymous": false,
      "inputs": [
        {
          "indexed": true,
          "internalType": "address",
          "name": "operator",
          "type": "address"
        },
        {
          "indexed": true,
          "internalType": "address",
          "name": "tokenHolder",
          "type": "address"
        },
        {
          "indexed": true,
          "internalType": "address",
          "name": "to",
          "type": "address"
        },
        {
          "indexed": false,
          "internalType": "bytes32",
          "name": "partition",
          "type": "bytes32"
        },
        {
          "indexed": false,
          "internalType": "uint256",
          "name": "clearingId",
          "type": "uint256"
        },
        {
          "indexed": false,
          "internalType": "uint256",
          "name": "amount",
          "type": "uint256"
        },
        {
          "indexed": false,
          "internalType": "uint256",
          "name": "expirationDate",
          "type": "uint256"
        },
        {
          "indexed": false,
          "internalType": "bytes",
          "name": "data",
          "type": "bytes"
        },
        {
          "indexed": false,
          "internalType": "bytes",
          "name": "operatorData",
          "type": "bytes"
        }
      ],
      "name": "ClearedTransferByPartition",
      "type": "event"
    },
    {
      "anonymous": false,
      "inputs": [
        {
          "indexed": true,
          "internalType": "address",
          "name": "operator",
          "type": "address"
        },
        {
          "indexed": true,
          "internalType": "address",
          "name": "tokenHolder",
          "type": "address"
        },
        {
          "indexed": true,
          "internalType": "address",
          "name": "to",
          "type": "address"
        },
        {
          "indexed": false,
          "internalType": "bytes32",
          "name": "partition",
          "type": "bytes32"
        },
        {
          "indexed": false,
          "internalType": "uint256",
          "name": "clearingId",
          "type": "uint256"
        },
        {
          "indexed": false,
          "internalType": "uint256",
          "name": "amount",
          "type": "uint256"
        },
        {
          "indexed": false,
          "internalType": "uint256",
          "name": "expirationDate",
          "type": "uint256"
        },
        {
          "indexed": false,
          "internalType": "bytes",
          "name": "data",
          "type": "bytes"
        },
        {
          "indexed": false,
          "internalType": "bytes",
          "name": "operatorData",
          "type": "bytes"
        }
      ],
      "name": "ClearedTransferFromByPartition",
      "type": "event"
    },
    {
      "anonymous": false,
      "inputs": [
        {
          "indexed": true,
          "internalType": "address",
          "name": "compliance",
          "type": "address"
        }
      ],
      "name": "ComplianceAdded",
      "type": "event"
    },
    {
      "anonymous": false,
      "inputs": [
        {
          "indexed": false,
          "internalType": "address",
          "name": "_controller",
          "type": "address"
        },
        {
          "indexed": true,
          "internalType": "address",
          "name": "_tokenHolder",
          "type": "address"
        },
        {
          "indexed": false,
          "internalType": "uint256",
          "name": "_value",
          "type": "uint256"
        },
        {
          "indexed": false,
          "internalType": "bytes",
          "name": "_data",
          "type": "bytes"
        },
        {
          "indexed": false,
          "internalType": "bytes",
          "name": "_operatorData",
          "type": "bytes"
        }
      ],
      "name": "ControllerRedemption",
      "type": "event"
    },
    {
      "anonymous": false,
      "inputs": [
        {
          "indexed": false,
          "internalType": "address",
          "name": "_controller",
          "type": "address"
        },
        {
          "indexed": true,
          "internalType": "address",
          "name": "_from",
          "type": "address"
        },
        {
          "indexed": true,
          "internalType": "address",
          "name": "_to",
          "type": "address"
        },
        {
          "indexed": false,
          "internalType": "uint256",
          "name": "_value",
          "type": "uint256"
        },
        {
          "indexed": false,
          "internalType": "bytes",
          "name": "_data",
          "type": "bytes"
        },
        {
          "indexed": false,
          "internalType": "bytes",
          "name": "_operatorData",
          "type": "bytes"
        }
      ],
      "name": "ControllerTransfer",
      "type": "event"
    },
    {
      "anonymous": false,
      "inputs": [
        {
          "indexed": false,
          "internalType": "address",
          "name": "operator",
          "type": "address"
        }
      ],
      "name": "FinalizedControllerFeature",
      "type": "event"
    },
    {
      "anonymous": false,
      "inputs": [
        {
          "indexed": true,
          "internalType": "address",
          "name": "_operator",
          "type": "address"
        },
        {
          "indexed": true,
          "internalType": "address",
          "name": "_to",
          "type": "address"
        },
        {
          "indexed": false,
          "internalType": "uint256",
          "name": "_value",
          "type": "uint256"
        },
        {
          "indexed": false,
          "internalType": "bytes",
          "name": "_data",
          "type": "bytes"
        }
      ],
      "name": "Issued",
      "type": "event"
    },
    {
      "anonymous": false,
      "inputs": [
        {
          "indexed": true,
          "internalType": "bytes32",
          "name": "partition",
          "type": "bytes32"
        },
        {
          "indexed": true,
          "internalType": "address",
          "name": "operator",
          "type": "address"
        },
        {
          "indexed": true,
          "internalType": "address",
          "name": "to",
          "type": "address"
        },
        {
          "indexed": false,
          "internalType": "uint256",
          "name": "value",
          "type": "uint256"
        },
        {
          "indexed": false,
          "internalType": "bytes",
          "name": "data",
          "type": "bytes"
        }
      ],
      "name": "IssuedByPartition",
      "type": "event"
    },
    {
      "anonymous": false,
      "inputs": [
        {
          "indexed": true,
          "internalType": "address",
          "name": "operator",
          "type": "address"
        },
        {
          "indexed": true,
          "internalType": "bytes32",
          "name": "partition",
          "type": "bytes32"
        },
        {
          "indexed": false,
          "internalType": "uint256",
          "name": "newMaxSupply",
          "type": "uint256"
        },
        {
          "indexed": false,
          "internalType": "uint256",
          "name": "previousMaxSupply",
          "type": "uint256"
        }
      ],
      "name": "MaxSupplyByPartitionSet",
      "type": "event"
    },
    {
      "anonymous": false,
      "inputs": [
        {
          "indexed": true,
          "internalType": "address",
          "name": "operator",
          "type": "address"
        },
        {
          "indexed": false,
          "internalType": "uint256",
          "name": "newMaxSupply",
          "type": "uint256"
        },
        {
          "indexed": false,
          "internalType": "uint256",
          "name": "previousMaxSupply",
          "type": "uint256"
        }
      ],
      "name": "MaxSupplySet",
      "type": "event"
    },
    {
      "anonymous": false,
      "inputs": [
        {
          "indexed": true,
          "internalType": "address",
          "name": "operator",
          "type": "address"
        }
      ],
      "name": "PartitionsProtected",
      "type": "event"
    },
    {
      "anonymous": false,
      "inputs": [
        {
          "indexed": true,
          "internalType": "address",
          "name": "operator",
          "type": "address"
        }
      ],
      "name": "PartitionsUnProtected",
      "type": "event"
    },
    {
      "anonymous": false,
      "inputs": [
        {
          "indexed": true,
          "internalType": "address",
          "name": "operator",
          "type": "address"
        },
        {
          "indexed": true,
          "internalType": "address",
          "name": "tokenHolder",
          "type": "address"
        },
        {
          "indexed": false,
          "internalType": "bytes32",
          "name": "partition",
          "type": "bytes32"
        },
        {
          "indexed": false,
          "internalType": "uint256",
          "name": "clearingId",
          "type": "uint256"
        },
        {
          "components": [
            {
              "internalType": "uint256",
              "name": "amount",
              "type": "uint256"
            },
            {
              "internalType": "uint256",
              "name": "expirationTimestamp",
              "type": "uint256"
            },
            {
              "internalType": "address",
              "name": "escrow",
              "type": "address"
            },
            {
              "internalType": "address",
              "name": "to",
              "type": "address"
            },
            {
              "internalType": "bytes",
              "name": "data",
              "type": "bytes"
            }
          ],
          "indexed": false,
          "internalType": "struct Hold",
          "name": "hold",
          "type": "tuple"
        },
        {
          "indexed": false,
          "internalType": "uint256",
          "name": "expirationDate",
          "type": "uint256"
        },
        {
          "indexed": false,
          "internalType": "bytes",
          "name": "data",
          "type": "bytes"
        },
        {
          "indexed": false,
          "internalType": "bytes",
          "name": "operatorData",
          "type": "bytes"
        }
      ],
      "name": "ProtectedClearedHoldByPartition",
      "type": "event"
    },
    {
      "anonymous": false,
      "inputs": [
        {
          "indexed": true,
          "internalType": "address",
          "name": "operator",
          "type": "address"
        },
        {
          "indexed": true,
          "internalType": "address",
          "name": "tokenHolder",
          "type": "address"
        },
        {
          "indexed": false,
          "internalType": "bytes32",
          "name": "partition",
          "type": "bytes32"
        },
        {
          "indexed": false,
          "internalType": "uint256",
          "name": "clearingId",
          "type": "uint256"
        },
        {
          "indexed": false,
          "internalType": "uint256",
          "name": "amount",
          "type": "uint256"
        },
        {
          "indexed": false,
          "internalType": "uint256",
          "name": "expirationDate",
          "type": "uint256"
        },
        {
          "indexed": false,
          "internalType": "bytes",
          "name": "data",
          "type": "bytes"
        },
        {
          "indexed": false,
          "internalType": "bytes",
          "name": "operatorData",
          "type": "bytes"
        }
      ],
      "name": "ProtectedClearedRedeemByPartition",
      "type": "event"
    },
    {
      "anonymous": false,
      "inputs": [
        {
          "indexed": true,
          "internalType": "address",
          "name": "operator",
          "type": "address"
        },
        {
          "indexed": true,
          "internalType": "address",
          "name": "tokenHolder",
          "type": "address"
        },
        {
          "indexed": true,
          "internalType": "address",
          "name": "to",
          "type": "address"
        },
        {
          "indexed": false,
          "internalType": "bytes32",
          "name": "partition",
          "type": "bytes32"
        },
        {
          "indexed": false,
          "internalType": "uint256",
          "name": "clearingId",
          "type": "uint256"
        },
        {
          "indexed": false,
          "internalType": "uint256",
          "name": "amount",
          "type": "uint256"
        },
        {
          "indexed": false,
          "internalType": "uint256",
          "name": "expirationDate",
          "type": "uint256"
        },
        {
          "indexed": false,
          "internalType": "bytes",
          "name": "data",
          "type": "bytes"
        },
        {
          "indexed": false,
          "internalType": "bytes",
          "name": "operatorData",
          "type": "bytes"
        }
      ],
      "name": "ProtectedClearedTransferByPartition",
      "type": "event"
    },
    {
      "anonymous": false,
      "inputs": [
        {
          "indexed": true,
          "internalType": "bytes32",
          "name": "partition",
          "type": "bytes32"
        },
        {
          "indexed": true,
          "internalType": "address",
          "name": "operator",
          "type": "address"
        },
        {
          "indexed": true,
          "internalType": "address",
          "name": "from",
          "type": "address"
        },
        {
          "indexed": false,
          "internalType": "uint256",
          "name": "value",
          "type": "uint256"
        },
        {
          "indexed": false,
          "internalType": "uint256",
          "name": "deadline",
          "type": "uint256"
        },
        {
          "indexed": false,
          "internalType": "uint256",
          "name": "nounce",
          "type": "uint256"
        },
        {
          "indexed": false,
          "internalType": "bytes",
          "name": "signature",
          "type": "bytes"
        }
      ],
      "name": "ProtectedRedeemFrom",
      "type": "event"
    },
    {
      "anonymous": false,
      "inputs": [
        {
          "indexed": true,
          "internalType": "bytes32",
          "name": "partition",
          "type": "bytes32"
        },
        {
          "indexed": true,
          "internalType": "address",
          "name": "operator",
          "type": "address"
        },
        {
          "indexed": true,
          "internalType": "address",
          "name": "from",
          "type": "address"
        },
        {
          "indexed": false,
          "internalType": "address",
          "name": "to",
          "type": "address"
        },
        {
          "indexed": false,
          "internalType": "uint256",
          "name": "value",
          "type": "uint256"
        },
        {
          "indexed": false,
          "internalType": "uint256",
          "name": "deadline",
          "type": "uint256"
        },
        {
          "indexed": false,
          "internalType": "uint256",
          "name": "nounce",
          "type": "uint256"
        },
        {
          "indexed": false,
          "internalType": "bytes",
          "name": "signature",
          "type": "bytes"
        }
      ],
      "name": "ProtectedTransferFrom",
      "type": "event"
    },
    {
      "anonymous": false,
      "inputs": [
        {
          "indexed": true,
          "internalType": "address",
          "name": "_operator",
          "type": "address"
        },
        {
          "indexed": true,
          "internalType": "address",
          "name": "_from",
          "type": "address"
        },
        {
          "indexed": false,
          "internalType": "uint256",
          "name": "_value",
          "type": "uint256"
        },
        {
          "indexed": false,
          "internalType": "bytes",
          "name": "_data",
          "type": "bytes"
        }
      ],
      "name": "Redeemed",
      "type": "event"
    },
    {
      "anonymous": false,
      "inputs": [
        {
          "indexed": true,
          "internalType": "bytes32",
          "name": "partition",
          "type": "bytes32"
        },
        {
          "indexed": true,
          "internalType": "address",
          "name": "operator",
          "type": "address"
        },
        {
          "indexed": true,
          "internalType": "address",
          "name": "from",
          "type": "address"
        },
        {
          "indexed": false,
          "internalType": "uint256",
          "name": "value",
          "type": "uint256"
        },
        {
          "indexed": false,
          "internalType": "bytes",
          "name": "data",
          "type": "bytes"
        },
        {
          "indexed": false,
          "internalType": "bytes",
          "name": "operatorData",
          "type": "bytes"
        }
      ],
      "name": "RedeemedByPartition",
      "type": "event"
    },
    {
      "anonymous": false,
      "inputs": [
        {
          "indexed": true,
          "internalType": "address",
          "name": "operator",
          "type": "address"
        },
        {
          "indexed": true,
          "internalType": "address",
          "name": "tokenHolder",
          "type": "address"
        }
      ],
      "name": "RevokedOperator",
      "type": "event"
    },
    {
      "anonymous": false,
      "inputs": [
        {
          "indexed": true,
          "internalType": "bytes32",
          "name": "partition",
          "type": "bytes32"
        },
        {
          "indexed": true,
          "internalType": "address",
          "name": "operator",
          "type": "address"
        },
        {
          "indexed": true,
          "internalType": "address",
          "name": "tokenHolder",
          "type": "address"
        }
      ],
      "name": "RevokedOperatorByPartition",
      "type": "event"
    },
    {
      "anonymous": false,
      "inputs": [
        {
          "indexed": true,
          "internalType": "bytes32",
          "name": "role",
          "type": "bytes32"
        },
        {
          "indexed": true,
          "internalType": "bytes32",
          "name": "previousAdminRole",
          "type": "bytes32"
        },
        {
          "indexed": true,
          "internalType": "bytes32",
          "name": "newAdminRole",
          "type": "bytes32"
        }
      ],
      "name": "RoleAdminChanged",
      "type": "event"
    },
    {
      "anonymous": false,
      "inputs": [
        {
          "indexed": true,
          "internalType": "address",
          "name": "operator",
          "type": "address"
        },
        {
          "indexed": true,
          "internalType": "uint256",
          "name": "snapshotID",
          "type": "uint256"
        }
      ],
      "name": "SnapshotTaken",
      "type": "event"
    },
    {
      "anonymous": false,
      "inputs": [
        {
          "indexed": true,
          "internalType": "address",
          "name": "operator",
          "type": "address"
        },
        {
          "indexed": false,
          "internalType": "uint256",
          "name": "snapshotId",
          "type": "uint256"
        }
      ],
      "name": "SnapshotTriggered",
      "type": "event"
    },
    {
      "anonymous": false,
      "inputs": [
        {
          "indexed": true,
          "internalType": "address",
          "name": "operator",
          "type": "address"
        }
      ],
      "name": "TokenPaused",
      "type": "event"
    },
    {
      "anonymous": false,
      "inputs": [
        {
          "indexed": true,
          "internalType": "address",
          "name": "operator",
          "type": "address"
        }
      ],
      "name": "TokenUnpaused",
      "type": "event"
    },
    {
      "anonymous": false,
      "inputs": [
        {
          "indexed": true,
          "internalType": "address",
          "name": "from",
          "type": "address"
        },
        {
          "indexed": true,
          "internalType": "address",
          "name": "to",
          "type": "address"
        },
        {
          "indexed": false,
          "internalType": "uint256",
          "name": "value",
          "type": "uint256"
        }
      ],
      "name": "Transfer",
      "type": "event"
    },
    {
      "anonymous": false,
      "inputs": [
        {
          "indexed": true,
          "internalType": "bytes32",
          "name": "_fromPartition",
          "type": "bytes32"
        },
        {
          "indexed": false,
          "internalType": "address",
          "name": "_operator",
          "type": "address"
        },
        {
          "indexed": true,
          "internalType": "address",
          "name": "_from",
          "type": "address"
        },
        {
          "indexed": true,
          "internalType": "address",
          "name": "_to",
          "type": "address"
        },
        {
          "indexed": false,
          "internalType": "uint256",
          "name": "_value",
          "type": "uint256"
        },
        {
          "indexed": false,
          "internalType": "bytes",
          "name": "_data",
          "type": "bytes"
        },
        {
          "indexed": false,
          "internalType": "bytes",
          "name": "_operatorData",
          "type": "bytes"
        }
      ],
      "name": "TransferByPartition",
      "type": "event"
    },
    {
      "inputs": [
        {
          "internalType": "address[]",
          "name": "_userAddresses",
          "type": "address[]"
        },
        {
          "internalType": "uint256[]",
          "name": "_amounts",
          "type": "uint256[]"
        }
      ],
      "name": "batchBurn",
      "outputs": [],
      "stateMutability": "nonpayable",
      "type": "function"
    },
    {
      "inputs": [
        {
          "internalType": "address[]",
          "name": "_fromList",
          "type": "address[]"
        },
        {
          "internalType": "address[]",
          "name": "_toList",
          "type": "address[]"
        },
        {
          "internalType": "uint256[]",
          "name": "_amounts",
          "type": "uint256[]"
        }
      ],
      "name": "batchForcedTransfer",
      "outputs": [],
      "stateMutability": "nonpayable",
      "type": "function"
    },
    {
      "inputs": [
        {
          "internalType": "address[]",
          "name": "_toList",
          "type": "address[]"
        },
        {
          "internalType": "uint256[]",
          "name": "_amounts",
          "type": "uint256[]"
        }
      ],
      "name": "batchMint",
      "outputs": [],
      "stateMutability": "nonpayable",
      "type": "function"
    },
    {
      "inputs": [
        {
          "internalType": "address[]",
          "name": "_toList",
          "type": "address[]"
        },
        {
          "internalType": "uint256[]",
          "name": "_amounts",
          "type": "uint256[]"
        }
      ],
      "name": "batchTransfer",
      "outputs": [],
      "stateMutability": "nonpayable",
      "type": "function"
    },
    {
      "inputs": [],
      "name": "getStaticFunctionSelectors",
      "outputs": [
        {
          "internalType": "bytes4[]",
          "name": "staticFunctionSelectors_",
          "type": "bytes4[]"
        }
      ],
      "stateMutability": "pure",
      "type": "function"
    },
    {
      "inputs": [],
      "name": "getStaticInterfaceIds",
      "outputs": [
        {
          "internalType": "bytes4[]",
          "name": "staticInterfaceIds_",
          "type": "bytes4[]"
        }
      ],
      "stateMutability": "pure",
      "type": "function"
    },
    {
      "inputs": [],
      "name": "getStaticResolverKey",
      "outputs": [
        {
          "internalType": "bytes32",
          "name": "staticResolverKey_",
          "type": "bytes32"
        }
      ],
      "stateMutability": "pure",
      "type": "function"
    }
  ],
  "bytecode": "0x608060405234801561001057600080fd5b5061462a806100206000396000f3fe608060405234801561001057600080fd5b506004361061006d5760003560e01c80631ef2fdc81461007257806342a47abc146100a55780634a6cc677146100ba57806368573107146100cd57806388d695b2146100e0578063b378cf37146100f3578063c1f0d74214610108575b600080fd5b6040517f9e671b494908a7523ee4e531ae7b7076b84f1c675d31346a9697f0ff4695f24981526020015b60405180910390f35b6100b86100b3366004614026565b610110565b005b6100b86100c83660046140c0565b610362565b6100b86100db3660046140c0565b610518565b6100b86100ee3660046140c0565b610758565b6100fb6108c6565b60405161009c919061412c565b6100fb61092c565b610118610a1e565b610120610a46565b610128610a6b565b858580806020026020016040519081016040528093929190818152602001838360200280828437600092019190915250506040805160208087028281018201909352868252909350869250859182918501908490808284376000920191909152506101999250849150839050610a91565b8585808060200260200160405190810160405280939291908181526020018383602002808284376000920191909152505060408051602080890282810182019093528882529093508892508791829185019084908082843760009201919091525061020a9250849150839050610a91565b6040805160028082526060820183526000926020830190803683370190505090507fa72964c08512ad29f46841ce735cff038789243c2b506a89163cc99f76d06c0f60001b8160008151811061026257610262614190565b6020026020010181815250506000805160206145d583398151915260001b8160018151811061029357610293614190565b60209081029190910101526102a88133610ab7565b5060005b89811015610355576103438b8b838181106102c9576102c9614190565b90506020020160208101906102de91906141a6565b8a8a848181106102f0576102f0614190565b905060200201602081019061030591906141a6565b89898581811061031757610317614190565b905060200201356040518060200160405280600081525060405180602001604052806000815250610aeb565b8061034d816141e5565b9150506102ac565b5050505050505050505050565b61036a610a6b565b838380806020026020016040519081016040528093929190818152602001838360200280828437600092019190915250506040805160208087028281018201909352868252909350869250859182918501908490808284376000920191909152506103db9250849150839050610a91565b6103e3610a46565b6103eb610a1e565b6040805160028082526060820183526000926020830190803683370190505090507fa72964c08512ad29f46841ce735cff038789243c2b506a89163cc99f76d06c0f60001b8160008151811061044357610443614190565b6020026020010181815250506000805160206145d583398151915260001b8160018151811061047457610474614190565b60209081029190910101526104898133610ab7565b5060005b8581101561050f576104fd8787838181106104aa576104aa614190565b90506020020160208101906104bf91906141a6565b8686848181106104d1576104d1614190565b905060200201356040518060200160405280600081525060405180602001604052806000815250610b4f565b80610507816141e5565b91505061048d565b50505050505050565b838380806020026020016040519081016040528093929190818152602001838360200280828437600092019190915250506040805160208087028281018201909352868252909350869250859182918501908490808284376000920191909152506105899250849150839050610a91565b610591610a6b565b610599610a1e565b6105a1610ba6565b6040805160028082526060820183526000926020830190803683370190505090507f4be32e8849414d19186807008dabd451c1d87dae5f8e22f32f5ce94d486da84260001b816000815181106105f9576105f9614190565b6020026020010181815250506000805160206145d583398151915260001b8160018151811061062a5761062a614190565b602090810291909101015261063f8133610ab7565b5060005b858110156106e25761067c600088888481811061066257610662614190565b905060200201602081019061067791906141a6565b610bcb565b6106af600088888481811061069357610693614190565b90506020020160208101906106a891906141a6565b6000610bf7565b6106d08585838181106106c4576106c4614190565b90506020020135610c27565b806106da816141e5565b915050610643565b5060005b8581101561050f5761074687878381811061070357610703614190565b905060200201602081019061071891906141a6565b86868481811061072a5761072a614190565b9050602002013560405180602001604052806000815250610c6f565b80610750816141e5565b9150506106e6565b838380806020026020016040519081016040528093929190818152602001838360200280828437600092019190915250506040805160208087028281018201909352868252909350869250859182918501908490808284376000920191909152506107c99250849150839050610a91565b6107d1610a6b565b6107d9610ccb565b6107e1610a1e565b6107e9610cf1565b3360006107f68282610bcb565b33600080610805838383610bf7565b60005b8a8110156108505761082760008d8d8481811061066257610662614190565b61083e60008d8d8481811061069357610693614190565b80610848816141e5565b915050610808565b5060005b8a8110156108b8576108a5338d8d8481811061087257610872614190565b905060200201602081019061088791906141a6565b8c8c8581811061089957610899614190565b90506020020135610d6e565b50806108b0816141e5565b915050610854565b505050505050505050505050565b6040805160018082528183019092526060916020808301908036833701905050905060006374248c3f60e11b82826108fd816141e5565b93508151811061090f5761090f614190565b6001600160e01b0319909216602092830291909101909101525090565b60408051600480825260a0820190925260609160208201608080368337019050509050600063446b4ad960e11b8282610964816141e5565b93508151811061097657610976614190565b6001600160e01b0319909216602092830291909101909101526310a91eaf60e21b82826109a2816141e5565b9350815181106109b4576109b4614190565b6001600160e01b031990921660209283029190910190910152636857310760e01b82826109e0816141e5565b9350815181106109f2576109f2614190565b6001600160e01b031990921660209283029190910190910152634a6cc67760e01b82826108fd816141e5565b610a26610dd4565b15610a4457604051630eda11f160e31b815260040160405180910390fd5b565b610a4e610dea565b610a4457604051637a5bd83960e11b815260040160405180910390fd5b610a73610e17565b15610a445760405163649815a560e01b815260040160405180910390fd5b8051825114610ab35760405163064f137160e41b815260040160405180910390fd5b5050565b610ac18282610e51565b610ab3578082604051634872a9c960e11b8152600401610ae29291906141fe565b60405180910390fd5b610af6858585610d6e565b50836001600160a01b0316856001600160a01b03167f6bf62b4b9c7b768275122bf70d429efc398a056d669b1efdf6c3976346246d7d33868686604051610b4094939291906142a4565b60405180910390a35050505050565b610b598484610ecf565b836001600160a01b03167f876b7cb47aa150b3a5516188b19ed308752ad4d0ae9a702543353b78163f758933858585604051610b9894939291906142a4565b60405180910390a250505050565b610bae610f11565b610a445760405163d3c3caeb60e01b815260040160405180910390fd5b6000806000610bda8585610f39565b9350935050925082610bf057610bf0828261116a565b5050505050565b6000806000610c09868660008761119a565b9350935050925082610c1f57610c1f828261116a565b505050505050565b6000610c316114a3565b9050610c4f82610c3f6114cd565b610c4991906142e8565b826114d7565b610ab35760405163f9f8491560e01b815260048101829052602401610ae2565b610c7983836114e7565b6001600160a01b038316336001600160a01b03167f0e9905d62635f049c2f4e11678ebf9dc3d1f8c4a653e290759b772e47ba00d008484604051610cbe9291906142fb565b60405180910390a3505050565b610cd3611538565b15610a4457604051632d97184360e11b815260040160405180910390fd5b610cf961156a565b8015610d2c5750610d2a7f96658f163b67573bbf1e3f9e9330b199b3ac2f6ec0139ea95f622e20a5df2f4633611592565b155b15610a445733604051630553473160e41b8152610ae291907f96658f163b67573bbf1e3f9e9330b199b3ac2f6ec0139ea95f622e20a5df2f4690600401614314565b6000610dbe846040518060400160405280866001600160a01b0316815260200185815250600160001b604051806020016040528060008152506000604051806020016040528060008152506115bf565b50610dca848484611778565b90505b9392505050565b6000610dde6117d1565b6005015460ff16919050565b60007f78da7d6f03fa6ff51457b34dfcf6bc00f21877d08759f4b646f714d8f8c539f75b5460ff16919050565b60007f5a5b295532a8b6e97bc9d45d68fc49b85a099545bac8f91f77706d392a1cea715460ff1680610e4c5750610e4c6117f5565b905090565b6000805b8351811015610ec357610ea27f4765bbd856d800638d39a79262ebc6fdfb5833d0e59f32c5d482fe4c4a3554c1858381518110610e9457610e94614190565b6020026020010151856118c9565b15610eb1576001915050610ec9565b80610ebb816141e5565b915050610e55565b50600090505b92915050565b610f00600160001b8360008460405180602001604052806000815250604051806020016040528060008152506118ed565b610f0c82600083611778565b505050565b60007f919465d7e15b775c94035d2b592c0808b79e37ecb2e0ceb66bd8c481f998ee9f610e0e565b6000808060606001600160a01b0386161561109557610f59600187611990565b610fa957604051600090600160fc1b9063fc855b1b60e01b90610f80908a9060200161432d565b60408051601f198184030181529190529296509094506001600160e01b03191692509050611161565b600061101d63b9209e3360e01b88604051602401610fc7919061432d565b60408051601f198184030181529190526020810180516001600160e01b03166001600160e01b0319909316929092179091526356c3c24f60e11b611009611a33565b600101546001600160a01b03169190611a57565b90506000815111801561104157508080602001905181019061103f9190614341565b155b1561109357604051600090600160fc1b9063209d285360e01b90611069908b9060200161432d565b604051602081830303815290604052816001600160e01b0319169150945094509450945050611161565b505b6001600160a01b03851615611142576110af600186611990565b6110d657604051600090600160fc1b9063fc855b1b60e01b90610f8090899060200161432d565b60006110f463b9209e3360e01b87604051602401610fc7919061432d565b9050600081511180156111185750808060200190518101906111169190614341565b155b1561114057604051600090600160fc1b9063209d285360e01b90611069908a9060200161432d565b505b50506040805160208101909152600080825260019350600160f81b9250905b92959194509250565b6000828260405160200161117f929190614363565b60405160208183030381529060405290508051602082018181fd5b600080600060608415611326576111b033611ad3565b6111fe576000600160fc1b63796c1f0d60e01b335b6040516020016111d5919061432d565b60408051601f198184030181529190529296509094506001600160e01b03191692509050611498565b61120733611afb565b15611221576000600b60f91b63f9f9bcf960e01b336111c5565b60006112aa6372331c7360e11b336040516001600160a01b03909116602482015260006044820181905260648201526084015b60408051601f198184030181529190526020810180516001600160e01b03166001600160e01b0319909316929092179091526333fdd08160e11b611296611a33565b600201546001600160a01b03169190611a57565b9050600081511180156112ce5750808060200190518101906112cc9190614341565b155b1561132457604051600090600160fc1b906319bac6d560e21b906112fa908d908d908d90602001614394565b604051602081830303815290604052816001600160e01b0319169150945094509450945050611498565b505b6001600160a01b038816156113965761133e88611afb565b1561136657604051600090600b60f91b9063f9f9bcf960e01b906111d5908c9060200161432d565b61136f88611ad3565b61139657604051600090600160fc1b9063796c1f0d60e01b906111d5908c9060200161432d565b6001600160a01b03871615611406576113ae87611afb565b156113d657604051600090600b60f91b9063f9f9bcf960e01b906111d5908b9060200161432d565b6113df87611ad3565b61140657604051600090600160fc1b9063796c1f0d60e01b906111d5908b9060200161432d565b600061142863e46638e660e01b8a8a8a60405160240161125493929190614394565b90506000815111801561144c57508080602001905181019061144a9190614341565b155b1561147857604051600090600160fc1b906319bac6d560e21b906112fa908d908d908d90602001614394565b50506040805160208101909152600080825260019450600160f81b935091505b945094509450949050565b60007f591561cf73f8f1ca1532449c7ce18338a75e9e17f2894af1e41b36e3b013f9515b54919050565b60006114c76117d1565b6000811580610dcd575050101590565b61152c6040518060800160405280600160001b8152602001846001600160a01b0316815260200183815260200160405180602001604052806000815250815250611b2a565b610f0c60008383611778565b60007ff5d5af29c37f2085b9f37cfb2259d4e3b957777d47ffc1949a7596cb1d37ba905b54610100900460ff16919050565b60007f564ecdb30bda57ccdf5f0ccce9a283978b97919c80a3230163042042418b154661155c565b6000610dcd7f4765bbd856d800638d39a79262ebc6fdfb5833d0e59f32c5d482fe4c4a3554c184846118c9565b60006115d5858888600001518960200151611c43565b6115e487876020015187611dae565b85600001516001600160a01b0316876001600160a01b0316867fff4e9a26af4eb73b8bacfaa4abd4fea03d9448e7b912dc5ff4019048875aa2d4868a60200151898860405161163694939291906142a4565b60405180910390a461164c858760000151611f4c565b61170c576116638660200151876000015187611f86565b85516001600160a01b038881169116148015906116805750600185145b156117045785516020870151604051611702926322ebca6d60e21b926116ac928c929190602401614394565b60408051601f198184030181529190526020810180516001600160e01b03166001600160e01b0319909316929092179091526333fdd08160e11b6116ee611a33565b600201546001600160a01b03169190612069565b505b50600061176e565b61171f86600001518760200151876120d2565b85516001600160a01b0388811691161480159061173c5750600185145b1561176a5785516020870151604051611768926322ebca6d60e21b926116ac928c929190602401614394565b505b5060005b9695505050505050565b6000826001600160a01b0316846001600160a01b03167fddf252ad1be2c89b69c2b068fc378daa952ba7f163c4a11628f55a4df523b3ef846040516117bf91815260200190565b60405180910390a35060019392505050565b7f67661db80d37d3b9810c430f78991b4b5377bdebd3b71b39fbd3427092c1822a90565b60007f80cd138137fb7aaf8068b75b39b6681af39401f81721b6420d44eb588baaeeb981611822826121c9565b905060005b818110156118bf5761183c60018401826121d7565b6001600160a01b031663b187bd266040518163ffffffff1660e01b8152600401602060405180830381865afa158015611879573d6000803e3d6000fd5b505050506040513d601f19601f8201168201806040525081019061189d9190614341565b156118ac576001935050505090565b6001016118b8816141e5565b9050611827565b5060009250505090565b6001600160a01b03811660009081526001840160205260408120610dca90846121e3565b6118fa8686600086611c43565b611905858488611dae565b61190f86846121fb565b600019860161193857611936638d2ea77260e01b86856040516024016116ac929190614314565b505b846001600160a01b0316846001600160a01b0316877fa4f62471c9bdf88115b97203943c74c59b655913ee5ee592706d84ef53fb6be2868686604051611980939291906143b8565b60405180910390a4505050505050565b7f589d3365cb6f9141f65f568666d0e4cb837c3b1edc1527dd31a1aa423ad940c9546000907f589d3365cb6f9141f65f568666d0e4cb837c3b1edc1527dd31a1aa423ad940c7908290610100900460ff161580611a1657508460018111156119fa576119fa6143e3565b611a038561224a565b6001811115611a1457611a146143e3565b145b9050808015611a2a5750611a2a8486612403565b95945050505050565b7fba82ce8c38a926a01a84988222ab779cf1852f228ccaafd725c8d06d090d090690565b60606001600160a01b03841615610dcd57600080856001600160a01b031685604051611a8391906143f9565b600060405180830381855afa9150503d8060008114611abe576040519150601f19603f3d011682016040523d82523d6000602084013e611ac3565b606091505b509150915061176e8282866124fe565b6000611ade82612517565b1515611ae8612543565b1515148015610ec95750610ec98261256b565b6000611b05611a33565b6001600160a01b03909216600090815260059290920160205250604090205460ff1690565b611b3c81600001518260400151612640565b611b558160000151600083602001518460400151611c43565b611b6781600001518260200151611f4c565b611b8757611b82816040015182602001518360000151611f86565b611b9e565b611b9e8160200151826040015183600001516120d2565b611bb08160000151826040015161267c565b805160001901611be25760208101516040808301519051611be092635f8dead360e01b926116ac92602401614314565b505b60208101516001600160a01b0316336001600160a01b031682600001517f5af1c8f424b104b6ba4e3c0885f2ed9fef04a9b1ea39cd9ed362432105c0791a84604001518560600151604051611c389291906142fb565b60405180910390a450565b611c4e8484846126c1565b6000806001600160a01b038516611c9757611c6984876126d7565b611c7286612882565b600083118015611c885750611c86846128c6565b155b15611c9257600191505b611d30565b6001600160a01b038416611cdc57611caf85876126d7565b611cb886612882565b600083118015611ccf575082611ccd866128f2565b145b15611c9257506001611d30565b611ce685876126d7565b611cf084876126d7565b600083118015611d065750611d04846128c6565b155b15611d1057600191505b600083118015611d27575082611d25866128f2565b145b15611d30575060015b818015611d3a5750805b15611d5957611d48856128fe565b611d52848661292b565b5050611da8565b8115611d7057611d6761298b565b611d52846129a1565b8015610c1f57611d7f856128fe565b611d97611d92611d8d612a0b565b612a1e565b6128fe565b611d9f61298b565b610c1f85612a45565b50505050565b611db88184612b04565b611dd9578281604051632fe13d3b60e21b8152600401610ae2929190614314565b6000611de58285612b51565b905082811015611e285760405163175a093160e21b81526001600160a01b0385166004820152602481018290526044810184905260648101839052608401610ae2565b6000611e326117d1565b6001600160a01b0386166000908152600482016020908152604080832087845290915281205491925090611e6890600190614415565b6001600160a01b038716600090815260038401602052604090208054919250869183908110611e9957611e99614190565b90600052602060002090600202016000015403611ec057611ebb868583612bde565b611f15565b6001600160a01b03861660009081526003830160205260409020805486919083908110611eef57611eef614190565b90600052602060002090600202016000016000828254611f0f9190614415565b90915550505b6001600160a01b038616600090815260028301602052604081208054879290611f3f908490614415565b9091555050505050505050565b600080611f576117d1565b6001600160a01b0393909316600090815260049093016020908152604080852095855294905250502054151590565b611f9782611f92612d85565b612d98565b6000611fa16117d1565b6001600160a01b038416600090815260038201602090815260408083208151808301909252888252818301878152815460018181018455928652939094209151600290930290910191825591519101559050611ffb6117d1565b6001600160a01b03841660009081526003919091016020908152604080832054600485018352818420868552909252909120558315611da8576001600160a01b03831660009081526002820160205260408120805486929061205e9084906142e8565b909155505050505050565b60606001600160a01b03841615610dcd57600080856001600160a01b03168560405161209591906143f9565b6000604051808303816000865af19150503d8060008114611abe576040519150601f19603f3d011682016040523d82523d6000602084013e611ac3565b6120dc8184612b04565b6120fd578281604051632fe13d3b60e21b8152600401610ae2929190614314565b60006121076117d1565b6001600160a01b038516600090815260048201602090815260408083208684529091528120549192509061213d90600190614415565b6001600160a01b03861660009081526003840160205260409020805491925085918390811061216e5761216e614190565b9060005260206000209060020201600001600082825461218e91906142e8565b90915550506001600160a01b0385166000908152600283016020526040812080548692906121bd9084906142e8565b90915550505050505050565b6000610ec982600101612dcd565b6000610dcd8383612dd7565b60008181526001830160205260408120541515610dcd565b60006122056117d1565b90508181600001600082825461221b9190614415565b9091555050600083815260018201602052604081208054849290612240908490614415565b9091555050505050565b60008061225683612e01565b9050428160200151101561226d5750600092915050565b428151111561227f5750600092915050565b61228c8160600151612f40565b6122995750600092915050565b60006122cc7fdbde0b1f7457f92983806323b8056e5eabfce9a23b8924af999a4df0e4154e1a546001600160a01b031690565b90506001600160a01b03811615801590612356575060608201516040808401519051636e5f638960e11b81526001600160a01b0384169263dcbec7129261231592600401614428565b602060405180830381865afa158015612332573d6000803e3d6000fd5b505050506040513d601f19601f820116820180604052508101906123569190614341565b15612365575060009392505050565b6001600160a01b038116156123f85760608201516040808401519051636e5f638960e11b81526001600160a01b0384169263dcbec712926123a892600401614428565b602060405180830381865afa1580156123c5573d6000803e3d6000fd5b505050506040513d601f19601f820116820180604052508101906123e99190614341565b156123f8575060009392505050565b506080015192915050565b60007f57364604d3fde2768df7beea76ca84783455ba461f6f84450864597901db12b981612430826121c9565b905060005b818110156124f25784600181111561244f5761244f6143e3565b61245c60018501836121d7565b6001600160a01b031663be88ff49886040518263ffffffff1660e01b8152600401612487919061432d565b602060405180830381865afa1580156124a4573d6000803e3d6000fd5b505050506040513d601f19601f820116820180604052508101906124c8919061444c565b60018111156124d9576124d96143e3565b146124ea5760009350505050610ec9565b600101612435565b50600195945050505050565b6060831561250d575081610dcd565b610dcd828461116a565b6000610ec97fd2a97f6f015eb0ef6e78a5d99ed4baddb1001474ec77117d69e09432533577d483612f68565b60007fd2a97f6f015eb0ef6e78a5d99ed4baddb1001474ec77117d69e09432533577d3610e0e565b60007f3553e9f946bd0c6ac12c2e96bf561ec7aafbed39334ffde761beba62ed8dbad681612598826121c9565b905060005b81811015612635576125b260018401826121d7565b6001600160a01b031663fe9fbb80866040518263ffffffff1660e01b81526004016125dd919061432d565b602060405180830381865afa1580156125fa573d6000803e3d6000fd5b505050506040513d601f19601f8201168201806040525081019061261e9190614341565b61262d57506000949350505050565b60010161259d565b506001949350505050565b8061265e57604051637c946ed760e01b815260040160405180910390fd5b81610ab357604051634a6f30c360e01b815260040160405180910390fd5b60006126866117d1565b90508181600001600082825461269c91906142e8565b90915550506000838152600182016020526040812080548492906122409084906142e8565b6126cb6000612f8a565b50610f0c838383612fbf565b60006126e1612ffa565b9050806000036126f057505050565b60006126fb8261300e565b90506000612707613047565b90508181036127a857610bf061271b613052565b6001600160a01b03871660009081526020919091526040902061273d876128c6565b612745613052565b6001600160a01b0389166000908152600191909101602090815260408083208a84529091529020612774613052565b6001600160a01b038a1660009081526002919091016020526040902061279a898b612b51565b6127a38b613076565b61317f565b816000036127b557600191505b60006127c0866128f2565b905060006127ce8688613195565b905060006127dc858561446d565b90506127e8818461446d565b92506127f4818361446d565b9150612878612801613052565b6001600160a01b038a1660009081526020919091526040902084612823613052565b6001600160a01b038c166000908152600191909101602090815260408083208d84529091529020612852613052565b6001600160a01b038d16600090815260029190910160205260409020866127a38e613076565b5050505050505050565b61289d61288d613052565b6003016128986114cd565b6131a2565b6128c36128a8613052565b600083815260089190910160205260409020612898836131ec565b50565b60006128d06117d1565b6001600160a01b03909216600090815260029290920160205250604090205490565b6000610ec9824261320a565b6128c3612909613052565b60130160006129178461323d565b815260200190815260200160002082613269565b60006129356117d1565b6001600160a01b03928316600081815260068301602081815260408084208054999098168085528185208a90559884526007909501815293822080546001600160a01b0319169097179096559081529390525055565b610a44612996613052565b601401612898612a0b565b60006129ab6117d1565b9050600081600801600081546129c0906141e5565b91829055506000818152600784016020908152604080832080546001600160a01b039098166001600160a01b0319909816881790559582526006909401909352929091209190915550565b6000612a156117d1565b60080154905090565b6000612a286117d1565b60009283526007016020525060409020546001600160a01b031690565b6000612a4f6117d1565b60088101549091506001811115612acd576001600160a01b038316600090815260068301602052604090205481811015612acb5760008281526007840160208181526040808420546001600160a01b03168085526006880183528185208690558585529290915290912080546001600160a01b03191690911790555b505b6001600160a01b0383166000908152600683016020526040812081905560088301805491612afa8361448f565b9190505550505050565b600080612b0f6117d1565b6001600160a01b0384166000908152600482016020908152604080832088845290915281205491925003612b47576000915050610ec9565b6001915050610ec9565b6000612b5d8383612b04565b15612bd6576000612b6c6117d1565b6001600160a01b038416600090815260038201602090815260408083206004850183528184208985529092529091205491925090612bac90600190614415565b81548110612bbc57612bbc614190565b906000526020600020906002020160000154915050610ec9565b506000610ec9565b6000612be86117d1565b6001600160a01b0385166000908152600382016020526040902054909150612c1290600190614415565b8214612d20576001600160a01b038416600090815260038201602052604090208054612c4090600190614415565b81548110612c5057612c50614190565b9060005260206000209060020201816003016000866001600160a01b03166001600160a01b031681526020019081526020016000208381548110612c9657612c96614190565b60009182526020909120825460029092020190815560019182015490820155612cc09083906142e8565b6001600160a01b03851660009081526004830160209081526040808320600386019092528220805491929186908110612cfb57612cfb614190565b9060005260206000209060020201600101548152602001908152602001600020819055505b6001600160a01b03841660008181526004830160209081526040808320878452825280832083905592825260038401905220805480612d6157612d616144a6565b60008281526020812060026000199093019283020181815560010155905550505050565b6000612d8f6132cf565b60010154905090565b612da06132cf565b6001600160a01b039092166000908152602092835260408120805460018101825590825292902090910155565b6000610ec9825490565b6000826000018281548110612dee57612dee614190565b9060005260206000200154905092915050565b612e09613f03565b7f589d3365cb6f9141f65f568666d0e4cb837c3b1edc1527dd31a1aa423ad940c76001600160a01b03831660009081526020918252604090819020815160a081018352815481526001820154938101939093526002810180549192840191612e70906144bc565b80601f0160208091040260200160405190810160405280929190818152602001828054612e9c906144bc565b8015612ee95780601f10612ebe57610100808354040283529160200191612ee9565b820191906000526020600020905b815481529060010190602001808311612ecc57829003601f168201915b505050918352505060038201546001600160a01b0381166020830152604090910190600160a01b900460ff166001811115612f2657612f266143e3565b6001811115612f3757612f376143e3565b90525092915050565b6000610ec97fdbde0b1f7457f92983806323b8056e5eabfce9a23b8924af999a4df0e4154e18835b6001600160a01b03811660009081526001830160205260408120541515610dcd565b6000610ec97f2352c39c61abb4e922588a7d46fb5c925b9a205577be135537479031648c86fe63df1eb07160e01b84426132f3565b612fc8836134d2565b6001600160a01b03821615612fe157612fe18383613522565b6001600160a01b03811615610f0c57610f0c8382613522565b6000610e4c613007613052565b6005015490565b60008060006130278461301f613052565b600d01613551565b915091508161303d57613038612d85565b61303f565b805b949350505050565b6000610e4c426135a0565b7f450898ebb84982a28d8787f0138cfce477c6d811ae3b1db5fdb7ed17e8bda89890565b606060006130826117d1565b6001600160a01b03841660009081526003820160205260408120549192509067ffffffffffffffff8111156130b9576130b961417a565b6040519080825280602002602001820160405280156130e2578160200160208202803683370190505b50905060005b6001600160a01b0385166000908152600384016020526040902054811015613177576001600160a01b0385166000908152600384016020526040902080548290811061313657613136614190565b90600052602060002090600202016001015482828151811061315a5761315a614190565b60209081029190910101528061316f816141e5565b9150506130e8565b509392505050565b61318986866131a2565b610c1f848484846135d1565b6000610dcd838342613686565b60006131ac612ffa565b9050806131b8846136b6565b1015610f0c578254600180820185556000858152602080822090930193909355938401805494850181558252902090910155565b60006131f66117d1565b600092835260010160205250604090205490565b600080613227613219846135a0565b613222866136fb565b613705565b905080613233856128c6565b61303f91906144f6565b60006132476117d1565b6001600160a01b03909216600090815260069290920160205250604090205490565b6000613273612ffa565b90508061327f846136b6565b1015610f0c5782546001818101855560008581526020808220909301849055818601805492830181558152919091200180546001600160a01b0384166001600160a01b0319909116179055505050565b7f20765daced38554542b3c858f10e7fb957696c4dbd38d7faabc51dd4de7ad54190565b600080613301866001015490565b90508060000361331557600091505061303f565b83600082821180613324575081155b1561332d578291505b60015b8281116134c65760006133438286614415565b905060006133518b83613730565b905087816000015110156134aa576133688b6137ff565b60028b01805460ff191660011790556020810151604051600091829130918e916133999188918d919060240161450d565b60408051601f198184030181529181526020820180516001600160e01b03166001600160e01b03199094169390931790925290516133d791906143f9565b600060405180830381855af49150503d8060008114613412576040519150601f19603f3d011682016040523d82523d6000602084013e613417565b606091505b509150915081613497578051156134315780518082602001fd5b60405162461bcd60e51b815260206004820152603560248201527f6f6e5363686564756c65645461736b547269676765726564206d6574686f64206044820152743330b4b632b2103bb4ba3437baba103932b0b9b7b760591b6064820152608401610ae2565b505060028b01805460ff191690556134b1565b50506134c6565b505080806134be906141e5565b915050613330565b50979650505050505050565b60006134dc612d85565b905060006134e983613868565b90508082036134f757505050565b60006135038383613705565b905061350f8482613886565b61351984826138bb565b611da884613937565b600061352c612d85565b905060006135386117d1565b90506135468183868661395f565b611da8818385613a0b565b60008080806135608686613a56565b915091508182613571576000613592565b85600101828154811061358657613586614190565b90600052602060002001545b9350935050505b9250929050565b6000806135ab612d85565b9050806000036135b9575060015b60006135c484613ad4565b50905061303f81836144f6565b60006135db612ffa565b9050806135e7866136b6565b101561361b578454600181810187556000878152602080822090930184905581880180549283018155815291909120018390555b80613625856136b6565b1015610bf0578354600181810186556000868152602080822090930184905560408051808501909152858152828801805493840181558252908390208151805192948594929092019261367b9284920190613f4b565b505050505050505050565b60008061369f613695846135a0565b6132228787613be1565b9050806136ac8686612b51565b611a2a91906144f6565b805460009081036136c957506000919050565b815482906136d990600190614415565b815481106136e9576136e9614190565b90600052602060002001549050919050565b60006128d06132cf565b60008260000361371757506001610ec9565b81600003613726575081610ec9565b610dcd828461446d565b604080518082019091526000815260606020820152600082815260208481526040918290208251808401909352805483526001810180549192840191613775906144bc565b80601f01602080910402602001604051908101604052809291908181526020018280546137a1906144bc565b80156137ee5780601f106137c3576101008083540402835291602001916137ee565b820191906000526020600020905b8154815290600101906020018083116137d157829003601f168201915b505050505081525050905092915050565b600061380c826001015490565b90508060000361381a575050565b816000613828600184614415565b8152602081019190915260400160009081208181559061384b6001830182613f96565b505060018201805490600061385f8361448f565b91905055505050565b60006138726132cf565b600092835260030160205250604090205490565b8061388f6117d1565b600101600084815260200190815260200160002060008282546138b291906144f6565b90915550505050565b60008281527f591561cf73f8f1ca1532449c7ce18338a75e9e17f2894af1e41b36e3b013f95260205260409020547f591561cf73f8f1ca1532449c7ce18338a75e9e17f2894af1e41b36e3b013f9519060010161391757505050565b6000838152600182016020526040812080548492906122409084906144f6565b60006139416132cf565b60018101546000938452600390910160205260409092209190915550565b6001600160a01b03811660009081526004850160209081526040808320858452909152812054908190036139935750611da8565b60006139a0858484613c77565b6001600160a01b0384166000908152600388016020526040902090915081906139ca600185614415565b815481106139da576139da614190565b906000526020600020906002020160000160008282546139fa91906144f6565b90915550610c1f9050858484613cc9565b6000613a178383613d17565b6001600160a01b0383166000908152600286016020526040812080549293508392909190613a469084906144f6565b90915550611da890508383613d47565b60008083600003613a7a5760405163f128004d60e01b815260040160405180910390fd5b613a82612ffa565b841115613aa557604051638e81eb8360e01b815260048101859052602401610ae2565b6000613ab18486613d72565b84549091508103613ac9576000809250925050613599565b600192509050613599565b7faf4aaa3de473ec9b58645d40f5a2fe4e176157e247b2d875db61f1a70935ac69546001906000907faf4aaa3de473ec9b58645d40f5a2fe4e176157e247b2d875db61f1a70935ac689060015b818111613bd9576000613b348284614415565b90506000613b428583613730565b90508781600001511015613bbd5760008160200151806020019051810190613b6a919061452c565b90506000613b7782613e13565b9050600081806020019051810190613b8f9190614545565b905080602001518a613ba191906144f6565b9950806040015189613bb391906145bb565b9850505050613bc4565b5050613bd9565b50508080613bd1906141e5565b915050613b21565b505050915091565b600080613bec6117d1565b6001600160a01b0384166000908152600491909101602090815260408083208784529091528120549150819003613c27576000915050610ec9565b613c2f6132cf565b6001600160a01b038416600090815260209190915260409020613c53600183614415565b81548110613c6357613c63614190565b906000526020600020015491505092915050565b6000610dca84613c856132cf565b6001600160a01b038616600090815260209190915260409020613ca9600186614415565b81548110613cb957613cb9614190565b9060005260206000200154613705565b82613cd26132cf565b6001600160a01b038416600090815260209190915260409020613cf6600184614415565b81548110613d0657613d06614190565b600091825260209091200155505050565b6000610dcd83613d256132cf565b6001600160a01b03851660009081526002919091016020526040902054613705565b81613d506132cf565b6001600160a01b03909216600090815260029290920160205260409091205550565b81546000908103613d8557506000610ec9565b82546000905b80821015613dcf576000613d9f8383613ed7565b905084613dac8783613ef2565b541115613dbb57809150613dc9565b613dc68160016142e8565b92505b50613d8b565b600082118015613df2575083613def86613dea600186614415565b613ef2565b54145b15613e0b57613e02600183614415565b92505050610ec9565b509050610ec9565b60008181527f9db84024bbea48a7580380e27785cf3e0d08fada233c84760c8a5aff47f86e1460205260409020600101805460609190613e52906144bc565b80601f0160208091040260200160405190810160405280929190818152602001828054613e7e906144bc565b8015613ecb5780601f10613ea057610100808354040283529160200191613ecb565b820191906000526020600020905b815481529060010190602001808311613eae57829003601f168201915b50505050509050919050565b6000613ee6600284841861446d565b610dcd908484166142e8565b60008281526020812082018061303f565b6040518060a0016040528060008152602001600081526020016060815260200160006001600160a01b0316815260200160006001811115613f4657613f466143e3565b905290565b828054828255906000526020600020908101928215613f86579160200282015b82811115613f86578251825591602001919060010190613f6b565b50613f92929150613fcc565b5090565b508054613fa2906144bc565b6000825580601f10613fb2575050565b601f0160209004906000526020600020908101906128c391905b5b80821115613f925760008155600101613fcd565b60008083601f840112613ff357600080fd5b50813567ffffffffffffffff81111561400b57600080fd5b6020830191508360208260051b850101111561359957600080fd5b6000806000806000806060878903121561403f57600080fd5b863567ffffffffffffffff8082111561405757600080fd5b6140638a838b01613fe1565b9098509650602089013591508082111561407c57600080fd5b6140888a838b01613fe1565b909650945060408901359150808211156140a157600080fd5b506140ae89828a01613fe1565b979a9699509497509295939492505050565b600080600080604085870312156140d657600080fd5b843567ffffffffffffffff808211156140ee57600080fd5b6140fa88838901613fe1565b9096509450602087013591508082111561411357600080fd5b5061412087828801613fe1565b95989497509550505050565b6020808252825182820181905260009190848201906040850190845b8181101561416e5783516001600160e01b03191683529284019291840191600101614148565b50909695505050505050565b634e487b7160e01b600052604160045260246000fd5b634e487b7160e01b600052603260045260246000fd5b6000602082840312156141b857600080fd5b81356001600160a01b0381168114610dcd57600080fd5b634e487b7160e01b600052601160045260246000fd5b6000600182016141f7576141f76141cf565b5060010190565b6001600160a01b038316815260406020808301829052835191830182905260009184820191906060850190845b818110156142475784518352938301939183019160010161422b565b5090979650505050505050565b60005b8381101561426f578181015183820152602001614257565b50506000910152565b60008151808452614290816020860160208601614254565b601f01601f19169290920160200192915050565b60018060a01b03851681528360208201526080604082015260006142cb6080830185614278565b82810360608401526142dd8185614278565b979650505050505050565b80820180821115610ec957610ec96141cf565b828152604060208201526000610dca6040830184614278565b6001600160a01b03929092168252602082015260400190565b6001600160a01b0391909116815260200190565b60006020828403121561435357600080fd5b81518015158114610dcd57600080fd5b6001600160e01b0319831681528151600090614386816004850160208701614254565b919091016004019392505050565b6001600160a01b039384168152919092166020820152604081019190915260600190565b8381526060602082015260006143d16060830185614278565b828103604084015261176e8185614278565b634e487b7160e01b600052602160045260246000fd5b6000825161440b818460208701614254565b9190910192915050565b81810381811115610ec957610ec96141cf565b6001600160a01b0383168152604060208201819052600090610dca90830184614278565b60006020828403121561445e57600080fd5b815160028110610dcd57600080fd5b60008261448a57634e487b7160e01b600052601260045260246000fd5b500490565b60008161449e5761449e6141cf565b506000190190565b634e487b7160e01b600052603160045260246000fd5b600181811c908216806144d057607f821691505b6020821081036144f057634e487b7160e01b600052602260045260246000fd5b50919050565b8082028115828204841417610ec957610ec96141cf565b838152826020820152606060408201526000611a2a6060830184614278565b60006020828403121561453e57600080fd5b5051919050565b60006060828403121561455757600080fd5b6040516060810181811067ffffffffffffffff8211171561458857634e487b7160e01b600052604160045260246000fd5b80604052508251815260208301516020820152604083015160ff811681146145af57600080fd5b60408201529392505050565b60ff8181168382160190811115610ec957610ec96141cf56fec4aed0454da9bde6defa5baf93bb49d4690626fc243d138104e12d1def783ea6a2646970667358221220a0d3e59dcd4ba8dfda2329e02d1a15c8fd75aedc049d0ca020e93c3df153cf8b64736f6c63430008120033",
  "linkReferences": {},
  "deployedLinkReferences": {}
}