{
  "_format": "hh-sol-artifact-1",
  "contractName": "TransferAndLockTimeTravel",
  "sourceName": "contracts/test/testTimeTravel/facetsTimeTravel/TransferAndLockTimeTravel.sol",
  "abi": [
    {
      "inputs": [
        {
          "internalType": "address",
          "name": "account",
          "type": "address"
        },
        {
          "internalType": "bytes32",
          "name": "role",
          "type": "bytes32"
        }
      ],
      "name": "AccountHasNoRole",
      "type": "error"
    },
    {
      "inputs": [
        {
          "internalType": "address",
          "name": "account",
          "type": "address"
        },
        {
          "internalType": "bytes32[]",
          "name": "roles",
          "type": "bytes32[]"
        }
      ],
      "name": "AccountHasNoRoles",
      "type": "error"
    },
    {
      "inputs": [
        {
          "internalType": "address",
          "name": "account",
          "type": "address"
        }
      ],
      "name": "AccountIsBlocked",
      "type": "error"
    },
    {
      "inputs": [],
      "name": "AllBusinessLogicKeysMustBeenInformed",
      "type": "error"
    },
    {
      "inputs": [],
      "name": "AlreadyInitialized",
      "type": "error"
    },
    {
      "inputs": [
        {
          "internalType": "bytes32",
          "name": "businessLogicKey",
          "type": "bytes32"
        }
      ],
      "name": "BusinessLogicKeyDuplicated",
      "type": "error"
    },
    {
      "inputs": [
        {
          "internalType": "bytes32",
          "name": "businessLogicKey",
          "type": "bytes32"
        }
      ],
      "name": "BusinessLogicNotActive",
      "type": "error"
    },
    {
      "inputs": [
        {
          "internalType": "uint256",
          "name": "version",
          "type": "uint256"
        }
      ],
      "name": "BusinessLogicVersionDoesNotExist",
      "type": "error"
    },
    {
      "inputs": [],
      "name": "ExpirationNotReached",
      "type": "error"
    },
    {
      "inputs": [
        {
          "internalType": "uint256",
          "name": "deadline",
          "type": "uint256"
        }
      ],
      "name": "ExpiredDeadline",
      "type": "error"
    },
    {
      "inputs": [],
      "name": "FactorIsZero",
      "type": "error"
    },
    {
      "inputs": [
        {
          "internalType": "address",
          "name": "spender",
          "type": "address"
        },
        {
          "internalType": "address",
          "name": "from",
          "type": "address"
        }
      ],
      "name": "InsufficientAllowance",
      "type": "error"
    },
    {
      "inputs": [
        {
          "internalType": "address",
          "name": "account",
          "type": "address"
        },
        {
          "internalType": "uint256",
          "name": "balance",
          "type": "uint256"
        },
        {
          "internalType": "uint256",
          "name": "value",
          "type": "uint256"
        },
        {
          "internalType": "bytes32",
          "name": "partition",
          "type": "bytes32"
        }
      ],
      "name": "InsufficientBalance",
      "type": "error"
    },
    {
      "inputs": [
        {
          "internalType": "address",
          "name": "user",
          "type": "address"
        },
        {
          "internalType": "uint256",
          "name": "requestedUnfreeze",
          "type": "uint256"
        },
        {
          "internalType": "uint256",
          "name": "availableFrozen",
          "type": "uint256"
        },
        {
          "internalType": "bytes32",
          "name": "partition",
          "type": "bytes32"
        }
      ],
      "name": "InsufficientFrozenBalance",
      "type": "error"
    },
    {
      "inputs": [
        {
          "internalType": "address",
          "name": "account",
          "type": "address"
        },
        {
          "internalType": "bytes32",
          "name": "partition",
          "type": "bytes32"
        }
      ],
      "name": "InvalidPartition",
      "type": "error"
    },
    {
      "inputs": [
        {
          "internalType": "uint256",
          "name": "newSystemTime",
          "type": "uint256"
        }
      ],
      "name": "InvalidTimestamp",
      "type": "error"
    },
    {
      "inputs": [],
      "name": "IssuanceIsClosed",
      "type": "error"
    },
    {
      "inputs": [],
      "name": "LockExpirationNotReached",
      "type": "error"
    },
    {
      "inputs": [
        {
          "internalType": "uint256",
          "name": "maxSupply",
          "type": "uint256"
        }
      ],
      "name": "MaxSupplyReached",
      "type": "error"
    },
    {
      "inputs": [
        {
          "internalType": "bytes32",
          "name": "partition",
          "type": "bytes32"
        },
        {
          "internalType": "uint256",
          "name": "maxSupply",
          "type": "uint256"
        }
      ],
      "name": "MaxSupplyReachedForPartition",
      "type": "error"
    },
    {
      "inputs": [
        {
          "internalType": "bytes32",
          "name": "partition",
          "type": "bytes32"
        },
        {
          "internalType": "uint256",
          "name": "newMaxSupplyByPartition",
          "type": "uint256"
        },
        {
          "internalType": "uint256",
          "name": "maxSupply",
          "type": "uint256"
        }
      ],
      "name": "NewMaxSupplyByPartitionTooHigh",
      "type": "error"
    },
    {
      "inputs": [],
      "name": "NewMaxSupplyCannotBeZero",
      "type": "error"
    },
    {
      "inputs": [
        {
          "internalType": "bytes32",
          "name": "partition",
          "type": "bytes32"
        },
        {
          "internalType": "uint256",
          "name": "maxSupply",
          "type": "uint256"
        },
        {
          "internalType": "uint256",
          "name": "totalSupply",
          "type": "uint256"
        }
      ],
      "name": "NewMaxSupplyForPartitionTooLow",
      "type": "error"
    },
    {
      "inputs": [
        {
          "internalType": "uint256",
          "name": "maxSupply",
          "type": "uint256"
        },
        {
          "internalType": "uint256",
          "name": "totalSupply",
          "type": "uint256"
        }
      ],
      "name": "NewMaxSupplyTooLow",
      "type": "error"
    },
    {
      "inputs": [],
      "name": "NotAllowedInMultiPartitionMode",
      "type": "error"
    },
    {
      "inputs": [],
      "name": "NotAutocalling",
      "type": "error"
    },
    {
      "inputs": [],
      "name": "OnlyDelegateAllowed",
      "type": "error"
    },
    {
      "inputs": [
        {
          "internalType": "bytes32",
          "name": "partition",
          "type": "bytes32"
        }
      ],
      "name": "PartitionNotAllowedInSinglePartitionMode",
      "type": "error"
    },
    {
      "inputs": [
        {
          "internalType": "address",
          "name": "account",
          "type": "address"
        },
        {
          "internalType": "bytes32",
          "name": "role",
          "type": "bytes32"
        }
      ],
      "name": "PartitionsAreProtectedAndNoRole",
      "type": "error"
    },
    {
      "inputs": [],
      "name": "PartitionsAreUnProtected",
      "type": "error"
    },
    {
      "inputs": [
        {
          "internalType": "uint256",
          "name": "rolesLength",
          "type": "uint256"
        },
        {
          "internalType": "uint256",
          "name": "activesLength",
          "type": "uint256"
        }
      ],
      "name": "RolesAndActivesLengthMismatch",
      "type": "error"
    },
    {
      "inputs": [
        {
          "internalType": "uint256",
          "name": "snapshotId",
          "type": "uint256"
        }
      ],
      "name": "SnapshotIdDoesNotExists",
      "type": "error"
    },
    {
      "inputs": [],
      "name": "SnapshotIdNull",
      "type": "error"
    },
    {
      "inputs": [],
      "name": "SpenderWithZeroAddress",
      "type": "error"
    },
    {
      "inputs": [],
      "name": "TokenIsNotControllable",
      "type": "error"
    },
    {
      "inputs": [],
      "name": "TokenIsPaused",
      "type": "error"
    },
    {
      "inputs": [],
      "name": "TokenIsUnpaused",
      "type": "error"
    },
    {
      "inputs": [
        {
          "internalType": "address",
          "name": "operator",
          "type": "address"
        },
        {
          "internalType": "address",
          "name": "tokenHolder",
          "type": "address"
        },
        {
          "internalType": "bytes32",
          "name": "partition",
          "type": "bytes32"
        }
      ],
      "name": "Unauthorized",
      "type": "error"
    },
    {
      "inputs": [],
      "name": "WrongChainId",
      "type": "error"
    },
    {
      "inputs": [],
      "name": "WrongExpirationTimestamp",
      "type": "error"
    },
    {
      "inputs": [],
      "name": "WrongLockId",
      "type": "error"
    },
    {
      "inputs": [
        {
          "internalType": "uint256",
          "name": "nounce",
          "type": "uint256"
        },
        {
          "internalType": "address",
          "name": "account",
          "type": "address"
        }
      ],
      "name": "WrongNounce",
      "type": "error"
    },
    {
      "inputs": [],
      "name": "WrongSignature",
      "type": "error"
    },
    {
      "inputs": [],
      "name": "WrongSignatureLength",
      "type": "error"
    },
    {
      "inputs": [
        {
          "internalType": "uint256",
          "name": "timeStamp",
          "type": "uint256"
        }
      ],
      "name": "WrongTimestamp",
      "type": "error"
    },
    {
      "inputs": [],
      "name": "ZeroAddressNotAllowed",
      "type": "error"
    },
    {
      "inputs": [],
      "name": "ZeroKeyNotValidForBusinessLogic",
      "type": "error"
    },
    {
      "inputs": [],
      "name": "ZeroOwnerAddress",
      "type": "error"
    },
    {
      "inputs": [],
      "name": "ZeroPartition",
      "type": "error"
    },
    {
      "inputs": [],
      "name": "ZeroValue",
      "type": "error"
    },
    {
      "anonymous": false,
      "inputs": [
        {
          "indexed": true,
          "internalType": "address",
          "name": "operator",
          "type": "address"
        },
        {
          "indexed": false,
          "internalType": "uint256",
          "name": "factor",
          "type": "uint256"
        },
        {
          "indexed": false,
          "internalType": "uint8",
          "name": "decimals",
          "type": "uint8"
        }
      ],
      "name": "AdjustmentBalanceSet",
      "type": "event"
    },
    {
      "anonymous": false,
      "inputs": [
        {
          "indexed": true,
          "internalType": "address",
          "name": "owner",
          "type": "address"
        },
        {
          "indexed": true,
          "internalType": "address",
          "name": "spender",
          "type": "address"
        },
        {
          "indexed": false,
          "internalType": "uint256",
          "name": "value",
          "type": "uint256"
        }
      ],
      "name": "Approval",
      "type": "event"
    },
    {
      "anonymous": false,
      "inputs": [
        {
          "indexed": true,
          "internalType": "address",
          "name": "operator",
          "type": "address"
        },
        {
          "indexed": true,
          "internalType": "address",
          "name": "tokenHolder",
          "type": "address"
        }
      ],
      "name": "AuthorizedOperator",
      "type": "event"
    },
    {
      "anonymous": false,
      "inputs": [
        {
          "indexed": true,
          "internalType": "bytes32",
          "name": "partition",
          "type": "bytes32"
        },
        {
          "indexed": true,
          "internalType": "address",
          "name": "operator",
          "type": "address"
        },
        {
          "indexed": true,
          "internalType": "address",
          "name": "tokenHolder",
          "type": "address"
        }
      ],
      "name": "AuthorizedOperatorByPartition",
      "type": "event"
    },
    {
      "anonymous": false,
      "inputs": [
        {
          "indexed": true,
          "internalType": "address",
          "name": "operator",
          "type": "address"
        },
        {
          "indexed": true,
          "internalType": "address",
          "name": "tokenHolder",
          "type": "address"
        },
        {
          "indexed": false,
          "internalType": "bytes32",
          "name": "partition",
          "type": "bytes32"
        },
        {
          "indexed": false,
          "internalType": "uint256",
          "name": "clearingId",
          "type": "uint256"
        },
        {
          "components": [
            {
              "internalType": "uint256",
              "name": "amount",
              "type": "uint256"
            },
            {
              "internalType": "uint256",
              "name": "expirationTimestamp",
              "type": "uint256"
            },
            {
              "internalType": "address",
              "name": "escrow",
              "type": "address"
            },
            {
              "internalType": "address",
              "name": "to",
              "type": "address"
            },
            {
              "internalType": "bytes",
              "name": "data",
              "type": "bytes"
            }
          ],
          "indexed": false,
          "internalType": "struct Hold",
          "name": "hold",
          "type": "tuple"
        },
        {
          "indexed": false,
          "internalType": "uint256",
          "name": "expirationDate",
          "type": "uint256"
        },
        {
          "indexed": false,
          "internalType": "bytes",
          "name": "data",
          "type": "bytes"
        },
        {
          "indexed": false,
          "internalType": "bytes",
          "name": "operatorData",
          "type": "bytes"
        }
      ],
      "name": "ClearedHoldByPartition",
      "type": "event"
    },
    {
      "anonymous": false,
      "inputs": [
        {
          "indexed": true,
          "internalType": "address",
          "name": "operator",
          "type": "address"
        },
        {
          "indexed": true,
          "internalType": "address",
          "name": "tokenHolder",
          "type": "address"
        },
        {
          "indexed": false,
          "internalType": "bytes32",
          "name": "partition",
          "type": "bytes32"
        },
        {
          "indexed": false,
          "internalType": "uint256",
          "name": "clearingId",
          "type": "uint256"
        },
        {
          "components": [
            {
              "internalType": "uint256",
              "name": "amount",
              "type": "uint256"
            },
            {
              "internalType": "uint256",
              "name": "expirationTimestamp",
              "type": "uint256"
            },
            {
              "internalType": "address",
              "name": "escrow",
              "type": "address"
            },
            {
              "internalType": "address",
              "name": "to",
              "type": "address"
            },
            {
              "internalType": "bytes",
              "name": "data",
              "type": "bytes"
            }
          ],
          "indexed": false,
          "internalType": "struct Hold",
          "name": "hold",
          "type": "tuple"
        },
        {
          "indexed": false,
          "internalType": "uint256",
          "name": "expirationDate",
          "type": "uint256"
        },
        {
          "indexed": false,
          "internalType": "bytes",
          "name": "data",
          "type": "bytes"
        },
        {
          "indexed": false,
          "internalType": "bytes",
          "name": "operatorData",
          "type": "bytes"
        }
      ],
      "name": "ClearedHoldFromByPartition",
      "type": "event"
    },
    {
      "anonymous": false,
      "inputs": [
        {
          "indexed": true,
          "internalType": "address",
          "name": "operator",
          "type": "address"
        },
        {
          "indexed": true,
          "internalType": "address",
          "name": "tokenHolder",
          "type": "address"
        },
        {
          "indexed": false,
          "internalType": "bytes32",
          "name": "partition",
          "type": "bytes32"
        },
        {
          "indexed": false,
          "internalType": "uint256",
          "name": "clearingId",
          "type": "uint256"
        },
        {
          "components": [
            {
              "internalType": "uint256",
              "name": "amount",
              "type": "uint256"
            },
            {
              "internalType": "uint256",
              "name": "expirationTimestamp",
              "type": "uint256"
            },
            {
              "internalType": "address",
              "name": "escrow",
              "type": "address"
            },
            {
              "internalType": "address",
              "name": "to",
              "type": "address"
            },
            {
              "internalType": "bytes",
              "name": "data",
              "type": "bytes"
            }
          ],
          "indexed": false,
          "internalType": "struct Hold",
          "name": "hold",
          "type": "tuple"
        },
        {
          "indexed": false,
          "internalType": "uint256",
          "name": "expirationDate",
          "type": "uint256"
        },
        {
          "indexed": false,
          "internalType": "bytes",
          "name": "data",
          "type": "bytes"
        },
        {
          "indexed": false,
          "internalType": "bytes",
          "name": "operatorData",
          "type": "bytes"
        }
      ],
      "name": "ClearedOperatorHoldByPartition",
      "type": "event"
    },
    {
      "anonymous": false,
      "inputs": [
        {
          "indexed": true,
          "internalType": "address",
          "name": "operator",
          "type": "address"
        },
        {
          "indexed": true,
          "internalType": "address",
          "name": "tokenHolder",
          "type": "address"
        },
        {
          "indexed": false,
          "internalType": "bytes32",
          "name": "partition",
          "type": "bytes32"
        },
        {
          "indexed": false,
          "internalType": "uint256",
          "name": "clearingId",
          "type": "uint256"
        },
        {
          "indexed": false,
          "internalType": "uint256",
          "name": "amount",
          "type": "uint256"
        },
        {
          "indexed": false,
          "internalType": "uint256",
          "name": "expirationDate",
          "type": "uint256"
        },
        {
          "indexed": false,
          "internalType": "bytes",
          "name": "data",
          "type": "bytes"
        },
        {
          "indexed": false,
          "internalType": "bytes",
          "name": "operatorData",
          "type": "bytes"
        }
      ],
      "name": "ClearedOperatorRedeemByPartition",
      "type": "event"
    },
    {
      "anonymous": false,
      "inputs": [
        {
          "indexed": true,
          "internalType": "address",
          "name": "operator",
          "type": "address"
        },
        {
          "indexed": true,
          "internalType": "address",
          "name": "tokenHolder",
          "type": "address"
        },
        {
          "indexed": true,
          "internalType": "address",
          "name": "to",
          "type": "address"
        },
        {
          "indexed": false,
          "internalType": "bytes32",
          "name": "partition",
          "type": "bytes32"
        },
        {
          "indexed": false,
          "internalType": "uint256",
          "name": "clearingId",
          "type": "uint256"
        },
        {
          "indexed": false,
          "internalType": "uint256",
          "name": "amount",
          "type": "uint256"
        },
        {
          "indexed": false,
          "internalType": "uint256",
          "name": "expirationDate",
          "type": "uint256"
        },
        {
          "indexed": false,
          "internalType": "bytes",
          "name": "data",
          "type": "bytes"
        },
        {
          "indexed": false,
          "internalType": "bytes",
          "name": "operatorData",
          "type": "bytes"
        }
      ],
      "name": "ClearedOperatorTransferByPartition",
      "type": "event"
    },
    {
      "anonymous": false,
      "inputs": [
        {
          "indexed": true,
          "internalType": "address",
          "name": "operator",
          "type": "address"
        },
        {
          "indexed": true,
          "internalType": "address",
          "name": "tokenHolder",
          "type": "address"
        },
        {
          "indexed": false,
          "internalType": "bytes32",
          "name": "partition",
          "type": "bytes32"
        },
        {
          "indexed": false,
          "internalType": "uint256",
          "name": "clearingId",
          "type": "uint256"
        },
        {
          "indexed": false,
          "internalType": "uint256",
          "name": "amount",
          "type": "uint256"
        },
        {
          "indexed": false,
          "internalType": "uint256",
          "name": "expirationDate",
          "type": "uint256"
        },
        {
          "indexed": false,
          "internalType": "bytes",
          "name": "data",
          "type": "bytes"
        },
        {
          "indexed": false,
          "internalType": "bytes",
          "name": "operatorData",
          "type": "bytes"
        }
      ],
      "name": "ClearedRedeemByPartition",
      "type": "event"
    },
    {
      "anonymous": false,
      "inputs": [
        {
          "indexed": true,
          "internalType": "address",
          "name": "operator",
          "type": "address"
        },
        {
          "indexed": true,
          "internalType": "address",
          "name": "tokenHolder",
          "type": "address"
        },
        {
          "indexed": false,
          "internalType": "bytes32",
          "name": "partition",
          "type": "bytes32"
        },
        {
          "indexed": false,
          "internalType": "uint256",
          "name": "clearingId",
          "type": "uint256"
        },
        {
          "indexed": false,
          "internalType": "uint256",
          "name": "amount",
          "type": "uint256"
        },
        {
          "indexed": false,
          "internalType": "uint256",
          "name": "expirationDate",
          "type": "uint256"
        },
        {
          "indexed": false,
          "internalType": "bytes",
          "name": "data",
          "type": "bytes"
        },
        {
          "indexed": false,
          "internalType": "bytes",
          "name": "operatorData",
          "type": "bytes"
        }
      ],
      "name": "ClearedRedeemFromByPartition",
      "type": "event"
    },
    {
      "anonymous": false,
      "inputs": [
        {
          "indexed": true,
          "internalType": "address",
          "name": "operator",
          "type": "address"
        },
        {
          "indexed": true,
          "internalType": "address",
          "name": "tokenHolder",
          "type": "address"
        },
        {
          "indexed": true,
          "internalType": "address",
          "name": "to",
          "type": "address"
        },
        {
          "indexed": false,
          "internalType": "bytes32",
          "name": "partition",
          "type": "bytes32"
        },
        {
          "indexed": false,
          "internalType": "uint256",
          "name": "clearingId",
          "type": "uint256"
        },
        {
          "indexed": false,
          "internalType": "uint256",
          "name": "amount",
          "type": "uint256"
        },
        {
          "indexed": false,
          "internalType": "uint256",
          "name": "expirationDate",
          "type": "uint256"
        },
        {
          "indexed": false,
          "internalType": "bytes",
          "name": "data",
          "type": "bytes"
        },
        {
          "indexed": false,
          "internalType": "bytes",
          "name": "operatorData",
          "type": "bytes"
        }
      ],
      "name": "ClearedTransferByPartition",
      "type": "event"
    },
    {
      "anonymous": false,
      "inputs": [
        {
          "indexed": true,
          "internalType": "address",
          "name": "operator",
          "type": "address"
        },
        {
          "indexed": true,
          "internalType": "address",
          "name": "tokenHolder",
          "type": "address"
        },
        {
          "indexed": true,
          "internalType": "address",
          "name": "to",
          "type": "address"
        },
        {
          "indexed": false,
          "internalType": "bytes32",
          "name": "partition",
          "type": "bytes32"
        },
        {
          "indexed": false,
          "internalType": "uint256",
          "name": "clearingId",
          "type": "uint256"
        },
        {
          "indexed": false,
          "internalType": "uint256",
          "name": "amount",
          "type": "uint256"
        },
        {
          "indexed": false,
          "internalType": "uint256",
          "name": "expirationDate",
          "type": "uint256"
        },
        {
          "indexed": false,
          "internalType": "bytes",
          "name": "data",
          "type": "bytes"
        },
        {
          "indexed": false,
          "internalType": "bytes",
          "name": "operatorData",
          "type": "bytes"
        }
      ],
      "name": "ClearedTransferFromByPartition",
      "type": "event"
    },
    {
      "anonymous": false,
      "inputs": [
        {
          "indexed": true,
          "internalType": "address",
          "name": "compliance",
          "type": "address"
        }
      ],
      "name": "ComplianceAdded",
      "type": "event"
    },
    {
      "anonymous": false,
      "inputs": [
        {
          "indexed": false,
          "internalType": "address",
          "name": "_controller",
          "type": "address"
        },
        {
          "indexed": true,
          "internalType": "address",
          "name": "_tokenHolder",
          "type": "address"
        },
        {
          "indexed": false,
          "internalType": "uint256",
          "name": "_value",
          "type": "uint256"
        },
        {
          "indexed": false,
          "internalType": "bytes",
          "name": "_data",
          "type": "bytes"
        },
        {
          "indexed": false,
          "internalType": "bytes",
          "name": "_operatorData",
          "type": "bytes"
        }
      ],
      "name": "ControllerRedemption",
      "type": "event"
    },
    {
      "anonymous": false,
      "inputs": [
        {
          "indexed": false,
          "internalType": "address",
          "name": "_controller",
          "type": "address"
        },
        {
          "indexed": true,
          "internalType": "address",
          "name": "_from",
          "type": "address"
        },
        {
          "indexed": true,
          "internalType": "address",
          "name": "_to",
          "type": "address"
        },
        {
          "indexed": false,
          "internalType": "uint256",
          "name": "_value",
          "type": "uint256"
        },
        {
          "indexed": false,
          "internalType": "bytes",
          "name": "_data",
          "type": "bytes"
        },
        {
          "indexed": false,
          "internalType": "bytes",
          "name": "_operatorData",
          "type": "bytes"
        }
      ],
      "name": "ControllerTransfer",
      "type": "event"
    },
    {
      "anonymous": false,
      "inputs": [
        {
          "indexed": false,
          "internalType": "address",
          "name": "operator",
          "type": "address"
        }
      ],
      "name": "FinalizedControllerFeature",
      "type": "event"
    },
    {
      "anonymous": false,
      "inputs": [
        {
          "indexed": true,
          "internalType": "address",
          "name": "_operator",
          "type": "address"
        },
        {
          "indexed": true,
          "internalType": "address",
          "name": "_to",
          "type": "address"
        },
        {
          "indexed": false,
          "internalType": "uint256",
          "name": "_value",
          "type": "uint256"
        },
        {
          "indexed": false,
          "internalType": "bytes",
          "name": "_data",
          "type": "bytes"
        }
      ],
      "name": "Issued",
      "type": "event"
    },
    {
      "anonymous": false,
      "inputs": [
        {
          "indexed": true,
          "internalType": "bytes32",
          "name": "partition",
          "type": "bytes32"
        },
        {
          "indexed": true,
          "internalType": "address",
          "name": "operator",
          "type": "address"
        },
        {
          "indexed": true,
          "internalType": "address",
          "name": "to",
          "type": "address"
        },
        {
          "indexed": false,
          "internalType": "uint256",
          "name": "value",
          "type": "uint256"
        },
        {
          "indexed": false,
          "internalType": "bytes",
          "name": "data",
          "type": "bytes"
        }
      ],
      "name": "IssuedByPartition",
      "type": "event"
    },
    {
      "anonymous": false,
      "inputs": [
        {
          "indexed": true,
          "internalType": "address",
          "name": "operator",
          "type": "address"
        },
        {
          "indexed": true,
          "internalType": "bytes32",
          "name": "partition",
          "type": "bytes32"
        },
        {
          "indexed": false,
          "internalType": "uint256",
          "name": "newMaxSupply",
          "type": "uint256"
        },
        {
          "indexed": false,
          "internalType": "uint256",
          "name": "previousMaxSupply",
          "type": "uint256"
        }
      ],
      "name": "MaxSupplyByPartitionSet",
      "type": "event"
    },
    {
      "anonymous": false,
      "inputs": [
        {
          "indexed": true,
          "internalType": "address",
          "name": "operator",
          "type": "address"
        },
        {
          "indexed": false,
          "internalType": "uint256",
          "name": "newMaxSupply",
          "type": "uint256"
        },
        {
          "indexed": false,
          "internalType": "uint256",
          "name": "previousMaxSupply",
          "type": "uint256"
        }
      ],
      "name": "MaxSupplySet",
      "type": "event"
    },
    {
      "anonymous": false,
      "inputs": [
        {
          "indexed": true,
          "internalType": "bytes32",
          "name": "partition",
          "type": "bytes32"
        },
        {
          "indexed": true,
          "internalType": "address",
          "name": "from",
          "type": "address"
        },
        {
          "indexed": false,
          "internalType": "address",
          "name": "to",
          "type": "address"
        },
        {
          "indexed": false,
          "internalType": "uint256",
          "name": "value",
          "type": "uint256"
        },
        {
          "indexed": false,
          "internalType": "bytes",
          "name": "data",
          "type": "bytes"
        },
        {
          "indexed": false,
          "internalType": "uint256",
          "name": "expirationTimestamp",
          "type": "uint256"
        },
        {
          "indexed": false,
          "internalType": "uint256",
          "name": "lockId",
          "type": "uint256"
        }
      ],
      "name": "PartitionTransferredAndLocked",
      "type": "event"
    },
    {
      "anonymous": false,
      "inputs": [
        {
          "indexed": true,
          "internalType": "address",
          "name": "operator",
          "type": "address"
        }
      ],
      "name": "PartitionsProtected",
      "type": "event"
    },
    {
      "anonymous": false,
      "inputs": [
        {
          "indexed": true,
          "internalType": "address",
          "name": "operator",
          "type": "address"
        }
      ],
      "name": "PartitionsUnProtected",
      "type": "event"
    },
    {
      "anonymous": false,
      "inputs": [
        {
          "indexed": true,
          "internalType": "address",
          "name": "operator",
          "type": "address"
        },
        {
          "indexed": true,
          "internalType": "address",
          "name": "tokenHolder",
          "type": "address"
        },
        {
          "indexed": false,
          "internalType": "bytes32",
          "name": "partition",
          "type": "bytes32"
        },
        {
          "indexed": false,
          "internalType": "uint256",
          "name": "clearingId",
          "type": "uint256"
        },
        {
          "components": [
            {
              "internalType": "uint256",
              "name": "amount",
              "type": "uint256"
            },
            {
              "internalType": "uint256",
              "name": "expirationTimestamp",
              "type": "uint256"
            },
            {
              "internalType": "address",
              "name": "escrow",
              "type": "address"
            },
            {
              "internalType": "address",
              "name": "to",
              "type": "address"
            },
            {
              "internalType": "bytes",
              "name": "data",
              "type": "bytes"
            }
          ],
          "indexed": false,
          "internalType": "struct Hold",
          "name": "hold",
          "type": "tuple"
        },
        {
          "indexed": false,
          "internalType": "uint256",
          "name": "expirationDate",
          "type": "uint256"
        },
        {
          "indexed": false,
          "internalType": "bytes",
          "name": "data",
          "type": "bytes"
        },
        {
          "indexed": false,
          "internalType": "bytes",
          "name": "operatorData",
          "type": "bytes"
        }
      ],
      "name": "ProtectedClearedHoldByPartition",
      "type": "event"
    },
    {
      "anonymous": false,
      "inputs": [
        {
          "indexed": true,
          "internalType": "address",
          "name": "operator",
          "type": "address"
        },
        {
          "indexed": true,
          "internalType": "address",
          "name": "tokenHolder",
          "type": "address"
        },
        {
          "indexed": false,
          "internalType": "bytes32",
          "name": "partition",
          "type": "bytes32"
        },
        {
          "indexed": false,
          "internalType": "uint256",
          "name": "clearingId",
          "type": "uint256"
        },
        {
          "indexed": false,
          "internalType": "uint256",
          "name": "amount",
          "type": "uint256"
        },
        {
          "indexed": false,
          "internalType": "uint256",
          "name": "expirationDate",
          "type": "uint256"
        },
        {
          "indexed": false,
          "internalType": "bytes",
          "name": "data",
          "type": "bytes"
        },
        {
          "indexed": false,
          "internalType": "bytes",
          "name": "operatorData",
          "type": "bytes"
        }
      ],
      "name": "ProtectedClearedRedeemByPartition",
      "type": "event"
    },
    {
      "anonymous": false,
      "inputs": [
        {
          "indexed": true,
          "internalType": "address",
          "name": "operator",
          "type": "address"
        },
        {
          "indexed": true,
          "internalType": "address",
          "name": "tokenHolder",
          "type": "address"
        },
        {
          "indexed": true,
          "internalType": "address",
          "name": "to",
          "type": "address"
        },
        {
          "indexed": false,
          "internalType": "bytes32",
          "name": "partition",
          "type": "bytes32"
        },
        {
          "indexed": false,
          "internalType": "uint256",
          "name": "clearingId",
          "type": "uint256"
        },
        {
          "indexed": false,
          "internalType": "uint256",
          "name": "amount",
          "type": "uint256"
        },
        {
          "indexed": false,
          "internalType": "uint256",
          "name": "expirationDate",
          "type": "uint256"
        },
        {
          "indexed": false,
          "internalType": "bytes",
          "name": "data",
          "type": "bytes"
        },
        {
          "indexed": false,
          "internalType": "bytes",
          "name": "operatorData",
          "type": "bytes"
        }
      ],
      "name": "ProtectedClearedTransferByPartition",
      "type": "event"
    },
    {
      "anonymous": false,
      "inputs": [
        {
          "indexed": true,
          "internalType": "bytes32",
          "name": "partition",
          "type": "bytes32"
        },
        {
          "indexed": true,
          "internalType": "address",
          "name": "operator",
          "type": "address"
        },
        {
          "indexed": true,
          "internalType": "address",
          "name": "from",
          "type": "address"
        },
        {
          "indexed": false,
          "internalType": "uint256",
          "name": "value",
          "type": "uint256"
        },
        {
          "indexed": false,
          "internalType": "uint256",
          "name": "deadline",
          "type": "uint256"
        },
        {
          "indexed": false,
          "internalType": "uint256",
          "name": "nounce",
          "type": "uint256"
        },
        {
          "indexed": false,
          "internalType": "bytes",
          "name": "signature",
          "type": "bytes"
        }
      ],
      "name": "ProtectedRedeemFrom",
      "type": "event"
    },
    {
      "anonymous": false,
      "inputs": [
        {
          "indexed": true,
          "internalType": "bytes32",
          "name": "partition",
          "type": "bytes32"
        },
        {
          "indexed": true,
          "internalType": "address",
          "name": "operator",
          "type": "address"
        },
        {
          "indexed": true,
          "internalType": "address",
          "name": "from",
          "type": "address"
        },
        {
          "indexed": false,
          "internalType": "address",
          "name": "to",
          "type": "address"
        },
        {
          "indexed": false,
          "internalType": "uint256",
          "name": "value",
          "type": "uint256"
        },
        {
          "indexed": false,
          "internalType": "uint256",
          "name": "deadline",
          "type": "uint256"
        },
        {
          "indexed": false,
          "internalType": "uint256",
          "name": "nounce",
          "type": "uint256"
        },
        {
          "indexed": false,
          "internalType": "bytes",
          "name": "signature",
          "type": "bytes"
        }
      ],
      "name": "ProtectedTransferFrom",
      "type": "event"
    },
    {
      "anonymous": false,
      "inputs": [
        {
          "indexed": true,
          "internalType": "address",
          "name": "_operator",
          "type": "address"
        },
        {
          "indexed": true,
          "internalType": "address",
          "name": "_from",
          "type": "address"
        },
        {
          "indexed": false,
          "internalType": "uint256",
          "name": "_value",
          "type": "uint256"
        },
        {
          "indexed": false,
          "internalType": "bytes",
          "name": "_data",
          "type": "bytes"
        }
      ],
      "name": "Redeemed",
      "type": "event"
    },
    {
      "anonymous": false,
      "inputs": [
        {
          "indexed": true,
          "internalType": "bytes32",
          "name": "partition",
          "type": "bytes32"
        },
        {
          "indexed": true,
          "internalType": "address",
          "name": "operator",
          "type": "address"
        },
        {
          "indexed": true,
          "internalType": "address",
          "name": "from",
          "type": "address"
        },
        {
          "indexed": false,
          "internalType": "uint256",
          "name": "value",
          "type": "uint256"
        },
        {
          "indexed": false,
          "internalType": "bytes",
          "name": "data",
          "type": "bytes"
        },
        {
          "indexed": false,
          "internalType": "bytes",
          "name": "operatorData",
          "type": "bytes"
        }
      ],
      "name": "RedeemedByPartition",
      "type": "event"
    },
    {
      "anonymous": false,
      "inputs": [
        {
          "indexed": true,
          "internalType": "address",
          "name": "operator",
          "type": "address"
        },
        {
          "indexed": true,
          "internalType": "address",
          "name": "tokenHolder",
          "type": "address"
        }
      ],
      "name": "RevokedOperator",
      "type": "event"
    },
    {
      "anonymous": false,
      "inputs": [
        {
          "indexed": true,
          "internalType": "bytes32",
          "name": "partition",
          "type": "bytes32"
        },
        {
          "indexed": true,
          "internalType": "address",
          "name": "operator",
          "type": "address"
        },
        {
          "indexed": true,
          "internalType": "address",
          "name": "tokenHolder",
          "type": "address"
        }
      ],
      "name": "RevokedOperatorByPartition",
      "type": "event"
    },
    {
      "anonymous": false,
      "inputs": [
        {
          "indexed": true,
          "internalType": "bytes32",
          "name": "role",
          "type": "bytes32"
        },
        {
          "indexed": true,
          "internalType": "bytes32",
          "name": "previousAdminRole",
          "type": "bytes32"
        },
        {
          "indexed": true,
          "internalType": "bytes32",
          "name": "newAdminRole",
          "type": "bytes32"
        }
      ],
      "name": "RoleAdminChanged",
      "type": "event"
    },
    {
      "anonymous": false,
      "inputs": [
        {
          "indexed": true,
          "internalType": "address",
          "name": "operator",
          "type": "address"
        },
        {
          "indexed": true,
          "internalType": "uint256",
          "name": "snapshotID",
          "type": "uint256"
        }
      ],
      "name": "SnapshotTaken",
      "type": "event"
    },
    {
      "anonymous": false,
      "inputs": [
        {
          "indexed": true,
          "internalType": "address",
          "name": "operator",
          "type": "address"
        },
        {
          "indexed": false,
          "internalType": "uint256",
          "name": "snapshotId",
          "type": "uint256"
        }
      ],
      "name": "SnapshotTriggered",
      "type": "event"
    },
    {
      "anonymous": false,
      "inputs": [
        {
          "indexed": false,
          "internalType": "uint256",
          "name": "legacySystemTime",
          "type": "uint256"
        },
        {
          "indexed": false,
          "internalType": "uint256",
          "name": "newSystemTime",
          "type": "uint256"
        }
      ],
      "name": "SystemTimestampChanged",
      "type": "event"
    },
    {
      "anonymous": false,
      "inputs": [],
      "name": "SystemTimestampReset",
      "type": "event"
    },
    {
      "anonymous": false,
      "inputs": [
        {
          "indexed": true,
          "internalType": "address",
          "name": "operator",
          "type": "address"
        }
      ],
      "name": "TokenPaused",
      "type": "event"
    },
    {
      "anonymous": false,
      "inputs": [
        {
          "indexed": true,
          "internalType": "address",
          "name": "operator",
          "type": "address"
        }
      ],
      "name": "TokenUnpaused",
      "type": "event"
    },
    {
      "anonymous": false,
      "inputs": [
        {
          "indexed": true,
          "internalType": "address",
          "name": "from",
          "type": "address"
        },
        {
          "indexed": true,
          "internalType": "address",
          "name": "to",
          "type": "address"
        },
        {
          "indexed": false,
          "internalType": "uint256",
          "name": "value",
          "type": "uint256"
        }
      ],
      "name": "Transfer",
      "type": "event"
    },
    {
      "anonymous": false,
      "inputs": [
        {
          "indexed": true,
          "internalType": "bytes32",
          "name": "_fromPartition",
          "type": "bytes32"
        },
        {
          "indexed": false,
          "internalType": "address",
          "name": "_operator",
          "type": "address"
        },
        {
          "indexed": true,
          "internalType": "address",
          "name": "_from",
          "type": "address"
        },
        {
          "indexed": true,
          "internalType": "address",
          "name": "_to",
          "type": "address"
        },
        {
          "indexed": false,
          "internalType": "uint256",
          "name": "_value",
          "type": "uint256"
        },
        {
          "indexed": false,
          "internalType": "bytes",
          "name": "_data",
          "type": "bytes"
        },
        {
          "indexed": false,
          "internalType": "bytes",
          "name": "_operatorData",
          "type": "bytes"
        }
      ],
      "name": "TransferByPartition",
      "type": "event"
    },
    {
      "inputs": [],
      "name": "getStaticFunctionSelectors",
      "outputs": [
        {
          "internalType": "bytes4[]",
          "name": "staticFunctionSelectors_",
          "type": "bytes4[]"
        }
      ],
      "stateMutability": "pure",
      "type": "function"
    },
    {
      "inputs": [],
      "name": "getStaticInterfaceIds",
      "outputs": [
        {
          "internalType": "bytes4[]",
          "name": "staticInterfaceIds_",
          "type": "bytes4[]"
        }
      ],
      "stateMutability": "pure",
      "type": "function"
    },
    {
      "inputs": [],
      "name": "getStaticResolverKey",
      "outputs": [
        {
          "internalType": "bytes32",
          "name": "staticResolverKey_",
          "type": "bytes32"
        }
      ],
      "stateMutability": "pure",
      "type": "function"
    },
    {
      "inputs": [
        {
          "components": [
            {
              "internalType": "address",
              "name": "from",
              "type": "address"
            },
            {
              "internalType": "address",
              "name": "to",
              "type": "address"
            },
            {
              "internalType": "uint256",
              "name": "amount",
              "type": "uint256"
            },
            {
              "internalType": "bytes",
              "name": "data",
              "type": "bytes"
            },
            {
              "internalType": "uint256",
              "name": "expirationTimestamp",
              "type": "uint256"
            }
          ],
          "internalType": "struct ITransferAndLock.TransferAndLockStruct",
          "name": "_transferAndLockData",
          "type": "tuple"
        },
        {
          "internalType": "uint256",
          "name": "_deadline",
          "type": "uint256"
        },
        {
          "internalType": "uint256",
          "name": "_nounce",
          "type": "uint256"
        },
        {
          "internalType": "bytes",
          "name": "_signature",
          "type": "bytes"
        }
      ],
      "name": "protectedTransferAndLock",
      "outputs": [
        {
          "internalType": "bool",
          "name": "success_",
          "type": "bool"
        },
        {
          "internalType": "uint256",
          "name": "lockId_",
          "type": "uint256"
        }
      ],
      "stateMutability": "nonpayable",
      "type": "function"
    },
    {
      "inputs": [
        {
          "internalType": "bytes32",
          "name": "_partition",
          "type": "bytes32"
        },
        {
          "components": [
            {
              "internalType": "address",
              "name": "from",
              "type": "address"
            },
            {
              "internalType": "address",
              "name": "to",
              "type": "address"
            },
            {
              "internalType": "uint256",
              "name": "amount",
              "type": "uint256"
            },
            {
              "internalType": "bytes",
              "name": "data",
              "type": "bytes"
            },
            {
              "internalType": "uint256",
              "name": "expirationTimestamp",
              "type": "uint256"
            }
          ],
          "internalType": "struct ITransferAndLock.TransferAndLockStruct",
          "name": "_transferAndLockData",
          "type": "tuple"
        },
        {
          "internalType": "uint256",
          "name": "_deadline",
          "type": "uint256"
        },
        {
          "internalType": "uint256",
          "name": "_nounce",
          "type": "uint256"
        },
        {
          "internalType": "bytes",
          "name": "_signature",
          "type": "bytes"
        }
      ],
      "name": "protectedTransferAndLockByPartition",
      "outputs": [
        {
          "internalType": "bool",
          "name": "success_",
          "type": "bool"
        },
        {
          "internalType": "uint256",
          "name": "lockId_",
          "type": "uint256"
        }
      ],
      "stateMutability": "nonpayable",
      "type": "function"
    },
    {
      "inputs": [
        {
          "internalType": "address",
          "name": "_to",
          "type": "address"
        },
        {
          "internalType": "uint256",
          "name": "_amount",
          "type": "uint256"
        },
        {
          "internalType": "bytes",
          "name": "_data",
          "type": "bytes"
        },
        {
          "internalType": "uint256",
          "name": "_expirationTimestamp",
          "type": "uint256"
        }
      ],
      "name": "transferAndLock",
      "outputs": [
        {
          "internalType": "bool",
          "name": "success_",
          "type": "bool"
        },
        {
          "internalType": "uint256",
          "name": "lockId_",
          "type": "uint256"
        }
      ],
      "stateMutability": "nonpayable",
      "type": "function"
    },
    {
      "inputs": [
        {
          "internalType": "bytes32",
          "name": "_partition",
          "type": "bytes32"
        },
        {
          "internalType": "address",
          "name": "_to",
          "type": "address"
        },
        {
          "internalType": "uint256",
          "name": "_amount",
          "type": "uint256"
        },
        {
          "internalType": "bytes",
          "name": "_data",
          "type": "bytes"
        },
        {
          "internalType": "uint256",
          "name": "_expirationTimestamp",
          "type": "uint256"
        }
      ],
      "name": "transferAndLockByPartition",
      "outputs": [
        {
          "internalType": "bool",
          "name": "success_",
          "type": "bool"
        },
        {
          "internalType": "uint256",
          "name": "lockId_",
          "type": "uint256"
        }
      ],
      "stateMutability": "nonpayable",
      "type": "function"
    }
  ],
  "bytecode": "0x60806040523480156200001157600080fd5b506200001d4662000023565b62000048565b806105391462000045576040516217e1ef60ea1b815260040160405180910390fd5b50565b613d5d80620000586000396000f3fe608060405234801561001057600080fd5b506004361061006d5760003560e01c80630e92b90b146100725780631ef2fdc8146100a15780633bd407b9146100cf5780638a1d3a47146100e2578063b378cf37146100f5578063c1f0d7421461010a578063e2e20e0514610112575b600080fd5b6100856100803660046135e7565b610125565b6040805192151583526020830191909152015b60405180910390f35b6040517fd9b300e6bf7a143b8fd8cf1d4ab050e691c862bf0f57a7d49cc08c60efe68d088152602001610098565b6100856100dd366004613648565b610233565b6100856100f03660046136cf565b610330565b6100fd6103b6565b6040516100989190613755565b6100fd61041c565b6100856101203660046137a3565b610492565b600080600080516020613d088339815191526101418133610518565b610149610550565b610151610578565b8361015b8161059e565b6101636105c9565b6101df3360405180604001604052808c6001600160a01b031681526020018b815250600160001b8a8a8080601f0160208091040260200160405190810160405280939291908181526020018383808284376000920191909152506101ca9250610514915050565b60405180602001604052806000815250610646565b506101ed6001898b8861081e565b60405191955093503390600190600080516020613ce88339815191529061021f908d908d908d908d908d908c90613849565b60405180910390a350509550959350505050565b600080600080516020613d0883398151915261024f8133610518565b610257610550565b8861026181610999565b8461026b8161059e565b6102736105c9565b6102d63360405180604001604052808d6001600160a01b031681526020018c8152508d8b8b8080601f0160208091040260200160405190810160405280939291908181526020018383808284376000920191909152506101ca9250610514915050565b506102e38b8a8c8961081e565b9095509350336001600160a01b03168b600080516020613ce88339815191528c8c8c8c8c8b60405161031a96959493929190613849565b60405180910390a3505050965096945050505050565b600080600080516020613d0883398151915261034f6020890189613886565b6103598282610518565b6103628a6109d0565b61036c8133610518565b610374610550565b8a61037e81610999565b8a6080013561038c8161059e565b610394610a23565b6103a28d8d8d8d8d8d610a48565b965096505050505050965096945050505050565b6040805160018082528183019092526060916020808301908036833701905050905060006305db98af60e41b82826103ed816138cd565b9350815181106103ff576103ff6138e6565b6001600160e01b0319909216602092830291909101909101525090565b60408051600280825260608083018452926000929190602083019080368337019050509150633bd407b960e01b8282610454816138cd565b935081518110610466576104666138e6565b6001600160e01b031990921660209283029190910190910152630e92b90b60e01b82826103ed816138cd565b600080600080516020613d088339815191526104b16020890189613886565b6104bb8282610518565b6104c560016109d0565b6104cf8133610518565b6104d7610550565b6104df610578565b89608001356104ed8161059e565b6104f5610a23565b6105028b8b8b8b8b610bad565b95509550505050509550959350505050565b3390565b6105228282610ca3565b61054c57808260405163a1180aad60e01b81526004016105439291906138fc565b60405180910390fd5b5050565b610558610cd9565b156105765760405163649815a560e01b815260040160405180910390fd5b565b610580610d13565b1561057657604051630eda11f160e31b815260040160405180910390fd5b6105a6610d29565b8110156105c6576040516371cfa3bb60e11b815260040160405180910390fd5b50565b6105d1610d33565b801561060457506106027f96658f163b67573bbf1e3f9e9330b199b3ac2f6ec0139ea95f622e20a5df2f4633610ca3565b155b156105765733604051630553473160e41b815261054391907f96658f163b67573bbf1e3f9e9330b199b3ac2f6ec0139ea95f622e20a5df2f46906004016138fc565b600061065c858888600001518960200151610d4b565b61066b87876020015187610eb9565b85600001516001600160a01b0316876001600160a01b0316867fff4e9a26af4eb73b8bacfaa4abd4fea03d9448e7b912dc5ff4019048875aa2d4868a6020015189886040516106bd9493929190613965565b60405180910390a46106d3858760000151611057565b6107b2576106ea8660200151876000015187611091565b85516001600160a01b038881169116148015906107075750600185145b156107aa57855160208701516040516107a8926322ebca6d60e21b92610733928c92919060240161399e565b60408051601f198184030181529190526020810180516001600160e01b03166001600160e01b0319909316929092179091526333fdd08160e11b6107947fba82ce8c38a926a01a84988222ab779cf1852f228ccaafd725c8d06d090d090690565b600201546001600160a01b03169190611174565b505b506000610814565b6107c586600001518760200151876111fe565b85516001600160a01b038881169116148015906107e25750600185145b15610810578551602087015160405161080e926322ebca6d60e21b92610733928c92919060240161399e565b505b5060005b9695505050505050565b60008061082d868560006112f5565b60006108398786611310565b905061084787878787611384565b610852858789610eb9565b600061085c61138e565b6001600160a01b038716600090815260048201602090815260408083208c84529091528120805492935091610890906138cd565b918290555060408051606081018252828152602081018a90529081018790529093506108be898886866113b2565b6001600160a01b03871660008181526002808501602090815260408084208e85528252808420898552825280842086518155828701516001820155818701519301929092559282526003850183528082208c83529092522061092090856113f2565b506001600160a01b038716600090815260018301602090815260408083208c8452909152812080548a92906109569084906139c2565b90915550506001600160a01b038716600090815260208390526040812080548a92906109839084906139c2565b9091555060019a94995093975050505050505050565b6109a1610d13565b1580156109af575060018114155b156105c65760405163b96d953960e01b815260048101829052602401610543565b604080517fdaba153046c65d49da6a7597abc24374aa681e3eee7004426ca6185b3927a3f56020820152908101829052600090606001604051602081830303815290604052805190602001209050919050565b610a2b610d33565b61057657604051630568156560e01b815260040160405180910390fd5b600080610a7f85610a5c60208a018a613886565b610a71610a6c60208c018c613886565b6113fe565b89610a7a610d29565b61142a565b610a8d888888888888611487565b610aa385610a9e60208a018a613886565b6114b2565b610b273360405180604001604052808a6020016020810190610ac59190613886565b6001600160a01b0316815260408b01356020909101528a610ae960608c018c6139d5565b8080601f0160208091040260200160405190810160405280939291908181526020018383808284376000920191909152506101ca9250610514915050565b50610b4a8860408901803590610b409060208c01613886565b8a6080013561081e565b90925090503388600080516020613ce8833981519152610b7060408b0160208c01613886565b60408b0135610b8260608d018d6139d5565b8d6080013588604051610b9a96959493929190613849565b60405180910390a3965096945050505050565b600080610bc185610a5c60208a018a613886565b610bce87878787876114dd565b610bdf85610a9e60208a018a613886565b610c263360405180604001604052808a6020016020810190610c019190613886565b6001600160a01b0316815260408b01356020909101526001610ae960608c018c6139d5565b50610c40600160408901803590610b409060208c01613886565b9092509050336001600080516020613ce8833981519152610c6760408b0160208c01613886565b60408b0135610c7960608d018d6139d5565b8d6080013588604051610c9196959493929190613849565b60405180910390a39550959350505050565b6000610cd07f4765bbd856d800638d39a79262ebc6fdfb5833d0e59f32c5d482fe4c4a3554c18484611507565b90505b92915050565b60007f5a5b295532a8b6e97bc9d45d68fc49b85a099545bac8f91f77706d392a1cea715460ff1680610d0e5750610d0e611533565b905090565b6000610d1d611607565b6005015460ff16919050565b6000610d0e61162b565b6000610d3d611640565b54610100900460ff16919050565b610d568484846112f5565b6000806001600160a01b038516610d9f57610d718487611664565b610d7a8661180f565b600083118015610d905750610d8e84611850565b155b15610d9a57600191505b610e38565b6001600160a01b038416610de457610db78587611664565b610dc08661180f565b600083118015610dd7575082610dd58661187c565b145b15610d9a57506001610e38565b610dee8587611664565b610df88487611664565b600083118015610e0e5750610e0c84611850565b155b15610e1857600191505b600083118015610e2f575082610e2d8661187c565b145b15610e38575060015b818015610e425750805b15610e6157610e508561188f565b610e5a84866118bc565b5050610eb3565b8115610e7857610e6f61191c565b610e5a84611932565b8015610eb057610e878561188f565b610e9f610e9a610e9561199c565b6119af565b61188f565b610ea761191c565b610eb0856119d6565b50505b50505050565b610ec38184611a95565b610ee4578281604051632fe13d3b60e21b81526004016105439291906138fc565b6000610ef08285611ae2565b905082811015610f335760405163175a093160e21b81526001600160a01b0385166004820152602481018290526044810184905260648101839052608401610543565b6000610f3d611607565b6001600160a01b0386166000908152600482016020908152604080832087845290915281205491925090610f7390600190613a1b565b6001600160a01b038716600090815260038401602052604090208054919250869183908110610fa457610fa46138e6565b90600052602060002090600202016000015403610fcb57610fc6868583611b6f565b611020565b6001600160a01b03861660009081526003830160205260409020805486919083908110610ffa57610ffa6138e6565b9060005260206000209060020201600001600082825461101a9190613a1b565b90915550505b6001600160a01b03861660009081526002830160205260408120805487929061104a908490613a1b565b9091555050505050505050565b600080611062611607565b6001600160a01b0393909316600090815260049093016020908152604080852095855294905250502054151590565b6110a28261109d611d16565b611d29565b60006110ac611607565b6001600160a01b038416600090815260038201602090815260408083208151808301909252888252818301878152815460018181018455928652939094209151600290930290910191825591519101559050611106611607565b6001600160a01b03841660009081526003919091016020908152604080832054600485018352818420868552909252909120558315610eb3576001600160a01b0383166000908152600282016020526040812080548692906111699084906139c2565b909155505050505050565b60606001600160a01b038416156111f757600080856001600160a01b0316856040516111a09190613a2e565b6000604051808303816000865af19150503d80600081146111dd576040519150601f19603f3d011682016040523d82523d6000602084013e6111e2565b606091505b50915091506111f2828286611d5e565b925050505b9392505050565b6112088184611a95565b611229578281604051632fe13d3b60e21b81526004016105439291906138fc565b6000611233611607565b6001600160a01b038516600090815260048201602090815260408083208684529091528120549192509061126990600190613a1b565b6001600160a01b03861660009081526003840160205260409020805491925085918390811061129a5761129a6138e6565b906000526020600020906002020160000160008282546112ba91906139c2565b90915550506001600160a01b0385166000908152600283016020526040812080548692906112e99084906139c2565b90915550505050505050565b6112ff6000611d77565b5061130b838383611db3565b505050565b600061131a611d16565b9050600061132783611dee565b905060006113358585611e1a565b905081831461135957600061134a8484611e50565b9050611357858286611e7b565b505b80831461137c57600061136c8483611e50565b905061137a86868387611ecf565b505b505092915050565b610eb38285611f2c565b7fd15962e60f276260fba4c9b4de7fd05f475afe18b48c917ec6f6fcc71c00bf7190565b806113bb611f98565b6001600160a01b03909416600090815260079490940160209081526040808620968652958152858520938552929092525091902055565b6000610cd08383611fbc565b6000611408611640565b6001600160a01b03909216600090815260039290920160205250604090205490565b8181111561144e576040516339253bcd60e11b815260048101839052602401610543565b84831061148057604051636c9faf7f60e11b8152600481018690526001600160a01b0385166024820152604401610543565b5050505050565b611495868686868686612003565b610eb0576040516306ad488360e31b815260040160405180910390fd5b816114bb611640565b6001600160a01b03909216600090815260039290920160205260409091205550565b6114ea85858585856121d1565b611480576040516306ad488360e31b815260040160405180910390fd5b6001600160a01b0381166000908152600184016020526040812061152b908461222f565b949350505050565b60007f80cd138137fb7aaf8068b75b39b6681af39401f81721b6420d44eb588baaeeb98161156082612247565b905060005b818110156115fd5761157a6001840182612255565b6001600160a01b031663b187bd266040518163ffffffff1660e01b8152600401602060405180830381865afa1580156115b7573d6000803e3d6000fd5b505050506040513d601f19601f820116820180604052508101906115db9190613a4a565b156115ea576001935050505090565b6001016115f6816138cd565b9050611565565b5060009250505090565b7f67661db80d37d3b9810c430f78991b4b5377bdebd3b71b39fbd3427092c1822a90565b600080541561163b575060005490565b504290565b7f564ecdb30bda57ccdf5f0ccce9a283978b97919c80a3230163042042418b154690565b600061166e612261565b90508060000361167d57505050565b600061168882612275565b905060006116946122a4565b9050818103611735576114806116a86122b6565b6001600160a01b0387166000908152602091909152604090206116ca87611850565b6116d26122b6565b6001600160a01b0389166000908152600191909101602090815260408083208a845290915290206117016122b6565b6001600160a01b038a16600090815260029190910160205260409020611727898b611ae2565b6117308b6122da565b6123e2565b8160000361174257600191505b600061174d8661187c565b9050600061175b86886123f8565b905060006117698585613a6c565b90506117758184613a6c565b92506117818183613a6c565b915061180561178e6122b6565b6001600160a01b038a16600090815260209190915260409020846117b06122b6565b6001600160a01b038c166000908152600191909101602090815260408083208d845290915290206117df6122b6565b6001600160a01b038d16600090815260029190910160205260409020866117308e6122da565b5050505050505050565b61182a61181a6122b6565b60030161182561240c565b61241c565b6105c66118356122b6565b60008381526008919091016020526040902061182583612466565b600061185a611607565b6001600160a01b03909216600090815260029290920160205250604090205490565b6000610cd38261188a610d29565b612484565b6105c661189a6122b6565b60130160006118a8846124b7565b8152602001908152602001600020826124e3565b60006118c6611607565b6001600160a01b03928316600081815260068301602081815260408084208054999098168085528185208a90559884526007909501815293822080546001600160a01b0319169097179096559081529390525055565b6105766119276122b6565b60140161182561199c565b600061193c611607565b905060008160080160008154611951906138cd565b91829055506000818152600784016020908152604080832080546001600160a01b039098166001600160a01b0319909816881790559582526006909401909352929091209190915550565b60006119a6611607565b60080154905090565b60006119b9611607565b60009283526007016020525060409020546001600160a01b031690565b60006119e0611607565b60088101549091506001811115611a5e576001600160a01b038316600090815260068301602052604090205481811015611a5c5760008281526007840160208181526040808420546001600160a01b03168085526006880183528185208690558585529290915290912080546001600160a01b03191690911790555b505b6001600160a01b0383166000908152600683016020526040812081905560088301805491611a8b83613a8e565b9190505550505050565b600080611aa0611607565b6001600160a01b0384166000908152600482016020908152604080832088845290915281205491925003611ad8576000915050610cd3565b6001915050610cd3565b6000611aee8383611a95565b15611b67576000611afd611607565b6001600160a01b038416600090815260038201602090815260408083206004850183528184208985529092529091205491925090611b3d90600190613a1b565b81548110611b4d57611b4d6138e6565b906000526020600020906002020160000154915050610cd3565b506000610cd3565b6000611b79611607565b6001600160a01b0385166000908152600382016020526040902054909150611ba390600190613a1b565b8214611cb1576001600160a01b038416600090815260038201602052604090208054611bd190600190613a1b565b81548110611be157611be16138e6565b9060005260206000209060020201816003016000866001600160a01b03166001600160a01b031681526020019081526020016000208381548110611c2757611c276138e6565b60009182526020909120825460029092020190815560019182015490820155611c519083906139c2565b6001600160a01b03851660009081526004830160209081526040808320600386019092528220805491929186908110611c8c57611c8c6138e6565b9060005260206000209060020201600101548152602001908152602001600020819055505b6001600160a01b03841660008181526004830160209081526040808320878452825280832083905592825260038401905220805480611cf257611cf2613aa5565b60008281526020812060026000199093019283020181815560010155905550505050565b6000611d20611f98565b60010154905090565b611d31611f98565b6001600160a01b039092166000908152602092835260408120805460018101825590825292902090910155565b60608315611d6d5750816111f7565b6111f78284612549565b6000610cd37f2352c39c61abb4e922588a7d46fb5c925b9a205577be135537479031648c86fe63df1eb07160e01b84611dae610d29565b612579565b611dbc83612758565b6001600160a01b03821615611dd557611dd583836127a8565b6001600160a01b0381161561130b5761130b83826127a8565b6000611df8611f98565b6001600160a01b03909216600090815260059290920160205250604090205490565b6000611e24611f98565b6001600160a01b0392909216600090815260069092016020908152604080842094845293905250205490565b600082600003611e6257506001610cd3565b81600003611e71575081610cd3565b610cd08284613a6c565b81600103611e8857505050565b6000611e9261138e565b6001600160a01b038516600090815260208290526040812080549293508592909190611ebf908490613abb565b90915550610eb3905084836127d7565b60018214610eb3576000611ee161138e565b6001600160a01b03851660009081526001820160209081526040808320898452909152812080549293508592909190611f1b908490613abb565b909155506114809050858584612805565b611f5c611f376122b6565b6001600160a01b0384166000908152600691909101602052604090206118258461283f565b61054c611f676122b6565b6001600160a01b03841660009081526007919091016020908152604080832085845290915290206118258385612868565b7f20765daced38554542b3c858f10e7fb957696c4dbd38d7faabc51dd4de7ad54190565b6000818152600183016020526040812054611b6757508154600181810184556000848152602080822090930184905584548482528286019093526040902091909155610cd3565b6000806120458861201760208a018a613886565b61202760408b0160208c01613886565b60408b013561203960608d018d6139d5565b8d608001358d8d61289e565b90506121c56120576020890189613886565b8286868080601f0160208091040260200160405190810160405280939291908181526020018383808284376000920191909152506120989250611640915050565b60010180546120a690613ad2565b80601f01602080910402602001604051908101604052809291908181526020018280546120d290613ad2565b801561211f5780601f106120f45761010080835404028352916020019161211f565b820191906000526020600020905b81548152906001019060200180831161210257829003601f168201915b505050505061212c611640565b600201805461213a90613ad2565b80601f016020809104026020016040519081016040528092919081815260200182805461216690613ad2565b80156121b35780601f10612188576101008083540402835291602001916121b3565b820191906000526020600020905b81548152906001019060200180831161219657829003601f168201915b50505050506121bf4690565b30612909565b98975050505050505050565b6000806122126121e46020890189613886565b6121f460408a0160208b01613886565b60408a013561220660608c018c6139d5565b8c608001358c8c6129fa565b90506122246120576020890189613886565b979650505050505050565b60008181526001830160205260408120541515610cd0565b6000610cd382600101612a62565b6000610cd08383612a6c565b6000610d0e61226e6122b6565b6005015490565b600080600061228e846122866122b6565b600d01612a96565b91509150816111f75761229f611d16565b61152b565b6000610d0e6122b1610d29565b612ae5565b7f450898ebb84982a28d8787f0138cfce477c6d811ae3b1db5fdb7ed17e8bda89890565b606060006122e6611607565b6001600160a01b0384166000908152600382016020526040812054919250906001600160401b0381111561231c5761231c6138a1565b604051908082528060200260200182016040528015612345578160200160208202803683370190505b50905060005b6001600160a01b03851660009081526003840160205260409020548110156123da576001600160a01b03851660009081526003840160205260409020805482908110612399576123996138e6565b9060005260206000209060020201600101548282815181106123bd576123bd6138e6565b6020908102919091010152806123d2816138cd565b91505061234b565b509392505050565b6123ec868661241c565b610eb084848484612b16565b6000610cd08383612407610d29565b612bcb565b6000612416611607565b54919050565b6000612426612261565b90508061243284612c04565b101561130b578254600180820185556000858152602080822090930193909355938401805494850181558252902090910155565b6000612470611607565b600092835260010160205250604090205490565b6000806124a161249384612ae5565b61249c86612c4e565b611e50565b9050806124ad85611850565b61152b9190613abb565b60006124c1611607565b6001600160a01b03909216600090815260069290920160205250604090205490565b60006124ed612261565b9050806124f984612c04565b101561130b5782546001818101855560008581526020808220909301849055818601805492830181558152919091200180546001600160a01b0384166001600160a01b0319909116179055505050565b6000828260405160200161255e929190613b06565b60405160208183030381529060405290508051602082018181fd5b600080612587866001015490565b90508060000361259b57600091505061152b565b836000828211806125aa575081155b156125b3578291505b60015b82811161274c5760006125c98286613a1b565b905060006125d78b83612c58565b90508781600001511015612730576125ee8b612d27565b60028b01805460ff191660011790556020810151604051600091829130918e9161261f9188918d9190602401613b37565b60408051601f198184030181529181526020820180516001600160e01b03166001600160e01b031990941693909317909252905161265d9190613a2e565b600060405180830381855af49150503d8060008114612698576040519150601f19603f3d011682016040523d82523d6000602084013e61269d565b606091505b50915091508161271d578051156126b75780518082602001fd5b60405162461bcd60e51b815260206004820152603560248201527f6f6e5363686564756c65645461736b547269676765726564206d6574686f64206044820152743330b4b632b2103bb4ba3437baba103932b0b9b7b760591b6064820152608401610543565b505060028b01805460ff19169055612737565b505061274c565b50508080612744906138cd565b9150506125b6565b50979650505050505050565b6000612762611d16565b9050600061276f83612d90565b905080820361277d57505050565b60006127898383611e50565b90506127958482612dae565b61279f8482612de3565b610eb384612e69565b60006127b2611d16565b905060006127be611607565b90506127cc81838686612e91565b610eb3818385612f3d565b806127e0611f98565b6001600160a01b03909316600090815260059390930160205260409092209190915550565b8061280e611f98565b6001600160a01b03909316600090815260069390930160209081526040808520958552949052929091209190915550565b600061284961138e565b6001600160a01b03909216600090815260209290925250604090205490565b600061287261138e565b6001600160a01b0392909216600090815260019092016020908152604080842094845293905250205490565b6040516000906128e4907f469e1ad68f1c00613412b08721e55c66600385de9bc2915bcf325ce75cb9787f908c908c908c908c908c908c908c908c908c90602001613b56565b6040516020818303038152906040528051906020012090509998505050505050505050565b8351602080860191909120845182860120604080517f8b73c3c69bb8fe3d512ecc4cf759cc79239f7b179b0ffacaa9a75d522b39400f81860152808201939093526060830191909152608082018590526001600160a01b03841660a0808401919091528151808403909101815260c090920190528051910120600090600060405180604001604052806002815260200161190160f01b815250828a6040516020016129b693929190613bbc565b604051602081830303815290604052805190602001209050896001600160a01b03166129e2828a612f88565b6001600160a01b0316149a9950505050505050505050565b604051600090612a3e907f47531ba1baf5848f059b0278afd48ad424733a64d386375ab4b34a37fd7008c4908b908b908b908b908b908b908b908b90602001613be3565b60405160208183030381529060405280519060200120905098975050505050505050565b6000610cd3825490565b6000826000018281548110612a8357612a836138e6565b9060005260206000200154905092915050565b6000808080612aa58686613007565b915091508182612ab6576000612ad7565b856001018281548110612acb57612acb6138e6565b90600052602060002001545b9350935050505b9250929050565b600080612af0611d16565b905080600003612afe575060015b6000612b0984613085565b50905061152b8183613abb565b6000612b20612261565b905080612b2c86612c04565b1015612b60578454600181810187556000878152602080822090930184905581880180549283018155815291909120018390555b80612b6a85612c04565b10156114805783546001818101865560008681526020808220909301849055604080518085019091528581528288018054938401815582529083902081518051929485949290920192612bc092849201906134f9565b505050505050505050565b600080612be4612bda84612ae5565b61249c8787613192565b905080612bf18686611ae2565b612bfb9190613abb565b95945050505050565b80546000908103612c1757506000919050565b81548290612c2790600190613a1b565b81548110612c3757612c376138e6565b90600052602060002001549050919050565b919050565b600061185a611f98565b604080518082019091526000815260606020820152600082815260208481526040918290208251808401909352805483526001810180549192840191612c9d90613ad2565b80601f0160208091040260200160405190810160405280929190818152602001828054612cc990613ad2565b8015612d165780601f10612ceb57610100808354040283529160200191612d16565b820191906000526020600020905b815481529060010190602001808311612cf957829003601f168201915b505050505081525050905092915050565b6000612d34826001015490565b905080600003612d42575050565b816000612d50600184613a1b565b81526020810191909152604001600090812081815590612d736001830182613544565b5050600182018054906000612d8783613a8e565b91905055505050565b6000612d9a611f98565b600092835260030160205250604090205490565b80612db7611607565b60010160008481526020019081526020016000206000828254612dda9190613abb565b90915550505050565b60008281527f591561cf73f8f1ca1532449c7ce18338a75e9e17f2894af1e41b36e3b013f95260205260409020547f591561cf73f8f1ca1532449c7ce18338a75e9e17f2894af1e41b36e3b013f95190600101612e3f57505050565b600083815260018201602052604081208054849290612e5f908490613abb565b9091555050505050565b6000612e73611f98565b60018101546000938452600390910160205260409092209190915550565b6001600160a01b0381166000908152600485016020908152604080832085845290915281205490819003612ec55750610eb3565b6000612ed2858484613228565b6001600160a01b038416600090815260038801602052604090209091508190612efc600185613a1b565b81548110612f0c57612f0c6138e6565b90600052602060002090600202016000016000828254612f2c9190613abb565b90915550610eb0905085848461327a565b6000612f4983836132c8565b6001600160a01b0383166000908152600286016020526040812080549293508392909190612f78908490613abb565b90915550610eb3905083836132f8565b600080600080612f9785613323565b6040805160008152602081018083528b905260ff8316918101919091526060810184905260808101839052929550909350915060019060a0016020604051602081039080840390855afa158015612ff2573d6000803e3d6000fd5b5050604051601f190151979650505050505050565b6000808360000361302b5760405163f128004d60e01b815260040160405180910390fd5b613033612261565b84111561305657604051638e81eb8360e01b815260048101859052602401610543565b60006130628486613368565b8454909150810361307a576000809250925050612ade565b600192509050612ade565b7faf4aaa3de473ec9b58645d40f5a2fe4e176157e247b2d875db61f1a70935ac69546001906000907faf4aaa3de473ec9b58645d40f5a2fe4e176157e247b2d875db61f1a70935ac689060015b81811161318a5760006130e58284613a1b565b905060006130f38583612c58565b9050878160000151101561316e576000816020015180602001905181019061311b9190613c40565b9050600061312882613409565b90506000818060200190518101906131409190613c59565b905080602001518a6131529190613abb565b99508060400151896131649190613cce565b9850505050613175565b505061318a565b50508080613182906138cd565b9150506130d2565b505050915091565b60008061319d611607565b6001600160a01b03841660009081526004919091016020908152604080832087845290915281205491508190036131d8576000915050610cd3565b6131e0611f98565b6001600160a01b038416600090815260209190915260409020613204600183613a1b565b81548110613214576132146138e6565b906000526020600020015491505092915050565b600061152b84613236611f98565b6001600160a01b03861660009081526020919091526040902061325a600186613a1b565b8154811061326a5761326a6138e6565b9060005260206000200154611e50565b82613283611f98565b6001600160a01b0384166000908152602091909152604090206132a7600184613a1b565b815481106132b7576132b76138e6565b600091825260209091200155505050565b6000610cd0836132d6611f98565b6001600160a01b03851660009081526002919091016020526040902054611e50565b81613301611f98565b6001600160a01b03909216600090815260029290920160205260409091205550565b6000806000835160411461334a57604051632bb1a9c560e11b815260040160405180910390fd5b50505060208101516040820151606090920151909260009190911a90565b8154600090810361337b57506000610cd3565b82546000905b808210156133c557600061339583836134cd565b9050846133a287836134e8565b5411156133b1578091506133bf565b6133bc8160016139c2565b92505b50613381565b6000821180156133e85750836133e5866133e0600186613a1b565b6134e8565b54145b15613401576133f8600183613a1b565b92505050610cd3565b509050610cd3565b60008181527f9db84024bbea48a7580380e27785cf3e0d08fada233c84760c8a5aff47f86e146020526040902060010180546060919061344890613ad2565b80601f016020809104026020016040519081016040528092919081815260200182805461347490613ad2565b80156134c15780601f10613496576101008083540402835291602001916134c1565b820191906000526020600020905b8154815290600101906020018083116134a457829003601f168201915b50505050509050919050565b60006134dc6002848418613a6c565b610cd0908484166139c2565b60008281526020812082018061152b565b828054828255906000526020600020908101928215613534579160200282015b82811115613534578251825591602001919060010190613519565b5061354092915061357a565b5090565b50805461355090613ad2565b6000825580601f10613560575050565b601f0160209004906000526020600020908101906105c691905b5b80821115613540576000815560010161357b565b80356001600160a01b0381168114612c4957600080fd5b60008083601f8401126135b857600080fd5b5081356001600160401b038111156135cf57600080fd5b602083019150836020828501011115612ade57600080fd5b6000806000806000608086880312156135ff57600080fd5b6136088661358f565b94506020860135935060408601356001600160401b0381111561362a57600080fd5b613636888289016135a6565b96999598509660600135949350505050565b60008060008060008060a0878903121561366157600080fd5b863595506136716020880161358f565b94506040870135935060608701356001600160401b0381111561369357600080fd5b61369f89828a016135a6565b979a9699509497949695608090950135949350505050565b600060a082840312156136c957600080fd5b50919050565b60008060008060008060a087890312156136e857600080fd5b8635955060208701356001600160401b038082111561370657600080fd5b6137128a838b016136b7565b96506040890135955060608901359450608089013591508082111561373657600080fd5b5061374389828a016135a6565b979a9699509497509295939492505050565b6020808252825182820181905260009190848201906040850190845b818110156137975783516001600160e01b03191683529284019291840191600101613771565b50909695505050505050565b6000806000806000608086880312156137bb57600080fd5b85356001600160401b03808211156137d257600080fd5b6137de89838a016136b7565b96506020880135955060408801359450606088013591508082111561380257600080fd5b5061380f888289016135a6565b969995985093965092949392505050565b81835281816020850137506000828201602090810191909152601f909101601f19169091010190565b60018060a01b038716815285602082015260a06040820152600061387160a083018688613820565b60608301949094525060800152949350505050565b60006020828403121561389857600080fd5b610cd08261358f565b634e487b7160e01b600052604160045260246000fd5b634e487b7160e01b600052601160045260246000fd5b6000600182016138df576138df6138b7565b5060010190565b634e487b7160e01b600052603260045260246000fd5b6001600160a01b03929092168252602082015260400190565b60005b83811015613930578181015183820152602001613918565b50506000910152565b60008151808452613951816020860160208601613915565b601f01601f19169290920160200192915050565b60018060a01b038516815283602082015260806040820152600061398c6080830185613939565b82810360608401526122248185613939565b6001600160a01b039384168152919092166020820152604081019190915260600190565b80820180821115610cd357610cd36138b7565b6000808335601e198436030181126139ec57600080fd5b8301803591506001600160401b03821115613a0657600080fd5b602001915036819003821315612ade57600080fd5b81810381811115610cd357610cd36138b7565b60008251613a40818460208701613915565b9190910192915050565b600060208284031215613a5c57600080fd5b815180151581146111f757600080fd5b600082613a8957634e487b7160e01b600052601260045260246000fd5b500490565b600081613a9d57613a9d6138b7565b506000190190565b634e487b7160e01b600052603160045260246000fd5b8082028115828204841417610cd357610cd36138b7565b600181811c90821680613ae657607f821691505b6020821081036136c957634e487b7160e01b600052602260045260246000fd5b6001600160e01b0319831681528151600090613b29816004850160208701613915565b919091016004019392505050565b838152826020820152606060408201526000612bfb6060830184613939565b8a8152602081018a90526001600160a01b038981166040830152881660608201526080810187905261012060a08201819052600090613b98838201888a613820565b60c0840196909652505060e081019290925261010090910152979650505050505050565b60008451613bce818460208901613915565b91909101928352506020820152604001919050565b8981526001600160a01b038981166020830152881660408201526060810187905261010060808201819052600090613c1e838201888a613820565b60a0840196909652505060c081019290925260e0909101529695505050505050565b600060208284031215613c5257600080fd5b5051919050565b600060608284031215613c6b57600080fd5b604051606081018181106001600160401b0382111715613c9b57634e487b7160e01b600052604160045260246000fd5b80604052508251815260208301516020820152604083015160ff81168114613cc257600080fd5b60408201529392505050565b60ff8181168382160190811115610cd357610cd36138b756fec2b09c570c5d1b74fb7cc5594554d1aa9fe25ad5b037856dfd980f3bbe17dda9d8aa8c6f92fe8ac3f3c0f88216e25f7c08b3a6c374b4452a04d200c29786ce88a2646970667358221220572128b0a56e28168db22b60b238c4439539627b1d16d76c5883697c26cf697a64736f6c63430008120033",
  "linkReferences": {},
  "deployedLinkReferences": {}
}