{
  "_format": "hh-sol-artifact-1",
  "contractName": "ERC1644TimeTravel",
  "sourceName": "contracts/test/testTimeTravel/facetsTimeTravel/ERC1644TimeTravel.sol",
  "abi": [
    {
      "inputs": [
        {
          "internalType": "address",
          "name": "account",
          "type": "address"
        },
        {
          "internalType": "bytes32",
          "name": "role",
          "type": "bytes32"
        }
      ],
      "name": "AccountHasNoRole",
      "type": "error"
    },
    {
      "inputs": [
        {
          "internalType": "address",
          "name": "account",
          "type": "address"
        },
        {
          "internalType": "bytes32[]",
          "name": "roles",
          "type": "bytes32[]"
        }
      ],
      "name": "AccountHasNoRoles",
      "type": "error"
    },
    {
      "inputs": [
        {
          "internalType": "address",
          "name": "account",
          "type": "address"
        }
      ],
      "name": "AccountIsBlocked",
      "type": "error"
    },
    {
      "inputs": [],
      "name": "AllBusinessLogicKeysMustBeenInformed",
      "type": "error"
    },
    {
      "inputs": [],
      "name": "AlreadyInitialized",
      "type": "error"
    },
    {
      "inputs": [
        {
          "internalType": "bytes32",
          "name": "businessLogicKey",
          "type": "bytes32"
        }
      ],
      "name": "BusinessLogicKeyDuplicated",
      "type": "error"
    },
    {
      "inputs": [
        {
          "internalType": "bytes32",
          "name": "businessLogicKey",
          "type": "bytes32"
        }
      ],
      "name": "BusinessLogicNotActive",
      "type": "error"
    },
    {
      "inputs": [
        {
          "internalType": "uint256",
          "name": "version",
          "type": "uint256"
        }
      ],
      "name": "BusinessLogicVersionDoesNotExist",
      "type": "error"
    },
    {
      "inputs": [],
      "name": "ExpirationNotReached",
      "type": "error"
    },
    {
      "inputs": [],
      "name": "FactorIsZero",
      "type": "error"
    },
    {
      "inputs": [
        {
          "internalType": "address",
          "name": "spender",
          "type": "address"
        },
        {
          "internalType": "address",
          "name": "from",
          "type": "address"
        }
      ],
      "name": "InsufficientAllowance",
      "type": "error"
    },
    {
      "inputs": [
        {
          "internalType": "address",
          "name": "account",
          "type": "address"
        },
        {
          "internalType": "uint256",
          "name": "balance",
          "type": "uint256"
        },
        {
          "internalType": "uint256",
          "name": "value",
          "type": "uint256"
        },
        {
          "internalType": "bytes32",
          "name": "partition",
          "type": "bytes32"
        }
      ],
      "name": "InsufficientBalance",
      "type": "error"
    },
    {
      "inputs": [
        {
          "internalType": "address",
          "name": "user",
          "type": "address"
        },
        {
          "internalType": "uint256",
          "name": "requestedUnfreeze",
          "type": "uint256"
        },
        {
          "internalType": "uint256",
          "name": "availableFrozen",
          "type": "uint256"
        },
        {
          "internalType": "bytes32",
          "name": "partition",
          "type": "bytes32"
        }
      ],
      "name": "InsufficientFrozenBalance",
      "type": "error"
    },
    {
      "inputs": [
        {
          "internalType": "address",
          "name": "account",
          "type": "address"
        },
        {
          "internalType": "bytes32",
          "name": "partition",
          "type": "bytes32"
        }
      ],
      "name": "InvalidPartition",
      "type": "error"
    },
    {
      "inputs": [
        {
          "internalType": "uint256",
          "name": "newSystemTime",
          "type": "uint256"
        }
      ],
      "name": "InvalidTimestamp",
      "type": "error"
    },
    {
      "inputs": [],
      "name": "IssuanceIsClosed",
      "type": "error"
    },
    {
      "inputs": [],
      "name": "LockExpirationNotReached",
      "type": "error"
    },
    {
      "inputs": [
        {
          "internalType": "uint256",
          "name": "maxSupply",
          "type": "uint256"
        }
      ],
      "name": "MaxSupplyReached",
      "type": "error"
    },
    {
      "inputs": [
        {
          "internalType": "bytes32",
          "name": "partition",
          "type": "bytes32"
        },
        {
          "internalType": "uint256",
          "name": "maxSupply",
          "type": "uint256"
        }
      ],
      "name": "MaxSupplyReachedForPartition",
      "type": "error"
    },
    {
      "inputs": [
        {
          "internalType": "bytes32",
          "name": "partition",
          "type": "bytes32"
        },
        {
          "internalType": "uint256",
          "name": "newMaxSupplyByPartition",
          "type": "uint256"
        },
        {
          "internalType": "uint256",
          "name": "maxSupply",
          "type": "uint256"
        }
      ],
      "name": "NewMaxSupplyByPartitionTooHigh",
      "type": "error"
    },
    {
      "inputs": [],
      "name": "NewMaxSupplyCannotBeZero",
      "type": "error"
    },
    {
      "inputs": [
        {
          "internalType": "bytes32",
          "name": "partition",
          "type": "bytes32"
        },
        {
          "internalType": "uint256",
          "name": "maxSupply",
          "type": "uint256"
        },
        {
          "internalType": "uint256",
          "name": "totalSupply",
          "type": "uint256"
        }
      ],
      "name": "NewMaxSupplyForPartitionTooLow",
      "type": "error"
    },
    {
      "inputs": [
        {
          "internalType": "uint256",
          "name": "maxSupply",
          "type": "uint256"
        },
        {
          "internalType": "uint256",
          "name": "totalSupply",
          "type": "uint256"
        }
      ],
      "name": "NewMaxSupplyTooLow",
      "type": "error"
    },
    {
      "inputs": [],
      "name": "NotAllowedInMultiPartitionMode",
      "type": "error"
    },
    {
      "inputs": [],
      "name": "NotAutocalling",
      "type": "error"
    },
    {
      "inputs": [],
      "name": "OnlyDelegateAllowed",
      "type": "error"
    },
    {
      "inputs": [
        {
          "internalType": "bytes32",
          "name": "partition",
          "type": "bytes32"
        }
      ],
      "name": "PartitionNotAllowedInSinglePartitionMode",
      "type": "error"
    },
    {
      "inputs": [
        {
          "internalType": "address",
          "name": "account",
          "type": "address"
        },
        {
          "internalType": "bytes32",
          "name": "role",
          "type": "bytes32"
        }
      ],
      "name": "PartitionsAreProtectedAndNoRole",
      "type": "error"
    },
    {
      "inputs": [],
      "name": "PartitionsAreUnProtected",
      "type": "error"
    },
    {
      "inputs": [
        {
          "internalType": "uint256",
          "name": "rolesLength",
          "type": "uint256"
        },
        {
          "internalType": "uint256",
          "name": "activesLength",
          "type": "uint256"
        }
      ],
      "name": "RolesAndActivesLengthMismatch",
      "type": "error"
    },
    {
      "inputs": [
        {
          "internalType": "uint256",
          "name": "snapshotId",
          "type": "uint256"
        }
      ],
      "name": "SnapshotIdDoesNotExists",
      "type": "error"
    },
    {
      "inputs": [],
      "name": "SnapshotIdNull",
      "type": "error"
    },
    {
      "inputs": [],
      "name": "SpenderWithZeroAddress",
      "type": "error"
    },
    {
      "inputs": [],
      "name": "TokenIsNotControllable",
      "type": "error"
    },
    {
      "inputs": [],
      "name": "TokenIsPaused",
      "type": "error"
    },
    {
      "inputs": [],
      "name": "TokenIsUnpaused",
      "type": "error"
    },
    {
      "inputs": [
        {
          "internalType": "address",
          "name": "operator",
          "type": "address"
        },
        {
          "internalType": "address",
          "name": "tokenHolder",
          "type": "address"
        },
        {
          "internalType": "bytes32",
          "name": "partition",
          "type": "bytes32"
        }
      ],
      "name": "Unauthorized",
      "type": "error"
    },
    {
      "inputs": [],
      "name": "WrongChainId",
      "type": "error"
    },
    {
      "inputs": [],
      "name": "WrongExpirationTimestamp",
      "type": "error"
    },
    {
      "inputs": [],
      "name": "WrongLockId",
      "type": "error"
    },
    {
      "inputs": [],
      "name": "WrongSignature",
      "type": "error"
    },
    {
      "inputs": [
        {
          "internalType": "uint256",
          "name": "timeStamp",
          "type": "uint256"
        }
      ],
      "name": "WrongTimestamp",
      "type": "error"
    },
    {
      "inputs": [],
      "name": "ZeroAddressNotAllowed",
      "type": "error"
    },
    {
      "inputs": [],
      "name": "ZeroKeyNotValidForBusinessLogic",
      "type": "error"
    },
    {
      "inputs": [],
      "name": "ZeroOwnerAddress",
      "type": "error"
    },
    {
      "inputs": [],
      "name": "ZeroPartition",
      "type": "error"
    },
    {
      "inputs": [],
      "name": "ZeroValue",
      "type": "error"
    },
    {
      "anonymous": false,
      "inputs": [
        {
          "indexed": true,
          "internalType": "address",
          "name": "operator",
          "type": "address"
        },
        {
          "indexed": false,
          "internalType": "uint256",
          "name": "factor",
          "type": "uint256"
        },
        {
          "indexed": false,
          "internalType": "uint8",
          "name": "decimals",
          "type": "uint8"
        }
      ],
      "name": "AdjustmentBalanceSet",
      "type": "event"
    },
    {
      "anonymous": false,
      "inputs": [
        {
          "indexed": true,
          "internalType": "address",
          "name": "owner",
          "type": "address"
        },
        {
          "indexed": true,
          "internalType": "address",
          "name": "spender",
          "type": "address"
        },
        {
          "indexed": false,
          "internalType": "uint256",
          "name": "value",
          "type": "uint256"
        }
      ],
      "name": "Approval",
      "type": "event"
    },
    {
      "anonymous": false,
      "inputs": [
        {
          "indexed": true,
          "internalType": "address",
          "name": "operator",
          "type": "address"
        },
        {
          "indexed": true,
          "internalType": "address",
          "name": "tokenHolder",
          "type": "address"
        }
      ],
      "name": "AuthorizedOperator",
      "type": "event"
    },
    {
      "anonymous": false,
      "inputs": [
        {
          "indexed": true,
          "internalType": "bytes32",
          "name": "partition",
          "type": "bytes32"
        },
        {
          "indexed": true,
          "internalType": "address",
          "name": "operator",
          "type": "address"
        },
        {
          "indexed": true,
          "internalType": "address",
          "name": "tokenHolder",
          "type": "address"
        }
      ],
      "name": "AuthorizedOperatorByPartition",
      "type": "event"
    },
    {
      "anonymous": false,
      "inputs": [
        {
          "indexed": true,
          "internalType": "address",
          "name": "operator",
          "type": "address"
        },
        {
          "indexed": true,
          "internalType": "address",
          "name": "tokenHolder",
          "type": "address"
        },
        {
          "indexed": false,
          "internalType": "bytes32",
          "name": "partition",
          "type": "bytes32"
        },
        {
          "indexed": false,
          "internalType": "uint256",
          "name": "clearingId",
          "type": "uint256"
        },
        {
          "components": [
            {
              "internalType": "uint256",
              "name": "amount",
              "type": "uint256"
            },
            {
              "internalType": "uint256",
              "name": "expirationTimestamp",
              "type": "uint256"
            },
            {
              "internalType": "address",
              "name": "escrow",
              "type": "address"
            },
            {
              "internalType": "address",
              "name": "to",
              "type": "address"
            },
            {
              "internalType": "bytes",
              "name": "data",
              "type": "bytes"
            }
          ],
          "indexed": false,
          "internalType": "struct Hold",
          "name": "hold",
          "type": "tuple"
        },
        {
          "indexed": false,
          "internalType": "uint256",
          "name": "expirationDate",
          "type": "uint256"
        },
        {
          "indexed": false,
          "internalType": "bytes",
          "name": "data",
          "type": "bytes"
        },
        {
          "indexed": false,
          "internalType": "bytes",
          "name": "operatorData",
          "type": "bytes"
        }
      ],
      "name": "ClearedHoldByPartition",
      "type": "event"
    },
    {
      "anonymous": false,
      "inputs": [
        {
          "indexed": true,
          "internalType": "address",
          "name": "operator",
          "type": "address"
        },
        {
          "indexed": true,
          "internalType": "address",
          "name": "tokenHolder",
          "type": "address"
        },
        {
          "indexed": false,
          "internalType": "bytes32",
          "name": "partition",
          "type": "bytes32"
        },
        {
          "indexed": false,
          "internalType": "uint256",
          "name": "clearingId",
          "type": "uint256"
        },
        {
          "components": [
            {
              "internalType": "uint256",
              "name": "amount",
              "type": "uint256"
            },
            {
              "internalType": "uint256",
              "name": "expirationTimestamp",
              "type": "uint256"
            },
            {
              "internalType": "address",
              "name": "escrow",
              "type": "address"
            },
            {
              "internalType": "address",
              "name": "to",
              "type": "address"
            },
            {
              "internalType": "bytes",
              "name": "data",
              "type": "bytes"
            }
          ],
          "indexed": false,
          "internalType": "struct Hold",
          "name": "hold",
          "type": "tuple"
        },
        {
          "indexed": false,
          "internalType": "uint256",
          "name": "expirationDate",
          "type": "uint256"
        },
        {
          "indexed": false,
          "internalType": "bytes",
          "name": "data",
          "type": "bytes"
        },
        {
          "indexed": false,
          "internalType": "bytes",
          "name": "operatorData",
          "type": "bytes"
        }
      ],
      "name": "ClearedHoldFromByPartition",
      "type": "event"
    },
    {
      "anonymous": false,
      "inputs": [
        {
          "indexed": true,
          "internalType": "address",
          "name": "operator",
          "type": "address"
        },
        {
          "indexed": true,
          "internalType": "address",
          "name": "tokenHolder",
          "type": "address"
        },
        {
          "indexed": false,
          "internalType": "bytes32",
          "name": "partition",
          "type": "bytes32"
        },
        {
          "indexed": false,
          "internalType": "uint256",
          "name": "clearingId",
          "type": "uint256"
        },
        {
          "components": [
            {
              "internalType": "uint256",
              "name": "amount",
              "type": "uint256"
            },
            {
              "internalType": "uint256",
              "name": "expirationTimestamp",
              "type": "uint256"
            },
            {
              "internalType": "address",
              "name": "escrow",
              "type": "address"
            },
            {
              "internalType": "address",
              "name": "to",
              "type": "address"
            },
            {
              "internalType": "bytes",
              "name": "data",
              "type": "bytes"
            }
          ],
          "indexed": false,
          "internalType": "struct Hold",
          "name": "hold",
          "type": "tuple"
        },
        {
          "indexed": false,
          "internalType": "uint256",
          "name": "expirationDate",
          "type": "uint256"
        },
        {
          "indexed": false,
          "internalType": "bytes",
          "name": "data",
          "type": "bytes"
        },
        {
          "indexed": false,
          "internalType": "bytes",
          "name": "operatorData",
          "type": "bytes"
        }
      ],
      "name": "ClearedOperatorHoldByPartition",
      "type": "event"
    },
    {
      "anonymous": false,
      "inputs": [
        {
          "indexed": true,
          "internalType": "address",
          "name": "operator",
          "type": "address"
        },
        {
          "indexed": true,
          "internalType": "address",
          "name": "tokenHolder",
          "type": "address"
        },
        {
          "indexed": false,
          "internalType": "bytes32",
          "name": "partition",
          "type": "bytes32"
        },
        {
          "indexed": false,
          "internalType": "uint256",
          "name": "clearingId",
          "type": "uint256"
        },
        {
          "indexed": false,
          "internalType": "uint256",
          "name": "amount",
          "type": "uint256"
        },
        {
          "indexed": false,
          "internalType": "uint256",
          "name": "expirationDate",
          "type": "uint256"
        },
        {
          "indexed": false,
          "internalType": "bytes",
          "name": "data",
          "type": "bytes"
        },
        {
          "indexed": false,
          "internalType": "bytes",
          "name": "operatorData",
          "type": "bytes"
        }
      ],
      "name": "ClearedOperatorRedeemByPartition",
      "type": "event"
    },
    {
      "anonymous": false,
      "inputs": [
        {
          "indexed": true,
          "internalType": "address",
          "name": "operator",
          "type": "address"
        },
        {
          "indexed": true,
          "internalType": "address",
          "name": "tokenHolder",
          "type": "address"
        },
        {
          "indexed": true,
          "internalType": "address",
          "name": "to",
          "type": "address"
        },
        {
          "indexed": false,
          "internalType": "bytes32",
          "name": "partition",
          "type": "bytes32"
        },
        {
          "indexed": false,
          "internalType": "uint256",
          "name": "clearingId",
          "type": "uint256"
        },
        {
          "indexed": false,
          "internalType": "uint256",
          "name": "amount",
          "type": "uint256"
        },
        {
          "indexed": false,
          "internalType": "uint256",
          "name": "expirationDate",
          "type": "uint256"
        },
        {
          "indexed": false,
          "internalType": "bytes",
          "name": "data",
          "type": "bytes"
        },
        {
          "indexed": false,
          "internalType": "bytes",
          "name": "operatorData",
          "type": "bytes"
        }
      ],
      "name": "ClearedOperatorTransferByPartition",
      "type": "event"
    },
    {
      "anonymous": false,
      "inputs": [
        {
          "indexed": true,
          "internalType": "address",
          "name": "operator",
          "type": "address"
        },
        {
          "indexed": true,
          "internalType": "address",
          "name": "tokenHolder",
          "type": "address"
        },
        {
          "indexed": false,
          "internalType": "bytes32",
          "name": "partition",
          "type": "bytes32"
        },
        {
          "indexed": false,
          "internalType": "uint256",
          "name": "clearingId",
          "type": "uint256"
        },
        {
          "indexed": false,
          "internalType": "uint256",
          "name": "amount",
          "type": "uint256"
        },
        {
          "indexed": false,
          "internalType": "uint256",
          "name": "expirationDate",
          "type": "uint256"
        },
        {
          "indexed": false,
          "internalType": "bytes",
          "name": "data",
          "type": "bytes"
        },
        {
          "indexed": false,
          "internalType": "bytes",
          "name": "operatorData",
          "type": "bytes"
        }
      ],
      "name": "ClearedRedeemByPartition",
      "type": "event"
    },
    {
      "anonymous": false,
      "inputs": [
        {
          "indexed": true,
          "internalType": "address",
          "name": "operator",
          "type": "address"
        },
        {
          "indexed": true,
          "internalType": "address",
          "name": "tokenHolder",
          "type": "address"
        },
        {
          "indexed": false,
          "internalType": "bytes32",
          "name": "partition",
          "type": "bytes32"
        },
        {
          "indexed": false,
          "internalType": "uint256",
          "name": "clearingId",
          "type": "uint256"
        },
        {
          "indexed": false,
          "internalType": "uint256",
          "name": "amount",
          "type": "uint256"
        },
        {
          "indexed": false,
          "internalType": "uint256",
          "name": "expirationDate",
          "type": "uint256"
        },
        {
          "indexed": false,
          "internalType": "bytes",
          "name": "data",
          "type": "bytes"
        },
        {
          "indexed": false,
          "internalType": "bytes",
          "name": "operatorData",
          "type": "bytes"
        }
      ],
      "name": "ClearedRedeemFromByPartition",
      "type": "event"
    },
    {
      "anonymous": false,
      "inputs": [
        {
          "indexed": true,
          "internalType": "address",
          "name": "operator",
          "type": "address"
        },
        {
          "indexed": true,
          "internalType": "address",
          "name": "tokenHolder",
          "type": "address"
        },
        {
          "indexed": true,
          "internalType": "address",
          "name": "to",
          "type": "address"
        },
        {
          "indexed": false,
          "internalType": "bytes32",
          "name": "partition",
          "type": "bytes32"
        },
        {
          "indexed": false,
          "internalType": "uint256",
          "name": "clearingId",
          "type": "uint256"
        },
        {
          "indexed": false,
          "internalType": "uint256",
          "name": "amount",
          "type": "uint256"
        },
        {
          "indexed": false,
          "internalType": "uint256",
          "name": "expirationDate",
          "type": "uint256"
        },
        {
          "indexed": false,
          "internalType": "bytes",
          "name": "data",
          "type": "bytes"
        },
        {
          "indexed": false,
          "internalType": "bytes",
          "name": "operatorData",
          "type": "bytes"
        }
      ],
      "name": "ClearedTransferByPartition",
      "type": "event"
    },
    {
      "anonymous": false,
      "inputs": [
        {
          "indexed": true,
          "internalType": "address",
          "name": "operator",
          "type": "address"
        },
        {
          "indexed": true,
          "internalType": "address",
          "name": "tokenHolder",
          "type": "address"
        },
        {
          "indexed": true,
          "internalType": "address",
          "name": "to",
          "type": "address"
        },
        {
          "indexed": false,
          "internalType": "bytes32",
          "name": "partition",
          "type": "bytes32"
        },
        {
          "indexed": false,
          "internalType": "uint256",
          "name": "clearingId",
          "type": "uint256"
        },
        {
          "indexed": false,
          "internalType": "uint256",
          "name": "amount",
          "type": "uint256"
        },
        {
          "indexed": false,
          "internalType": "uint256",
          "name": "expirationDate",
          "type": "uint256"
        },
        {
          "indexed": false,
          "internalType": "bytes",
          "name": "data",
          "type": "bytes"
        },
        {
          "indexed": false,
          "internalType": "bytes",
          "name": "operatorData",
          "type": "bytes"
        }
      ],
      "name": "ClearedTransferFromByPartition",
      "type": "event"
    },
    {
      "anonymous": false,
      "inputs": [
        {
          "indexed": true,
          "internalType": "address",
          "name": "compliance",
          "type": "address"
        }
      ],
      "name": "ComplianceAdded",
      "type": "event"
    },
    {
      "anonymous": false,
      "inputs": [
        {
          "indexed": false,
          "internalType": "address",
          "name": "_controller",
          "type": "address"
        },
        {
          "indexed": true,
          "internalType": "address",
          "name": "_tokenHolder",
          "type": "address"
        },
        {
          "indexed": false,
          "internalType": "uint256",
          "name": "_value",
          "type": "uint256"
        },
        {
          "indexed": false,
          "internalType": "bytes",
          "name": "_data",
          "type": "bytes"
        },
        {
          "indexed": false,
          "internalType": "bytes",
          "name": "_operatorData",
          "type": "bytes"
        }
      ],
      "name": "ControllerRedemption",
      "type": "event"
    },
    {
      "anonymous": false,
      "inputs": [
        {
          "indexed": false,
          "internalType": "address",
          "name": "_controller",
          "type": "address"
        },
        {
          "indexed": true,
          "internalType": "address",
          "name": "_from",
          "type": "address"
        },
        {
          "indexed": true,
          "internalType": "address",
          "name": "_to",
          "type": "address"
        },
        {
          "indexed": false,
          "internalType": "uint256",
          "name": "_value",
          "type": "uint256"
        },
        {
          "indexed": false,
          "internalType": "bytes",
          "name": "_data",
          "type": "bytes"
        },
        {
          "indexed": false,
          "internalType": "bytes",
          "name": "_operatorData",
          "type": "bytes"
        }
      ],
      "name": "ControllerTransfer",
      "type": "event"
    },
    {
      "anonymous": false,
      "inputs": [
        {
          "indexed": false,
          "internalType": "address",
          "name": "operator",
          "type": "address"
        }
      ],
      "name": "FinalizedControllerFeature",
      "type": "event"
    },
    {
      "anonymous": false,
      "inputs": [
        {
          "indexed": true,
          "internalType": "address",
          "name": "_operator",
          "type": "address"
        },
        {
          "indexed": true,
          "internalType": "address",
          "name": "_to",
          "type": "address"
        },
        {
          "indexed": false,
          "internalType": "uint256",
          "name": "_value",
          "type": "uint256"
        },
        {
          "indexed": false,
          "internalType": "bytes",
          "name": "_data",
          "type": "bytes"
        }
      ],
      "name": "Issued",
      "type": "event"
    },
    {
      "anonymous": false,
      "inputs": [
        {
          "indexed": true,
          "internalType": "bytes32",
          "name": "partition",
          "type": "bytes32"
        },
        {
          "indexed": true,
          "internalType": "address",
          "name": "operator",
          "type": "address"
        },
        {
          "indexed": true,
          "internalType": "address",
          "name": "to",
          "type": "address"
        },
        {
          "indexed": false,
          "internalType": "uint256",
          "name": "value",
          "type": "uint256"
        },
        {
          "indexed": false,
          "internalType": "bytes",
          "name": "data",
          "type": "bytes"
        }
      ],
      "name": "IssuedByPartition",
      "type": "event"
    },
    {
      "anonymous": false,
      "inputs": [
        {
          "indexed": true,
          "internalType": "address",
          "name": "operator",
          "type": "address"
        },
        {
          "indexed": true,
          "internalType": "bytes32",
          "name": "partition",
          "type": "bytes32"
        },
        {
          "indexed": false,
          "internalType": "uint256",
          "name": "newMaxSupply",
          "type": "uint256"
        },
        {
          "indexed": false,
          "internalType": "uint256",
          "name": "previousMaxSupply",
          "type": "uint256"
        }
      ],
      "name": "MaxSupplyByPartitionSet",
      "type": "event"
    },
    {
      "anonymous": false,
      "inputs": [
        {
          "indexed": true,
          "internalType": "address",
          "name": "operator",
          "type": "address"
        },
        {
          "indexed": false,
          "internalType": "uint256",
          "name": "newMaxSupply",
          "type": "uint256"
        },
        {
          "indexed": false,
          "internalType": "uint256",
          "name": "previousMaxSupply",
          "type": "uint256"
        }
      ],
      "name": "MaxSupplySet",
      "type": "event"
    },
    {
      "anonymous": false,
      "inputs": [
        {
          "indexed": true,
          "internalType": "address",
          "name": "operator",
          "type": "address"
        }
      ],
      "name": "PartitionsProtected",
      "type": "event"
    },
    {
      "anonymous": false,
      "inputs": [
        {
          "indexed": true,
          "internalType": "address",
          "name": "operator",
          "type": "address"
        }
      ],
      "name": "PartitionsUnProtected",
      "type": "event"
    },
    {
      "anonymous": false,
      "inputs": [
        {
          "indexed": true,
          "internalType": "address",
          "name": "operator",
          "type": "address"
        },
        {
          "indexed": true,
          "internalType": "address",
          "name": "tokenHolder",
          "type": "address"
        },
        {
          "indexed": false,
          "internalType": "bytes32",
          "name": "partition",
          "type": "bytes32"
        },
        {
          "indexed": false,
          "internalType": "uint256",
          "name": "clearingId",
          "type": "uint256"
        },
        {
          "components": [
            {
              "internalType": "uint256",
              "name": "amount",
              "type": "uint256"
            },
            {
              "internalType": "uint256",
              "name": "expirationTimestamp",
              "type": "uint256"
            },
            {
              "internalType": "address",
              "name": "escrow",
              "type": "address"
            },
            {
              "internalType": "address",
              "name": "to",
              "type": "address"
            },
            {
              "internalType": "bytes",
              "name": "data",
              "type": "bytes"
            }
          ],
          "indexed": false,
          "internalType": "struct Hold",
          "name": "hold",
          "type": "tuple"
        },
        {
          "indexed": false,
          "internalType": "uint256",
          "name": "expirationDate",
          "type": "uint256"
        },
        {
          "indexed": false,
          "internalType": "bytes",
          "name": "data",
          "type": "bytes"
        },
        {
          "indexed": false,
          "internalType": "bytes",
          "name": "operatorData",
          "type": "bytes"
        }
      ],
      "name": "ProtectedClearedHoldByPartition",
      "type": "event"
    },
    {
      "anonymous": false,
      "inputs": [
        {
          "indexed": true,
          "internalType": "address",
          "name": "operator",
          "type": "address"
        },
        {
          "indexed": true,
          "internalType": "address",
          "name": "tokenHolder",
          "type": "address"
        },
        {
          "indexed": false,
          "internalType": "bytes32",
          "name": "partition",
          "type": "bytes32"
        },
        {
          "indexed": false,
          "internalType": "uint256",
          "name": "clearingId",
          "type": "uint256"
        },
        {
          "indexed": false,
          "internalType": "uint256",
          "name": "amount",
          "type": "uint256"
        },
        {
          "indexed": false,
          "internalType": "uint256",
          "name": "expirationDate",
          "type": "uint256"
        },
        {
          "indexed": false,
          "internalType": "bytes",
          "name": "data",
          "type": "bytes"
        },
        {
          "indexed": false,
          "internalType": "bytes",
          "name": "operatorData",
          "type": "bytes"
        }
      ],
      "name": "ProtectedClearedRedeemByPartition",
      "type": "event"
    },
    {
      "anonymous": false,
      "inputs": [
        {
          "indexed": true,
          "internalType": "address",
          "name": "operator",
          "type": "address"
        },
        {
          "indexed": true,
          "internalType": "address",
          "name": "tokenHolder",
          "type": "address"
        },
        {
          "indexed": true,
          "internalType": "address",
          "name": "to",
          "type": "address"
        },
        {
          "indexed": false,
          "internalType": "bytes32",
          "name": "partition",
          "type": "bytes32"
        },
        {
          "indexed": false,
          "internalType": "uint256",
          "name": "clearingId",
          "type": "uint256"
        },
        {
          "indexed": false,
          "internalType": "uint256",
          "name": "amount",
          "type": "uint256"
        },
        {
          "indexed": false,
          "internalType": "uint256",
          "name": "expirationDate",
          "type": "uint256"
        },
        {
          "indexed": false,
          "internalType": "bytes",
          "name": "data",
          "type": "bytes"
        },
        {
          "indexed": false,
          "internalType": "bytes",
          "name": "operatorData",
          "type": "bytes"
        }
      ],
      "name": "ProtectedClearedTransferByPartition",
      "type": "event"
    },
    {
      "anonymous": false,
      "inputs": [
        {
          "indexed": true,
          "internalType": "bytes32",
          "name": "partition",
          "type": "bytes32"
        },
        {
          "indexed": true,
          "internalType": "address",
          "name": "operator",
          "type": "address"
        },
        {
          "indexed": true,
          "internalType": "address",
          "name": "from",
          "type": "address"
        },
        {
          "indexed": false,
          "internalType": "uint256",
          "name": "value",
          "type": "uint256"
        },
        {
          "indexed": false,
          "internalType": "uint256",
          "name": "deadline",
          "type": "uint256"
        },
        {
          "indexed": false,
          "internalType": "uint256",
          "name": "nounce",
          "type": "uint256"
        },
        {
          "indexed": false,
          "internalType": "bytes",
          "name": "signature",
          "type": "bytes"
        }
      ],
      "name": "ProtectedRedeemFrom",
      "type": "event"
    },
    {
      "anonymous": false,
      "inputs": [
        {
          "indexed": true,
          "internalType": "bytes32",
          "name": "partition",
          "type": "bytes32"
        },
        {
          "indexed": true,
          "internalType": "address",
          "name": "operator",
          "type": "address"
        },
        {
          "indexed": true,
          "internalType": "address",
          "name": "from",
          "type": "address"
        },
        {
          "indexed": false,
          "internalType": "address",
          "name": "to",
          "type": "address"
        },
        {
          "indexed": false,
          "internalType": "uint256",
          "name": "value",
          "type": "uint256"
        },
        {
          "indexed": false,
          "internalType": "uint256",
          "name": "deadline",
          "type": "uint256"
        },
        {
          "indexed": false,
          "internalType": "uint256",
          "name": "nounce",
          "type": "uint256"
        },
        {
          "indexed": false,
          "internalType": "bytes",
          "name": "signature",
          "type": "bytes"
        }
      ],
      "name": "ProtectedTransferFrom",
      "type": "event"
    },
    {
      "anonymous": false,
      "inputs": [
        {
          "indexed": true,
          "internalType": "address",
          "name": "_operator",
          "type": "address"
        },
        {
          "indexed": true,
          "internalType": "address",
          "name": "_from",
          "type": "address"
        },
        {
          "indexed": false,
          "internalType": "uint256",
          "name": "_value",
          "type": "uint256"
        },
        {
          "indexed": false,
          "internalType": "bytes",
          "name": "_data",
          "type": "bytes"
        }
      ],
      "name": "Redeemed",
      "type": "event"
    },
    {
      "anonymous": false,
      "inputs": [
        {
          "indexed": true,
          "internalType": "bytes32",
          "name": "partition",
          "type": "bytes32"
        },
        {
          "indexed": true,
          "internalType": "address",
          "name": "operator",
          "type": "address"
        },
        {
          "indexed": true,
          "internalType": "address",
          "name": "from",
          "type": "address"
        },
        {
          "indexed": false,
          "internalType": "uint256",
          "name": "value",
          "type": "uint256"
        },
        {
          "indexed": false,
          "internalType": "bytes",
          "name": "data",
          "type": "bytes"
        },
        {
          "indexed": false,
          "internalType": "bytes",
          "name": "operatorData",
          "type": "bytes"
        }
      ],
      "name": "RedeemedByPartition",
      "type": "event"
    },
    {
      "anonymous": false,
      "inputs": [
        {
          "indexed": true,
          "internalType": "address",
          "name": "operator",
          "type": "address"
        },
        {
          "indexed": true,
          "internalType": "address",
          "name": "tokenHolder",
          "type": "address"
        }
      ],
      "name": "RevokedOperator",
      "type": "event"
    },
    {
      "anonymous": false,
      "inputs": [
        {
          "indexed": true,
          "internalType": "bytes32",
          "name": "partition",
          "type": "bytes32"
        },
        {
          "indexed": true,
          "internalType": "address",
          "name": "operator",
          "type": "address"
        },
        {
          "indexed": true,
          "internalType": "address",
          "name": "tokenHolder",
          "type": "address"
        }
      ],
      "name": "RevokedOperatorByPartition",
      "type": "event"
    },
    {
      "anonymous": false,
      "inputs": [
        {
          "indexed": true,
          "internalType": "bytes32",
          "name": "role",
          "type": "bytes32"
        },
        {
          "indexed": true,
          "internalType": "bytes32",
          "name": "previousAdminRole",
          "type": "bytes32"
        },
        {
          "indexed": true,
          "internalType": "bytes32",
          "name": "newAdminRole",
          "type": "bytes32"
        }
      ],
      "name": "RoleAdminChanged",
      "type": "event"
    },
    {
      "anonymous": false,
      "inputs": [
        {
          "indexed": true,
          "internalType": "address",
          "name": "operator",
          "type": "address"
        },
        {
          "indexed": true,
          "internalType": "uint256",
          "name": "snapshotID",
          "type": "uint256"
        }
      ],
      "name": "SnapshotTaken",
      "type": "event"
    },
    {
      "anonymous": false,
      "inputs": [
        {
          "indexed": true,
          "internalType": "address",
          "name": "operator",
          "type": "address"
        },
        {
          "indexed": false,
          "internalType": "uint256",
          "name": "snapshotId",
          "type": "uint256"
        }
      ],
      "name": "SnapshotTriggered",
      "type": "event"
    },
    {
      "anonymous": false,
      "inputs": [
        {
          "indexed": false,
          "internalType": "uint256",
          "name": "legacySystemTime",
          "type": "uint256"
        },
        {
          "indexed": false,
          "internalType": "uint256",
          "name": "newSystemTime",
          "type": "uint256"
        }
      ],
      "name": "SystemTimestampChanged",
      "type": "event"
    },
    {
      "anonymous": false,
      "inputs": [],
      "name": "SystemTimestampReset",
      "type": "event"
    },
    {
      "anonymous": false,
      "inputs": [
        {
          "indexed": true,
          "internalType": "address",
          "name": "operator",
          "type": "address"
        }
      ],
      "name": "TokenPaused",
      "type": "event"
    },
    {
      "anonymous": false,
      "inputs": [
        {
          "indexed": true,
          "internalType": "address",
          "name": "operator",
          "type": "address"
        }
      ],
      "name": "TokenUnpaused",
      "type": "event"
    },
    {
      "anonymous": false,
      "inputs": [
        {
          "indexed": true,
          "internalType": "address",
          "name": "from",
          "type": "address"
        },
        {
          "indexed": true,
          "internalType": "address",
          "name": "to",
          "type": "address"
        },
        {
          "indexed": false,
          "internalType": "uint256",
          "name": "value",
          "type": "uint256"
        }
      ],
      "name": "Transfer",
      "type": "event"
    },
    {
      "anonymous": false,
      "inputs": [
        {
          "indexed": true,
          "internalType": "bytes32",
          "name": "_fromPartition",
          "type": "bytes32"
        },
        {
          "indexed": false,
          "internalType": "address",
          "name": "_operator",
          "type": "address"
        },
        {
          "indexed": true,
          "internalType": "address",
          "name": "_from",
          "type": "address"
        },
        {
          "indexed": true,
          "internalType": "address",
          "name": "_to",
          "type": "address"
        },
        {
          "indexed": false,
          "internalType": "uint256",
          "name": "_value",
          "type": "uint256"
        },
        {
          "indexed": false,
          "internalType": "bytes",
          "name": "_data",
          "type": "bytes"
        },
        {
          "indexed": false,
          "internalType": "bytes",
          "name": "_operatorData",
          "type": "bytes"
        }
      ],
      "name": "TransferByPartition",
      "type": "event"
    },
    {
      "inputs": [
        {
          "internalType": "address",
          "name": "_tokenHolder",
          "type": "address"
        },
        {
          "internalType": "uint256",
          "name": "_value",
          "type": "uint256"
        },
        {
          "internalType": "bytes",
          "name": "_data",
          "type": "bytes"
        },
        {
          "internalType": "bytes",
          "name": "_operatorData",
          "type": "bytes"
        }
      ],
      "name": "controllerRedeem",
      "outputs": [],
      "stateMutability": "nonpayable",
      "type": "function"
    },
    {
      "inputs": [
        {
          "internalType": "address",
          "name": "_from",
          "type": "address"
        },
        {
          "internalType": "address",
          "name": "_to",
          "type": "address"
        },
        {
          "internalType": "uint256",
          "name": "_value",
          "type": "uint256"
        },
        {
          "internalType": "bytes",
          "name": "_data",
          "type": "bytes"
        },
        {
          "internalType": "bytes",
          "name": "_operatorData",
          "type": "bytes"
        }
      ],
      "name": "controllerTransfer",
      "outputs": [],
      "stateMutability": "nonpayable",
      "type": "function"
    },
    {
      "inputs": [],
      "name": "finalizeControllable",
      "outputs": [],
      "stateMutability": "nonpayable",
      "type": "function"
    },
    {
      "inputs": [],
      "name": "getStaticFunctionSelectors",
      "outputs": [
        {
          "internalType": "bytes4[]",
          "name": "staticFunctionSelectors_",
          "type": "bytes4[]"
        }
      ],
      "stateMutability": "pure",
      "type": "function"
    },
    {
      "inputs": [],
      "name": "getStaticInterfaceIds",
      "outputs": [
        {
          "internalType": "bytes4[]",
          "name": "staticInterfaceIds_",
          "type": "bytes4[]"
        }
      ],
      "stateMutability": "pure",
      "type": "function"
    },
    {
      "inputs": [],
      "name": "getStaticResolverKey",
      "outputs": [
        {
          "internalType": "bytes32",
          "name": "staticResolverKey_",
          "type": "bytes32"
        }
      ],
      "stateMutability": "pure",
      "type": "function"
    },
    {
      "inputs": [
        {
          "internalType": "bool",
          "name": "_controllable",
          "type": "bool"
        }
      ],
      "name": "initialize_ERC1644",
      "outputs": [],
      "stateMutability": "nonpayable",
      "type": "function"
    },
    {
      "inputs": [],
      "name": "isControllable",
      "outputs": [
        {
          "internalType": "bool",
          "name": "",
          "type": "bool"
        }
      ],
      "stateMutability": "view",
      "type": "function"
    }
  ],
  "bytecode": "0x60806040523480156200001157600080fd5b506200001d4662000023565b62000048565b806105391462000045576040516217e1ef60ea1b815260040160405180910390fd5b50565b61318b80620000586000396000f3fe608060405234801561001057600080fd5b50600436106100785760003560e01c80631ef2fdc81461007d5780632bc6acc3146100b05780634c783bf5146100c5578063a213934f146100dd578063aa4ea38e146100e5578063b378cf37146100f8578063c1f0d7421461010d578063f282527a14610115575b600080fd5b6040517ff1da2ed271d62ba0b6597874c96fb6ed7d929e5ec679f4ad8c2c516c72f6736d81526020015b60405180910390f35b6100c36100be366004612c13565b610128565b005b6100cd61026e565b60405190151581526020016100a7565b6100c361027d565b6100c36100f3366004612cab565b61029c565b6101006102f2565b6040516100a79190612cc8565b610100610358565b6100c3610123366004612d16565b610488565b6101306105d0565b6101386105f8565b61014061061e565b6040805160028082526060820183526000926020830190803683370190505090507fa72964c08512ad29f46841ce735cff038789243c2b506a89163cc99f76d06c0f60001b8160008151811061019857610198612dc7565b6020026020010181815250507fc4aed0454da9bde6defa5baf93bb49d4690626fc243d138104e12d1def783ea660001b816001815181106101db576101db612dc7565b60209081029190910101526101f08133610643565b50610266868686868080601f01602080910402602001604051908101604052809392919081815260200183838082843760009201919091525050604080516020601f8a01819004810282018101909252888152925088915087908190840183828082843760009201919091525061067b92505050565b505050505050565b60006102786106d2565b905090565b600061028981336106e5565b61029161061e565b610299610710565b50565b6102a461077a565b54610100900460ff166102b68161079e565b816102bf61077a565b805460ff191691151591909117905560016102d861077a565b80549115156101000261ff00199092169190911790555050565b604080516001808252818301909252606091602080830190803683370190505090506000639d61f58d60e01b828261032981612df3565b93508151811061033b5761033b612dc7565b6001600160e01b0319909216602092830291909101909101525090565b60408051600580825260c082019092526060916020820160a080368337019050509050600063552751c760e11b828261039081612df3565b9350815181106103a2576103a2612dc7565b6001600160e01b031990921660209283029190910190910152634c783bf560e01b82826103ce81612df3565b9350815181106103e0576103e0612dc7565b6001600160e01b031990921660209283029190910190910152637941293d60e11b828261040c81612df3565b93508151811061041e5761041e612dc7565b6001600160e01b031990921660209283029190910190910152632bc6acc360e01b828261044a81612df3565b93508151811061045c5761045c612dc7565b6001600160e01b03199092166020928302919091019091015263a213934f60e01b828261032981612df3565b6104906105d0565b6104986105f8565b6104a061061e565b6040805160028082526060820183526000926020830190803683370190505090507fa72964c08512ad29f46841ce735cff038789243c2b506a89163cc99f76d06c0f60001b816000815181106104f8576104f8612dc7565b6020026020010181815250507fc4aed0454da9bde6defa5baf93bb49d4690626fc243d138104e12d1def783ea660001b8160018151811061053b5761053b612dc7565b60209081029190910101526105508133610643565b506105c787878787878080601f01602080910402602001604051908101604052809392919081815260200183838082843760009201919091525050604080516020601f8b0181900481028201810190925289815292508991508890819084018382808284376000920191909152506107bc92505050565b50505050505050565b6105d8610820565b156105f65760405163649815a560e01b815260040160405180910390fd5b565b610600610855565b156105f657604051630eda11f160e31b815260040160405180910390fd5b6106266106d2565b6105f657604051637a5bd83960e11b815260040160405180910390fd5b61064d828261086b565b610677578082604051634872a9c960e11b815260040161066e929190612e0c565b60405180910390fd5b5050565b61068584846108e9565b836001600160a01b03167f876b7cb47aa150b3a5516188b19ed308752ad4d0ae9a702543353b78163f7589338585856040516106c49493929190612eb2565b60405180910390a250505050565b60006106dc61077a565b5460ff16919050565b6106ef828261092b565b61067757808260405163a1180aad60e01b815260040161066e929190612ef6565b61071861077a565b5460ff1661072257565b600061072c61077a565b805460ff19169115159190911790557f08a9c42b6917e90aff41cebfd6d2815b241dc3555d2482d792eeada3fe7df6fd336040516001600160a01b03909116815260200160405180910390a1565b7f78da7d6f03fa6ff51457b34dfcf6bc00f21877d08759f4b646f714d8f8c539f790565b80156102995760405162dc149f60e41b815260040160405180910390fd5b6107c785858561095f565b50836001600160a01b0316856001600160a01b03167f6bf62b4b9c7b768275122bf70d429efc398a056d669b1efdf6c3976346246d7d338686866040516108119493929190612eb2565b60405180910390a35050505050565b60007f5a5b295532a8b6e97bc9d45d68fc49b85a099545bac8f91f77706d392a1cea715460ff168061027857506102786109c3565b600061085f610a97565b6005015460ff16919050565b6000805b83518110156108dd576108bc7f4765bbd856d800638d39a79262ebc6fdfb5833d0e59f32c5d482fe4c4a3554c18583815181106108ae576108ae612dc7565b602002602001015185610abb565b156108cb5760019150506108e3565b806108d581612df3565b91505061086f565b50600090505b92915050565b61091a600160001b836000846040518060200160405280600081525060405180602001604052806000815250610adf565b61092682600083610bf7565b505050565b60006109587f4765bbd856d800638d39a79262ebc6fdfb5833d0e59f32c5d482fe4c4a3554c18484610abb565b9392505050565b60006109af846040518060400160405280866001600160a01b0316815260200185815250600160001b60405180602001604052806000815250600060405180602001604052806000815250610c50565b506109bb848484610bf7565b949350505050565b60007f80cd138137fb7aaf8068b75b39b6681af39401f81721b6420d44eb588baaeeb9816109f082610db3565b905060005b81811015610a8d57610a0a6001840182610dc1565b6001600160a01b031663b187bd266040518163ffffffff1660e01b8152600401602060405180830381865afa158015610a47573d6000803e3d6000fd5b505050506040513d601f19601f82011682018060405250810190610a6b9190612f0f565b15610a7a576001935050505090565b600101610a8681612df3565b90506109f5565b5060009250505090565b7f67661db80d37d3b9810c430f78991b4b5377bdebd3b71b39fbd3427092c1822a90565b6001600160a01b038116600090815260018401602052604081206109bb9084610dcd565b610aec8686600086610de5565b610af7858488610f50565b610b0186846110ee565b6000198601610b9f57610b9d638d2ea77260e01b8685604051602401610b28929190612ef6565b60408051601f198184030181529190526020810180516001600160e01b03166001600160e01b0319909316929092179091526333fdd08160e11b610b897fba82ce8c38a926a01a84988222ab779cf1852f228ccaafd725c8d06d090d090690565b600201546001600160a01b0316919061113d565b505b846001600160a01b0316846001600160a01b0316877fa4f62471c9bdf88115b97203943c74c59b655913ee5ee592706d84ef53fb6be2868686604051610be793929190612f2c565b60405180910390a4505050505050565b6000826001600160a01b0316846001600160a01b03167fddf252ad1be2c89b69c2b068fc378daa952ba7f163c4a11628f55a4df523b3ef84604051610c3e91815260200190565b60405180910390a35060019392505050565b6000610c66858888600001518960200151610de5565b610c7587876020015187610f50565b85600001516001600160a01b0316876001600160a01b0316867fff4e9a26af4eb73b8bacfaa4abd4fea03d9448e7b912dc5ff4019048875aa2d4868a602001518988604051610cc79493929190612eb2565b60405180910390a4610cdd8587600001516111bb565b610d4757610cf486602001518760000151876111f5565b85516001600160a01b03888116911614801590610d115750600185145b15610d3f5785516020870151604051610d3d926322ebca6d60e21b92610b28928c929190602401612f57565b505b506000610da9565b610d5a86600001518760200151876112d8565b85516001600160a01b03888116911614801590610d775750600185145b15610da55785516020870151604051610da3926322ebca6d60e21b92610b28928c929190602401612f57565b505b5060005b9695505050505050565b60006108e3826001016113cf565b600061095883836113d9565b60008181526001830160205260408120541515610958565b610df0848484611403565b6000806001600160a01b038516610e3957610e0b8487611419565b610e14866115cb565b600083118015610e2a5750610e288461160c565b155b15610e3457600191505b610ed2565b6001600160a01b038416610e7e57610e518587611419565b610e5a866115cb565b600083118015610e71575082610e6f86611638565b145b15610e3457506001610ed2565b610e888587611419565b610e928487611419565b600083118015610ea85750610ea68461160c565b155b15610eb257600191505b600083118015610ec9575082610ec786611638565b145b15610ed2575060015b818015610edc5750805b15610efb57610eea8561164b565b610ef48486611678565b5050610f4a565b8115610f1257610f096116d8565b610ef4846116ee565b801561026657610f218561164b565b610f39610f34610f2f611758565b61176b565b61164b565b610f416116d8565b61026685611792565b50505050565b610f5a8184611851565b610f7b578281604051632fe13d3b60e21b815260040161066e929190612ef6565b6000610f87828561189e565b905082811015610fca5760405163175a093160e21b81526001600160a01b038516600482015260248101829052604481018490526064810183905260840161066e565b6000610fd4610a97565b6001600160a01b038616600090815260048201602090815260408083208784529091528120549192509061100a90600190612f7b565b6001600160a01b03871660009081526003840160205260409020805491925086918390811061103b5761103b612dc7565b906000526020600020906002020160000154036110625761105d86858361192b565b6110b7565b6001600160a01b0386166000908152600383016020526040902080548691908390811061109157611091612dc7565b906000526020600020906002020160000160008282546110b19190612f7b565b90915550505b6001600160a01b0386166000908152600283016020526040812080548792906110e1908490612f7b565b9091555050505050505050565b60006110f8610a97565b90508181600001600082825461110e9190612f7b565b9091555050600083815260018201602052604081208054849290611133908490612f7b565b9091555050505050565b60606001600160a01b0384161561095857600080856001600160a01b0316856040516111699190612f8e565b6000604051808303816000865af19150503d80600081146111a6576040519150601f19603f3d011682016040523d82523d6000602084013e6111ab565b606091505b5091509150610da9828286611ad2565b6000806111c6610a97565b6001600160a01b0393909316600090815260049093016020908152604080852095855294905250502054151590565b61120682611201611aeb565b611afe565b6000611210610a97565b6001600160a01b03841660009081526003820160209081526040808320815180830190925288825281830187815281546001818101845592865293909420915160029093029091019182559151910155905061126a610a97565b6001600160a01b03841660009081526003919091016020908152604080832054600485018352818420868552909252909120558315610f4a576001600160a01b0383166000908152600282016020526040812080548692906112cd908490612faa565b909155505050505050565b6112e28184611851565b611303578281604051632fe13d3b60e21b815260040161066e929190612ef6565b600061130d610a97565b6001600160a01b038516600090815260048201602090815260408083208684529091528120549192509061134390600190612f7b565b6001600160a01b03861660009081526003840160205260409020805491925085918390811061137457611374612dc7565b906000526020600020906002020160000160008282546113949190612faa565b90915550506001600160a01b0385166000908152600283016020526040812080548692906113c3908490612faa565b90915550505050505050565b60006108e3825490565b60008260000182815481106113f0576113f0612dc7565b9060005260206000200154905092915050565b61140d6000611b33565b50610926838383611b6f565b6000611423611baa565b90508060000361143257505050565b600061143d82611bbe565b90506000611449611bed565b90508181036114f1576114ea61145d611bff565b6001600160a01b03871660009081526020919091526040902061147f8761160c565b611487611bff565b6001600160a01b0389166000908152600191909101602090815260408083208a845290915290206114b6611bff565b6001600160a01b038a166000908152600291909101602052604090206114dc898b61189e565b6114e58b611c23565b611d2c565b5050505050565b816000036114fe57600191505b600061150986611638565b905060006115178688611d42565b905060006115258585612fbd565b90506115318184612fbd565b925061153d8183612fbd565b91506115c161154a611bff565b6001600160a01b038a166000908152602091909152604090208461156c611bff565b6001600160a01b038c166000908152600191909101602090815260408083208d8452909152902061159b611bff565b6001600160a01b038d16600090815260029190910160205260409020866114e58e611c23565b5050505050505050565b6115e66115d6611bff565b6003016115e1611d56565b611d66565b6102996115f1611bff565b6000838152600891909101602052604090206115e183611db0565b6000611616610a97565b6001600160a01b03909216600090815260029290920160205250604090205490565b60006108e382611646611dce565b611dd8565b610299611656611bff565b601301600061166484611e0b565b815260200190815260200160002082611e37565b6000611682610a97565b6001600160a01b03928316600081815260068301602081815260408084208054999098168085528185208a90559884526007909501815293822080546001600160a01b0319169097179096559081529390525055565b6105f66116e3611bff565b6014016115e1611758565b60006116f8610a97565b90506000816008016000815461170d90612df3565b91829055506000818152600784016020908152604080832080546001600160a01b039098166001600160a01b0319909816881790559582526006909401909352929091209190915550565b6000611762610a97565b60080154905090565b6000611775610a97565b60009283526007016020525060409020546001600160a01b031690565b600061179c610a97565b6008810154909150600181111561181a576001600160a01b0383166000908152600683016020526040902054818110156118185760008281526007840160208181526040808420546001600160a01b03168085526006880183528185208690558585529290915290912080546001600160a01b03191690911790555b505b6001600160a01b038316600090815260068301602052604081208190556008830180549161184783612fdf565b9190505550505050565b60008061185c610a97565b6001600160a01b03841660009081526004820160209081526040808320888452909152812054919250036118945760009150506108e3565b60019150506108e3565b60006118aa8383611851565b156119235760006118b9610a97565b6001600160a01b0384166000908152600382016020908152604080832060048501835281842089855290925290912054919250906118f990600190612f7b565b8154811061190957611909612dc7565b9060005260206000209060020201600001549150506108e3565b5060006108e3565b6000611935610a97565b6001600160a01b038516600090815260038201602052604090205490915061195f90600190612f7b565b8214611a6d576001600160a01b03841660009081526003820160205260409020805461198d90600190612f7b565b8154811061199d5761199d612dc7565b9060005260206000209060020201816003016000866001600160a01b03166001600160a01b0316815260200190815260200160002083815481106119e3576119e3612dc7565b60009182526020909120825460029092020190815560019182015490820155611a0d908390612faa565b6001600160a01b03851660009081526004830160209081526040808320600386019092528220805491929186908110611a4857611a48612dc7565b9060005260206000209060020201600101548152602001908152602001600020819055505b6001600160a01b03841660008181526004830160209081526040808320878452825280832083905592825260038401905220805480611aae57611aae612ff6565b60008281526020812060026000199093019283020181815560010155905550505050565b60608315611ae1575081610958565b6109588284611e9d565b6000611af5611ecd565b60010154905090565b611b06611ecd565b6001600160a01b039092166000908152602092835260408120805460018101825590825292902090910155565b60006108e37f2352c39c61abb4e922588a7d46fb5c925b9a205577be135537479031648c86fe63df1eb07160e01b84611b6a611dce565b611ef1565b611b78836120d0565b6001600160a01b03821615611b9157611b918383612120565b6001600160a01b03811615610926576109268382612120565b6000610278611bb7611bff565b6005015490565b6000806000611bd784611bcf611bff565b600d0161214f565b915091508161095857611be8611aeb565b6109bb565b6000610278611bfa611dce565b61219e565b7f450898ebb84982a28d8787f0138cfce477c6d811ae3b1db5fdb7ed17e8bda89890565b60606000611c2f610a97565b6001600160a01b03841660009081526003820160205260408120549192509067ffffffffffffffff811115611c6657611c66612db1565b604051908082528060200260200182016040528015611c8f578160200160208202803683370190505b50905060005b6001600160a01b0385166000908152600384016020526040902054811015611d24576001600160a01b03851660009081526003840160205260409020805482908110611ce357611ce3612dc7565b906000526020600020906002020160010154828281518110611d0757611d07612dc7565b602090810291909101015280611d1c81612df3565b915050611c95565b509392505050565b611d368686611d66565b610266848484846121cf565b60006109588383611d51611dce565b612284565b6000611d60610a97565b54919050565b6000611d70611baa565b905080611d7c846122bd565b1015610926578254600180820185556000858152602080822090930193909355938401805494850181558252902090910155565b6000611dba610a97565b600092835260010160205250604090205490565b6000610278612307565b600080611df5611de78461219e565b611df08661231c565b612326565b905080611e018561160c565b6109bb919061300c565b6000611e15610a97565b6001600160a01b03909216600090815260069290920160205250604090205490565b6000611e41611baa565b905080611e4d846122bd565b10156109265782546001818101855560008581526020808220909301849055818601805492830181558152919091200180546001600160a01b0384166001600160a01b0319909116179055505050565b60008282604051602001611eb2929190613023565b60405160208183030381529060405290508051602082018181fd5b7f20765daced38554542b3c858f10e7fb957696c4dbd38d7faabc51dd4de7ad54190565b600080611eff866001015490565b905080600003611f135760009150506109bb565b83600082821180611f22575081155b15611f2b578291505b60015b8281116120c4576000611f418286612f7b565b90506000611f4f8b83612351565b905087816000015110156120a857611f668b612420565b60028b01805460ff191660011790556020810151604051600091829130918e91611f979188918d9190602401613054565b60408051601f198184030181529181526020820180516001600160e01b03166001600160e01b0319909416939093179092529051611fd59190612f8e565b600060405180830381855af49150503d8060008114612010576040519150601f19603f3d011682016040523d82523d6000602084013e612015565b606091505b5091509150816120955780511561202f5780518082602001fd5b60405162461bcd60e51b815260206004820152603560248201527f6f6e5363686564756c65645461736b547269676765726564206d6574686f64206044820152743330b4b632b2103bb4ba3437baba103932b0b9b7b760591b606482015260840161066e565b505060028b01805460ff191690556120af565b50506120c4565b505080806120bc90612df3565b915050611f2e565b50979650505050505050565b60006120da611aeb565b905060006120e783612489565b90508082036120f557505050565b60006121018383612326565b905061210d84826124a7565b61211784826124dc565b610f4a84612558565b600061212a611aeb565b90506000612136610a97565b905061214481838686612580565b610f4a81838561262c565b600080808061215e8686612677565b91509150818261216f576000612190565b85600101828154811061218457612184612dc7565b90600052602060002001545b9350935050505b9250929050565b6000806121a9611aeb565b9050806000036121b7575060015b60006121c2846126f5565b5090506109bb818361300c565b60006121d9611baa565b9050806121e5866122bd565b1015612219578454600181810187556000878152602080822090930184905581880180549283018155815291909120018390555b80612223856122bd565b10156114ea57835460018181018655600086815260208082209093018490556040805180850190915285815282880180549384018155825290839020815180519294859492909201926122799284920190612b24565b505050505050505050565b60008061229d6122938461219e565b611df08787612802565b9050806122aa868661189e565b6122b4919061300c565b95945050505050565b805460009081036122d057506000919050565b815482906122e090600190612f7b565b815481106122f0576122f0612dc7565b90600052602060002001549050919050565b919050565b6000805415612317575060005490565b504290565b6000611616611ecd565b600082600003612338575060016108e3565b816000036123475750816108e3565b6109588284612fbd565b60408051808201909152600081526060602082015260008281526020848152604091829020825180840190935280548352600181018054919284019161239690613073565b80601f01602080910402602001604051908101604052809291908181526020018280546123c290613073565b801561240f5780601f106123e45761010080835404028352916020019161240f565b820191906000526020600020905b8154815290600101906020018083116123f257829003601f168201915b505050505081525050905092915050565b600061242d826001015490565b90508060000361243b575050565b816000612449600184612f7b565b8152602081019190915260400160009081208181559061246c6001830182612b6f565b505060018201805490600061248083612fdf565b91905055505050565b6000612493611ecd565b600092835260030160205250604090205490565b806124b0610a97565b600101600084815260200190815260200160002060008282546124d3919061300c565b90915550505050565b60008281527f591561cf73f8f1ca1532449c7ce18338a75e9e17f2894af1e41b36e3b013f95260205260409020547f591561cf73f8f1ca1532449c7ce18338a75e9e17f2894af1e41b36e3b013f9519060010161253857505050565b60008381526001820160205260408120805484929061113390849061300c565b6000612562611ecd565b60018101546000938452600390910160205260409092209190915550565b6001600160a01b03811660009081526004850160209081526040808320858452909152812054908190036125b45750610f4a565b60006125c1858484612898565b6001600160a01b0384166000908152600388016020526040902090915081906125eb600185612f7b565b815481106125fb576125fb612dc7565b9060005260206000209060020201600001600082825461261b919061300c565b9091555061026690508584846128ea565b60006126388383612938565b6001600160a01b038316600090815260028601602052604081208054929350839290919061266790849061300c565b90915550610f4a90508383612968565b6000808360000361269b5760405163f128004d60e01b815260040160405180910390fd5b6126a3611baa565b8411156126c657604051638e81eb8360e01b81526004810185905260240161066e565b60006126d28486612993565b845490915081036126ea576000809250925050612197565b600192509050612197565b7faf4aaa3de473ec9b58645d40f5a2fe4e176157e247b2d875db61f1a70935ac69546001906000907faf4aaa3de473ec9b58645d40f5a2fe4e176157e247b2d875db61f1a70935ac689060015b8181116127fa5760006127558284612f7b565b905060006127638583612351565b905087816000015110156127de576000816020015180602001905181019061278b91906130ad565b9050600061279882612a34565b90506000818060200190518101906127b091906130c6565b905080602001518a6127c2919061300c565b99508060400151896127d4919061313c565b98505050506127e5565b50506127fa565b505080806127f290612df3565b915050612742565b505050915091565b60008061280d610a97565b6001600160a01b03841660009081526004919091016020908152604080832087845290915281205491508190036128485760009150506108e3565b612850611ecd565b6001600160a01b038416600090815260209190915260409020612874600183612f7b565b8154811061288457612884612dc7565b906000526020600020015491505092915050565b60006109bb846128a6611ecd565b6001600160a01b0386166000908152602091909152604090206128ca600186612f7b565b815481106128da576128da612dc7565b9060005260206000200154612326565b826128f3611ecd565b6001600160a01b038416600090815260209190915260409020612917600184612f7b565b8154811061292757612927612dc7565b600091825260209091200155505050565b600061095883612946611ecd565b6001600160a01b03851660009081526002919091016020526040902054612326565b81612971611ecd565b6001600160a01b03909216600090815260029290920160205260409091205550565b815460009081036129a6575060006108e3565b82546000905b808210156129f05760006129c08383612af8565b9050846129cd8783612b13565b5411156129dc578091506129ea565b6129e7816001612faa565b92505b506129ac565b600082118015612a13575083612a1086612a0b600186612f7b565b612b13565b54145b15612a2c57612a23600183612f7b565b925050506108e3565b5090506108e3565b60008181527f9db84024bbea48a7580380e27785cf3e0d08fada233c84760c8a5aff47f86e1460205260409020600101805460609190612a7390613073565b80601f0160208091040260200160405190810160405280929190818152602001828054612a9f90613073565b8015612aec5780601f10612ac157610100808354040283529160200191612aec565b820191906000526020600020905b815481529060010190602001808311612acf57829003601f168201915b50505050509050919050565b6000612b076002848418612fbd565b61095890848416612faa565b6000828152602081208201806109bb565b828054828255906000526020600020908101928215612b5f579160200282015b82811115612b5f578251825591602001919060010190612b44565b50612b6b929150612ba5565b5090565b508054612b7b90613073565b6000825580601f10612b8b575050565b601f01602090049060005260206000209081019061029991905b5b80821115612b6b5760008155600101612ba6565b80356001600160a01b038116811461230257600080fd5b60008083601f840112612be357600080fd5b50813567ffffffffffffffff811115612bfb57600080fd5b60208301915083602082850101111561219757600080fd5b60008060008060008060808789031215612c2c57600080fd5b612c3587612bba565b955060208701359450604087013567ffffffffffffffff80821115612c5957600080fd5b612c658a838b01612bd1565b90965094506060890135915080821115612c7e57600080fd5b50612c8b89828a01612bd1565b979a9699509497509295939492505050565b801515811461029957600080fd5b600060208284031215612cbd57600080fd5b813561095881612c9d565b6020808252825182820181905260009190848201906040850190845b81811015612d0a5783516001600160e01b03191683529284019291840191600101612ce4565b50909695505050505050565b600080600080600080600060a0888a031215612d3157600080fd5b612d3a88612bba565b9650612d4860208901612bba565b955060408801359450606088013567ffffffffffffffff80821115612d6c57600080fd5b612d788b838c01612bd1565b909650945060808a0135915080821115612d9157600080fd5b50612d9e8a828b01612bd1565b989b979a50959850939692959293505050565b634e487b7160e01b600052604160045260246000fd5b634e487b7160e01b600052603260045260246000fd5b634e487b7160e01b600052601160045260246000fd5b600060018201612e0557612e05612ddd565b5060010190565b6001600160a01b038316815260406020808301829052835191830182905260009184820191906060850190845b81811015612e5557845183529383019391830191600101612e39565b5090979650505050505050565b60005b83811015612e7d578181015183820152602001612e65565b50506000910152565b60008151808452612e9e816020860160208601612e62565b601f01601f19169290920160200192915050565b60018060a01b0385168152836020820152608060408201526000612ed96080830185612e86565b8281036060840152612eeb8185612e86565b979650505050505050565b6001600160a01b03929092168252602082015260400190565b600060208284031215612f2157600080fd5b815161095881612c9d565b838152606060208201526000612f456060830185612e86565b8281036040840152610da98185612e86565b6001600160a01b039384168152919092166020820152604081019190915260600190565b818103818111156108e3576108e3612ddd565b60008251612fa0818460208701612e62565b9190910192915050565b808201808211156108e3576108e3612ddd565b600082612fda57634e487b7160e01b600052601260045260246000fd5b500490565b600081612fee57612fee612ddd565b506000190190565b634e487b7160e01b600052603160045260246000fd5b80820281158282048414176108e3576108e3612ddd565b6001600160e01b0319831681528151600090613046816004850160208701612e62565b919091016004019392505050565b8381528260208201526060604082015260006122b46060830184612e86565b600181811c9082168061308757607f821691505b6020821081036130a757634e487b7160e01b600052602260045260246000fd5b50919050565b6000602082840312156130bf57600080fd5b5051919050565b6000606082840312156130d857600080fd5b6040516060810181811067ffffffffffffffff8211171561310957634e487b7160e01b600052604160045260246000fd5b80604052508251815260208301516020820152604083015160ff8116811461313057600080fd5b60408201529392505050565b60ff81811683821601908111156108e3576108e3612ddd56fea264697066735822122024124ae1b88b1dd023e41a2861c5a9fd3955835da1700dbbdfc47c52e2c485d964736f6c63430008120033",
  "linkReferences": {},
  "deployedLinkReferences": {}
}