{
  "_format": "hh-sol-artifact-1",
  "contractName": "MockedExternalPause",
  "sourceName": "contracts/mocks/MockedExternalPause.sol",
  "abi": [
    {
      "anonymous": false,
      "inputs": [
        {
          "indexed": false,
          "internalType": "bool",
          "name": "isPaused",
          "type": "bool"
        }
      ],
      "name": "PausedStateChanged",
      "type": "event"
    },
    {
      "inputs": [],
      "name": "isPaused",
      "outputs": [
        {
          "internalType": "bool",
          "name": "",
          "type": "bool"
        }
      ],
      "stateMutability": "view",
      "type": "function"
    },
    {
      "inputs": [
        {
          "internalType": "bool",
          "name": "paused",
          "type": "bool"
        }
      ],
      "name": "setPaused",
      "outputs": [],
      "stateMutability": "nonpayable",
      "type": "function"
    }
  ],
  "bytecode": "0x608060405234801561001057600080fd5b50610106806100206000396000f3fe6080604052348015600f57600080fd5b506004361060325760003560e01c806316c38b3c146037578063b187bd26146048575b600080fd5b6046604236600460a9565b6062565b005b60005460ff16604051901515815260200160405180910390f35b6000805460ff19168215159081179091556040519081527f9e3a5e37224532dea67b89face185703738a228a6e8a23dee546960180d3be649060200160405180910390a150565b60006020828403121560ba57600080fd5b8135801515811460c957600080fd5b939250505056fea26469706673582212208c171e3820ebc8bce22111282fe3dd853c403b119c6bb1a4f0113b667e1fbf4864736f6c63430008120033",
  "linkReferences": {},
  "deployedLinkReferences": {}
}