{
  "_format": "hh-sol-artifact-1",
  "contractName": "Factory",
  "sourceName": "contracts/factory/Factory.sol",
  "abi": [
    {
      "inputs": [
        {
          "internalType": "contract IBusinessLogicResolver",
          "name": "resolver",
          "type": "address"
        }
      ],
      "name": "EmptyResolver",
      "type": "error"
    },
    {
      "inputs": [],
      "name": "ExpirationNotReached",
      "type": "error"
    },
    {
      "inputs": [],
      "name": "NoInitialAdmins",
      "type": "error"
    },
    {
      "inputs": [
        {
          "internalType": "enum RegulationType",
          "name": "regulationType",
          "type": "uint8"
        },
        {
          "internalType": "enum RegulationSubType",
          "name": "regulationSubType",
          "type": "uint8"
        }
      ],
      "name": "RegulationTypeAndSubTypeForbidden",
      "type": "error"
    },
    {
      "inputs": [
        {
          "internalType": "string",
          "name": "isin",
          "type": "string"
        }
      ],
      "name": "WrongISIN",
      "type": "error"
    },
    {
      "inputs": [
        {
          "internalType": "string",
          "name": "isin",
          "type": "string"
        }
      ],
      "name": "WrongISINChecksum",
      "type": "error"
    },
    {
      "anonymous": false,
      "inputs": [
        {
          "indexed": true,
          "internalType": "address",
          "name": "deployer",
          "type": "address"
        },
        {
          "indexed": false,
          "internalType": "address",
          "name": "bondAddress",
          "type": "address"
        },
        {
          "components": [
            {
              "components": [
                {
                  "internalType": "bool",
                  "name": "arePartitionsProtected",
                  "type": "bool"
                },
                {
                  "internalType": "bool",
                  "name": "isMultiPartition",
                  "type": "bool"
                },
                {
                  "internalType": "contract IBusinessLogicResolver",
                  "name": "resolver",
                  "type": "address"
                },
                {
                  "components": [
                    {
                      "internalType": "bytes32",
                      "name": "key",
                      "type": "bytes32"
                    },
                    {
                      "internalType": "uint256",
                      "name": "version",
                      "type": "uint256"
                    }
                  ],
                  "internalType": "struct IFactory.ResolverProxyConfiguration",
                  "name": "resolverProxyConfiguration",
                  "type": "tuple"
                },
                {
                  "components": [
                    {
                      "internalType": "bytes32",
                      "name": "role",
                      "type": "bytes32"
                    },
                    {
                      "internalType": "address[]",
                      "name": "members",
                      "type": "address[]"
                    }
                  ],
                  "internalType": "struct IResolverProxy.Rbac[]",
                  "name": "rbacs",
                  "type": "tuple[]"
                },
                {
                  "internalType": "bool",
                  "name": "isControllable",
                  "type": "bool"
                },
                {
                  "internalType": "bool",
                  "name": "isWhiteList",
                  "type": "bool"
                },
                {
                  "internalType": "uint256",
                  "name": "maxSupply",
                  "type": "uint256"
                },
                {
                  "components": [
                    {
                      "internalType": "string",
                      "name": "name",
                      "type": "string"
                    },
                    {
                      "internalType": "string",
                      "name": "symbol",
                      "type": "string"
                    },
                    {
                      "internalType": "string",
                      "name": "isin",
                      "type": "string"
                    },
                    {
                      "internalType": "uint8",
                      "name": "decimals",
                      "type": "uint8"
                    }
                  ],
                  "internalType": "struct IERC20.ERC20MetadataInfo",
                  "name": "erc20MetadataInfo",
                  "type": "tuple"
                },
                {
                  "internalType": "bool",
                  "name": "clearingActive",
                  "type": "bool"
                },
                {
                  "internalType": "bool",
                  "name": "internalKycActivated",
                  "type": "bool"
                },
                {
                  "internalType": "address[]",
                  "name": "externalPauses",
                  "type": "address[]"
                },
                {
                  "internalType": "address[]",
                  "name": "externalControlLists",
                  "type": "address[]"
                },
                {
                  "internalType": "address[]",
                  "name": "externalKycLists",
                  "type": "address[]"
                },
                {
                  "internalType": "address",
                  "name": "compliance",
                  "type": "address"
                },
                {
                  "internalType": "address",
                  "name": "identityRegistry",
                  "type": "address"
                }
              ],
              "internalType": "struct IFactory.SecurityData",
              "name": "security",
              "type": "tuple"
            },
            {
              "components": [
                {
                  "internalType": "bytes3",
                  "name": "currency",
                  "type": "bytes3"
                },
                {
                  "internalType": "uint256",
                  "name": "nominalValue",
                  "type": "uint256"
                },
                {
                  "internalType": "uint256",
                  "name": "startingDate",
                  "type": "uint256"
                },
                {
                  "internalType": "uint256",
                  "name": "maturityDate",
                  "type": "uint256"
                }
              ],
              "internalType": "struct IBond.BondDetailsData",
              "name": "bondDetails",
              "type": "tuple"
            },
            {
              "components": [
                {
                  "internalType": "uint256",
                  "name": "couponFrequency",
                  "type": "uint256"
                },
                {
                  "internalType": "uint256",
                  "name": "couponRate",
                  "type": "uint256"
                },
                {
                  "internalType": "uint256",
                  "name": "firstCouponDate",
                  "type": "uint256"
                }
              ],
              "internalType": "struct IBond.CouponDetailsData",
              "name": "couponDetails",
              "type": "tuple"
            }
          ],
          "indexed": false,
          "internalType": "struct IFactory.BondData",
          "name": "bondData",
          "type": "tuple"
        },
        {
          "components": [
            {
              "internalType": "enum RegulationType",
              "name": "regulationType",
              "type": "uint8"
            },
            {
              "internalType": "enum RegulationSubType",
              "name": "regulationSubType",
              "type": "uint8"
            },
            {
              "components": [
                {
                  "internalType": "bool",
                  "name": "countriesControlListType",
                  "type": "bool"
                },
                {
                  "internalType": "string",
                  "name": "listOfCountries",
                  "type": "string"
                },
                {
                  "internalType": "string",
                  "name": "info",
                  "type": "string"
                }
              ],
              "internalType": "struct AdditionalSecurityData",
              "name": "additionalSecurityData",
              "type": "tuple"
            }
          ],
          "indexed": false,
          "internalType": "struct FactoryRegulationData",
          "name": "regulationData",
          "type": "tuple"
        }
      ],
      "name": "BondDeployed",
      "type": "event"
    },
    {
      "anonymous": false,
      "inputs": [
        {
          "indexed": true,
          "internalType": "address",
          "name": "deployer",
          "type": "address"
        },
        {
          "indexed": false,
          "internalType": "address",
          "name": "equityAddress",
          "type": "address"
        },
        {
          "components": [
            {
              "components": [
                {
                  "internalType": "bool",
                  "name": "arePartitionsProtected",
                  "type": "bool"
                },
                {
                  "internalType": "bool",
                  "name": "isMultiPartition",
                  "type": "bool"
                },
                {
                  "internalType": "contract IBusinessLogicResolver",
                  "name": "resolver",
                  "type": "address"
                },
                {
                  "components": [
                    {
                      "internalType": "bytes32",
                      "name": "key",
                      "type": "bytes32"
                    },
                    {
                      "internalType": "uint256",
                      "name": "version",
                      "type": "uint256"
                    }
                  ],
                  "internalType": "struct IFactory.ResolverProxyConfiguration",
                  "name": "resolverProxyConfiguration",
                  "type": "tuple"
                },
                {
                  "components": [
                    {
                      "internalType": "bytes32",
                      "name": "role",
                      "type": "bytes32"
                    },
                    {
                      "internalType": "address[]",
                      "name": "members",
                      "type": "address[]"
                    }
                  ],
                  "internalType": "struct IResolverProxy.Rbac[]",
                  "name": "rbacs",
                  "type": "tuple[]"
                },
                {
                  "internalType": "bool",
                  "name": "isControllable",
                  "type": "bool"
                },
                {
                  "internalType": "bool",
                  "name": "isWhiteList",
                  "type": "bool"
                },
                {
                  "internalType": "uint256",
                  "name": "maxSupply",
                  "type": "uint256"
                },
                {
                  "components": [
                    {
                      "internalType": "string",
                      "name": "name",
                      "type": "string"
                    },
                    {
                      "internalType": "string",
                      "name": "symbol",
                      "type": "string"
                    },
                    {
                      "internalType": "string",
                      "name": "isin",
                      "type": "string"
                    },
                    {
                      "internalType": "uint8",
                      "name": "decimals",
                      "type": "uint8"
                    }
                  ],
                  "internalType": "struct IERC20.ERC20MetadataInfo",
                  "name": "erc20MetadataInfo",
                  "type": "tuple"
                },
                {
                  "internalType": "bool",
                  "name": "clearingActive",
                  "type": "bool"
                },
                {
                  "internalType": "bool",
                  "name": "internalKycActivated",
                  "type": "bool"
                },
                {
                  "internalType": "address[]",
                  "name": "externalPauses",
                  "type": "address[]"
                },
                {
                  "internalType": "address[]",
                  "name": "externalControlLists",
                  "type": "address[]"
                },
                {
                  "internalType": "address[]",
                  "name": "externalKycLists",
                  "type": "address[]"
                },
                {
                  "internalType": "address",
                  "name": "compliance",
                  "type": "address"
                },
                {
                  "internalType": "address",
                  "name": "identityRegistry",
                  "type": "address"
                }
              ],
              "internalType": "struct IFactory.SecurityData",
              "name": "security",
              "type": "tuple"
            },
            {
              "components": [
                {
                  "internalType": "bool",
                  "name": "votingRight",
                  "type": "bool"
                },
                {
                  "internalType": "bool",
                  "name": "informationRight",
                  "type": "bool"
                },
                {
                  "internalType": "bool",
                  "name": "liquidationRight",
                  "type": "bool"
                },
                {
                  "internalType": "bool",
                  "name": "subscriptionRight",
                  "type": "bool"
                },
                {
                  "internalType": "bool",
                  "name": "conversionRight",
                  "type": "bool"
                },
                {
                  "internalType": "bool",
                  "name": "redemptionRight",
                  "type": "bool"
                },
                {
                  "internalType": "bool",
                  "name": "putRight",
                  "type": "bool"
                },
                {
                  "internalType": "enum IEquity.DividendType",
                  "name": "dividendRight",
                  "type": "uint8"
                },
                {
                  "internalType": "bytes3",
                  "name": "currency",
                  "type": "bytes3"
                },
                {
                  "internalType": "uint256",
                  "name": "nominalValue",
                  "type": "uint256"
                }
              ],
              "internalType": "struct IEquity.EquityDetailsData",
              "name": "equityDetails",
              "type": "tuple"
            }
          ],
          "indexed": false,
          "internalType": "struct IFactory.EquityData",
          "name": "equityData",
          "type": "tuple"
        },
        {
          "components": [
            {
              "internalType": "enum RegulationType",
              "name": "regulationType",
              "type": "uint8"
            },
            {
              "internalType": "enum RegulationSubType",
              "name": "regulationSubType",
              "type": "uint8"
            },
            {
              "components": [
                {
                  "internalType": "bool",
                  "name": "countriesControlListType",
                  "type": "bool"
                },
                {
                  "internalType": "string",
                  "name": "listOfCountries",
                  "type": "string"
                },
                {
                  "internalType": "string",
                  "name": "info",
                  "type": "string"
                }
              ],
              "internalType": "struct AdditionalSecurityData",
              "name": "additionalSecurityData",
              "type": "tuple"
            }
          ],
          "indexed": false,
          "internalType": "struct FactoryRegulationData",
          "name": "regulationData",
          "type": "tuple"
        }
      ],
      "name": "EquityDeployed",
      "type": "event"
    },
    {
      "inputs": [
        {
          "components": [
            {
              "components": [
                {
                  "internalType": "bool",
                  "name": "arePartitionsProtected",
                  "type": "bool"
                },
                {
                  "internalType": "bool",
                  "name": "isMultiPartition",
                  "type": "bool"
                },
                {
                  "internalType": "contract IBusinessLogicResolver",
                  "name": "resolver",
                  "type": "address"
                },
                {
                  "components": [
                    {
                      "internalType": "bytes32",
                      "name": "key",
                      "type": "bytes32"
                    },
                    {
                      "internalType": "uint256",
                      "name": "version",
                      "type": "uint256"
                    }
                  ],
                  "internalType": "struct IFactory.ResolverProxyConfiguration",
                  "name": "resolverProxyConfiguration",
                  "type": "tuple"
                },
                {
                  "components": [
                    {
                      "internalType": "bytes32",
                      "name": "role",
                      "type": "bytes32"
                    },
                    {
                      "internalType": "address[]",
                      "name": "members",
                      "type": "address[]"
                    }
                  ],
                  "internalType": "struct IResolverProxy.Rbac[]",
                  "name": "rbacs",
                  "type": "tuple[]"
                },
                {
                  "internalType": "bool",
                  "name": "isControllable",
                  "type": "bool"
                },
                {
                  "internalType": "bool",
                  "name": "isWhiteList",
                  "type": "bool"
                },
                {
                  "internalType": "uint256",
                  "name": "maxSupply",
                  "type": "uint256"
                },
                {
                  "components": [
                    {
                      "internalType": "string",
                      "name": "name",
                      "type": "string"
                    },
                    {
                      "internalType": "string",
                      "name": "symbol",
                      "type": "string"
                    },
                    {
                      "internalType": "string",
                      "name": "isin",
                      "type": "string"
                    },
                    {
                      "internalType": "uint8",
                      "name": "decimals",
                      "type": "uint8"
                    }
                  ],
                  "internalType": "struct IERC20.ERC20MetadataInfo",
                  "name": "erc20MetadataInfo",
                  "type": "tuple"
                },
                {
                  "internalType": "bool",
                  "name": "clearingActive",
                  "type": "bool"
                },
                {
                  "internalType": "bool",
                  "name": "internalKycActivated",
                  "type": "bool"
                },
                {
                  "internalType": "address[]",
                  "name": "externalPauses",
                  "type": "address[]"
                },
                {
                  "internalType": "address[]",
                  "name": "externalControlLists",
                  "type": "address[]"
                },
                {
                  "internalType": "address[]",
                  "name": "externalKycLists",
                  "type": "address[]"
                },
                {
                  "internalType": "address",
                  "name": "compliance",
                  "type": "address"
                },
                {
                  "internalType": "address",
                  "name": "identityRegistry",
                  "type": "address"
                }
              ],
              "internalType": "struct IFactory.SecurityData",
              "name": "security",
              "type": "tuple"
            },
            {
              "components": [
                {
                  "internalType": "bytes3",
                  "name": "currency",
                  "type": "bytes3"
                },
                {
                  "internalType": "uint256",
                  "name": "nominalValue",
                  "type": "uint256"
                },
                {
                  "internalType": "uint256",
                  "name": "startingDate",
                  "type": "uint256"
                },
                {
                  "internalType": "uint256",
                  "name": "maturityDate",
                  "type": "uint256"
                }
              ],
              "internalType": "struct IBond.BondDetailsData",
              "name": "bondDetails",
              "type": "tuple"
            },
            {
              "components": [
                {
                  "internalType": "uint256",
                  "name": "couponFrequency",
                  "type": "uint256"
                },
                {
                  "internalType": "uint256",
                  "name": "couponRate",
                  "type": "uint256"
                },
                {
                  "internalType": "uint256",
                  "name": "firstCouponDate",
                  "type": "uint256"
                }
              ],
              "internalType": "struct IBond.CouponDetailsData",
              "name": "couponDetails",
              "type": "tuple"
            }
          ],
          "internalType": "struct IFactory.BondData",
          "name": "_bondData",
          "type": "tuple"
        },
        {
          "components": [
            {
              "internalType": "enum RegulationType",
              "name": "regulationType",
              "type": "uint8"
            },
            {
              "internalType": "enum RegulationSubType",
              "name": "regulationSubType",
              "type": "uint8"
            },
            {
              "components": [
                {
                  "internalType": "bool",
                  "name": "countriesControlListType",
                  "type": "bool"
                },
                {
                  "internalType": "string",
                  "name": "listOfCountries",
                  "type": "string"
                },
                {
                  "internalType": "string",
                  "name": "info",
                  "type": "string"
                }
              ],
              "internalType": "struct AdditionalSecurityData",
              "name": "additionalSecurityData",
              "type": "tuple"
            }
          ],
          "internalType": "struct FactoryRegulationData",
          "name": "_factoryRegulationData",
          "type": "tuple"
        }
      ],
      "name": "deployBond",
      "outputs": [
        {
          "internalType": "address",
          "name": "bondAddress_",
          "type": "address"
        }
      ],
      "stateMutability": "nonpayable",
      "type": "function"
    },
    {
      "inputs": [
        {
          "components": [
            {
              "components": [
                {
                  "internalType": "bool",
                  "name": "arePartitionsProtected",
                  "type": "bool"
                },
                {
                  "internalType": "bool",
                  "name": "isMultiPartition",
                  "type": "bool"
                },
                {
                  "internalType": "contract IBusinessLogicResolver",
                  "name": "resolver",
                  "type": "address"
                },
                {
                  "components": [
                    {
                      "internalType": "bytes32",
                      "name": "key",
                      "type": "bytes32"
                    },
                    {
                      "internalType": "uint256",
                      "name": "version",
                      "type": "uint256"
                    }
                  ],
                  "internalType": "struct IFactory.ResolverProxyConfiguration",
                  "name": "resolverProxyConfiguration",
                  "type": "tuple"
                },
                {
                  "components": [
                    {
                      "internalType": "bytes32",
                      "name": "role",
                      "type": "bytes32"
                    },
                    {
                      "internalType": "address[]",
                      "name": "members",
                      "type": "address[]"
                    }
                  ],
                  "internalType": "struct IResolverProxy.Rbac[]",
                  "name": "rbacs",
                  "type": "tuple[]"
                },
                {
                  "internalType": "bool",
                  "name": "isControllable",
                  "type": "bool"
                },
                {
                  "internalType": "bool",
                  "name": "isWhiteList",
                  "type": "bool"
                },
                {
                  "internalType": "uint256",
                  "name": "maxSupply",
                  "type": "uint256"
                },
                {
                  "components": [
                    {
                      "internalType": "string",
                      "name": "name",
                      "type": "string"
                    },
                    {
                      "internalType": "string",
                      "name": "symbol",
                      "type": "string"
                    },
                    {
                      "internalType": "string",
                      "name": "isin",
                      "type": "string"
                    },
                    {
                      "internalType": "uint8",
                      "name": "decimals",
                      "type": "uint8"
                    }
                  ],
                  "internalType": "struct IERC20.ERC20MetadataInfo",
                  "name": "erc20MetadataInfo",
                  "type": "tuple"
                },
                {
                  "internalType": "bool",
                  "name": "clearingActive",
                  "type": "bool"
                },
                {
                  "internalType": "bool",
                  "name": "internalKycActivated",
                  "type": "bool"
                },
                {
                  "internalType": "address[]",
                  "name": "externalPauses",
                  "type": "address[]"
                },
                {
                  "internalType": "address[]",
                  "name": "externalControlLists",
                  "type": "address[]"
                },
                {
                  "internalType": "address[]",
                  "name": "externalKycLists",
                  "type": "address[]"
                },
                {
                  "internalType": "address",
                  "name": "compliance",
                  "type": "address"
                },
                {
                  "internalType": "address",
                  "name": "identityRegistry",
                  "type": "address"
                }
              ],
              "internalType": "struct IFactory.SecurityData",
              "name": "security",
              "type": "tuple"
            },
            {
              "components": [
                {
                  "internalType": "bool",
                  "name": "votingRight",
                  "type": "bool"
                },
                {
                  "internalType": "bool",
                  "name": "informationRight",
                  "type": "bool"
                },
                {
                  "internalType": "bool",
                  "name": "liquidationRight",
                  "type": "bool"
                },
                {
                  "internalType": "bool",
                  "name": "subscriptionRight",
                  "type": "bool"
                },
                {
                  "internalType": "bool",
                  "name": "conversionRight",
                  "type": "bool"
                },
                {
                  "internalType": "bool",
                  "name": "redemptionRight",
                  "type": "bool"
                },
                {
                  "internalType": "bool",
                  "name": "putRight",
                  "type": "bool"
                },
                {
                  "internalType": "enum IEquity.DividendType",
                  "name": "dividendRight",
                  "type": "uint8"
                },
                {
                  "internalType": "bytes3",
                  "name": "currency",
                  "type": "bytes3"
                },
                {
                  "internalType": "uint256",
                  "name": "nominalValue",
                  "type": "uint256"
                }
              ],
              "internalType": "struct IEquity.EquityDetailsData",
              "name": "equityDetails",
              "type": "tuple"
            }
          ],
          "internalType": "struct IFactory.EquityData",
          "name": "_equityData",
          "type": "tuple"
        },
        {
          "components": [
            {
              "internalType": "enum RegulationType",
              "name": "regulationType",
              "type": "uint8"
            },
            {
              "internalType": "enum RegulationSubType",
              "name": "regulationSubType",
              "type": "uint8"
            },
            {
              "components": [
                {
                  "internalType": "bool",
                  "name": "countriesControlListType",
                  "type": "bool"
                },
                {
                  "internalType": "string",
                  "name": "listOfCountries",
                  "type": "string"
                },
                {
                  "internalType": "string",
                  "name": "info",
                  "type": "string"
                }
              ],
              "internalType": "struct AdditionalSecurityData",
              "name": "additionalSecurityData",
              "type": "tuple"
            }
          ],
          "internalType": "struct FactoryRegulationData",
          "name": "_factoryRegulationData",
          "type": "tuple"
        }
      ],
      "name": "deployEquity",
      "outputs": [
        {
          "internalType": "address",
          "name": "equityAddress_",
          "type": "address"
        }
      ],
      "stateMutability": "nonpayable",
      "type": "function"
    },
    {
      "inputs": [
        {
          "internalType": "enum RegulationType",
          "name": "_regulationType",
          "type": "uint8"
        },
        {
          "internalType": "enum RegulationSubType",
          "name": "_regulationSubType",
          "type": "uint8"
        }
      ],
      "name": "getAppliedRegulationData",
      "outputs": [
        {
          "components": [
            {
              "internalType": "enum RegulationType",
              "name": "regulationType",
              "type": "uint8"
            },
            {
              "internalType": "enum RegulationSubType",
              "name": "regulationSubType",
              "type": "uint8"
            },
            {
              "internalType": "uint256",
              "name": "dealSize",
              "type": "uint256"
            },
            {
              "internalType": "enum AccreditedInvestors",
              "name": "accreditedInvestors",
              "type": "uint8"
            },
            {
              "internalType": "uint256",
              "name": "maxNonAccreditedInvestors",
              "type": "uint256"
            },
            {
              "internalType": "enum ManualInvestorVerification",
              "name": "manualInvestorVerification",
              "type": "uint8"
            },
            {
              "internalType": "enum InternationalInvestors",
              "name": "internationalInvestors",
              "type": "uint8"
            },
            {
              "internalType": "enum ResaleHoldPeriod",
              "name": "resaleHoldPeriod",
              "type": "uint8"
            }
          ],
          "internalType": "struct RegulationData",
          "name": "regulationData_",
          "type": "tuple"
        }
      ],
      "stateMutability": "pure",
      "type": "function"
    }
  ],
  "bytecode": "0x608060405234801561001057600080fd5b50612c53806100206000396000f3fe60806040523480156200001157600080fd5b5060043610620000465760003560e01c80637b5208d0146200004b578063b6e0e4ac146200007a578063f9f90e8914620000a0575b600080fd5b620000626200005c36600462001545565b620000b7565b60405162000071919062001651565b60405180910390f35b620000916200008b3660046200167b565b620000d4565b604051620000719190620016ed565b62000091620000b136600462001701565b6200046d565b620000c1620014d0565b620000cd8383620007d5565b9392505050565b6000620000e2838062001743565b620000f590606081019060400162001788565b6001600160a01b0381166200012a578060405163840a201160e01b8152600401620001219190620016ed565b60405180910390fd5b62000136848062001743565b6200014790610120810190620017a8565b62000157906040810190620017bf565b620001638282620008d9565b6200016f868062001743565b6200017f9060a08101906200180f565b6000805b82811015620002f8576000848483818110620001a357620001a36200185b565b9050602002810190620001b7919062001871565b3503620002e3576000848483818110620001d557620001d56200185b565b9050602002810190620001e9919062001871565b620001f99060208101906200180f565b90501115620002e35760005b8484838181106200021a576200021a6200185b565b90506020028101906200022e919062001871565b6200023e9060208101906200180f565b9050811015620002db5760008585848181106200025f576200025f6200185b565b905060200281019062000273919062001871565b620002839060208101906200180f565b838181106200029657620002966200185b565b9050602002016020810190620002ad919062001788565b6001600160a01b031614620002c65760019250620002db565b80620002d2816200189e565b91505062000205565b5081620002f8575b80620002ef816200189e565b91505062000183565b50806200031857604051630b845f7f60e01b815260040160405180910390fd5b620003276020890189620018ba565b6200033960408a0160208b01620018ba565b620003458282620008f5565b6200035d620003558c8062001743565b60006200092a565b9850886001600160a01b031663fe8d48bf8c6020018d60a001620003aa8e60000160208101906200038f9190620018ba565b8f6020016020810190620003a49190620018ba565b620007d5565b8e8060400190620003bc9190620018da565b6040518563ffffffff1660e01b8152600401620003dd949392919062001a3a565b600060405180830381600087803b158015620003f857600080fd5b505af11580156200040d573d6000803e3d6000fd5b50505050620004193390565b6001600160a01b03167fe8d256e0a8ce58624b69ddfe27952a3dfe1586733ac4f7f0a9547729e372c98f8a8d8d604051620004579392919062001ee0565b60405180910390a2505050505050505092915050565b60006200047b838062001743565b6200048e90606081019060400162001788565b6001600160a01b038116620004ba578060405163840a201160e01b8152600401620001219190620016ed565b620004c6848062001743565b620004d790610120810190620017a8565b620004e7906040810190620017bf565b620004f38282620008d9565b620004ff868062001743565b6200050f9060a08101906200180f565b6000805b82811015620006885760008484838181106200053357620005336200185b565b905060200281019062000547919062001871565b3503620006735760008484838181106200056557620005656200185b565b905060200281019062000579919062001871565b620005899060208101906200180f565b90501115620006735760005b848483818110620005aa57620005aa6200185b565b9050602002810190620005be919062001871565b620005ce9060208101906200180f565b90508110156200066b576000858584818110620005ef57620005ef6200185b565b905060200281019062000603919062001871565b620006139060208101906200180f565b838181106200062657620006266200185b565b90506020020160208101906200063d919062001788565b6001600160a01b0316146200065657600192506200066b565b8062000662816200189e565b91505062000595565b508162000688575b806200067f816200189e565b91505062000513565b5080620006a857604051630b845f7f60e01b815260040160405180910390fd5b620006b76020890189620018ba565b620006c960408a0160208b01620018ba565b620006d58282620008f5565b620006ed620006e58c8062001743565b60016200092a565b98506001600160a01b03891663d34090aa6020808e01906200072c9062000717908f018f620018ba565b8e6020016020810190620003a49190620018ba565b6200073b60408f018f620018da565b6040518463ffffffff1660e01b81526004016200075b939291906200204c565b600060405180830381600087803b1580156200077657600080fd5b505af11580156200078b573d6000803e3d6000fd5b50505050620007973390565b6001600160a01b03167f1f804ff0fae42595013853811a014152741bf2913dfa4bc70f2df3de92100ebb8a8d8d604051620004579392919062002082565b620007df620014d0565b60405180610100016040528084600281111562000800576200080062001583565b81526020018360028111156200081a576200081a62001583565b81526020016200082b85856200101c565b81526020016200083c858562001074565b600181111562000850576200085062001583565b8152602001620008618585620010cb565b815260200162000872858562001074565b600181111562000886576200088662001583565b815260200162000897858562001119565b6001811115620008ab57620008ab62001583565b8152602001620008bc858562001141565b6001811115620008d057620008d062001583565b90529392505050565b620008e5828262001169565b620008f1828262001191565b5050565b6200090182826200124b565b156200090b575050565b818160405163fcaaa69160e01b815260040162000121929190620020e3565b6000806200093f606085016040860162001788565b606085013560808601356200095860a08801886200180f565b604051620009669062001514565b620009769594939291906200210d565b604051809103906000f08015801562000993573d6000803e3d6000fd5b5091508190506001600160a01b03811663f88bd9f2620009bb610100870160e088016200213d565b6040518263ffffffff1660e01b8152600401620009dc911515815260200190565b600060405180830381600087803b158015620009f757600080fd5b505af115801562000a0c573d6000803e3d6000fd5b5050506001600160a01b0383169050637b1df19662000a3260408701602088016200213d565b6040518263ffffffff1660e01b815260040162000a53911515815260200190565b600060405180830381600087803b15801562000a6e57600080fd5b505af115801562000a83573d6000803e3d6000fd5b5050506001600160a01b038316905063aa4ea38e62000aa960e0870160c088016200213d565b6040518263ffffffff1660e01b815260040162000aca911515815260200190565b600060405180830381600087803b15801562000ae557600080fd5b505af115801562000afa573d6000803e3d6000fd5b50505050600060405180604001604052808680610120019062000b1e9190620017a8565b62000b299062002207565b815260200185600181111562000b435762000b4362001583565b905260405163e04fb23560e01b81529091506001600160a01b0384169063e04fb2359062000b7690849060040162002319565b600060405180830381600087803b15801562000b9157600080fd5b505af115801562000ba6573d6000803e3d6000fd5b50505050826001600160a01b0316639be12cea6040518163ffffffff1660e01b8152600401600060405180830381600087803b15801562000be657600080fd5b505af115801562000bfb573d6000803e3d6000fd5b5050604080516000808252602082019092526001600160a01b03871693506356210c4e92506101008901359162000c55565b604080518082019091526000808252602082015281526020019060019003908162000c2d5790505b506040518363ffffffff1660e01b815260040162000c75929190620023af565b600060405180830381600087803b15801562000c9057600080fd5b505af115801562000ca5573d6000803e3d6000fd5b5050506001600160a01b03841690506390c032cc62000cc860208801886200213d565b6040518263ffffffff1660e01b815260040162000ce9911515815260200190565b6020604051808303816000875af115801562000d09573d6000803e3d6000fd5b505050506040513d601f19601f8201168201806040525081019062000d2f919062002409565b506001600160a01b0383166386a0b46a62000d53610160880161014089016200213d565b6040518263ffffffff1660e01b815260040162000d74911515815260200190565b600060405180830381600087803b15801562000d8f57600080fd5b505af115801562000da4573d6000803e3d6000fd5b5050506001600160a01b0384169050638f88d0d562000dc86101808801886200180f565b6040518363ffffffff1660e01b815260040162000de792919062002429565b600060405180830381600087803b15801562000e0257600080fd5b505af115801562000e17573d6000803e3d6000fd5b5050506001600160a01b0384169050630a0a114f62000e3b6101a08801886200180f565b6040518363ffffffff1660e01b815260040162000e5a92919062002429565b600060405180830381600087803b15801562000e7557600080fd5b505af115801562000e8a573d6000803e3d6000fd5b5050506001600160a01b038416905063df35362462000eb2610180880161016089016200213d565b6040518263ffffffff1660e01b815260040162000ed3911515815260200190565b600060405180830381600087803b15801562000eee57600080fd5b505af115801562000f03573d6000803e3d6000fd5b5050506001600160a01b0384169050633ac7fadc62000f276101c08801886200180f565b6040518363ffffffff1660e01b815260040162000f4692919062002429565b600060405180830381600087803b15801562000f6157600080fd5b505af115801562000f76573d6000803e3d6000fd5b5050506001600160a01b038416905063c047bb6c62000f9e61020088016101e0890162001788565b62000fb261022089016102008a0162001788565b6040516001600160e01b031960e085901b1681526001600160a01b03928316600482015291166024820152604401600060405180830381600087803b15801562000ffb57600080fd5b505af115801562001010573d6000803e3d6000fd5b50505050505092915050565b6000600183600281111562001035576200103562001583565b0362001044575060006200106e565b60018260028111156200105b576200105b62001583565b036200106a575060006200106e565b5060005b92915050565b600060018360028111156200108d576200108d62001583565b036200109c575060016200106e565b6001826002811115620010b357620010b362001583565b03620010c2575060016200106e565b50600192915050565b60006001836002811115620010e457620010e462001583565b03620010f3575060006200106e565b60018260028111156200110a576200110a62001583565b036200106a575060236200106e565b6000600183600281111562001132576200113262001583565b0362001044575060016200106e565b600060018360028111156200115a576200115a62001583565b036200109c575060006200106e565b600c8114620008f157818160405163df749cc560e01b8152600401620001219291906200247b565b600082828080601f0160208091040260200160405190810160405280939291908181526020018383808284376000920182905250939450839250620011da91508490506200126c565b91509150620011ea82826200137b565b60ff166200121c84600b815181106200120757620012076200185b565b01602001516001600160f81b0319166200141f565b60ff16146200124457848460405163342c92db60e01b8152600401620001219291906200247b565b5050505050565b60006200125983836200144d565b80620000cd5750620000cd83836200148e565b6040805160168082526102e0820190925260609160009190602082016102c08036833701905050915060005b600b81101562001375576000620012bd8583815181106200120757620012076200185b565b9050600960ff821611156200133957600a60ff821604848460ff1681518110620012eb57620012eb6200185b565b60ff9283166020918202929092010152600a90821606848460010194508460ff16815181106200131f576200131f6200185b565b602002602001019060ff16908160ff168152505062001367565b80848460ff16815181106200135257620013526200185b565b602002602001019060ff16908160ff16815250505b506001918201910162001298565b50915091565b600060018281011681805b8460ff168110156200140d576000836002830614620013a7576001620013aa565b60025b878381518110620013bf57620013bf6200185b565b6020026020010151029050600960ff168160ff161115620013fa57600a60ff82811682810490911694909401930660ff168301925062001403565b8060ff16830192505b5060010162001386565b50600a80820681030695945050505050565b60f881901c6039811162001440576200143a60308262002491565b6200106e565b6200106e60378262002491565b6000600183600281111562001466576200146662001583565b148015620000cd5750600082600281111562001486576200148662001583565b149392505050565b60006002836002811115620014a757620014a762001583565b148015620000cd57506000826002811115620014c757620014c762001583565b14159392505050565b604080516101008101825260008082526020820181905291810182905260608101829052608081018290529060a08201908152602001600081526020016000905290565b61077080620024ae83390190565b600381106200153057600080fd5b50565b8035620015408162001522565b919050565b600080604083850312156200155957600080fd5b8235620015668162001522565b91506020830135620015788162001522565b809150509250929050565b634e487b7160e01b600052602160045260246000fd5b6003811062001530576200153062001583565b6002811062001530576200153062001583565b8051620015cc8162001599565b82526020810151620015de8162001599565b6020830152604081810151908301526060810151620015fd81620015ac565b60608301526080818101519083015260a08101516200161c81620015ac565b60a083015260c08101516200163181620015ac565b60c083015260e08101516200164681620015ac565b8060e0840152505050565b61010081016200106e8284620015bf565b6000606082840312156200167557600080fd5b50919050565b600080604083850312156200168f57600080fd5b82356001600160401b0380821115620016a757600080fd5b908401906101008287031215620016bd57600080fd5b90925060208401359080821115620016d457600080fd5b50620016e38582860162001662565b9150509250929050565b6001600160a01b0391909116815260200190565b600080604083850312156200171557600080fd5b82356001600160401b03808211156200172d57600080fd5b908401906101608287031215620016bd57600080fd5b6000823561021e198336030181126200175b57600080fd5b9190910192915050565b6001600160a01b03811681146200153057600080fd5b8035620015408162001765565b6000602082840312156200179b57600080fd5b8135620000cd8162001765565b60008235607e198336030181126200175b57600080fd5b6000808335601e19843603018112620017d757600080fd5b8301803591506001600160401b03821115620017f257600080fd5b6020019150368190038213156200180857600080fd5b9250929050565b6000808335601e198436030181126200182757600080fd5b8301803591506001600160401b038211156200184257600080fd5b6020019150600581901b36038213156200180857600080fd5b634e487b7160e01b600052603260045260246000fd5b60008235603e198336030181126200175b57600080fd5b634e487b7160e01b600052601160045260246000fd5b600060018201620018b357620018b362001888565b5060010190565b600060208284031215620018cd57600080fd5b8135620000cd8162001522565b60008235605e198336030181126200175b57600080fd5b80356001600160e81b0319811681146200154057600080fd5b6001600160e81b03196200191e82620018f1565b1682526020810135602083015260408101356040830152606081013560608301525050565b80151581146200153057600080fd5b8035620015408162001943565b6000808335601e198436030181126200197757600080fd5b83016020810192503590506001600160401b038111156200199757600080fd5b8036038213156200180857600080fd5b81835281816020850137506000828201602090810191909152601f909101601f19169091010190565b60008135620019df8162001943565b15158352620019f260208301836200195f565b6060602086015262001a09606086018284620019a7565b91505062001a1b60408401846200195f565b858303604087015262001a30838284620019a7565b9695505050505050565b600061020062001a4b83886200190a565b85356080840152602086013560a0840152604086013560c084015262001a7560e0840186620015bf565b806101e084015262001a8a81840185620019d0565b979650505050505050565b6000823561021e1983360301811262001aad57600080fd5b90910192915050565b6000808335601e1984360301811262001ace57600080fd5b83016020810192503590506001600160401b0381111562001aee57600080fd5b8060051b36038213156200180857600080fd5b8183526000602080850194508260005b8581101562001b4357813562001b278162001765565b6001600160a01b03168752958201959082019060010162001b11565b509495945050505050565b81835260006020808501808196508560051b81019150846000805b8881101562001bcd578385038a528235603e1989360301811262001b8b578283fd5b880180358652604062001ba18883018362001ab6565b9250818989015262001bb7828901848362001b01565b9c89019c97505050928601925060010162001b69565b509298975050505050505050565b60008235607e1983360301811262001aad57600080fd5b803560ff811681146200154057600080fd5b600062001c1282836200195f565b6080855262001c26608086018284620019a7565b91505062001c3860208401846200195f565b858303602087015262001c4d838284620019a7565b9250505062001c6060408401846200195f565b858303604087015262001c75838284620019a7565b9250505060ff62001c896060850162001bf2565b1660608501528091505092915050565b600061022062001cb48462001cae8562001952565b15159052565b62001cc26020840162001952565b1515602085015262001cd7604084016200177b565b6001600160a01b03166040850152606083810135908501526080808401359085015262001d0860a084018462001ab6565b8260a087015262001d1d838701828462001b4e565b9250505062001d2f60c0840162001952565b151560c085015262001d4460e0840162001952565b151560e0850152610100838101359085015261012062001d678185018562001bdb565b8583038287015262001d7a838262001c04565b9250505061014062001d8e81850162001952565b15159085015261016062001da484820162001952565b15159085015261018062001dbb8482018562001ab6565b8684038388015262001dcf84828462001b01565b93505050506101a062001de58185018562001ab6565b8684038388015262001df984828462001b01565b93505050506101c062001e0f8185018562001ab6565b8684038388015262001e2384828462001b01565b93505050506101e062001e388185016200177b565b6001600160a01b03169085015261020062001e558482016200177b565b6001600160a01b03169401939093525090919050565b6000813562001e7a8162001522565b62001e858162001599565b8352602082013562001e978162001522565b62001ea28162001599565b6020840152604082013536839003605e1901811262001ec057600080fd5b6060604085015262001ed860608501848301620019d0565b949350505050565b6001600160a01b038416815260606020820152600062001f01848062001a95565b61010080606085015262001f1a61016085018362001c99565b915062001f2e60808501602088016200190a565b62001f5281850160a088018035825260208082013590830152604090810135910152565b50828103604084015262001a30818562001e6b565b62001f728162001599565b9052565b62001f868262001cae8362001952565b62001f946020820162001952565b1515602083015262001fa96040820162001952565b1515604083015262001fbe6060820162001952565b1515606083015262001fd36080820162001952565b1515608083015262001fe860a0820162001952565b151560a083015262001ffd60c0820162001952565b151560c08301526200201260e0820162001533565b6200202160e084018262001f67565b5061010062002032818301620018f1565b6001600160e81b0319169083015261012090810135910152565b60006102606200205d838762001f76565b6200206d610140840186620015bf565b8061024084015262001a3081840185620019d0565b6001600160a01b0384168152606060208201526000620020a3848062001a95565b6101606060840152620020bb6101c084018262001c99565b9050620020cf608084016020870162001f76565b828103604084015262001a30818562001e6b565b60408101620020f28462001599565b838252620021008362001599565b8260208301529392505050565b60018060a01b038616815284602082015283604082015260806060820152600062001a8a60808301848662001b4e565b6000602082840312156200215057600080fd5b8135620000cd8162001943565b634e487b7160e01b600052604160045260246000fd5b600082601f8301126200218557600080fd5b81356001600160401b0380821115620021a257620021a26200215d565b604051601f8301601f19908116603f01168101908282118183101715620021cd57620021cd6200215d565b81604052838152866020858801011115620021e757600080fd5b836020870160208301376000602085830101528094505050505092915050565b6000608082360312156200221a57600080fd5b604051608081016001600160401b0382821081831117156200224057620022406200215d565b8160405284359150808211156200225657600080fd5b620022643683870162002173565b835260208501359150808211156200227b57600080fd5b620022893683870162002173565b60208401526040850135915080821115620022a357600080fd5b50620022b23682860162002173565b604083015250620022c66060840162001bf2565b606082015292915050565b6000815180845260005b81811015620022f957602081850181015186830182015201620022db565b506000602082860101526020601f19601f83011685010191505092915050565b6020815260008251604060208401528051608060608501526200234060e0850182620022d1565b90506020820151605f1980868403016080870152620023608383620022d1565b925060408401519150808684030160a087015250620023808282620022d1565b91505060ff60608301511660c085015260208501519150620023a282620015ac565b6040939093015250919050565b6000604080830185845260208281860152818651808452606087019150828801935060005b81811015620023fb57845180518452840151848401529383019391850191600101620023d4565b509098975050505050505050565b6000602082840312156200241c57600080fd5b8151620000cd8162001943565b60208082528181018390526000908460408401835b8681101562002470578235620024548162001765565b6001600160a01b0316825291830191908301906001016200243e565b509695505050505050565b60208152600062001ed8602083018486620019a7565b60ff82811682821603908111156200106e576200106e6200188856fe60806040526040516107703803806107708339810160408190526100229161037c565b61002e84848484610037565b50505050610557565b6040516362cacc9560e11b815260048101849052602481018390526001600160a01b0385169063c595992a90604401600060405180830381600087803b15801561008057600080fd5b505af1158015610094573d6000803e3d6000fd5b5050505060006100a86100e160201b60201c565b80546001600160a01b0319166001600160a01b038716178155905060018101849055600281018390556100da82610105565b5050505050565b7f4833864335c8f29dd85e3f7a36869cb90d5dc7167ae5000f7e1ce4d7c15d14ad90565b60005b81518110156101c35760005b8282815181106101265761012661051a565b602002602001015160200151518110156101b05761019d83838151811061014f5761014f61051a565b60200260200101516000015184848151811061016d5761016d61051a565b602002602001015160200151838151811061018a5761018a61051a565b60200260200101516101c760201b60201c565b50806101a881610530565b915050610114565b50806101bb81610530565b915050610108565b5050565b60006101f47f4765bbd856d800638d39a79262ebc6fdfb5833d0e59f32c5d482fe4c4a3554c184846101fb565b9392505050565b6000828152602084815260408220610222916001909101908490610138610261821b17901c565b801561025957506001600160a01b0382166000908152600185016020908152604090912061025991859061014d61027c821b17901c565b949350505050565b60006101f4836001600160a01b038416610284565b92915050565b60006101f483835b60008181526001830160205260408120546102cb57508154600181810184556000848152602080822090930184905584548482528286019093526040902091909155610276565b506000610276565b6001600160a01b03811681146102e857600080fd5b50565b634e487b7160e01b600052604160045260246000fd5b604080519081016001600160401b0381118282101715610323576103236102eb565b60405290565b604051601f8201601f191681016001600160401b0381118282101715610351576103516102eb565b604052919050565b60006001600160401b03821115610372576103726102eb565b5060051b60200190565b6000806000806080858703121561039257600080fd5b845161039d816102d3565b60208601516040870151606088015192965090945092506001600160401b038111156103c857600080fd5b8501601f810187136103d957600080fd5b80516103ec6103e782610359565b610329565b808282526020820191508960208460051b860101111561040b57600080fd5b602084015b60208460051b86010181101561050b5780516001600160401b0381111561043657600080fd5b60408682018d03601f1901121561044c57600080fd5b610454610301565b86820160208101518252604001516001600160401b0381111561047657600080fd5b80838901019250508c603f83011261048d57600080fd5b602082015161049e6103e782610359565b808282526020820191508f60408460051b87010111156104bd57600080fd5b604085015b60408460051b8701018110156104eb5780516104dd816102d3565b8352602092830192016104c2565b508060208501525050508085525050602083019250602081019050610410565b50969995985093965050505050565b634e487b7160e01b600052603260045260246000fd5b60006001820161055057634e487b7160e01b600052601160045260246000fd5b5060010190565b61020a806105666000396000f3fe60806040523661000b57005b60006100437f4833864335c8f29dd85e3f7a36869cb90d5dc7167ae5000f7e1ce4d7c15d14ad6000356001600160e01b0319166100a2565b90506001600160a01b03811661007e57604051630a82dd7360e31b81526001600160e01b031960003516600482015260240160405180910390fd5b3660008037600080366000845af43d6000803e80801561009d573d6000f35b3d6000fd5b8154600183015460028401546040516305cf613160e51b8152600481019290925260248201526001600160e01b0319831660448201526000916001600160a01b03169063b9ec262090606401602060405180830381865afa15801561010b573d6000803e3d6000fd5b505050506040513d601f19601f8201168201806040525081019061012f91906101a4565b90505b92915050565b600061012f836001600160a01b038416610155565b600061012f83835b600081815260018301602052604081205461019c57508154600181810184556000848152602080822090930184905584548482528286019093526040902091909155610132565b506000610132565b6000602082840312156101b657600080fd5b81516001600160a01b03811681146101cd57600080fd5b939250505056fea2646970667358221220aae540b9d89d27668d9d8e0ad75ce7e735e87328baac9700ca0c65cffdde08d564736f6c63430008120033a26469706673582212208d848486c83e61dd21ac814f89288d67e768fab8d13860098219af805b61c4f964736f6c63430008120033",
  "linkReferences": {},
  "deployedLinkReferences": {}
}